{
  "_format": "hh-sol-artifact-1",
  "contractName": "DebtDistribution",
  "sourceName": "contracts/DebtDistribution.sol",
  "abi": [
    {
      "anonymous": false,
      "inputs": [
        {
          "indexed": true,
          "internalType": "address",
          "name": "debtSystemAddress",
          "type": "address"
        },
        {
          "indexed": true,
          "internalType": "bytes32",
          "name": "collteralSymbol",
          "type": "bytes32"
        }
      ],
      "name": "CollateralRegistered",
      "type": "event"
    },
    {
      "anonymous": false,
      "inputs": [
        {
          "indexed": true,
          "internalType": "address",
          "name": "debtSystemAddress",
          "type": "address"
        },
        {
          "indexed": true,
          "internalType": "bytes32",
          "name": "collteralSymbol",
          "type": "bytes32"
        },
        {
          "indexed": false,
          "internalType": "uint256",
          "name": "newCollateralProportion",
          "type": "uint256"
        },
        {
          "indexed": false,
          "internalType": "uint256",
          "name": "newGlobalDebtFactor",
          "type": "uint256"
        }
      ],
      "name": "DebtUpdated",
      "type": "event"
    },
    {
      "anonymous": false,
      "inputs": [
        {
          "indexed": true,
          "internalType": "address",
          "name": "previousOwner",
          "type": "address"
        },
        {
          "indexed": true,
          "internalType": "address",
          "name": "newOwner",
          "type": "address"
        }
      ],
      "name": "OwnershipTransferred",
      "type": "event"
    },
    {
      "inputs": [
        {
          "internalType": "contract ILnAssetSystem",
          "name": "_assetRegistry",
          "type": "address"
        }
      ],
      "name": "__DebtDistribution_init",
      "outputs": [],
      "stateMutability": "nonpayable",
      "type": "function"
    },
    {
      "inputs": [
        {
          "internalType": "address",
          "name": "_contractAddress",
          "type": "address"
        },
        {
          "internalType": "bytes32",
          "name": "_collateralSymbol",
          "type": "bytes32"
        }
      ],
      "name": "addCollateral",
      "outputs": [],
      "stateMutability": "nonpayable",
      "type": "function"
    },
    {
      "inputs": [],
      "name": "assetRegistry",
      "outputs": [
        {
          "internalType": "contract ILnAssetSystem",
          "name": "",
          "type": "address"
        }
      ],
      "stateMutability": "view",
      "type": "function"
    },
    {
      "inputs": [
        {
          "internalType": "address",
          "name": "",
          "type": "address"
        }
      ],
      "name": "collateralDebtData",
      "outputs": [
        {
          "internalType": "uint256",
          "name": "debtProportion",
          "type": "uint256"
        },
        {
          "internalType": "uint256",
          "name": "debtFactor",
          "type": "uint256"
        }
      ],
      "stateMutability": "view",
      "type": "function"
    },
    {
      "inputs": [
        {
          "internalType": "address",
          "name": "",
          "type": "address"
        }
      ],
      "name": "collateralSymbols",
      "outputs": [
        {
          "internalType": "bytes32",
          "name": "",
          "type": "bytes32"
        }
      ],
      "stateMutability": "view",
      "type": "function"
    },
    {
      "inputs": [
        {
          "internalType": "uint256",
          "name": "_amount",
          "type": "uint256"
        }
      ],
      "name": "decreaseDebt",
      "outputs": [],
      "stateMutability": "nonpayable",
      "type": "function"
    },
    {
      "inputs": [
        {
          "internalType": "address",
          "name": "_debtSystem",
          "type": "address"
        }
      ],
      "name": "getCollateralDebtBalanceByDebtSystemAddress",
      "outputs": [
        {
          "internalType": "uint256",
          "name": "",
          "type": "uint256"
        }
      ],
      "stateMutability": "view",
      "type": "function"
    },
    {
      "inputs": [],
      "name": "globalDebtFactor",
      "outputs": [
        {
          "internalType": "uint256",
          "name": "",
          "type": "uint256"
        }
      ],
      "stateMutability": "view",
      "type": "function"
    },
    {
      "inputs": [
        {
          "internalType": "uint256",
          "name": "_amount",
          "type": "uint256"
        }
      ],
      "name": "increaseDebt",
      "outputs": [],
      "stateMutability": "nonpayable",
      "type": "function"
    },
    {
      "inputs": [],
      "name": "owner",
      "outputs": [
        {
          "internalType": "address",
          "name": "",
          "type": "address"
        }
      ],
      "stateMutability": "view",
      "type": "function"
    },
    {
      "inputs": [],
      "name": "renounceOwnership",
      "outputs": [],
      "stateMutability": "nonpayable",
      "type": "function"
    },
    {
      "inputs": [
        {
          "internalType": "address",
          "name": "newOwner",
          "type": "address"
        }
      ],
      "name": "transferOwnership",
      "outputs": [],
      "stateMutability": "nonpayable",
      "type": "function"
    }
  ],
  "bytecode": "0x608060405234801561001057600080fd5b50610f43806100206000396000f3fe608060405234801561001057600080fd5b50600436106100b45760003560e01c8063715018a611610071578063715018a61461019a5780638da5cb5b146101a257806391e5fc8f146101c6578063979d7e86146101f2578063ac51c02b146101fa578063f2fde38b14610220576100b4565b8063262ea62f146100b95780632a7ba1f7146100f85780632b7c7b111461011757806340d1f1341461013457806356e94b141461014e578063596170e614610174575b600080fd5b6100df600480360360208110156100cf57600080fd5b50356001600160a01b0316610246565b6040805192835260208301919091528051918290030190f35b6101156004803603602081101561010e57600080fd5b503561025f565b005b6101156004803603602081101561012d57600080fd5b50356102b7565b61013c61030c565b60408051918252519081900360200190f35b61013c6004803603602081101561016457600080fd5b50356001600160a01b0316610312565b6101156004803603602081101561018a57600080fd5b50356001600160a01b0316610326565b610115610447565b6101aa610505565b604080516001600160a01b039092168252519081900360200190f35b610115600480360360408110156101dc57600080fd5b506001600160a01b038135169060200135610514565b6101aa6105cf565b61013c6004803603602081101561021057600080fd5b50356001600160a01b03166105de565b6101156004803603602081101561023657600080fd5b50356001600160a01b03166105f0565b6067602052600090815260409020805460019091015482565b336000908152606560205260409020546102aa5760405162461bcd60e51b8152600401808060200182810382526023815260200180610e9c6023913960400191505060405180910390fd5b6102b43382610705565b50565b336000908152606560205260409020546103025760405162461bcd60e51b8152600401808060200182810382526023815260200180610e9c6023913960400191505060405180910390fd5b6102b43382610789565b60665481565b60008061031e836107fe565b509392505050565b600054610100900460ff168061033f575061033f61090e565b8061034d575060005460ff16155b6103885760405162461bcd60e51b815260040180806020018281038252602e815260200180610ebf602e913960400191505060405180910390fd5b600054610100900460ff161580156103b3576000805460ff1961ff0019909116610100171660011790555b6103bb61091f565b6001600160a01b038216610416576040805162461bcd60e51b815260206004820152601e60248201527f44656274446973747269627574696f6e3a207a65726f20616464726573730000604482015290519081900360640190fd5b606880546001600160a01b0319166001600160a01b0384161790558015610443576000805461ff00191690555b5050565b61044f6109d0565b6001600160a01b0316610460610505565b6001600160a01b0316146104bb576040805162461bcd60e51b815260206004820181905260248201527f4f776e61626c653a2063616c6c6572206973206e6f7420746865206f776e6572604482015290519081900360640190fd5b6033546040516000916001600160a01b0316907f8be0079c531659141344cd1fd0a4f28419497f9722a3daafe3b4186f6b6457e0908390a3603380546001600160a01b0319169055565b6033546001600160a01b031690565b61051c6109d0565b6001600160a01b031661052d610505565b6001600160a01b031614610588576040805162461bcd60e51b815260206004820181905260248201527f4f776e61626c653a2063616c6c6572206973206e6f7420746865206f776e6572604482015290519081900360640190fd5b6001600160a01b038216600081815260656020526040808220849055518392917fb48befc8d6453c0722887a343a5d9bca8edbf901a2b8ed6c7c981d02564c911991a35050565b6068546001600160a01b031681565b60656020526000908152604090205481565b6105f86109d0565b6001600160a01b0316610609610505565b6001600160a01b031614610664576040805162461bcd60e51b815260206004820181905260248201527f4f776e61626c653a2063616c6c6572206973206e6f7420746865206f776e6572604482015290519081900360640190fd5b6001600160a01b0381166106a95760405162461bcd60e51b8152600401808060200182810382526026815260200180610e766026913960400191505060405180910390fd5b6033546040516001600160a01b038084169216907f8be0079c531659141344cd1fd0a4f28419497f9722a3daafe3b4186f6b6457e090600090a3603380546001600160a01b0319166001600160a01b0392909216919091179055565b600080610711846107fe565b9092509050600061072283856109d4565b9050600061073083866109d4565b9050600061073e8383610a36565b9050600082156107705760006107548885610a36565b905061076881610762610a56565b90610a66565b915050610774565b5060005b61077f888383610ac0565b5050505050505050565b600080610795846107fe565b909250905060006107a68385610a66565b905060006107b48386610a66565b905060006107c28683610a36565b905060006107d08484610a36565b905060006107e6836107e0610a56565b906109d4565b90506107f3898383610ac0565b505050505050505050565b600080606860009054906101000a90046001600160a01b03166001600160a01b031663f5d129896040518163ffffffff1660e01b815260040160206040518083038186803b15801561084f57600080fd5b505afa158015610863573d6000803e3d6000fd5b505050506040513d602081101561087957600080fd5b50516001600160a01b0384166000908152606760205260409020549091508015610908576001600160a01b0384166000908152606760205260408120600101546066549091906108ec9084906108e6908590156108d8576066546108e0565b6108e0610a56565b90610a36565b90610b6e565b90506109036108fe826108e687610b87565b610b97565b945050505b50915091565b600061091930610bb9565b15905090565b600054610100900460ff1680610938575061093861090e565b80610946575060005460ff16155b6109815760405162461bcd60e51b815260040180806020018281038252602e815260200180610ebf602e913960400191505060405180910390fd5b600054610100900460ff161580156109ac576000805460ff1961ff0019909116610100171660011790555b6109b4610bbf565b6109bc610c5f565b80156102b4576000805461ff001916905550565b3390565b600082821115610a2b576040805162461bcd60e51b815260206004820152601e60248201527f536166654d6174683a207375627472616374696f6e206f766572666c6f770000604482015290519081900360640190fd5b508082035b92915050565b6000610a4f83836b033b2e3c9fd0803ce8000000610d58565b9392505050565b6b033b2e3c9fd0803ce800000090565b600082820183811015610a4f576040805162461bcd60e51b815260206004820152601b60248201527f536166654d6174683a206164646974696f6e206f766572666c6f770000000000604482015290519081900360640190fd5b6000606654600014610ade57606654610ad99083610b6e565b610ae6565b610ae6610a56565b606681905560408051808201825285815260208082018481526001600160a01b0389166000818152606784528581209451855591516001909401939093556065825283902054835188815291820185905283519495509391927f368e2cd3d1a0b19d78c3369f9991e88ca2930efe5f129819ebc4a800d4e5321f92918290030190a350505050565b6000610a4f83836b033b2e3c9fd0803ce8000000610d90565b6000610a3082633b9aca00610db5565b60006305f5e10082046005600a820610610baf57600a015b600a900492915050565b3b151590565b600054610100900460ff1680610bd85750610bd861090e565b80610be6575060005460ff16155b610c215760405162461bcd60e51b815260040180806020018281038252602e815260200180610ebf602e913960400191505060405180910390fd5b600054610100900460ff161580156109bc576000805460ff1961ff00199091166101001716600117905580156102b4576000805461ff001916905550565b600054610100900460ff1680610c785750610c7861090e565b80610c86575060005460ff16155b610cc15760405162461bcd60e51b815260040180806020018281038252602e815260200180610ebf602e913960400191505060405180910390fd5b600054610100900460ff16158015610cec576000805460ff1961ff0019909116610100171660011790555b6000610cf66109d0565b603380546001600160a01b0319166001600160a01b038316908117909155604051919250906000907f8be0079c531659141344cd1fd0a4f28419497f9722a3daafe3b4186f6b6457e0908290a35080156102b4576000805461ff001916905550565b600080610d7284610d6c87600a8702610db5565b90610e0e565b90506005600a825b0610610d8457600a015b600a9004949350505050565b600080600a8304610da18686610db5565b81610da857fe5b0490506005600a82610d7a565b600082610dc457506000610a30565b82820282848281610dd157fe5b0414610a4f5760405162461bcd60e51b8152600401808060200182810382526021815260200180610eed6021913960400191505060405180910390fd5b6000808211610e64576040805162461bcd60e51b815260206004820152601a60248201527f536166654d6174683a206469766973696f6e206279207a65726f000000000000604482015290519081900360640190fd5b818381610e6d57fe5b04939250505056fe4f776e61626c653a206e6577206f776e657220697320746865207a65726f206164647265737344656274446973747269627574696f6e3a207065726d697373696f6e2064656e696564496e697469616c697a61626c653a20636f6e747261637420697320616c726561647920696e697469616c697a6564536166654d6174683a206d756c7469706c69636174696f6e206f766572666c6f77a2646970667358221220bb4798e509258d55374f047480495f445bdc74e2aabed4f8c3c31b81e8d0ad9f64736f6c63430007060033",
  "linkReferences": {},
  "deployedLinkReferences": {}
}