{
  "_format": "hh-sol-artifact-1",
  "contractName": "LinearFinance",
  "sourceName": "contracts/LinearFinance.sol",
  "abi": [
    {
      "anonymous": false,
      "inputs": [
        {
          "indexed": false,
          "internalType": "address",
          "name": "oldAdmin",
          "type": "address"
        },
        {
          "indexed": false,
          "internalType": "address",
          "name": "newAdmin",
          "type": "address"
        }
      ],
      "name": "AdminChanged",
      "type": "event"
    },
    {
      "anonymous": false,
      "inputs": [
        {
          "indexed": true,
          "internalType": "address",
          "name": "owner",
          "type": "address"
        },
        {
          "indexed": true,
          "internalType": "address",
          "name": "spender",
          "type": "address"
        },
        {
          "indexed": false,
          "internalType": "uint256",
          "name": "value",
          "type": "uint256"
        }
      ],
      "name": "Approval",
      "type": "event"
    },
    {
      "anonymous": false,
      "inputs": [
        {
          "indexed": false,
          "internalType": "address",
          "name": "oldCandidate",
          "type": "address"
        },
        {
          "indexed": false,
          "internalType": "address",
          "name": "newCandidate",
          "type": "address"
        }
      ],
      "name": "CandidateChanged",
      "type": "event"
    },
    {
      "anonymous": false,
      "inputs": [
        {
          "indexed": true,
          "internalType": "address",
          "name": "from",
          "type": "address"
        },
        {
          "indexed": true,
          "internalType": "address",
          "name": "to",
          "type": "address"
        },
        {
          "indexed": false,
          "internalType": "uint256",
          "name": "value",
          "type": "uint256"
        }
      ],
      "name": "Transfer",
      "type": "event"
    },
    {
      "inputs": [],
      "name": "MAX_SUPPLY",
      "outputs": [
        {
          "internalType": "uint256",
          "name": "",
          "type": "uint256"
        }
      ],
      "stateMutability": "view",
      "type": "function"
    },
    {
      "inputs": [
        {
          "internalType": "address",
          "name": "_admin",
          "type": "address"
        }
      ],
      "name": "__LinearFinance_init",
      "outputs": [],
      "stateMutability": "nonpayable",
      "type": "function"
    },
    {
      "inputs": [
        {
          "internalType": "address",
          "name": "_admin",
          "type": "address"
        }
      ],
      "name": "__LnAdminUpgradeable_init",
      "outputs": [],
      "stateMutability": "nonpayable",
      "type": "function"
    },
    {
      "inputs": [],
      "name": "admin",
      "outputs": [
        {
          "internalType": "address",
          "name": "",
          "type": "address"
        }
      ],
      "stateMutability": "view",
      "type": "function"
    },
    {
      "inputs": [
        {
          "internalType": "address",
          "name": "owner",
          "type": "address"
        },
        {
          "internalType": "address",
          "name": "spender",
          "type": "address"
        }
      ],
      "name": "allowance",
      "outputs": [
        {
          "internalType": "uint256",
          "name": "",
          "type": "uint256"
        }
      ],
      "stateMutability": "view",
      "type": "function"
    },
    {
      "inputs": [
        {
          "internalType": "address",
          "name": "spender",
          "type": "address"
        },
        {
          "internalType": "uint256",
          "name": "amount",
          "type": "uint256"
        }
      ],
      "name": "approve",
      "outputs": [
        {
          "internalType": "bool",
          "name": "",
          "type": "bool"
        }
      ],
      "stateMutability": "nonpayable",
      "type": "function"
    },
    {
      "inputs": [
        {
          "internalType": "address",
          "name": "account",
          "type": "address"
        }
      ],
      "name": "balanceOf",
      "outputs": [
        {
          "internalType": "uint256",
          "name": "",
          "type": "uint256"
        }
      ],
      "stateMutability": "view",
      "type": "function"
    },
    {
      "inputs": [],
      "name": "becomeAdmin",
      "outputs": [],
      "stateMutability": "nonpayable",
      "type": "function"
    },
    {
      "inputs": [
        {
          "internalType": "address",
          "name": "account",
          "type": "address"
        },
        {
          "internalType": "uint256",
          "name": "amount",
          "type": "uint256"
        }
      ],
      "name": "burn",
      "outputs": [],
      "stateMutability": "nonpayable",
      "type": "function"
    },
    {
      "inputs": [],
      "name": "candidate",
      "outputs": [
        {
          "internalType": "address",
          "name": "",
          "type": "address"
        }
      ],
      "stateMutability": "view",
      "type": "function"
    },
    {
      "inputs": [],
      "name": "decimals",
      "outputs": [
        {
          "internalType": "uint8",
          "name": "",
          "type": "uint8"
        }
      ],
      "stateMutability": "view",
      "type": "function"
    },
    {
      "inputs": [
        {
          "internalType": "address",
          "name": "spender",
          "type": "address"
        },
        {
          "internalType": "uint256",
          "name": "subtractedValue",
          "type": "uint256"
        }
      ],
      "name": "decreaseAllowance",
      "outputs": [
        {
          "internalType": "bool",
          "name": "",
          "type": "bool"
        }
      ],
      "stateMutability": "nonpayable",
      "type": "function"
    },
    {
      "inputs": [
        {
          "internalType": "address",
          "name": "spender",
          "type": "address"
        },
        {
          "internalType": "uint256",
          "name": "addedValue",
          "type": "uint256"
        }
      ],
      "name": "increaseAllowance",
      "outputs": [
        {
          "internalType": "bool",
          "name": "",
          "type": "bool"
        }
      ],
      "stateMutability": "nonpayable",
      "type": "function"
    },
    {
      "inputs": [
        {
          "internalType": "address",
          "name": "account",
          "type": "address"
        },
        {
          "internalType": "uint256",
          "name": "amount",
          "type": "uint256"
        }
      ],
      "name": "mint",
      "outputs": [],
      "stateMutability": "nonpayable",
      "type": "function"
    },
    {
      "inputs": [],
      "name": "name",
      "outputs": [
        {
          "internalType": "string",
          "name": "",
          "type": "string"
        }
      ],
      "stateMutability": "view",
      "type": "function"
    },
    {
      "inputs": [
        {
          "internalType": "address",
          "name": "_candidate",
          "type": "address"
        }
      ],
      "name": "setCandidate",
      "outputs": [],
      "stateMutability": "nonpayable",
      "type": "function"
    },
    {
      "inputs": [],
      "name": "symbol",
      "outputs": [
        {
          "internalType": "string",
          "name": "",
          "type": "string"
        }
      ],
      "stateMutability": "view",
      "type": "function"
    },
    {
      "inputs": [],
      "name": "totalSupply",
      "outputs": [
        {
          "internalType": "uint256",
          "name": "",
          "type": "uint256"
        }
      ],
      "stateMutability": "view",
      "type": "function"
    },
    {
      "inputs": [
        {
          "internalType": "address",
          "name": "recipient",
          "type": "address"
        },
        {
          "internalType": "uint256",
          "name": "amount",
          "type": "uint256"
        }
      ],
      "name": "transfer",
      "outputs": [
        {
          "internalType": "bool",
          "name": "",
          "type": "bool"
        }
      ],
      "stateMutability": "nonpayable",
      "type": "function"
    },
    {
      "inputs": [
        {
          "internalType": "address",
          "name": "sender",
          "type": "address"
        },
        {
          "internalType": "address",
          "name": "recipient",
          "type": "address"
        },
        {
          "internalType": "uint256",
          "name": "amount",
          "type": "uint256"
        }
      ],
      "name": "transferFrom",
      "outputs": [
        {
          "internalType": "bool",
          "name": "",
          "type": "bool"
        }
      ],
      "stateMutability": "nonpayable",
      "type": "function"
    }
  ],
  "bytecode": "0x608060405234801561001057600080fd5b5061168e806100206000396000f3fe608060405234801561001057600080fd5b506004361061012c5760003560e01c80636c8381f8116100ad578063a457c2d711610071578063a457c2d714610390578063a9059cbb146103bc578063c5fea9f8146103e8578063dd62ed3e1461040e578063f851a4401461043c5761012c565b80636c8381f8146102ec57806370a08231146103105780638e118b831461033657806395d89b411461035c5780639dc29fac146103645761012c565b806325971dff116100f457806325971dff14610266578063313ce5671461026e57806332cb6b0c1461028c578063395093511461029457806340c10f19146102c05761012c565b806306fdde031461013157806307880b7f146101ae578063095ea7b3146101d657806318160ddd1461021657806323b872dd14610230575b600080fd5b610139610444565b6040805160208082528351818301528351919283929083019185019080838360005b8381101561017357818101518382015260200161015b565b50505050905090810190601f1680156101a05780820380516001836020036101000a031916815260200191505b509250505060405180910390f35b6101d4600480360360208110156101c457600080fd5b50356001600160a01b03166104da565b005b610202600480360360408110156101ec57600080fd5b506001600160a01b038135169060200135610585565b604080519115158252519081900360200190f35b61021e6105a2565b60408051918252519081900360200190f35b6102026004803603606081101561024657600080fd5b506001600160a01b038135811691602081013590911690604001356105a8565b6101d461062f565b6102766106dc565b6040805160ff9092168252519081900360200190f35b61021e6106e5565b610202600480360360408110156102aa57600080fd5b506001600160a01b0381351690602001356106f5565b6101d4600480360360408110156102d657600080fd5b506001600160a01b038135169060200135610743565b6102f46107f6565b604080516001600160a01b039092168252519081900360200190f35b61021e6004803603602081101561032657600080fd5b50356001600160a01b0316610805565b6101d46004803603602081101561034c57600080fd5b50356001600160a01b0316610820565b610139610977565b6101d46004803603604081101561037a57600080fd5b506001600160a01b0381351690602001356109d8565b610202600480360360408110156103a657600080fd5b506001600160a01b038135169060200135610a2b565b610202600480360360408110156103d257600080fd5b506001600160a01b038135169060200135610a93565b6101d4600480360360208110156103fe57600080fd5b50356001600160a01b0316610aa7565b61021e6004803603604081101561042457600080fd5b506001600160a01b0381358116916020013516610b9c565b6102f4610bc7565b60368054604080516020601f60026000196101006001881615020190951694909404938401819004810282018101909252828152606093909290918301828280156104d05780601f106104a5576101008083540402835291602001916104d0565b820191906000526020600020905b8154815290600101906020018083116104b357829003601f168201915b5050505050905090565b6065546001600160a01b031633146105235760405162461bcd60e51b81526004018080602001828103825260438152602001806115cf6043913960600191505060405180910390fd5b606680546001600160a01b038381166001600160a01b0319831617928390556040805192821680845293909116602083015280517f7f730391c4f0fa1bea34bcb9bff8c30a079b21a0359759160cb990648ab84c729281900390910190a15050565b6000610599610592610bd6565b8484610bda565b50600192915050565b60355490565b60006105b5848484610cc6565b610625846105c1610bd6565b6106208560405180606001604052806028815260200161153d602891396001600160a01b038a166000908152603460205260408120906105ff610bd6565b6001600160a01b031681526020810191909152604001600020549190610e23565b610bda565b5060019392505050565b6066546001600160a01b031633146106785760405162461bcd60e51b81526004018080602001828103825260338152602001806114dc6033913960400191505060405180910390fd5b606580546066546001600160a01b031982166001600160a01b0391821617928390556040805192821680845293909116602083015280517f7e644d79422f17c01e4894b5f4f588d331ebfa28653d42ae832dc59e38c9798f9281900390910190a150565b60385460ff1690565b6b204fce5e3e2502611000000081565b6000610599610702610bd6565b846106208560346000610713610bd6565b6001600160a01b03908116825260208083019390935260409182016000908120918c168152925290205490610eba565b6065546001600160a01b0316331461078c5760405162461bcd60e51b81526004018080602001828103825260438152602001806115cf6043913960600191505060405180910390fd5b6b204fce5e3e250261100000006107ab826107a56105a2565b90610eba565b11156107e85760405162461bcd60e51b81526004018080602001828103825260228152602001806116376022913960400191505060405180910390fd5b6107f28282610f1b565b5050565b6066546001600160a01b031681565b6001600160a01b031660009081526033602052604090205490565b600054610100900460ff1680610839575061083961100d565b80610847575060005460ff16155b6108825760405162461bcd60e51b815260040180806020018281038252602e81526020018061150f602e913960400191505060405180910390fd5b600054610100900460ff161580156108ad576000805460ff1961ff0019909116610100171660011790555b6001600160a01b038216610908576040805162461bcd60e51b815260206004820181905260248201527f4c6e41646d696e5570677261646561626c653a207a65726f2061646472657373604482015290519081900360640190fd5b606580546001600160a01b0319166001600160a01b0384169081179091556040805160008152602081019290925280517f7e644d79422f17c01e4894b5f4f588d331ebfa28653d42ae832dc59e38c9798f9281900390910190a180156107f2576000805461ff00191690555050565b60378054604080516020601f60026000196101006001881615020190951694909404938401819004810282018101909252828152606093909290918301828280156104d05780601f106104a5576101008083540402835291602001916104d0565b6065546001600160a01b03163314610a215760405162461bcd60e51b81526004018080602001828103825260438152602001806115cf6043913960600191505060405180910390fd5b6107f2828261101e565b6000610599610a38610bd6565b84610620856040518060600160405280602581526020016116126025913960346000610a62610bd6565b6001600160a01b03908116825260208083019390935260409182016000908120918d16815292529020549190610e23565b6000610599610aa0610bd6565b8484610cc6565b600054610100900460ff1680610ac05750610ac061100d565b80610ace575060005460ff16155b610b095760405162461bcd60e51b815260040180806020018281038252602e81526020018061150f602e913960400191505060405180910390fd5b600054610100900460ff16158015610b34576000805460ff1961ff0019909116610100171660011790555b610b7e6040518060400160405280600c81526020016b2634b732b0b9102a37b5b2b760a11b815250604051806040016040528060048152602001634c494e4160e01b81525061111a565b610b8782610820565b80156107f2576000805461ff00191690555050565b6001600160a01b03918216600090815260346020908152604080832093909416825291909152205490565b6065546001600160a01b031681565b3390565b6001600160a01b038316610c1f5760405162461bcd60e51b81526004018080602001828103825260248152602001806115ab6024913960400191505060405180910390fd5b6001600160a01b038216610c645760405162461bcd60e51b81526004018080602001828103825260228152602001806114946022913960400191505060405180910390fd5b6001600160a01b03808416600081815260346020908152604080832094871680845294825291829020859055815185815291517f8c5be1e5ebec7d5bd14f71427d1e84f3dd0314c0f7b2291e5b200ac8c7c3b9259281900390910190a3505050565b6001600160a01b038316610d0b5760405162461bcd60e51b81526004018080602001828103825260258152602001806115866025913960400191505060405180910390fd5b6001600160a01b038216610d505760405162461bcd60e51b815260040180806020018281038252602381526020018061144f6023913960400191505060405180910390fd5b610d5b8383836111cb565b610d98816040518060600160405280602681526020016114b6602691396001600160a01b0386166000908152603360205260409020549190610e23565b6001600160a01b038085166000908152603360205260408082209390935590841681522054610dc79082610eba565b6001600160a01b0380841660008181526033602090815260409182902094909455805185815290519193928716927fddf252ad1be2c89b69c2b068fc378daa952ba7f163c4a11628f55a4df523b3ef92918290030190a3505050565b60008184841115610eb25760405162461bcd60e51b81526004018080602001828103825283818151815260200191508051906020019080838360005b83811015610e77578181015183820152602001610e5f565b50505050905090810190601f168015610ea45780820380516001836020036101000a031916815260200191505b509250505060405180910390fd5b505050900390565b600082820183811015610f14576040805162461bcd60e51b815260206004820152601b60248201527f536166654d6174683a206164646974696f6e206f766572666c6f770000000000604482015290519081900360640190fd5b9392505050565b6001600160a01b038216610f76576040805162461bcd60e51b815260206004820152601f60248201527f45524332303a206d696e7420746f20746865207a65726f206164647265737300604482015290519081900360640190fd5b610f82600083836111cb565b603554610f8f9082610eba565b6035556001600160a01b038216600090815260336020526040902054610fb59082610eba565b6001600160a01b03831660008181526033602090815260408083209490945583518581529351929391927fddf252ad1be2c89b69c2b068fc378daa952ba7f163c4a11628f55a4df523b3ef9281900390910190a35050565b6000611018306111d0565b15905090565b6001600160a01b0382166110635760405162461bcd60e51b81526004018080602001828103825260218152602001806115656021913960400191505060405180910390fd5b61106f826000836111cb565b6110ac81604051806060016040528060228152602001611472602291396001600160a01b0385166000908152603360205260409020549190610e23565b6001600160a01b0383166000908152603360205260409020556035546110d290826111d6565b6035556040805182815290516000916001600160a01b038516917fddf252ad1be2c89b69c2b068fc378daa952ba7f163c4a11628f55a4df523b3ef9181900360200190a35050565b600054610100900460ff1680611133575061113361100d565b80611141575060005460ff16155b61117c5760405162461bcd60e51b815260040180806020018281038252602e81526020018061150f602e913960400191505060405180910390fd5b600054610100900460ff161580156111a7576000805460ff1961ff0019909116610100171660011790555b6111af611233565b6111b983836112d5565b80156111cb576000805461ff00191690555b505050565b3b151590565b60008282111561122d576040805162461bcd60e51b815260206004820152601e60248201527f536166654d6174683a207375627472616374696f6e206f766572666c6f770000604482015290519081900360640190fd5b50900390565b600054610100900460ff168061124c575061124c61100d565b8061125a575060005460ff16155b6112955760405162461bcd60e51b815260040180806020018281038252602e81526020018061150f602e913960400191505060405180910390fd5b600054610100900460ff161580156112c0576000805460ff1961ff0019909116610100171660011790555b80156112d2576000805461ff00191690555b50565b600054610100900460ff16806112ee57506112ee61100d565b806112fc575060005460ff16155b6113375760405162461bcd60e51b815260040180806020018281038252602e81526020018061150f602e913960400191505060405180910390fd5b600054610100900460ff16158015611362576000805460ff1961ff0019909116610100171660011790555b82516113759060369060208601906113ad565b5081516113899060379060208501906113ad565b506038805460ff1916601217905580156111cb576000805461ff0019169055505050565b828054600181600116156101000203166002900490600052602060002090601f0160209004810192826113e35760008555611429565b82601f106113fc57805160ff1916838001178555611429565b82800160010185558215611429579182015b8281111561142957825182559160200191906001019061140e565b50611435929150611439565b5090565b5b80821115611435576000815560010161143a56fe45524332303a207472616e7366657220746f20746865207a65726f206164647265737345524332303a206275726e20616d6f756e7420657863656564732062616c616e636545524332303a20617070726f766520746f20746865207a65726f206164647265737345524332303a207472616e7366657220616d6f756e7420657863656564732062616c616e63654c6e41646d696e5570677261646561626c653a206f6e6c792063616e6469646174652063616e206265636f6d652061646d696e496e697469616c697a61626c653a20636f6e747261637420697320616c726561647920696e697469616c697a656445524332303a207472616e7366657220616d6f756e74206578636565647320616c6c6f77616e636545524332303a206275726e2066726f6d20746865207a65726f206164647265737345524332303a207472616e736665722066726f6d20746865207a65726f206164647265737345524332303a20617070726f76652066726f6d20746865207a65726f20616464726573734c6e41646d696e5570677261646561626c653a206f6e6c792074686520636f6e74726163742061646d696e2063616e20706572666f726d207468697320616374696f6e45524332303a2064656372656173656420616c6c6f77616e63652062656c6f77207a65726f4c696e65617246696e616e63653a206d617820737570706c79206578636565646564a2646970667358221220975fcdc221314f3eecf166d9bdf74e49bc40ebb458b8de9909bd3eea8d65d2fa64736f6c63430007060033",
  "linkReferences": {},
  "deployedLinkReferences": {}
}