{
  "_format": "hh-sol-artifact-1",
  "contractName": "LnAccessControl",
  "sourceName": "contracts/LnAccessControl.sol",
  "abi": [
    {
      "anonymous": false,
      "inputs": [
        {
          "indexed": true,
          "internalType": "bytes32",
          "name": "role",
          "type": "bytes32"
        },
        {
          "indexed": true,
          "internalType": "bytes32",
          "name": "previousAdminRole",
          "type": "bytes32"
        },
        {
          "indexed": true,
          "internalType": "bytes32",
          "name": "newAdminRole",
          "type": "bytes32"
        }
      ],
      "name": "RoleAdminChanged",
      "type": "event"
    },
    {
      "anonymous": false,
      "inputs": [
        {
          "indexed": true,
          "internalType": "bytes32",
          "name": "role",
          "type": "bytes32"
        },
        {
          "indexed": true,
          "internalType": "address",
          "name": "account",
          "type": "address"
        },
        {
          "indexed": true,
          "internalType": "address",
          "name": "sender",
          "type": "address"
        }
      ],
      "name": "RoleGranted",
      "type": "event"
    },
    {
      "anonymous": false,
      "inputs": [
        {
          "indexed": true,
          "internalType": "bytes32",
          "name": "role",
          "type": "bytes32"
        },
        {
          "indexed": true,
          "internalType": "address",
          "name": "account",
          "type": "address"
        },
        {
          "indexed": true,
          "internalType": "address",
          "name": "sender",
          "type": "address"
        }
      ],
      "name": "RoleRevoked",
      "type": "event"
    },
    {
      "inputs": [],
      "name": "BURN_ASSET_ROLE",
      "outputs": [
        {
          "internalType": "bytes32",
          "name": "",
          "type": "bytes32"
        }
      ],
      "stateMutability": "view",
      "type": "function"
    },
    {
      "inputs": [],
      "name": "DEBT_SYSTEM",
      "outputs": [
        {
          "internalType": "bytes32",
          "name": "",
          "type": "bytes32"
        }
      ],
      "stateMutability": "view",
      "type": "function"
    },
    {
      "inputs": [],
      "name": "DEFAULT_ADMIN_ROLE",
      "outputs": [
        {
          "internalType": "bytes32",
          "name": "",
          "type": "bytes32"
        }
      ],
      "stateMutability": "view",
      "type": "function"
    },
    {
      "inputs": [],
      "name": "ISSUE_ASSET_ROLE",
      "outputs": [
        {
          "internalType": "bytes32",
          "name": "",
          "type": "bytes32"
        }
      ],
      "stateMutability": "view",
      "type": "function"
    },
    {
      "inputs": [
        {
          "internalType": "address",
          "name": "_address",
          "type": "address"
        }
      ],
      "name": "IsAdmin",
      "outputs": [
        {
          "internalType": "bool",
          "name": "",
          "type": "bool"
        }
      ],
      "stateMutability": "view",
      "type": "function"
    },
    {
      "inputs": [
        {
          "internalType": "address",
          "name": "_address",
          "type": "address"
        }
      ],
      "name": "SetAdmin",
      "outputs": [
        {
          "internalType": "bool",
          "name": "",
          "type": "bool"
        }
      ],
      "stateMutability": "nonpayable",
      "type": "function"
    },
    {
      "inputs": [
        {
          "internalType": "address[]",
          "name": "burner",
          "type": "address[]"
        },
        {
          "internalType": "bool[]",
          "name": "setTo",
          "type": "bool[]"
        }
      ],
      "name": "SetBurnAssetRole",
      "outputs": [],
      "stateMutability": "nonpayable",
      "type": "function"
    },
    {
      "inputs": [
        {
          "internalType": "address[]",
          "name": "_address",
          "type": "address[]"
        },
        {
          "internalType": "bool[]",
          "name": "_setTo",
          "type": "bool[]"
        }
      ],
      "name": "SetDebtSystemRole",
      "outputs": [],
      "stateMutability": "nonpayable",
      "type": "function"
    },
    {
      "inputs": [
        {
          "internalType": "address[]",
          "name": "issuer",
          "type": "address[]"
        },
        {
          "internalType": "bool[]",
          "name": "setTo",
          "type": "bool[]"
        }
      ],
      "name": "SetIssueAssetRole",
      "outputs": [],
      "stateMutability": "nonpayable",
      "type": "function"
    },
    {
      "inputs": [
        {
          "internalType": "bytes32",
          "name": "roleType",
          "type": "bytes32"
        },
        {
          "internalType": "address[]",
          "name": "addresses",
          "type": "address[]"
        },
        {
          "internalType": "bool[]",
          "name": "setTo",
          "type": "bool[]"
        }
      ],
      "name": "SetRoles",
      "outputs": [],
      "stateMutability": "nonpayable",
      "type": "function"
    },
    {
      "inputs": [
        {
          "internalType": "address",
          "name": "admin",
          "type": "address"
        }
      ],
      "name": "__LnAccessControl_init",
      "outputs": [],
      "stateMutability": "nonpayable",
      "type": "function"
    },
    {
      "inputs": [
        {
          "internalType": "bytes32",
          "name": "role",
          "type": "bytes32"
        }
      ],
      "name": "getRoleAdmin",
      "outputs": [
        {
          "internalType": "bytes32",
          "name": "",
          "type": "bytes32"
        }
      ],
      "stateMutability": "view",
      "type": "function"
    },
    {
      "inputs": [
        {
          "internalType": "bytes32",
          "name": "role",
          "type": "bytes32"
        },
        {
          "internalType": "uint256",
          "name": "index",
          "type": "uint256"
        }
      ],
      "name": "getRoleMember",
      "outputs": [
        {
          "internalType": "address",
          "name": "",
          "type": "address"
        }
      ],
      "stateMutability": "view",
      "type": "function"
    },
    {
      "inputs": [
        {
          "internalType": "bytes32",
          "name": "role",
          "type": "bytes32"
        }
      ],
      "name": "getRoleMemberCount",
      "outputs": [
        {
          "internalType": "uint256",
          "name": "",
          "type": "uint256"
        }
      ],
      "stateMutability": "view",
      "type": "function"
    },
    {
      "inputs": [
        {
          "internalType": "bytes32",
          "name": "role",
          "type": "bytes32"
        },
        {
          "internalType": "address",
          "name": "account",
          "type": "address"
        }
      ],
      "name": "grantRole",
      "outputs": [],
      "stateMutability": "nonpayable",
      "type": "function"
    },
    {
      "inputs": [
        {
          "internalType": "bytes32",
          "name": "role",
          "type": "bytes32"
        },
        {
          "internalType": "address",
          "name": "account",
          "type": "address"
        }
      ],
      "name": "hasRole",
      "outputs": [
        {
          "internalType": "bool",
          "name": "",
          "type": "bool"
        }
      ],
      "stateMutability": "view",
      "type": "function"
    },
    {
      "inputs": [
        {
          "internalType": "bytes32",
          "name": "role",
          "type": "bytes32"
        },
        {
          "internalType": "address",
          "name": "account",
          "type": "address"
        }
      ],
      "name": "renounceRole",
      "outputs": [],
      "stateMutability": "nonpayable",
      "type": "function"
    },
    {
      "inputs": [
        {
          "internalType": "bytes32",
          "name": "role",
          "type": "bytes32"
        },
        {
          "internalType": "address",
          "name": "account",
          "type": "address"
        }
      ],
      "name": "revokeRole",
      "outputs": [],
      "stateMutability": "nonpayable",
      "type": "function"
    }
  ],
  "bytecode": "0x608060405234801561001057600080fd5b50610e22806100206000396000f3fe608060405234801561001057600080fd5b50600436106100f65760003560e01c8063631036ad11610092578063631036ad146103595780639010d07c1461041757806391d14854146104565780639752cd4b14610482578063a217fddf146104a8578063b11e3c1a146104b0578063ca15c873146104d6578063d547741f146104f3578063f0f57a191461051f576100f6565b80630a36dc4c146100fb578063248a9ca3146101155780632f2ff15d1461013257806335a410341461016057806336568abe1461022557806340c1b47814610251578063435e60ae14610259578063550f1a91146102615780635a2724031461031f575b600080fd5b6101036105dd565b60408051918252519081900360200190f35b6101036004803603602081101561012b57600080fd5b50356105ef565b61015e6004803603604081101561014857600080fd5b50803590602001356001600160a01b0316610607565b005b61015e6004803603606081101561017657600080fd5b81359190810190604081016020820135600160201b81111561019757600080fd5b8201836020820111156101a957600080fd5b803590602001918460208302840111600160201b831117156101ca57600080fd5b919390929091602081019035600160201b8111156101e757600080fd5b8201836020820111156101f957600080fd5b803590602001918460208302840111600160201b8311171561021a57600080fd5b509092509050610673565b61015e6004803603604081101561023b57600080fd5b50803590602001356001600160a01b03166106ce565b61010361072f565b610103610740565b61015e6004803603604081101561027757600080fd5b810190602081018135600160201b81111561029157600080fd5b8201836020820111156102a357600080fd5b803590602001918460208302840111600160201b831117156102c457600080fd5b919390929091602081019035600160201b8111156102e157600080fd5b8201836020820111156102f357600080fd5b803590602001918460208302840111600160201b8311171561031457600080fd5b509092509050610753565b6103456004803603602081101561033557600080fd5b50356001600160a01b0316610774565b604080519115158252519081900360200190f35b61015e6004803603604081101561036f57600080fd5b810190602081018135600160201b81111561038957600080fd5b82018360208201111561039b57600080fd5b803590602001918460208302840111600160201b831117156103bc57600080fd5b919390929091602081019035600160201b8111156103d957600080fd5b8201836020820111156103eb57600080fd5b803590602001918460208302840111600160201b8311171561040c57600080fd5b5090925090506107c8565b61043a6004803603604081101561042d57600080fd5b50803590602001356107e2565b604080516001600160a01b039092168252519081900360200190f35b6103456004803603604081101561046c57600080fd5b50803590602001356001600160a01b0316610803565b61015e6004803603602081101561049857600080fd5b50356001600160a01b031661081b565b6101036108c8565b610345600480360360208110156104c657600080fd5b50356001600160a01b03166108cd565b610103600480360360208110156104ec57600080fd5b50356108d9565b61015e6004803603604081101561050957600080fd5b50803590602001356001600160a01b03166108f0565b61015e6004803603604081101561053557600080fd5b810190602081018135600160201b81111561054f57600080fd5b82018360208201111561056157600080fd5b803590602001918460208302840111600160201b8311171561058257600080fd5b919390929091602081019035600160201b81111561059f57600080fd5b8201836020820111156105b157600080fd5b803590602001918460208302840111600160201b831117156105d257600080fd5b509092509050610949565b6a1254d4d55157d054d4d15560aa1b81565b6000818152603360205260409020600201545b919050565b60008281526033602052604090206002015461062a90610625610965565b610803565b6106655760405162461bcd60e51b815260040180806020018281038252602f815260200180610d31602f913960400191505060405180910390fd5b61066f8282610969565b5050565b61067c336108cd565b6106ba576040805162461bcd60e51b815260206004820152600a60248201526927b7363c9030b236b4b760b11b604482015290519081900360640190fd5b6106c785858585856109d2565b5050505050565b6106d6610965565b6001600160a01b0316816001600160a01b0316146107255760405162461bcd60e51b815260040180806020018281038252602f815260200180610dbe602f913960400191505060405180910390fd5b61066f8282610aa8565b691095549397d054d4d15560b21b81565b6b4c6e4465627453797374656d60a01b81565b61076e6a1254d4d55157d054d4d15560aa1b858585856109d2565b50505050565b600061077f336108cd565b6107bd576040805162461bcd60e51b815260206004820152600a60248201526927b7363c9030b236b4b760b11b604482015290519081900360640190fd5b610602600083610665565b61076e691095549397d054d4d15560b21b858585856109d2565b60008281526033602052604081206107fa9083610b11565b90505b92915050565b60008281526033602052604081206107fa9083610b1d565b600054610100900460ff16806108345750610834610b32565b80610842575060005460ff16155b61087d5760405162461bcd60e51b815260040180806020018281038252602e815260200180610d90602e913960400191505060405180910390fd5b600054610100900460ff161580156108a8576000805460ff1961ff0019909116610100171660011790555b6108b3600083610665565b801561066f576000805461ff00191690555050565b600081565b60006107fd8183610803565b60008181526033602052604081206107fd90610b43565b60008281526033602052604090206002015461090e90610625610965565b6107255760405162461bcd60e51b8152600401808060200182810382526030815260200180610d606030913960400191505060405180910390fd5b61076e6b4c6e4465627453797374656d60a01b858585856109d2565b3390565b60008281526033602052604090206109819082610b4e565b1561066f5761098e610965565b6001600160a01b0316816001600160a01b0316837f2f8788117e7eff1d82e926ec794901d17c78024a50270940304540a733656f0d60405160405180910390a45050565b828114610a26576040805162461bcd60e51b815260206004820152601f60248201527f706172616d657465722061646472657373206c656e677468206e6f7420657100604482015290519081900360640190fd5b60005b83811015610aa057828282818110610a3d57fe5b9050602002013515610a7357610a6e86868684818110610a5957fe5b905060200201356001600160a01b0316610607565b610a98565b610a9886868684818110610a8357fe5b905060200201356001600160a01b03166108f0565b600101610a29565b505050505050565b6000828152603360205260409020610ac09082610b63565b1561066f57610acd610965565b6001600160a01b0316816001600160a01b0316837ff6391f5c32d9c69d2a47ea670b442974b53935d1edc7fd64eb21e047a839171b60405160405180910390a45050565b60006107fa8383610b78565b60006107fa836001600160a01b038416610bdc565b6000610b3d30610bf4565b15905090565b60006107fd82610bfa565b60006107fa836001600160a01b038416610bfe565b60006107fa836001600160a01b038416610c48565b81546000908210610bba5760405162461bcd60e51b8152600401808060200182810382526022815260200180610d0f6022913960400191505060405180910390fd5b826000018281548110610bc957fe5b9060005260206000200154905092915050565b60009081526001919091016020526040902054151590565b3b151590565b5490565b6000610c0a8383610bdc565b610c40575081546001818101845560008481526020808220909301849055845484825282860190935260409020919091556107fd565b5060006107fd565b60008181526001830160205260408120548015610d045783546000198083019190810190600090879083908110610c7b57fe5b9060005260206000200154905080876000018481548110610c9857fe5b600091825260208083209091019290925582815260018981019092526040902090840190558654879080610cc857fe5b600190038181906000526020600020016000905590558660010160008781526020019081526020016000206000905560019450505050506107fd565b60009150506107fd56fe456e756d657261626c655365743a20696e646578206f7574206f6620626f756e6473416363657373436f6e74726f6c3a2073656e646572206d75737420626520616e2061646d696e20746f206772616e74416363657373436f6e74726f6c3a2073656e646572206d75737420626520616e2061646d696e20746f207265766f6b65496e697469616c697a61626c653a20636f6e747261637420697320616c726561647920696e697469616c697a6564416363657373436f6e74726f6c3a2063616e206f6e6c792072656e6f756e636520726f6c657320666f722073656c66a264697066735822122019ac80ba45c2747ae05ff828faf494e6fc3baa1cad578207c4ece7460ce016fb64736f6c634300060c0033",
  "linkReferences": {},
  "deployedLinkReferences": {}
}