{
  "_format": "hh-sol-artifact-1",
  "contractName": "LnAddressStorage",
  "sourceName": "contracts/LnAddressStorage.sol",
  "abi": [
    {
      "anonymous": false,
      "inputs": [
        {
          "indexed": false,
          "internalType": "address",
          "name": "oldAdmin",
          "type": "address"
        },
        {
          "indexed": false,
          "internalType": "address",
          "name": "newAdmin",
          "type": "address"
        }
      ],
      "name": "AdminChanged",
      "type": "event"
    },
    {
      "anonymous": false,
      "inputs": [
        {
          "indexed": false,
          "internalType": "address",
          "name": "oldCandidate",
          "type": "address"
        },
        {
          "indexed": false,
          "internalType": "address",
          "name": "newCandidate",
          "type": "address"
        }
      ],
      "name": "CandidateChanged",
      "type": "event"
    },
    {
      "anonymous": false,
      "inputs": [
        {
          "indexed": false,
          "internalType": "bytes32",
          "name": "name",
          "type": "bytes32"
        },
        {
          "indexed": false,
          "internalType": "address",
          "name": "addr",
          "type": "address"
        }
      ],
      "name": "StorageAddressUpdated",
      "type": "event"
    },
    {
      "inputs": [
        {
          "internalType": "address",
          "name": "_admin",
          "type": "address"
        }
      ],
      "name": "__LnAddressStorage_init",
      "outputs": [],
      "stateMutability": "nonpayable",
      "type": "function"
    },
    {
      "inputs": [
        {
          "internalType": "address",
          "name": "_admin",
          "type": "address"
        }
      ],
      "name": "__LnAdminUpgradeable_init",
      "outputs": [],
      "stateMutability": "nonpayable",
      "type": "function"
    },
    {
      "inputs": [],
      "name": "admin",
      "outputs": [
        {
          "internalType": "address",
          "name": "",
          "type": "address"
        }
      ],
      "stateMutability": "view",
      "type": "function"
    },
    {
      "inputs": [],
      "name": "becomeAdmin",
      "outputs": [],
      "stateMutability": "nonpayable",
      "type": "function"
    },
    {
      "inputs": [],
      "name": "candidate",
      "outputs": [
        {
          "internalType": "address",
          "name": "",
          "type": "address"
        }
      ],
      "stateMutability": "view",
      "type": "function"
    },
    {
      "inputs": [
        {
          "internalType": "bytes32",
          "name": "name",
          "type": "bytes32"
        }
      ],
      "name": "getAddress",
      "outputs": [
        {
          "internalType": "address",
          "name": "",
          "type": "address"
        }
      ],
      "stateMutability": "view",
      "type": "function"
    },
    {
      "inputs": [
        {
          "internalType": "bytes32",
          "name": "name",
          "type": "bytes32"
        },
        {
          "internalType": "string",
          "name": "reason",
          "type": "string"
        }
      ],
      "name": "getAddressWithRequire",
      "outputs": [
        {
          "internalType": "address",
          "name": "",
          "type": "address"
        }
      ],
      "stateMutability": "view",
      "type": "function"
    },
    {
      "inputs": [
        {
          "internalType": "bytes32",
          "name": "",
          "type": "bytes32"
        }
      ],
      "name": "mAddrs",
      "outputs": [
        {
          "internalType": "address",
          "name": "",
          "type": "address"
        }
      ],
      "stateMutability": "view",
      "type": "function"
    },
    {
      "inputs": [
        {
          "internalType": "address",
          "name": "_candidate",
          "type": "address"
        }
      ],
      "name": "setCandidate",
      "outputs": [],
      "stateMutability": "nonpayable",
      "type": "function"
    },
    {
      "inputs": [
        {
          "internalType": "bytes32",
          "name": "name",
          "type": "bytes32"
        },
        {
          "internalType": "address",
          "name": "dest",
          "type": "address"
        }
      ],
      "name": "update",
      "outputs": [],
      "stateMutability": "nonpayable",
      "type": "function"
    },
    {
      "inputs": [
        {
          "internalType": "bytes32[]",
          "name": "names",
          "type": "bytes32[]"
        },
        {
          "internalType": "address[]",
          "name": "destinations",
          "type": "address[]"
        }
      ],
      "name": "updateAll",
      "outputs": [],
      "stateMutability": "nonpayable",
      "type": "function"
    }
  ],
  "bytecode": "0x608060405234801561001057600080fd5b50610b0a806100206000396000f3fe608060405234801561001057600080fd5b50600436106100a95760003560e01c8063677eab1311610071578063677eab13146102015780636c8381f814610227578063768911da1461022f5780638e118b83146102a4578063d091dfc3146102ca578063f851a440146102e7576100a9565b806304662427146100ae57806307880b7f1461016e57806321f8a7211461019457806325971dff146101cd5780634ae2ffc0146101d5575b600080fd5b61016c600480360360408110156100c457600080fd5b810190602081018135600160201b8111156100de57600080fd5b8201836020820111156100f057600080fd5b803590602001918460208302840111600160201b8311171561011157600080fd5b919390929091602081019035600160201b81111561012e57600080fd5b82018360208201111561014057600080fd5b803590602001918460208302840111600160201b8311171561016157600080fd5b5090925090506102ef565b005b61016c6004803603602081101561018457600080fd5b50356001600160a01b0316610481565b6101b1600480360360208110156101aa57600080fd5b5035610532565b604080516001600160a01b039092168252519081900360200190f35b61016c61054d565b61016c600480360360408110156101eb57600080fd5b50803590602001356001600160a01b0316610609565b61016c6004803603602081101561021757600080fd5b50356001600160a01b031661075b565b6101b1610807565b6101b16004803603604081101561024557600080fd5b81359190810190604081016020820135600160201b81111561026657600080fd5b82018360208201111561027857600080fd5b803590602001918460018302840111600160201b8311171561029957600080fd5b509092509050610816565b61016c600480360360208110156102ba57600080fd5b50356001600160a01b031661088a565b6101b1600480360360208110156102e057600080fd5b50356109e9565b6101b1610a04565b6000546201000090046001600160a01b0316331461033e5760405162461bcd60e51b8152600401808060200182810382526043815260200180610a926043913960600191505060405180910390fd5b82811461038d576040805162461bcd60e51b8152602060048201526018602482015277092dce0eae840d8cadccee8d0e640daeae6e840dac2e8c6d60431b604482015290519081900360640190fd5b60005b8381101561047a578282828181106103a457fe5b905060200201356001600160a01b0316603260008787858181106103c457fe5b90506020020135815260200190815260200160002060006101000a8154816001600160a01b0302191690836001600160a01b031602179055507fc4377493effe961187873838bd3731307f7f558c661681598f57c5d85831e8b385858381811061042a57fe5b9050602002013584848481811061043d57fe5b905060200201356001600160a01b031660405180838152602001826001600160a01b031681526020019250505060405180910390a1600101610390565b5050505050565b6000546201000090046001600160a01b031633146104d05760405162461bcd60e51b8152600401808060200182810382526043815260200180610a926043913960600191505060405180910390fd5b600180546001600160a01b038381166001600160a01b0319831617928390556040805192821680845293909116602083015280517f7f730391c4f0fa1bea34bcb9bff8c30a079b21a0359759160cb990648ab84c729281900390910190a15050565b6000908152603260205260409020546001600160a01b031690565b6001546001600160a01b031633146105965760405162461bcd60e51b8152600401808060200182810382526033815260200180610a316033913960400191505060405180910390fd5b600080546001546001600160a01b039081166201000090810262010000600160b01b03198416179384905560408051938290048316808552919094049091166020830152825190927f7e644d79422f17c01e4894b5f4f588d331ebfa28653d42ae832dc59e38c9798f928290030190a150565b6000546201000090046001600160a01b031633146106585760405162461bcd60e51b8152600401808060200182810382526043815260200180610a926043913960600191505060405180910390fd5b816106a2576040805162461bcd60e51b81526020600482015260156024820152746e616d652063616e206e6f7420626520656d70747960581b604482015290519081900360640190fd5b6001600160a01b0381166106f3576040805162461bcd60e51b81526020600482015260136024820152720616464726573732063616e6e6f74206265203606c1b604482015290519081900360640190fd5b60008281526032602090815260409182902080546001600160a01b0319166001600160a01b03851690811790915582518581529182015281517fc4377493effe961187873838bd3731307f7f558c661681598f57c5d85831e8b3929181900390910190a15050565b600054610100900460ff16806107745750610774610a19565b80610782575060005460ff16155b6107bd5760405162461bcd60e51b815260040180806020018281038252602e815260200180610a64602e913960400191505060405180910390fd5b600054610100900460ff161580156107e8576000805460ff1961ff0019909116610100171660011790555b6107f18261088a565b8015610803576000805461ff00191690555b5050565b6001546001600160a01b031681565b6000838152603260205260408120546001600160a01b031683838261087f5760405162461bcd60e51b815260206004820190815260248201839052908190604401848480828437600083820152604051601f909101601f19169092018290039550909350505050fd5b509095945050505050565b600054610100900460ff16806108a357506108a3610a19565b806108b1575060005460ff16155b6108ec5760405162461bcd60e51b815260040180806020018281038252602e815260200180610a64602e913960400191505060405180910390fd5b600054610100900460ff16158015610917576000805460ff1961ff0019909116610100171660011790555b6001600160a01b038216610972576040805162461bcd60e51b815260206004820181905260248201527f4c6e41646d696e5570677261646561626c653a207a65726f2061646472657373604482015290519081900360640190fd5b6000805462010000600160b01b031916620100006001600160a01b03851690810291909117825560408051928352602083019190915280517f7e644d79422f17c01e4894b5f4f588d331ebfa28653d42ae832dc59e38c9798f9281900390910190a18015610803576000805461ff00191690555050565b6032602052600090815260409020546001600160a01b031681565b6000546201000090046001600160a01b031681565b6000610a2430610a2a565b15905090565b3b15159056fe4c6e41646d696e5570677261646561626c653a206f6e6c792063616e6469646174652063616e206265636f6d652061646d696e496e697469616c697a61626c653a20636f6e747261637420697320616c726561647920696e697469616c697a65644c6e41646d696e5570677261646561626c653a206f6e6c792074686520636f6e74726163742061646d696e2063616e20706572666f726d207468697320616374696f6ea2646970667358221220ec0ca923362bb5e76a4b1c83d1cadd331d1a59e6a56456e9a328499f7b233c0164736f6c634300060c0033",
  "linkReferences": {},
  "deployedLinkReferences": {}
}