{
  "_format": "hh-sol-artifact-1",
  "contractName": "LnAssetUpgradeable",
  "sourceName": "contracts/LnAssetUpgradeable.sol",
  "abi": [
    {
      "anonymous": false,
      "inputs": [
        {
          "indexed": false,
          "internalType": "address",
          "name": "oldAdmin",
          "type": "address"
        },
        {
          "indexed": false,
          "internalType": "address",
          "name": "newAdmin",
          "type": "address"
        }
      ],
      "name": "AdminChanged",
      "type": "event"
    },
    {
      "anonymous": false,
      "inputs": [
        {
          "indexed": true,
          "internalType": "address",
          "name": "owner",
          "type": "address"
        },
        {
          "indexed": true,
          "internalType": "address",
          "name": "spender",
          "type": "address"
        },
        {
          "indexed": false,
          "internalType": "uint256",
          "name": "value",
          "type": "uint256"
        }
      ],
      "name": "Approval",
      "type": "event"
    },
    {
      "anonymous": false,
      "inputs": [
        {
          "indexed": false,
          "internalType": "bytes32",
          "name": "name",
          "type": "bytes32"
        },
        {
          "indexed": false,
          "internalType": "address",
          "name": "addr",
          "type": "address"
        }
      ],
      "name": "CachedAddressUpdated",
      "type": "event"
    },
    {
      "anonymous": false,
      "inputs": [
        {
          "indexed": false,
          "internalType": "address",
          "name": "oldCandidate",
          "type": "address"
        },
        {
          "indexed": false,
          "internalType": "address",
          "name": "newCandidate",
          "type": "address"
        }
      ],
      "name": "CandidateChanged",
      "type": "event"
    },
    {
      "anonymous": false,
      "inputs": [
        {
          "indexed": true,
          "internalType": "address",
          "name": "from",
          "type": "address"
        },
        {
          "indexed": true,
          "internalType": "address",
          "name": "to",
          "type": "address"
        },
        {
          "indexed": false,
          "internalType": "uint256",
          "name": "value",
          "type": "uint256"
        }
      ],
      "name": "Transfer",
      "type": "event"
    },
    {
      "inputs": [
        {
          "internalType": "address",
          "name": "_admin",
          "type": "address"
        }
      ],
      "name": "__LnAdminUpgradeable_init",
      "outputs": [],
      "stateMutability": "nonpayable",
      "type": "function"
    },
    {
      "inputs": [
        {
          "internalType": "bytes32",
          "name": "_key",
          "type": "bytes32"
        },
        {
          "internalType": "string",
          "name": "_name",
          "type": "string"
        },
        {
          "internalType": "string",
          "name": "_symbol",
          "type": "string"
        },
        {
          "internalType": "address",
          "name": "_admin",
          "type": "address"
        }
      ],
      "name": "__LnAssetUpgradeable_init",
      "outputs": [],
      "stateMutability": "nonpayable",
      "type": "function"
    },
    {
      "inputs": [],
      "name": "admin",
      "outputs": [
        {
          "internalType": "address",
          "name": "",
          "type": "address"
        }
      ],
      "stateMutability": "view",
      "type": "function"
    },
    {
      "inputs": [
        {
          "internalType": "address",
          "name": "owner",
          "type": "address"
        },
        {
          "internalType": "address",
          "name": "spender",
          "type": "address"
        }
      ],
      "name": "allowance",
      "outputs": [
        {
          "internalType": "uint256",
          "name": "",
          "type": "uint256"
        }
      ],
      "stateMutability": "view",
      "type": "function"
    },
    {
      "inputs": [
        {
          "internalType": "address",
          "name": "spender",
          "type": "address"
        },
        {
          "internalType": "uint256",
          "name": "amount",
          "type": "uint256"
        }
      ],
      "name": "approve",
      "outputs": [
        {
          "internalType": "bool",
          "name": "",
          "type": "bool"
        }
      ],
      "stateMutability": "nonpayable",
      "type": "function"
    },
    {
      "inputs": [
        {
          "internalType": "address",
          "name": "account",
          "type": "address"
        }
      ],
      "name": "balanceOf",
      "outputs": [
        {
          "internalType": "uint256",
          "name": "",
          "type": "uint256"
        }
      ],
      "stateMutability": "view",
      "type": "function"
    },
    {
      "inputs": [],
      "name": "becomeAdmin",
      "outputs": [],
      "stateMutability": "nonpayable",
      "type": "function"
    },
    {
      "inputs": [
        {
          "internalType": "address",
          "name": "account",
          "type": "address"
        },
        {
          "internalType": "uint256",
          "name": "amount",
          "type": "uint256"
        }
      ],
      "name": "burn",
      "outputs": [],
      "stateMutability": "nonpayable",
      "type": "function"
    },
    {
      "inputs": [],
      "name": "candidate",
      "outputs": [
        {
          "internalType": "address",
          "name": "",
          "type": "address"
        }
      ],
      "stateMutability": "view",
      "type": "function"
    },
    {
      "inputs": [],
      "name": "decimals",
      "outputs": [
        {
          "internalType": "uint8",
          "name": "",
          "type": "uint8"
        }
      ],
      "stateMutability": "view",
      "type": "function"
    },
    {
      "inputs": [
        {
          "internalType": "address",
          "name": "spender",
          "type": "address"
        },
        {
          "internalType": "uint256",
          "name": "subtractedValue",
          "type": "uint256"
        }
      ],
      "name": "decreaseAllowance",
      "outputs": [
        {
          "internalType": "bool",
          "name": "",
          "type": "bool"
        }
      ],
      "stateMutability": "nonpayable",
      "type": "function"
    },
    {
      "inputs": [
        {
          "internalType": "address",
          "name": "spender",
          "type": "address"
        },
        {
          "internalType": "uint256",
          "name": "addedValue",
          "type": "uint256"
        }
      ],
      "name": "increaseAllowance",
      "outputs": [
        {
          "internalType": "bool",
          "name": "",
          "type": "bool"
        }
      ],
      "stateMutability": "nonpayable",
      "type": "function"
    },
    {
      "inputs": [],
      "name": "keyName",
      "outputs": [
        {
          "internalType": "bytes32",
          "name": "",
          "type": "bytes32"
        }
      ],
      "stateMutability": "view",
      "type": "function"
    },
    {
      "inputs": [
        {
          "internalType": "address",
          "name": "account",
          "type": "address"
        },
        {
          "internalType": "uint256",
          "name": "amount",
          "type": "uint256"
        }
      ],
      "name": "mint",
      "outputs": [],
      "stateMutability": "nonpayable",
      "type": "function"
    },
    {
      "inputs": [
        {
          "internalType": "address",
          "name": "from",
          "type": "address"
        },
        {
          "internalType": "address",
          "name": "to",
          "type": "address"
        },
        {
          "internalType": "uint256",
          "name": "amount",
          "type": "uint256"
        }
      ],
      "name": "move",
      "outputs": [],
      "stateMutability": "nonpayable",
      "type": "function"
    },
    {
      "inputs": [],
      "name": "name",
      "outputs": [
        {
          "internalType": "string",
          "name": "",
          "type": "string"
        }
      ],
      "stateMutability": "view",
      "type": "function"
    },
    {
      "inputs": [
        {
          "internalType": "address",
          "name": "_candidate",
          "type": "address"
        }
      ],
      "name": "setCandidate",
      "outputs": [],
      "stateMutability": "nonpayable",
      "type": "function"
    },
    {
      "inputs": [],
      "name": "symbol",
      "outputs": [
        {
          "internalType": "string",
          "name": "",
          "type": "string"
        }
      ],
      "stateMutability": "view",
      "type": "function"
    },
    {
      "inputs": [],
      "name": "totalSupply",
      "outputs": [
        {
          "internalType": "uint256",
          "name": "",
          "type": "uint256"
        }
      ],
      "stateMutability": "view",
      "type": "function"
    },
    {
      "inputs": [
        {
          "internalType": "address",
          "name": "recipient",
          "type": "address"
        },
        {
          "internalType": "uint256",
          "name": "amount",
          "type": "uint256"
        }
      ],
      "name": "transfer",
      "outputs": [
        {
          "internalType": "bool",
          "name": "",
          "type": "bool"
        }
      ],
      "stateMutability": "nonpayable",
      "type": "function"
    },
    {
      "inputs": [
        {
          "internalType": "address",
          "name": "sender",
          "type": "address"
        },
        {
          "internalType": "address",
          "name": "recipient",
          "type": "address"
        },
        {
          "internalType": "uint256",
          "name": "amount",
          "type": "uint256"
        }
      ],
      "name": "transferFrom",
      "outputs": [
        {
          "internalType": "bool",
          "name": "",
          "type": "bool"
        }
      ],
      "stateMutability": "nonpayable",
      "type": "function"
    },
    {
      "inputs": [
        {
          "internalType": "contract ILnAddressStorage",
          "name": "_addressStorage",
          "type": "address"
        }
      ],
      "name": "updateAddressCache",
      "outputs": [],
      "stateMutability": "nonpayable",
      "type": "function"
    }
  ],
  "bytecode": "0x608060405234801561001057600080fd5b50611aed806100206000396000f3fe608060405234801561001057600080fd5b50600436106101425760003560e01c806370a08231116100b8578063a9059cbb1161007c578063a9059cbb146103f0578063bb35783b1461041c578063dd62ed3e14610452578063eff7c3ea14610480578063f851a440146105bb578063fa3caae0146105c357610142565b806370a08231146103445780638e118b831461036a57806395d89b41146103905780639dc29fac14610398578063a457c2d7146103c457610142565b806325971dff1161010a57806325971dff1461027c578063313ce5671461028457806339509351146102a257806340c10f19146102ce5780635a5f14c8146102fa5780636c8381f81461032057610142565b806306fdde031461014757806307880b7f146101c4578063095ea7b3146101ec57806318160ddd1461022c57806323b872dd14610246575b600080fd5b61014f6105cb565b6040805160208082528351818301528351919283929083019185019080838360005b83811015610189578181015183820152602001610171565b50505050905090810190601f1680156101b65780820380516001836020036101000a031916815260200191505b509250505060405180910390f35b6101ea600480360360208110156101da57600080fd5b50356001600160a01b0316610661565b005b6102186004803603604081101561020257600080fd5b506001600160a01b03813516906020013561070c565b604080519115158252519081900360200190f35b610234610729565b60408051918252519081900360200190f35b6102186004803603606081101561025c57600080fd5b506001600160a01b0381358116916020810135909116906040013561072f565b6101ea6107b6565b61028c610863565b6040805160ff9092168252519081900360200190f35b610218600480360360408110156102b857600080fd5b506001600160a01b03813516906020013561086c565b6101ea600480360360408110156102e457600080fd5b506001600160a01b0381351690602001356108ba565b6101ea6004803603602081101561031057600080fd5b50356001600160a01b031661098e565b610328610ae5565b604080516001600160a01b039092168252519081900360200190f35b6102346004803603602081101561035a57600080fd5b50356001600160a01b0316610af4565b6101ea6004803603602081101561038057600080fd5b50356001600160a01b0316610b0f565b61014f610c66565b6101ea600480360360408110156103ae57600080fd5b506001600160a01b038135169060200135610cc7565b610218600480360360408110156103da57600080fd5b506001600160a01b038135169060200135610d96565b6102186004803603604081101561040657600080fd5b506001600160a01b038135169060200135610dfe565b6101ea6004803603606081101561043257600080fd5b506001600160a01b03813581169160208101359091169060400135610e12565b6102346004803603604081101561046857600080fd5b506001600160a01b0381358116916020013516610ee7565b6101ea6004803603608081101561049657600080fd5b81359190810190604081016020820135600160201b8111156104b757600080fd5b8201836020820111156104c957600080fd5b803590602001918460018302840111600160201b831117156104ea57600080fd5b91908080601f0160208091040260200160405190810160405280939291908181526020018383808284376000920191909152509295949360208101935035915050600160201b81111561053c57600080fd5b82018360208201111561054e57600080fd5b803590602001918460018302840111600160201b8311171561056f57600080fd5b91908080601f016020809104026020016040519081016040528093929190818152602001838380828437600092019190915250929550505090356001600160a01b03169150610f129050565b610328610fd0565b610234610fdf565b60368054604080516020601f60026000196101006001881615020190951694909404938401819004810282018101909252828152606093909290918301828280156106575780601f1061062c57610100808354040283529160200191610657565b820191906000526020600020905b81548152906001019060200180831161063a57829003601f168201915b5050505050905090565b6065546001600160a01b031633146106aa5760405162461bcd60e51b8152600401808060200182810382526043815260200180611a506043913960600191505060405180910390fd5b606680546001600160a01b038381166001600160a01b0319831617928390556040805192821680845293909116602083015280517f7f730391c4f0fa1bea34bcb9bff8c30a079b21a0359759160cb990648ab84c729281900390910190a15050565b6000610720610719610fe5565b8484610fe9565b50600192915050565b60355490565b600061073c8484846110d5565b6107ac84610748610fe5565b6107a78560405180606001604052806028815260200161194f602891396001600160a01b038a16600090815260346020526040812090610786610fe5565b6001600160a01b031681526020810191909152604001600020549190611220565b610fe9565b5060019392505050565b6066546001600160a01b031633146107ff5760405162461bcd60e51b81526004018080602001828103825260338152602001806118cd6033913960400191505060405180910390fd5b606580546066546001600160a01b031982166001600160a01b0391821617928390556040805192821680845293909116602083015280517f7e644d79422f17c01e4894b5f4f588d331ebfa28653d42ae832dc59e38c9798f9281900390910190a150565b60385460ff1690565b6000610720610879610fe5565b846107a7856034600061088a610fe5565b6001600160a01b03908116825260208083019390935260409182016000908120918c1681529252902054906112b7565b60985460408051632474521560e21b81526a1254d4d55157d054d4d15560aa1b600482015233602482015290516001600160a01b03909216916391d1485491604480820192602092909190829003018186803b15801561091957600080fd5b505afa15801561092d573d6000803e3d6000fd5b505050506040513d602081101561094357600080fd5b50516109805760405162461bcd60e51b8152600401808060200182810382526028815260200180611a286028913960400191505060405180910390fd5b61098a8282611318565b5050565b6065546001600160a01b031633146109d75760405162461bcd60e51b8152600401808060200182810382526043815260200180611a506043913960600191505060405180910390fd5b806001600160a01b031663768911da6040518163ffffffff1660e01b815260040180806e131b9058d8d95cdcd0dbdb9d1c9bdb608a1b815250602001806020018281038252602181526020018061192e6021913960400191505060206040518083038186803b158015610a4957600080fd5b505afa158015610a5d573d6000803e3d6000fd5b505050506040513d6020811015610a7357600080fd5b5051609880546001600160a01b0319166001600160a01b039283161790819055604080516e131b9058d8d95cdcd0dbdb9d1c9bdb608a1b815291909216602082015281517f17b158864f8c520aff3282c940ec6a731d26235b9b00b651c0dd1dafb3170f5f929181900390910190a150565b6066546001600160a01b031681565b6001600160a01b031660009081526033602052604090205490565b600054610100900460ff1680610b285750610b286113f8565b80610b36575060005460ff16155b610b715760405162461bcd60e51b815260040180806020018281038252602e815260200180611900602e913960400191505060405180910390fd5b600054610100900460ff16158015610b9c576000805460ff1961ff0019909116610100171660011790555b6001600160a01b038216610bf7576040805162461bcd60e51b815260206004820181905260248201527f4c6e41646d696e5570677261646561626c653a207a65726f2061646472657373604482015290519081900360640190fd5b606580546001600160a01b0319166001600160a01b0384169081179091556040805160008152602081019290925280517f7e644d79422f17c01e4894b5f4f588d331ebfa28653d42ae832dc59e38c9798f9281900390910190a1801561098a576000805461ff00191690555050565b60378054604080516020601f60026000196101006001881615020190951694909404938401819004810282018101909252828152606093909290918301828280156106575780601f1061062c57610100808354040283529160200191610657565b60985460408051632474521560e21b8152691095549397d054d4d15560b21b600482015233602482015290516001600160a01b03909216916391d1485491604480820192602092909190829003018186803b158015610d2557600080fd5b505afa158015610d39573d6000803e3d6000fd5b505050506040513d6020811015610d4f57600080fd5b5051610d8c5760405162461bcd60e51b81526004018080602001828103825260278152602001806119776027913960400191505060405180910390fd5b61098a8282611409565b6000610720610da3610fe5565b846107a785604051806060016040528060258152602001611a936025913960346000610dcd610fe5565b6001600160a01b03908116825260208083019390935260409182016000908120918d16815292529020549190611220565b6000610720610e0b610fe5565b84846110d5565b60985460408051632474521560e21b8152691353d59157d054d4d15560b21b600482015233602482015290516001600160a01b03909216916391d1485491604480820192602092909190829003018186803b158015610e7057600080fd5b505afa158015610e84573d6000803e3d6000fd5b505050506040513d6020811015610e9a57600080fd5b5051610ed75760405162461bcd60e51b815260040180806020018281038252602781526020018061185e6027913960400191505060405180910390fd5b610ee28383836110d5565b505050565b6001600160a01b03918216600090815260346020908152604080832093909416825291909152205490565b600054610100900460ff1680610f2b5750610f2b6113f8565b80610f39575060005460ff16155b610f745760405162461bcd60e51b815260040180806020018281038252602e815260200180611900602e913960400191505060405180910390fd5b600054610100900460ff16158015610f9f576000805460ff1961ff0019909116610100171660011790555b610fa984846114f3565b610fb282610b0f565b60978590558015610fc9576000805461ff00191690555b5050505050565b6065546001600160a01b031681565b60975490565b3390565b6001600160a01b03831661102e5760405162461bcd60e51b8152600401808060200182810382526024815260200180611a046024913960400191505060405180910390fd5b6001600160a01b0382166110735760405162461bcd60e51b81526004018080602001828103825260228152602001806118856022913960400191505060405180910390fd5b6001600160a01b03808416600081815260346020908152604080832094871680845294825291829020859055815185815291517f8c5be1e5ebec7d5bd14f71427d1e84f3dd0314c0f7b2291e5b200ac8c7c3b9259281900390910190a3505050565b6001600160a01b03831661111a5760405162461bcd60e51b81526004018080602001828103825260258152602001806119df6025913960400191505060405180910390fd5b6001600160a01b03821661115f5760405162461bcd60e51b81526004018080602001828103825260238152602001806118196023913960400191505060405180910390fd5b61116a838383610ee2565b6111a7816040518060600160405280602681526020016118a7602691396001600160a01b0386166000908152603360205260409020549190611220565b6001600160a01b0380851660009081526033602052604080822093909355908416815220546111d690826112b7565b6001600160a01b03808416600081815260336020908152604091829020949094558051858152905191939287169260008051602061199e83398151915292918290030190a3505050565b600081848411156112af5760405162461bcd60e51b81526004018080602001828103825283818151815260200191508051906020019080838360005b8381101561127457818101518382015260200161125c565b50505050905090810190601f1680156112a15780820380516001836020036101000a031916815260200191505b509250505060405180910390fd5b505050900390565b600082820183811015611311576040805162461bcd60e51b815260206004820152601b60248201527f536166654d6174683a206164646974696f6e206f766572666c6f770000000000604482015290519081900360640190fd5b9392505050565b6001600160a01b038216611373576040805162461bcd60e51b815260206004820152601f60248201527f45524332303a206d696e7420746f20746865207a65726f206164647265737300604482015290519081900360640190fd5b61137f60008383610ee2565b60355461138c90826112b7565b6035556001600160a01b0382166000908152603360205260409020546113b290826112b7565b6001600160a01b038316600081815260336020908152604080832094909455835185815293519293919260008051602061199e8339815191529281900390910190a35050565b6000611403306115a8565b15905090565b6001600160a01b03821661144e5760405162461bcd60e51b81526004018080602001828103825260218152602001806119be6021913960400191505060405180910390fd5b61145a82600083610ee2565b6114978160405180606001604052806022815260200161183c602291396001600160a01b0385166000908152603360205260409020549190611220565b6001600160a01b0383166000908152603360205260409020556035546114bd90826115ae565b6035556040805182815290516000916001600160a01b0385169160008051602061199e8339815191529181900360200190a35050565b600054610100900460ff168061150c575061150c6113f8565b8061151a575060005460ff16155b6115555760405162461bcd60e51b815260040180806020018281038252602e815260200180611900602e913960400191505060405180910390fd5b600054610100900460ff16158015611580576000805460ff1961ff0019909116610100171660011790555b61158861160b565b61159283836116ad565b8015610ee2576000805461ff0019169055505050565b3b151590565b600082821115611605576040805162461bcd60e51b815260206004820152601e60248201527f536166654d6174683a207375627472616374696f6e206f766572666c6f770000604482015290519081900360640190fd5b50900390565b600054610100900460ff168061162457506116246113f8565b80611632575060005460ff16155b61166d5760405162461bcd60e51b815260040180806020018281038252602e815260200180611900602e913960400191505060405180910390fd5b600054610100900460ff16158015611698576000805460ff1961ff0019909116610100171660011790555b80156116aa576000805461ff00191690555b50565b600054610100900460ff16806116c657506116c66113f8565b806116d4575060005460ff16155b61170f5760405162461bcd60e51b815260040180806020018281038252602e815260200180611900602e913960400191505060405180910390fd5b600054610100900460ff1615801561173a576000805460ff1961ff0019909116610100171660011790555b825161174d906036906020860190611785565b508151611761906037906020850190611785565b506038805460ff191660121790558015610ee2576000805461ff0019169055505050565b828054600181600116156101000203166002900490600052602060002090601f016020900481019282601f106117c657805160ff19168380011785556117f3565b828001600101855582156117f3579182015b828111156117f35782518255916020019190600101906117d8565b506117ff929150611803565b5090565b5b808211156117ff576000815560010161180456fe45524332303a207472616e7366657220746f20746865207a65726f206164647265737345524332303a206275726e20616d6f756e7420657863656564732062616c616e63654c6e41737365745570677261646561626c653a206e6f74204d4f56455f415353455420726f6c6545524332303a20617070726f766520746f20746865207a65726f206164647265737345524332303a207472616e7366657220616d6f756e7420657863656564732062616c616e63654c6e41646d696e5570677261646561626c653a206f6e6c792063616e6469646174652063616e206265636f6d652061646d696e496e697469616c697a61626c653a20636f6e747261637420697320616c726561647920696e697469616c697a65644c6e416363657373436f6e74726f6c2061646472657373206e6f742076616c696445524332303a207472616e7366657220616d6f756e74206578636565647320616c6c6f77616e63654c6e41737365745570677261646561626c653a206e6f74204255524e5f415353455420726f6c65ddf252ad1be2c89b69c2b068fc378daa952ba7f163c4a11628f55a4df523b3ef45524332303a206275726e2066726f6d20746865207a65726f206164647265737345524332303a207472616e736665722066726f6d20746865207a65726f206164647265737345524332303a20617070726f76652066726f6d20746865207a65726f20616464726573734c6e41737365745570677261646561626c653a206e6f742049535355455f415353455420726f6c654c6e41646d696e5570677261646561626c653a206f6e6c792074686520636f6e74726163742061646d696e2063616e20706572666f726d207468697320616374696f6e45524332303a2064656372656173656420616c6c6f77616e63652062656c6f77207a65726fa264697066735822122053e334c9432d6f3b6c6e5d40fda2ed357d1d3ac41adf4faacd6efd8c5aed28c264736f6c634300060c0033",
  "linkReferences": {},
  "deployedLinkReferences": {}
}