{
  "_format": "hh-sol-artifact-1",
  "contractName": "LnBuildBurnSystem",
  "sourceName": "contracts/LnBuildBurnSystem.sol",
  "abi": [
    {
      "anonymous": false,
      "inputs": [
        {
          "indexed": false,
          "internalType": "address",
          "name": "oldAdmin",
          "type": "address"
        },
        {
          "indexed": false,
          "internalType": "address",
          "name": "newAdmin",
          "type": "address"
        }
      ],
      "name": "AdminChanged",
      "type": "event"
    },
    {
      "anonymous": false,
      "inputs": [
        {
          "indexed": false,
          "internalType": "address",
          "name": "debtUser",
          "type": "address"
        },
        {
          "indexed": false,
          "internalType": "address",
          "name": "burnUser",
          "type": "address"
        },
        {
          "indexed": false,
          "internalType": "uint256",
          "name": "burnAmount",
          "type": "uint256"
        }
      ],
      "name": "Burn",
      "type": "event"
    },
    {
      "anonymous": false,
      "inputs": [
        {
          "indexed": false,
          "internalType": "address",
          "name": "oldCandidate",
          "type": "address"
        },
        {
          "indexed": false,
          "internalType": "address",
          "name": "newCandidate",
          "type": "address"
        }
      ],
      "name": "CandidateChanged",
      "type": "event"
    },
    {
      "anonymous": false,
      "inputs": [
        {
          "indexed": false,
          "internalType": "address",
          "name": "user",
          "type": "address"
        },
        {
          "indexed": false,
          "internalType": "uint256",
          "name": "amount",
          "type": "uint256"
        }
      ],
      "name": "Mint",
      "type": "event"
    },
    {
      "anonymous": false,
      "inputs": [
        {
          "indexed": false,
          "internalType": "address",
          "name": "account",
          "type": "address"
        }
      ],
      "name": "Paused",
      "type": "event"
    },
    {
      "anonymous": false,
      "inputs": [
        {
          "indexed": false,
          "internalType": "address",
          "name": "account",
          "type": "address"
        }
      ],
      "name": "Unpaused",
      "type": "event"
    },
    {
      "anonymous": false,
      "inputs": [
        {
          "indexed": false,
          "internalType": "address",
          "name": "oldAddr",
          "type": "address"
        },
        {
          "indexed": false,
          "internalType": "address",
          "name": "newAddr",
          "type": "address"
        }
      ],
      "name": "UpdateLusdToken",
      "type": "event"
    },
    {
      "inputs": [
        {
          "internalType": "uint256",
          "name": "amount",
          "type": "uint256"
        }
      ],
      "name": "BuildAsset",
      "outputs": [
        {
          "internalType": "bool",
          "name": "",
          "type": "bool"
        }
      ],
      "stateMutability": "nonpayable",
      "type": "function"
    },
    {
      "inputs": [],
      "name": "BuildMaxAsset",
      "outputs": [],
      "stateMutability": "nonpayable",
      "type": "function"
    },
    {
      "inputs": [
        {
          "internalType": "uint256",
          "name": "amount",
          "type": "uint256"
        }
      ],
      "name": "BurnAsset",
      "outputs": [
        {
          "internalType": "bool",
          "name": "",
          "type": "bool"
        }
      ],
      "stateMutability": "nonpayable",
      "type": "function"
    },
    {
      "inputs": [],
      "name": "BurnAssetToTarget",
      "outputs": [
        {
          "internalType": "bool",
          "name": "",
          "type": "bool"
        }
      ],
      "stateMutability": "nonpayable",
      "type": "function"
    },
    {
      "inputs": [
        {
          "internalType": "address",
          "name": "user",
          "type": "address"
        }
      ],
      "name": "MaxCanBuildAsset",
      "outputs": [
        {
          "internalType": "uint256",
          "name": "",
          "type": "uint256"
        }
      ],
      "stateMutability": "view",
      "type": "function"
    },
    {
      "inputs": [
        {
          "internalType": "address",
          "name": "_address",
          "type": "address"
        }
      ],
      "name": "SetLusdTokenAddress",
      "outputs": [],
      "stateMutability": "nonpayable",
      "type": "function"
    },
    {
      "inputs": [
        {
          "internalType": "address",
          "name": "_admin",
          "type": "address"
        }
      ],
      "name": "__LnAdminUpgradeable_init",
      "outputs": [],
      "stateMutability": "nonpayable",
      "type": "function"
    },
    {
      "inputs": [
        {
          "internalType": "address",
          "name": "admin",
          "type": "address"
        },
        {
          "internalType": "contract ILnAsset",
          "name": "_lUSDToken",
          "type": "address"
        },
        {
          "internalType": "contract ILnDebtSystem",
          "name": "_debtSystem",
          "type": "address"
        },
        {
          "internalType": "contract ILnPrices",
          "name": "_priceGetter",
          "type": "address"
        },
        {
          "internalType": "contract ILnCollateralSystem",
          "name": "_collaterSys",
          "type": "address"
        },
        {
          "internalType": "contract ILnConfig",
          "name": "_mConfig",
          "type": "address"
        },
        {
          "internalType": "address",
          "name": "_liquidation",
          "type": "address"
        }
      ],
      "name": "__LnBuildBurnSystem_init",
      "outputs": [],
      "stateMutability": "nonpayable",
      "type": "function"
    },
    {
      "inputs": [],
      "name": "admin",
      "outputs": [
        {
          "internalType": "address",
          "name": "",
          "type": "address"
        }
      ],
      "stateMutability": "view",
      "type": "function"
    },
    {
      "inputs": [],
      "name": "becomeAdmin",
      "outputs": [],
      "stateMutability": "nonpayable",
      "type": "function"
    },
    {
      "inputs": [
        {
          "internalType": "address",
          "name": "user",
          "type": "address"
        },
        {
          "internalType": "uint256",
          "name": "amount",
          "type": "uint256"
        }
      ],
      "name": "buildFromCollateralSys",
      "outputs": [],
      "stateMutability": "nonpayable",
      "type": "function"
    },
    {
      "inputs": [
        {
          "internalType": "address",
          "name": "user",
          "type": "address"
        }
      ],
      "name": "buildMaxFromCollateralSys",
      "outputs": [],
      "stateMutability": "nonpayable",
      "type": "function"
    },
    {
      "inputs": [
        {
          "internalType": "address",
          "name": "user",
          "type": "address"
        },
        {
          "internalType": "address",
          "name": "liquidator",
          "type": "address"
        },
        {
          "internalType": "uint256",
          "name": "amount",
          "type": "uint256"
        }
      ],
      "name": "burnForLiquidation",
      "outputs": [],
      "stateMutability": "nonpayable",
      "type": "function"
    },
    {
      "inputs": [
        {
          "internalType": "address",
          "name": "user",
          "type": "address"
        },
        {
          "internalType": "uint256",
          "name": "amount",
          "type": "uint256"
        }
      ],
      "name": "burnFromCollateralSys",
      "outputs": [],
      "stateMutability": "nonpayable",
      "type": "function"
    },
    {
      "inputs": [],
      "name": "candidate",
      "outputs": [
        {
          "internalType": "address",
          "name": "",
          "type": "address"
        }
      ],
      "stateMutability": "view",
      "type": "function"
    },
    {
      "inputs": [],
      "name": "paused",
      "outputs": [
        {
          "internalType": "bool",
          "name": "",
          "type": "bool"
        }
      ],
      "stateMutability": "view",
      "type": "function"
    },
    {
      "inputs": [
        {
          "internalType": "address",
          "name": "_candidate",
          "type": "address"
        }
      ],
      "name": "setCandidate",
      "outputs": [],
      "stateMutability": "nonpayable",
      "type": "function"
    },
    {
      "inputs": [
        {
          "internalType": "contract ILnCollateralSystem",
          "name": "newAddress",
          "type": "address"
        }
      ],
      "name": "setCollateralSystemAddress",
      "outputs": [],
      "stateMutability": "nonpayable",
      "type": "function"
    },
    {
      "inputs": [
        {
          "internalType": "address",
          "name": "newAddress",
          "type": "address"
        }
      ],
      "name": "setLiquidationAddress",
      "outputs": [],
      "stateMutability": "nonpayable",
      "type": "function"
    },
    {
      "inputs": [
        {
          "internalType": "bool",
          "name": "_paused",
          "type": "bool"
        }
      ],
      "name": "setPaused",
      "outputs": [],
      "stateMutability": "nonpayable",
      "type": "function"
    }
  ],
  "bytecode": "0x608060405234801561001057600080fd5b50611e70806100206000396000f3fe608060405234801561001057600080fd5b506004361061012b5760003560e01c8063afd9613b116100ad578063f22f9a4411610071578063f22f9a4414610346578063f455a9ab14610363578063f851a44014610389578063f8cacfdf14610391578063ff9227ce146103b75761012b565b8063afd9613b14610265578063b390bb5614610291578063b6907075146102ae578063c4d14e5614610306578063f06f6bbd1461033e5761012b565b806353add9aa116100f457806353add9aa146101cb5780635c975abb146101f75780636c8381f8146102135780638e118b8314610237578063a42a06d31461025d5761012b565b806252e0b81461013057806307880b7f146101585780630d46754f1461017e57806316c38b3c146101a457806325971dff146101c3575b600080fd5b6101566004803603602081101561014657600080fd5b50356001600160a01b03166103ed565b005b6101566004803603602081101561016e57600080fd5b50356001600160a01b03166104a6565b6101566004803603602081101561019457600080fd5b50356001600160a01b0316610557565b610156600480360360208110156101ba57600080fd5b503515156105f9565b610156610663565b610156600480360360408110156101e157600080fd5b506001600160a01b03813516906020013561071f565b6101ff6107c4565b604080519115158252519081900360200190f35b61021b6107cd565b604080516001600160a01b039092168252519081900360200190f35b6101566004803603602081101561024d57600080fd5b50356001600160a01b03166107dc565b61015661093c565b6101566004803603604081101561027b57600080fd5b506001600160a01b038135169060200135610994565b6101ff600480360360208110156102a757600080fd5b5035610a35565b610156600480360360e08110156102c457600080fd5b506001600160a01b038135811691602081013582169160408201358116916060810135821691608082013581169160a081013582169160c09091013516610a98565b61032c6004803603602081101561031c57600080fd5b50356001600160a01b0316610d62565b60408051918252519081900360200190f35b6101ff610eed565b6101ff6004803603602081101561035c57600080fd5b5035611207565b6101566004803603602081101561037957600080fd5b50356001600160a01b031661126b565b61021b611325565b610156600480360360208110156103a757600080fd5b50356001600160a01b031661133a565b610156600480360360608110156103cd57600080fd5b506001600160a01b038135811691602081013590911690604001356113f4565b6000546201000090046001600160a01b0316331461043c5760405162461bcd60e51b8152600401808060200182810382526043815260200180611df86043913960600191505060405180910390fd5b609654604080516001600160a01b039283168152918316602083015280517f1d874926a78c182b4824609bc4068a5db0de62896be4a392d42938c1a31009999281900390910190a1609680546001600160a01b0319166001600160a01b0392909216919091179055565b6000546201000090046001600160a01b031633146104f55760405162461bcd60e51b8152600401808060200182810382526043815260200180611df86043913960600191505060405180910390fd5b600180546001600160a01b038381166001600160a01b0319831617928390556040805192821680845293909116602083015280517f7f730391c4f0fa1bea34bcb9bff8c30a079b21a0359759160cb990648ab84c729281900390910190a15050565b61055f6107c4565b156105a4576040805162461bcd60e51b815260206004820152601060248201526f14185d5cd8589b194e881c185d5cd95960821b604482015290519081900360640190fd5b6099546001600160a01b031633146105ed5760405162461bcd60e51b8152600401808060200182810382526028815260200180611cde6028913960400191505060405180910390fd5b6105f681611495565b50565b6000546201000090046001600160a01b031633146106485760405162461bcd60e51b8152600401808060200182810382526043815260200180611df86043913960600191505060405180910390fd5b801561065b576106566114ac565b6105f6565b6105f661154c565b6001546001600160a01b031633146106ac5760405162461bcd60e51b8152600401808060200182810382526033815260200180611d266033913960400191505060405180910390fd5b600080546001546001600160a01b039081166201000090810262010000600160b01b03198416179384905560408051938290048316808552919094049091166020830152825190927f7e644d79422f17c01e4894b5f4f588d331ebfa28653d42ae832dc59e38c9798f928290030190a150565b6107276107c4565b1561076c576040805162461bcd60e51b815260206004820152601060248201526f14185d5cd8589b194e881c185d5cd95960821b604482015290519081900360640190fd5b6099546001600160a01b031633146107b55760405162461bcd60e51b8152600401808060200182810382526028815260200180611cde6028913960400191505060405180910390fd5b6107bf82826115cf565b505050565b60645460ff1690565b6001546001600160a01b031681565b600054610100900460ff16806107f557506107f561187e565b80610803575060005460ff16155b61083e5760405162461bcd60e51b815260040180806020018281038252602e815260200180611d7b602e913960400191505060405180910390fd5b600054610100900460ff16158015610869576000805460ff1961ff0019909116610100171660011790555b6001600160a01b0382166108c4576040805162461bcd60e51b815260206004820181905260248201527f4c6e41646d696e5570677261646561626c653a207a65726f2061646472657373604482015290519081900360640190fd5b6000805462010000600160b01b031916620100006001600160a01b03851690810291909117825560408051928352602083019190915280517f7e644d79422f17c01e4894b5f4f588d331ebfa28653d42ae832dc59e38c9798f9281900390910190a18015610938576000805461ff00191690555b5050565b6109446107c4565b15610989576040805162461bcd60e51b815260206004820152601060248201526f14185d5cd8589b194e881c185d5cd95960821b604482015290519081900360640190fd5b61099233611495565b565b61099c6107c4565b156109e1576040805162461bcd60e51b815260206004820152601060248201526f14185d5cd8589b194e881c185d5cd95960821b604482015290519081900360640190fd5b6099546001600160a01b03163314610a2a5760405162461bcd60e51b8152600401808060200182810382526028815260200180611cde6028913960400191505060405180910390fd5b61093882838361188f565b6000610a3f6107c4565b15610a84576040805162461bcd60e51b815260206004820152601060248201526f14185d5cd8589b194e881c185d5cd95960821b604482015290519081900360640190fd5b33610a8f81846115cf565b9150505b919050565b600054610100900460ff1680610ab15750610ab161187e565b80610abf575060005460ff16155b610afa5760405162461bcd60e51b815260040180806020018281038252602e815260200180611d7b602e913960400191505060405180910390fd5b600054610100900460ff16158015610b25576000805460ff1961ff0019909116610100171660011790555b610b2e886107dc565b6001600160a01b038716610b77576040805162461bcd60e51b815260206004820152601f6024820152600080516020611d06833981519152604482015290519081900360640190fd5b6001600160a01b038616610bc0576040805162461bcd60e51b815260206004820152601f6024820152600080516020611d06833981519152604482015290519081900360640190fd5b6001600160a01b038516610c09576040805162461bcd60e51b815260206004820152601f6024820152600080516020611d06833981519152604482015290519081900360640190fd5b6001600160a01b038416610c52576040805162461bcd60e51b815260206004820152601f6024820152600080516020611d06833981519152604482015290519081900360640190fd5b6001600160a01b038316610c9b576040805162461bcd60e51b815260206004820152601f6024820152600080516020611d06833981519152604482015290519081900360640190fd5b6001600160a01b038216610ce4576040805162461bcd60e51b815260206004820152601f6024820152600080516020611d06833981519152604482015290519081900360640190fd5b609680546001600160a01b03199081166001600160a01b038a811691909117909255609780548216898416179055609880548216888416179055609980548216878416179055609a80548216868416179055609b80549091169184169190911790558015610d58576000805461ff00191690555b5050505050505050565b609a5460995460408051630de15fd960e01b8152905160009384936001600160a01b039182169363bd02d0f593610dee9390921691630de15fd991600480820192602092909190829003018186803b158015610dbd57600080fd5b505afa158015610dd1573d6000803e3d6000fd5b505050506040513d6020811015610de757600080fd5b5051611ad4565b6040518263ffffffff1660e01b81526004018082815260200191505060206040518083038186803b158015610e2257600080fd5b505afa158015610e36573d6000803e3d6000fd5b505050506040513d6020811015610e4c57600080fd5b505190506000610ee5610e5d611aee565b6099546040805163023308cf60e51b81526001600160a01b0389811660048301529151610edf938893169163466119e0916024808301926020929190829003018186803b158015610ead57600080fd5b505afa158015610ec1573d6000803e3d6000fd5b505050506040513d6020811015610ed757600080fd5b505190611afa565b90611b5a565b949350505050565b6000610ef76107c4565b15610f3c576040805162461bcd60e51b815260206004820152601060248201526f14185d5cd8589b194e881c185d5cd95960821b604482015290519081900360640190fd5b609a5460995460408051630de15fd960e01b8152905133936000936001600160a01b039182169363bd02d0f593610f979390921691630de15fd991600480820192602092909190829003018186803b158015610dbd57600080fd5b6040518263ffffffff1660e01b81526004018082815260200191505060206040518083038186803b158015610fcb57600080fd5b505afa158015610fdf573d6000803e3d6000fd5b505050506040513d6020811015610ff557600080fd5b505160995460408051635126079160e01b81526001600160a01b038681166004830152915193945060009391909216916351260791916024808301926020929190829003018186803b15801561104a57600080fd5b505afa15801561105e573d6000803e3d6000fd5b505050506040513d602081101561107457600080fd5b5051905060006110848284611bc1565b609754604080516301882d0960e41b81526001600160a01b0388811660048301528251949550600094931692631882d09092602480840193919291829003018186803b1580156110d357600080fd5b505afa1580156110e7573d6000803e3d6000fd5b505050506040513d60408110156110fd57600080fd5b50519050818111611155576040805162461bcd60e51b815260206004820152601e60248201527f596f75206d617962652077616e74206275696c6420746f207461726765740000604482015290519081900360640190fd5b60006111618284611bdd565b609654604080516370a0823160e01b81526001600160a01b038a81166004830152915193945060009391909216916370a08231916024808301926020929190829003018186803b1580156111b457600080fd5b505afa1580156111c8573d6000803e3d6000fd5b505050506040513d60208110156111de57600080fd5b50519050818110156111ee578091505b6111f987888461188f565b600197505050505050505090565b60006112116107c4565b15611256576040805162461bcd60e51b815260206004820152601060248201526f14185d5cd8589b194e881c185d5cd95960821b604482015290519081900360640190fd5b3361126281808561188f565b50600192915050565b6000546201000090046001600160a01b031633146112ba5760405162461bcd60e51b8152600401808060200182810382526043815260200180611df86043913960600191505060405180910390fd5b6001600160a01b038116611303576040805162461bcd60e51b815260206004820152601f6024820152600080516020611d06833981519152604482015290519081900360640190fd5b609980546001600160a01b0319166001600160a01b0392909216919091179055565b6000546201000090046001600160a01b031681565b6000546201000090046001600160a01b031633146113895760405162461bcd60e51b8152600401808060200182810382526043815260200180611df86043913960600191505060405180910390fd5b6001600160a01b0381166113d2576040805162461bcd60e51b815260206004820152601f6024820152600080516020611d06833981519152604482015290519081900360640190fd5b609b80546001600160a01b0319166001600160a01b0392909216919091179055565b6113fc6107c4565b15611441576040805162461bcd60e51b815260206004820152601060248201526f14185d5cd8589b194e881c185d5cd95960821b604482015290519081900360640190fd5b609b546001600160a01b0316331461148a5760405162461bcd60e51b8152600401808060200182810382526022815260200180611d596022913960400191505060405180910390fd5b6107bf83838361188f565b60006114a082610d62565b90506107bf82826115cf565b6114b46107c4565b156114f9576040805162461bcd60e51b815260206004820152601060248201526f14185d5cd8589b194e881c185d5cd95960821b604482015290519081900360640190fd5b6064805460ff191660011790557f62e78cea01bee320cd4e420270b5ea74000d11b0c9f74754ebdbfc544b05a25861152f611c3a565b604080516001600160a01b039092168252519081900360200190a1565b6115546107c4565b61159c576040805162461bcd60e51b815260206004820152601460248201527314185d5cd8589b194e881b9bdd081c185d5cd95960621b604482015290519081900360640190fd5b6064805460ff191690557f5db9ee0a495bf2e6ff9c91a7834c1ba4fdd244a5e8aa4e537bd38aeae4b073aa61152f611c3a565b609a5460995460408051630de15fd960e01b8152905160009384936001600160a01b039182169363bd02d0f59361162a9390921691630de15fd991600480820192602092909190829003018186803b158015610dbd57600080fd5b6040518263ffffffff1660e01b81526004018082815260200191505060206040518083038186803b15801561165e57600080fd5b505afa158015611672573d6000803e3d6000fd5b505050506040513d602081101561168857600080fd5b50516099546040805163023308cf60e51b81526001600160a01b0388811660048301529151939450600093611712938693169163466119e0916024808301926020929190829003018186803b1580156116e057600080fd5b505afa1580156116f4573d6000803e3d6000fd5b505050506040513d602081101561170a57600080fd5b505190611bc1565b9050808411156117535760405162461bcd60e51b815260040180806020018281038252602e815260200180611dca602e913960400191505060405180910390fd5b6097546040805163f8585db360e01b81526001600160a01b038881166004830152602482018890529151919092169163f8585db391604480830192600092919082900301818387803b1580156117a857600080fd5b505af11580156117bc573d6000803e3d6000fd5b5050609654604080516340c10f1960e01b81526001600160a01b038a81166004830152602482018a905291519190921693506340c10f199250604480830192600092919082900301818387803b15801561181557600080fd5b505af1158015611829573d6000803e3d6000fd5b5050604080516001600160a01b03891681526020810188905281517f0f6798a560793a54c3bcfe86a93cde1e73087d944c0ea20544137d41213968859450908190039091019150a16001925050505b92915050565b600061188930611c3e565b15905090565b600081116118d6576040805162461bcd60e51b815260206004820152600f60248201526e0616d6f756e74206e656564203e203608c1b604482015290519081900360640190fd5b609754604080516301882d0960e41b81526001600160a01b03868116600483015282516000949190911692631882d0909260248082019391829003018186803b15801561192257600080fd5b505afa158015611936573d6000803e3d6000fd5b505050506040513d604081101561194c57600080fd5b5051905080611995576040805162461bcd60e51b815260206004820152601060248201526f3737903232b13a1610373790313ab93760811b604482015290519081900360640190fd5b60008282106119a457826119a6565b815b60975460408051632fb9ba3160e01b81526001600160a01b038981166004830152602482018590529151939450911691632fb9ba319160448082019260009290919082900301818387803b1580156119fd57600080fd5b505af1158015611a11573d6000803e3d6000fd5b505060965460408051632770a7eb60e21b81526001600160a01b038981166004830152602482018790529151919092169350639dc29fac9250604480830192600092919082900301818387803b158015611a6a57600080fd5b505af1158015611a7e573d6000803e3d6000fd5b5050604080516001600160a01b03808a1682528816602082015280820185905290517fbac40739b0d4ca32fa2d82fc91630465ba3eddd1598da6fca393b26fb63b94539350908190036060019150a15050505050565b6000611878694275696c64526174696f60b01b8084611c44565b670de0b6b3a764000090565b600082611b0957506000611878565b82820282848281611b1657fe5b0414611b535760405162461bcd60e51b8152600401808060200182810382526021815260200180611da96021913960400191505060405180910390fd5b9392505050565b6000808211611bb0576040805162461bcd60e51b815260206004820152601a60248201527f536166654d6174683a206469766973696f6e206279207a65726f000000000000604482015290519081900360640190fd5b818381611bb957fe5b049392505050565b6000670de0b6b3a7640000611bd68484611afa565b81611bb957fe5b600082821115611c34576040805162461bcd60e51b815260206004820152601e60248201527f536166654d6174683a207375627472616374696f6e206f766572666c6f770000604482015290519081900360640190fd5b50900390565b3390565b3b151590565b6000634c494e4160e01b821415611c5c575082611b53565b610ee58383600080611c6d83611c95565b60018101600890810260ff90811687901c605f60f81b92909302161c17831791505092915050565b6000805b601f8160ff1611611cd457828160ff1660208110611cb357fe5b1a60f81b6001600160f81b031916611ccc579050610a93565b600101611c99565b5060209291505056fe4c6e4275696c644275726e53797374656d3a206e6f7420636f6c6c61746572616c2073797374656d4c6e4275696c644275726e53797374656d3a207a65726f2061646472657373004c6e41646d696e5570677261646561626c653a206f6e6c792063616e6469646174652063616e206265636f6d652061646d696e4c6e4275696c644275726e53797374656d3a206e6f74206c69717569646174696f6e496e697469616c697a61626c653a20636f6e747261637420697320616c726561647920696e697469616c697a6564536166654d6174683a206d756c7469706c69636174696f6e206f766572666c6f774275696c6420616d6f756e7420746f6f206269672c20796f75206e656564206d6f726520636f6c6c61746572616c4c6e41646d696e5570677261646561626c653a206f6e6c792074686520636f6e74726163742061646d696e2063616e20706572666f726d207468697320616374696f6ea26469706673582212203b10cd8d825dd287ab797044d98ec8b119973430bc472ff573c4b02c92a33d7764736f6c634300060c0033",
  "linkReferences": {},
  "deployedLinkReferences": {}
}