{
  "_format": "hh-sol-artifact-1",
  "contractName": "LnConfig",
  "sourceName": "contracts/LnConfig.sol",
  "abi": [
    {
      "anonymous": false,
      "inputs": [
        {
          "indexed": false,
          "internalType": "address",
          "name": "oldAdmin",
          "type": "address"
        },
        {
          "indexed": false,
          "internalType": "address",
          "name": "newAdmin",
          "type": "address"
        }
      ],
      "name": "AdminChanged",
      "type": "event"
    },
    {
      "anonymous": false,
      "inputs": [
        {
          "indexed": false,
          "internalType": "address",
          "name": "oldCandidate",
          "type": "address"
        },
        {
          "indexed": false,
          "internalType": "address",
          "name": "newCandidate",
          "type": "address"
        }
      ],
      "name": "CandidateChanged",
      "type": "event"
    },
    {
      "anonymous": false,
      "inputs": [
        {
          "indexed": false,
          "internalType": "bytes32",
          "name": "key",
          "type": "bytes32"
        },
        {
          "indexed": false,
          "internalType": "uint256",
          "name": "value",
          "type": "uint256"
        }
      ],
      "name": "SetUintConfig",
      "type": "event"
    },
    {
      "inputs": [],
      "name": "BUILD_RATIO",
      "outputs": [
        {
          "internalType": "bytes32",
          "name": "",
          "type": "bytes32"
        }
      ],
      "stateMutability": "view",
      "type": "function"
    },
    {
      "inputs": [
        {
          "internalType": "address",
          "name": "_admin",
          "type": "address"
        }
      ],
      "name": "__LnAdminUpgradeable_init",
      "outputs": [],
      "stateMutability": "nonpayable",
      "type": "function"
    },
    {
      "inputs": [
        {
          "internalType": "address",
          "name": "_admin",
          "type": "address"
        }
      ],
      "name": "__LnConfig_init",
      "outputs": [],
      "stateMutability": "nonpayable",
      "type": "function"
    },
    {
      "inputs": [],
      "name": "admin",
      "outputs": [
        {
          "internalType": "address",
          "name": "",
          "type": "address"
        }
      ],
      "stateMutability": "view",
      "type": "function"
    },
    {
      "inputs": [
        {
          "internalType": "bytes32[]",
          "name": "names",
          "type": "bytes32[]"
        },
        {
          "internalType": "uint256[]",
          "name": "values",
          "type": "uint256[]"
        }
      ],
      "name": "batchSet",
      "outputs": [],
      "stateMutability": "nonpayable",
      "type": "function"
    },
    {
      "inputs": [],
      "name": "becomeAdmin",
      "outputs": [],
      "stateMutability": "nonpayable",
      "type": "function"
    },
    {
      "inputs": [],
      "name": "candidate",
      "outputs": [
        {
          "internalType": "address",
          "name": "",
          "type": "address"
        }
      ],
      "stateMutability": "view",
      "type": "function"
    },
    {
      "inputs": [
        {
          "internalType": "bytes32",
          "name": "key",
          "type": "bytes32"
        }
      ],
      "name": "deleteUint",
      "outputs": [],
      "stateMutability": "nonpayable",
      "type": "function"
    },
    {
      "inputs": [
        {
          "internalType": "bytes32",
          "name": "key",
          "type": "bytes32"
        }
      ],
      "name": "getUint",
      "outputs": [
        {
          "internalType": "uint256",
          "name": "",
          "type": "uint256"
        }
      ],
      "stateMutability": "view",
      "type": "function"
    },
    {
      "inputs": [
        {
          "internalType": "address",
          "name": "_candidate",
          "type": "address"
        }
      ],
      "name": "setCandidate",
      "outputs": [],
      "stateMutability": "nonpayable",
      "type": "function"
    },
    {
      "inputs": [
        {
          "internalType": "bytes32",
          "name": "key",
          "type": "bytes32"
        },
        {
          "internalType": "uint256",
          "name": "value",
          "type": "uint256"
        }
      ],
      "name": "setUint",
      "outputs": [],
      "stateMutability": "nonpayable",
      "type": "function"
    }
  ],
  "bytecode": "0x608060405234801561001057600080fd5b506109b7806100206000396000f3fe608060405234801561001057600080fd5b50600436106100a95760003560e01c80636c8381f8116100715780636c8381f8146101dc5780638e118b8314610200578063bd02d0f514610226578063e2a4853a14610243578063e2b202bf14610266578063f851a44014610283576100a9565b806307880b7f146100ae57806325971dff146100d65780632f3e3379146100de5780634d6daf041461010457806362b12feb1461011e575b600080fd5b6100d4600480360360208110156100c457600080fd5b50356001600160a01b031661028b565b005b6100d461033c565b6100d4600480360360208110156100f457600080fd5b50356001600160a01b03166103f8565b61010c6104a4565b60408051918252519081900360200190f35b6100d46004803603604081101561013457600080fd5b810190602081018135600160201b81111561014e57600080fd5b82018360208201111561016057600080fd5b803590602001918460208302840111600160201b8311171561018157600080fd5b919390929091602081019035600160201b81111561019e57600080fd5b8201836020820111156101b057600080fd5b803590602001918460208302840111600160201b831117156101d157600080fd5b5090925090506104b5565b6101e46105f6565b604080516001600160a01b039092168252519081900360200190f35b6100d46004803603602081101561021657600080fd5b50356001600160a01b0316610605565b61010c6004803603602081101561023c57600080fd5b5035610764565b6100d46004803603604081101561025957600080fd5b5080359060200135610776565b6100d46004803603602081101561027c57600080fd5b5035610804565b6101e4610891565b6000546201000090046001600160a01b031633146102da5760405162461bcd60e51b815260040180806020018281038252604381526020018061093f6043913960600191505060405180910390fd5b600180546001600160a01b038381166001600160a01b0319831617928390556040805192821680845293909116602083015280517f7f730391c4f0fa1bea34bcb9bff8c30a079b21a0359759160cb990648ab84c729281900390910190a15050565b6001546001600160a01b031633146103855760405162461bcd60e51b81526004018080602001828103825260338152602001806108de6033913960400191505060405180910390fd5b600080546001546001600160a01b039081166201000090810262010000600160b01b03198416179384905560408051938290048316808552919094049091166020830152825190927f7e644d79422f17c01e4894b5f4f588d331ebfa28653d42ae832dc59e38c9798f928290030190a150565b600054610100900460ff168061041157506104116108a6565b8061041f575060005460ff16155b61045a5760405162461bcd60e51b815260040180806020018281038252602e815260200180610911602e913960400191505060405180910390fd5b600054610100900460ff16158015610485576000805460ff1961ff0019909116610100171660011790555b61048e82610605565b80156104a0576000805461ff00191690555b5050565b694275696c64526174696f60b01b81565b6000546201000090046001600160a01b031633146105045760405162461bcd60e51b815260040180806020018281038252604381526020018061093f6043913960600191505060405180910390fd5b828114610553576040805162461bcd60e51b8152602060048201526018602482015277092dce0eae840d8cadccee8d0e640daeae6e840dac2e8c6d60431b604482015290519081900360640190fd5b60005b838110156105ef5782828281811061056a57fe5b905060200201356032600087878581811061058157fe5b905060200201358152602001908152602001600020819055506000805160206108be8339815191528585838181106105b557fe5b905060200201358484848181106105c857fe5b604080519485526020918202939093013590840152508051918290030190a1600101610556565b5050505050565b6001546001600160a01b031681565b600054610100900460ff168061061e575061061e6108a6565b8061062c575060005460ff16155b6106675760405162461bcd60e51b815260040180806020018281038252602e815260200180610911602e913960400191505060405180910390fd5b600054610100900460ff16158015610692576000805460ff1961ff0019909116610100171660011790555b6001600160a01b0382166106ed576040805162461bcd60e51b815260206004820181905260248201527f4c6e41646d696e5570677261646561626c653a207a65726f2061646472657373604482015290519081900360640190fd5b6000805462010000600160b01b031916620100006001600160a01b03851690810291909117825560408051928352602083019190915280517f7e644d79422f17c01e4894b5f4f588d331ebfa28653d42ae832dc59e38c9798f9281900390910190a180156104a0576000805461ff00191690555050565b60009081526032602052604090205490565b6000546201000090046001600160a01b031633146107c55760405162461bcd60e51b815260040180806020018281038252604381526020018061093f6043913960600191505060405180910390fd5b600082815260326020908152604091829020839055815184815290810183905281516000805160206108be833981519152929181900390910190a15050565b6000546201000090046001600160a01b031633146108535760405162461bcd60e51b815260040180806020018281038252604381526020018061093f6043913960600191505060405180910390fd5b600081815260326020908152604080832083905580518481529182019290925281516000805160206108be833981519152929181900390910190a150565b6000546201000090046001600160a01b031681565b60006108b1306108b7565b15905090565b3b15159056fe7a94ff4a6f535d3c32d95ee8133406802cfc54b8a1e2b2221bc78df903b40c254c6e41646d696e5570677261646561626c653a206f6e6c792063616e6469646174652063616e206265636f6d652061646d696e496e697469616c697a61626c653a20636f6e747261637420697320616c726561647920696e697469616c697a65644c6e41646d696e5570677261646561626c653a206f6e6c792074686520636f6e74726163742061646d696e2063616e20706572666f726d207468697320616374696f6ea26469706673582212204f18ee2ec344c74eb3c3352299662f777c732aa6b0de0c631e3a01a1522daecf64736f6c634300060c0033",
  "linkReferences": {},
  "deployedLinkReferences": {}
}