{
  "_format": "hh-sol-artifact-1",
  "contractName": "LnDebtSystem",
  "sourceName": "contracts/LnDebtSystem.sol",
  "abi": [
    {
      "anonymous": false,
      "inputs": [
        {
          "indexed": false,
          "internalType": "address",
          "name": "oldAdmin",
          "type": "address"
        },
        {
          "indexed": false,
          "internalType": "address",
          "name": "newAdmin",
          "type": "address"
        }
      ],
      "name": "AdminChanged",
      "type": "event"
    },
    {
      "anonymous": false,
      "inputs": [
        {
          "indexed": false,
          "internalType": "address",
          "name": "oldCandidate",
          "type": "address"
        },
        {
          "indexed": false,
          "internalType": "address",
          "name": "newCandidate",
          "type": "address"
        }
      ],
      "name": "CandidateChanged",
      "type": "event"
    },
    {
      "anonymous": false,
      "inputs": [
        {
          "indexed": false,
          "internalType": "uint256",
          "name": "index",
          "type": "uint256"
        },
        {
          "indexed": false,
          "internalType": "uint256",
          "name": "newFactor",
          "type": "uint256"
        },
        {
          "indexed": false,
          "internalType": "uint256",
          "name": "timestamp",
          "type": "uint256"
        }
      ],
      "name": "PushDebtLog",
      "type": "event"
    },
    {
      "anonymous": false,
      "inputs": [
        {
          "indexed": false,
          "internalType": "address",
          "name": "addr",
          "type": "address"
        },
        {
          "indexed": false,
          "internalType": "uint256",
          "name": "debtProportion",
          "type": "uint256"
        },
        {
          "indexed": false,
          "internalType": "uint256",
          "name": "debtFactor",
          "type": "uint256"
        },
        {
          "indexed": false,
          "internalType": "uint256",
          "name": "timestamp",
          "type": "uint256"
        }
      ],
      "name": "UpdateUserDebtLog",
      "type": "event"
    },
    {
      "inputs": [
        {
          "internalType": "address",
          "name": "_user",
          "type": "address"
        }
      ],
      "name": "GetUserDebtBalanceInUsd",
      "outputs": [
        {
          "internalType": "uint256",
          "name": "",
          "type": "uint256"
        },
        {
          "internalType": "uint256",
          "name": "",
          "type": "uint256"
        }
      ],
      "stateMutability": "view",
      "type": "function"
    },
    {
      "inputs": [
        {
          "internalType": "address",
          "name": "_admin",
          "type": "address"
        }
      ],
      "name": "__LnAdminUpgradeable_init",
      "outputs": [],
      "stateMutability": "nonpayable",
      "type": "function"
    },
    {
      "inputs": [
        {
          "internalType": "address",
          "name": "_admin",
          "type": "address"
        },
        {
          "internalType": "contract ILnAccessControl",
          "name": "_accessCtrl",
          "type": "address"
        },
        {
          "internalType": "contract ILnAssetSystem",
          "name": "_assetSys",
          "type": "address"
        }
      ],
      "name": "__LnDebtSystem_init",
      "outputs": [],
      "stateMutability": "nonpayable",
      "type": "function"
    },
    {
      "inputs": [],
      "name": "accessCtrl",
      "outputs": [
        {
          "internalType": "contract ILnAccessControl",
          "name": "",
          "type": "address"
        }
      ],
      "stateMutability": "view",
      "type": "function"
    },
    {
      "inputs": [],
      "name": "admin",
      "outputs": [
        {
          "internalType": "address",
          "name": "",
          "type": "address"
        }
      ],
      "stateMutability": "view",
      "type": "function"
    },
    {
      "inputs": [],
      "name": "assetSys",
      "outputs": [
        {
          "internalType": "contract ILnAssetSystem",
          "name": "",
          "type": "address"
        }
      ],
      "stateMutability": "view",
      "type": "function"
    },
    {
      "inputs": [],
      "name": "becomeAdmin",
      "outputs": [],
      "stateMutability": "nonpayable",
      "type": "function"
    },
    {
      "inputs": [],
      "name": "candidate",
      "outputs": [
        {
          "internalType": "address",
          "name": "",
          "type": "address"
        }
      ],
      "stateMutability": "view",
      "type": "function"
    },
    {
      "inputs": [],
      "name": "collateralDebtFactor",
      "outputs": [
        {
          "internalType": "uint256",
          "name": "",
          "type": "uint256"
        }
      ],
      "stateMutability": "view",
      "type": "function"
    },
    {
      "inputs": [],
      "name": "debtCurrentIndex",
      "outputs": [
        {
          "internalType": "uint256",
          "name": "",
          "type": "uint256"
        }
      ],
      "stateMutability": "view",
      "type": "function"
    },
    {
      "inputs": [],
      "name": "debtDistribution",
      "outputs": [
        {
          "internalType": "contract IDebtDistribution",
          "name": "",
          "type": "address"
        }
      ],
      "stateMutability": "view",
      "type": "function"
    },
    {
      "inputs": [
        {
          "internalType": "address",
          "name": "_user",
          "type": "address"
        },
        {
          "internalType": "uint256",
          "name": "_amount",
          "type": "uint256"
        }
      ],
      "name": "decreaseDebt",
      "outputs": [],
      "stateMutability": "nonpayable",
      "type": "function"
    },
    {
      "inputs": [
        {
          "internalType": "address",
          "name": "_user",
          "type": "address"
        },
        {
          "internalType": "uint256",
          "name": "_amount",
          "type": "uint256"
        }
      ],
      "name": "increaseDebt",
      "outputs": [],
      "stateMutability": "nonpayable",
      "type": "function"
    },
    {
      "inputs": [
        {
          "internalType": "uint256",
          "name": "",
          "type": "uint256"
        }
      ],
      "name": "lastDebtFactors",
      "outputs": [
        {
          "internalType": "uint256",
          "name": "",
          "type": "uint256"
        }
      ],
      "stateMutability": "view",
      "type": "function"
    },
    {
      "inputs": [
        {
          "internalType": "address",
          "name": "_candidate",
          "type": "address"
        }
      ],
      "name": "setCandidate",
      "outputs": [],
      "stateMutability": "nonpayable",
      "type": "function"
    },
    {
      "inputs": [
        {
          "internalType": "contract IDebtDistribution",
          "name": "_debtDistribution",
          "type": "address"
        }
      ],
      "name": "setDebtDistribution",
      "outputs": [],
      "stateMutability": "nonpayable",
      "type": "function"
    },
    {
      "inputs": [
        {
          "internalType": "address",
          "name": "",
          "type": "address"
        }
      ],
      "name": "userDebtState",
      "outputs": [
        {
          "internalType": "uint256",
          "name": "debtProportion",
          "type": "uint256"
        },
        {
          "internalType": "uint256",
          "name": "debtFactor",
          "type": "uint256"
        }
      ],
      "stateMutability": "view",
      "type": "function"
    }
  ],
  "bytecode": "0x608060405234801561001057600080fd5b50611426806100206000396000f3fe608060405234801561001057600080fd5b50600436106100eb5760003560e01c80636c8381f8116100925780636c8381f81461021557806381268c1b1461021d5780638e118b8314610225578063a40d18b51461024b578063c394988814610253578063f851a4401461028b578063f8585db314610293578063f86dfd5e146102bf578063f9c9e059146102c7576100eb565b806307880b7f146100f05780631882d0901461011857806318b81a1f1461015757806325971dff146101715780632fb9ba311461017957806332e39404146101a557806359d27563146101cb57806363bc6c4a146101ef575b600080fd5b6101166004803603602081101561010657600080fd5b50356001600160a01b03166102e4565b005b61013e6004803603602081101561012e57600080fd5b50356001600160a01b0316610395565b6040805192835260208301919091528051918290030190f35b61015f6103ab565b60408051918252519081900360200190f35b6101166103b1565b6101166004803603604081101561018f57600080fd5b506001600160a01b03813516906020013561046d565b610116600480360360208110156101bb57600080fd5b50356001600160a01b03166105bd565b6101d3610686565b604080516001600160a01b039092168252519081900360200190f35b61013e6004803603602081101561020557600080fd5b50356001600160a01b0316610695565b6101d36106ae565b6101d36106bd565b6101166004803603602081101561023b57600080fd5b50356001600160a01b03166106cc565b6101d361082c565b6101166004803603606081101561026957600080fd5b506001600160a01b03813581169160208101358216916040909101351661083b565b6101d36109c9565b610116600480360360408110156102a957600080fd5b506001600160a01b0381351690602001356109de565b61015f610b29565b61015f600480360360208110156102dd57600080fd5b5035610b2f565b6000546201000090046001600160a01b031633146103335760405162461bcd60e51b81526004018080602001828103825260438152602001806113ae6043913960600191505060405180910390fd5b600180546001600160a01b038381166001600160a01b0319831617928390556040805192821680845293909116602083015280517f7f730391c4f0fa1bea34bcb9bff8c30a079b21a0359759160cb990648ab84c729281900390910190a15050565b6000806103a183610b41565b915091505b915091565b60375481565b6001546001600160a01b031633146103fa5760405162461bcd60e51b815260040180806020018281038252603381526020018061132c6033913960400191505060405180910390fd5b600080546001546001600160a01b039081166201000090810262010000600160b01b03198416179384905560408051938290048316808552919094049091166020830152825190927f7e644d79422f17c01e4894b5f4f588d331ebfa28653d42ae832dc59e38c9798f928290030190a150565b603254604080516321af305760e11b8152905133926001600160a01b0316916391d1485491839163435e60ae916004808301926020929190829003018186803b1580156104b957600080fd5b505afa1580156104cd573d6000803e3d6000fd5b505050506040513d60208110156104e357600080fd5b5051604080516001600160e01b031960e085901b16815260048101929092526001600160a01b0385166024830152516044808301926020929190829003018186803b15801561053157600080fd5b505afa158015610545573d6000803e3d6000fd5b505050506040513d602081101561055b57600080fd5b50516105ae576040805162461bcd60e51b815260206004820152601c60248201527f4e65656420646562742073797374656d2061636365737320726f6c6500000000604482015290519081900360640190fd5b6105b88383610c81565b505050565b6000546201000090046001600160a01b0316331461060c5760405162461bcd60e51b81526004018080602001828103825260438152602001806113ae6043913960600191505060405180910390fd5b6001600160a01b038116610664576040805162461bcd60e51b815260206004820152601a6024820152794c6e4465627453797374656d3a207a65726f206164647265737360301b604482015290519081900360640190fd5b603880546001600160a01b0319166001600160a01b0392909216919091179055565b6033546001600160a01b031681565b6034602052600090815260409020805460019091015482565b6001546001600160a01b031681565b6032546001600160a01b031681565b600054610100900460ff16806106e557506106e5610db1565b806106f3575060005460ff16155b61072e5760405162461bcd60e51b815260040180806020018281038252602e81526020018061135f602e913960400191505060405180910390fd5b600054610100900460ff16158015610759576000805460ff1961ff0019909116610100171660011790555b6001600160a01b0382166107b4576040805162461bcd60e51b815260206004820181905260248201527f4c6e41646d696e5570677261646561626c653a207a65726f2061646472657373604482015290519081900360640190fd5b6000805462010000600160b01b031916620100006001600160a01b03851690810291909117825560408051928352602083019190915280517f7e644d79422f17c01e4894b5f4f588d331ebfa28653d42ae832dc59e38c9798f9281900390910190a18015610828576000805461ff00191690555b5050565b6038546001600160a01b031681565b600054610100900460ff16806108545750610854610db1565b80610862575060005460ff16155b61089d5760405162461bcd60e51b815260040180806020018281038252602e81526020018061135f602e913960400191505060405180910390fd5b600054610100900460ff161580156108c8576000805460ff1961ff0019909116610100171660011790555b6108d1846106cc565b6001600160a01b038316610929576040805162461bcd60e51b815260206004820152601a6024820152794c6e4465627453797374656d3a207a65726f206164647265737360301b604482015290519081900360640190fd5b6001600160a01b038216610981576040805162461bcd60e51b815260206004820152601a6024820152794c6e4465627453797374656d3a207a65726f206164647265737360301b604482015290519081900360640190fd5b603280546001600160a01b038086166001600160a01b031992831617909255603380549285169290911691909117905580156109c3576000805461ff00191690555b50505050565b6000546201000090046001600160a01b031681565b603254604080516321af305760e11b8152905133926001600160a01b0316916391d1485491839163435e60ae916004808301926020929190829003018186803b158015610a2a57600080fd5b505afa158015610a3e573d6000803e3d6000fd5b505050506040513d6020811015610a5457600080fd5b5051604080516001600160e01b031960e085901b16815260048101929092526001600160a01b0385166024830152516044808301926020929190829003018186803b158015610aa257600080fd5b505afa158015610ab6573d6000803e3d6000fd5b505050506040513d6020811015610acc57600080fd5b5051610b1f576040805162461bcd60e51b815260206004820152601c60248201527f4e65656420646562742073797374656d2061636365737320726f6c6500000000604482015290519081900360640190fd5b6105b88383610dc3565b60365481565b60356020526000908152604090205481565b60385460009081906001600160a01b0316610b8d5760405162461bcd60e51b81526004018080602001828103825260268152602001806113066026913960400191505060405180910390fd5b603854604080516315ba52c560e21b815230600482015290516000926001600160a01b0316916356e94b14916024808301926020929190829003018186803b158015610bd857600080fd5b505afa158015610bec573d6000803e3d6000fd5b505050506040513d6020811015610c0257600080fd5b50516001600160a01b038516600090815260346020526040902080546001909101549192509081610c3c57600083945094505050506103a6565b6000610c5a83610c5484610c4e610ee4565b90610f32565b90610f54565b90506000610c73610c6e83610c5488610f6d565b610f7d565b965093945050505050915091565b6038546001600160a01b0316610cc85760405162461bcd60e51b81526004018080602001828103825260268152602001806113066026913960400191505060405180910390fd5b600080610cd484610b41565b90925090506000610ce58385610f9f565b90506000610cf38386610f9f565b90506000610d018383610f32565b905060008215610d33576000610d178885610f32565b9050610d2b81610d25610ffc565b9061100c565b915050610d37565b5060005b610d42888383611066565b60385460408051632a7ba1f760e01b8152600481018a905290516001600160a01b0390921691632a7ba1f79160248082019260009290919082900301818387803b158015610d8f57600080fd5b505af1158015610da3573d6000803e3d6000fd5b505050505050505050505050565b6000610dbc306111e2565b1590505b90565b6038546001600160a01b0316610e0a5760405162461bcd60e51b81526004018080602001828103825260268152602001806113066026913960400191505060405180910390fd5b600080610e1684610b41565b90925090506000610e27838561100c565b90506000610e35838661100c565b90506000610e438683610f32565b90506000610e518484610f32565b90506000610e6783610e61610ffc565b90610f9f565b9050610e74898383611066565b60385460408051632b7c7b1160e01b8152600481018b905290516001600160a01b0390921691632b7c7b119160248082019260009290919082900301818387803b158015610ec157600080fd5b505af1158015610ed5573d6000803e3d6000fd5b50505050505050505050505050565b600060365460001415610f0057610ef9610ffc565b9050610dc0565b603654600019016000908152603560205260409020548015610f225780610f2a565b610f2a610ffc565b915050610dc0565b6000610f4b83836b033b2e3c9fd0803ce80000006111e8565b90505b92915050565b6000610f4b83836b033b2e3c9fd0803ce8000000611220565b6000610f4e82633b9aca00611245565b60006305f5e10082046005600a820610610f9557600a015b600a900492915050565b600082821115610ff6576040805162461bcd60e51b815260206004820152601e60248201527f536166654d6174683a207375627472616374696f6e206f766572666c6f770000604482015290519081900360640190fd5b50900390565b6b033b2e3c9fd0803ce800000090565b600082820183811015610f4b576040805162461bcd60e51b815260206004820152601b60248201527f536166654d6174683a206164646974696f6e206f766572666c6f770000000000604482015290519081900360640190fd5b6036541580611088575060365460001901600090815260356020526040902054155b156110ac57611095610ffc565b6036546000908152603560205260409020556110df565b603654600019016000908152603560205260409020546110cc9082610f54565b6036546000908152603560205260409020555b603654600081815260356020908152604091829020548251938452908301524282820152517f1345e5daa594ed7ed493e06d665e6b39a1f69ea4b659acb6d7275811c5e562c49181900360600190a160365461113c90600161100c565b6036819055600019016000908152603560209081526040808320546037556001600160a01b038616835260349091529020829055611178610ee4565b6001600160a01b038416600081815260346020908152604091829020600101849055815192835282018590528181019290925242606082015290517fe96553ace55db523d8581e9dee58a2f07c39a19bdf39e690347a1b61c21ac6179181900360800190a1505050565b3b151590565b600080611202846111fc87600a8702611245565b9061129e565b90506005600a825b061061121457600a015b600a9004949350505050565b600080600a83046112318686611245565b8161123857fe5b0490506005600a8261120a565b60008261125457506000610f4e565b8282028284828161126157fe5b0414610f4b5760405162461bcd60e51b815260040180806020018281038252602181526020018061138d6021913960400191505060405180910390fd5b60008082116112f4576040805162461bcd60e51b815260206004820152601a60248201527f536166654d6174683a206469766973696f6e206279207a65726f000000000000604482015290519081900360640190fd5b8183816112fd57fe5b04939250505056fe4c6e4465627453797374656d3a2044656274446973747269627574696f6e206e6f74207365744c6e41646d696e5570677261646561626c653a206f6e6c792063616e6469646174652063616e206265636f6d652061646d696e496e697469616c697a61626c653a20636f6e747261637420697320616c726561647920696e697469616c697a6564536166654d6174683a206d756c7469706c69636174696f6e206f766572666c6f774c6e41646d696e5570677261646561626c653a206f6e6c792074686520636f6e74726163742061646d696e2063616e20706572666f726d207468697320616374696f6ea264697066735822122051b84459f4f7aeea41842dd02c63fca8ea1d6430269ea72d860648c447e9a72b64736f6c634300060c0033",
  "linkReferences": {},
  "deployedLinkReferences": {}
}