{
  "_format": "hh-sol-artifact-1",
  "contractName": "LnErc20Bridge",
  "sourceName": "contracts/LnErc20Bridge.sol",
  "abi": [
    {
      "anonymous": false,
      "inputs": [
        {
          "indexed": false,
          "internalType": "address",
          "name": "oldAdmin",
          "type": "address"
        },
        {
          "indexed": false,
          "internalType": "address",
          "name": "newAdmin",
          "type": "address"
        }
      ],
      "name": "AdminChanged",
      "type": "event"
    },
    {
      "anonymous": false,
      "inputs": [
        {
          "indexed": false,
          "internalType": "uint256",
          "name": "chainId",
          "type": "uint256"
        },
        {
          "indexed": false,
          "internalType": "address",
          "name": "bridgeAddress",
          "type": "address"
        }
      ],
      "name": "BridgeAddressForChainUpdated",
      "type": "event"
    },
    {
      "anonymous": false,
      "inputs": [
        {
          "indexed": false,
          "internalType": "address",
          "name": "oldCandidate",
          "type": "address"
        },
        {
          "indexed": false,
          "internalType": "address",
          "name": "newCandidate",
          "type": "address"
        }
      ],
      "name": "CandidateChanged",
      "type": "event"
    },
    {
      "anonymous": false,
      "inputs": [
        {
          "indexed": false,
          "internalType": "bytes32",
          "name": "tokenKey",
          "type": "bytes32"
        },
        {
          "indexed": false,
          "internalType": "uint256",
          "name": "chainId",
          "type": "uint256"
        }
      ],
      "name": "ChainSupportForTokenAdded",
      "type": "event"
    },
    {
      "anonymous": false,
      "inputs": [
        {
          "indexed": false,
          "internalType": "bytes32",
          "name": "tokenKey",
          "type": "bytes32"
        },
        {
          "indexed": false,
          "internalType": "uint256",
          "name": "chainId",
          "type": "uint256"
        }
      ],
      "name": "ChainSupportForTokenDropped",
      "type": "event"
    },
    {
      "anonymous": false,
      "inputs": [
        {
          "indexed": false,
          "internalType": "bytes32",
          "name": "tokenKey",
          "type": "bytes32"
        },
        {
          "indexed": false,
          "internalType": "address",
          "name": "tokenAddress",
          "type": "address"
        },
        {
          "indexed": false,
          "internalType": "uint8",
          "name": "lockType",
          "type": "uint8"
        }
      ],
      "name": "TokenAdded",
      "type": "event"
    },
    {
      "anonymous": false,
      "inputs": [
        {
          "indexed": false,
          "internalType": "uint256",
          "name": "srcChainId",
          "type": "uint256"
        },
        {
          "indexed": false,
          "internalType": "uint256",
          "name": "destChainId",
          "type": "uint256"
        },
        {
          "indexed": false,
          "internalType": "uint256",
          "name": "depositId",
          "type": "uint256"
        },
        {
          "indexed": false,
          "internalType": "bytes32",
          "name": "depositor",
          "type": "bytes32"
        },
        {
          "indexed": false,
          "internalType": "bytes32",
          "name": "recipient",
          "type": "bytes32"
        },
        {
          "indexed": false,
          "internalType": "bytes32",
          "name": "currency",
          "type": "bytes32"
        },
        {
          "indexed": false,
          "internalType": "uint256",
          "name": "amount",
          "type": "uint256"
        },
        {
          "indexed": false,
          "internalType": "uint64",
          "name": "wormholeSequence",
          "type": "uint64"
        }
      ],
      "name": "TokenDeposited",
      "type": "event"
    },
    {
      "anonymous": false,
      "inputs": [
        {
          "indexed": false,
          "internalType": "bytes32",
          "name": "tokenKey",
          "type": "bytes32"
        }
      ],
      "name": "TokenRemoved",
      "type": "event"
    },
    {
      "anonymous": false,
      "inputs": [
        {
          "indexed": false,
          "internalType": "uint256",
          "name": "srcChainId",
          "type": "uint256"
        },
        {
          "indexed": false,
          "internalType": "uint256",
          "name": "destChainId",
          "type": "uint256"
        },
        {
          "indexed": false,
          "internalType": "uint256",
          "name": "depositId",
          "type": "uint256"
        },
        {
          "indexed": false,
          "internalType": "bytes32",
          "name": "depositor",
          "type": "bytes32"
        },
        {
          "indexed": false,
          "internalType": "bytes32",
          "name": "recipient",
          "type": "bytes32"
        },
        {
          "indexed": false,
          "internalType": "bytes32",
          "name": "currency",
          "type": "bytes32"
        },
        {
          "indexed": false,
          "internalType": "uint256",
          "name": "amount",
          "type": "uint256"
        }
      ],
      "name": "TokenWithdrawn",
      "type": "event"
    },
    {
      "anonymous": false,
      "inputs": [
        {
          "indexed": false,
          "internalType": "uint256",
          "name": "chainId",
          "type": "uint256"
        },
        {
          "indexed": false,
          "internalType": "uint16",
          "name": "wormholeNetworkId",
          "type": "uint16"
        }
      ],
      "name": "WormholeNetworkIdUpdated",
      "type": "event"
    },
    {
      "anonymous": false,
      "inputs": [
        {
          "indexed": false,
          "internalType": "address",
          "name": "coreContract",
          "type": "address"
        },
        {
          "indexed": false,
          "internalType": "uint8",
          "name": "consistencyLevel",
          "type": "uint8"
        }
      ],
      "name": "WormholeSetup",
      "type": "event"
    },
    {
      "inputs": [],
      "name": "TOKEN_LOCK_TYPE_MINT_BURN",
      "outputs": [
        {
          "internalType": "uint8",
          "name": "",
          "type": "uint8"
        }
      ],
      "stateMutability": "view",
      "type": "function"
    },
    {
      "inputs": [],
      "name": "TOKEN_LOCK_TYPE_TRANSFER",
      "outputs": [
        {
          "internalType": "uint8",
          "name": "",
          "type": "uint8"
        }
      ],
      "stateMutability": "view",
      "type": "function"
    },
    {
      "inputs": [
        {
          "internalType": "address",
          "name": "_admin",
          "type": "address"
        }
      ],
      "name": "__LnAdminUpgradeable_init",
      "outputs": [],
      "stateMutability": "nonpayable",
      "type": "function"
    },
    {
      "inputs": [
        {
          "internalType": "address",
          "name": "_admin",
          "type": "address"
        }
      ],
      "name": "__LnErc20Bridge_init",
      "outputs": [],
      "stateMutability": "nonpayable",
      "type": "function"
    },
    {
      "inputs": [
        {
          "internalType": "bytes32",
          "name": "tokenKey",
          "type": "bytes32"
        },
        {
          "internalType": "uint256",
          "name": "chainId",
          "type": "uint256"
        }
      ],
      "name": "addChainSupportForToken",
      "outputs": [],
      "stateMutability": "nonpayable",
      "type": "function"
    },
    {
      "inputs": [
        {
          "internalType": "bytes32",
          "name": "tokenKey",
          "type": "bytes32"
        },
        {
          "internalType": "address",
          "name": "tokenAddress",
          "type": "address"
        },
        {
          "internalType": "uint8",
          "name": "lockType",
          "type": "uint8"
        }
      ],
      "name": "addToken",
      "outputs": [],
      "stateMutability": "nonpayable",
      "type": "function"
    },
    {
      "inputs": [],
      "name": "admin",
      "outputs": [
        {
          "internalType": "address",
          "name": "",
          "type": "address"
        }
      ],
      "stateMutability": "view",
      "type": "function"
    },
    {
      "inputs": [],
      "name": "becomeAdmin",
      "outputs": [],
      "stateMutability": "nonpayable",
      "type": "function"
    },
    {
      "inputs": [
        {
          "internalType": "uint256",
          "name": "",
          "type": "uint256"
        }
      ],
      "name": "bridgeContractsByChainId",
      "outputs": [
        {
          "internalType": "bytes32",
          "name": "",
          "type": "bytes32"
        }
      ],
      "stateMutability": "view",
      "type": "function"
    },
    {
      "inputs": [],
      "name": "candidate",
      "outputs": [
        {
          "internalType": "address",
          "name": "",
          "type": "address"
        }
      ],
      "stateMutability": "view",
      "type": "function"
    },
    {
      "inputs": [],
      "name": "currentChainId",
      "outputs": [
        {
          "internalType": "uint256",
          "name": "",
          "type": "uint256"
        }
      ],
      "stateMutability": "view",
      "type": "function"
    },
    {
      "inputs": [
        {
          "internalType": "bytes32",
          "name": "token",
          "type": "bytes32"
        },
        {
          "internalType": "uint256",
          "name": "amount",
          "type": "uint256"
        },
        {
          "internalType": "uint256",
          "name": "destChainId",
          "type": "uint256"
        },
        {
          "internalType": "bytes32",
          "name": "recipient",
          "type": "bytes32"
        }
      ],
      "name": "deposit",
      "outputs": [],
      "stateMutability": "nonpayable",
      "type": "function"
    },
    {
      "inputs": [],
      "name": "depositCount",
      "outputs": [
        {
          "internalType": "uint256",
          "name": "",
          "type": "uint256"
        }
      ],
      "stateMutability": "view",
      "type": "function"
    },
    {
      "inputs": [
        {
          "internalType": "bytes32",
          "name": "tokenKey",
          "type": "bytes32"
        },
        {
          "internalType": "uint256",
          "name": "chainId",
          "type": "uint256"
        }
      ],
      "name": "dropChainSupportForToken",
      "outputs": [],
      "stateMutability": "nonpayable",
      "type": "function"
    },
    {
      "inputs": [
        {
          "internalType": "bytes32",
          "name": "tokenKey",
          "type": "bytes32"
        }
      ],
      "name": "getTokenAddress",
      "outputs": [
        {
          "internalType": "address",
          "name": "",
          "type": "address"
        }
      ],
      "stateMutability": "view",
      "type": "function"
    },
    {
      "inputs": [
        {
          "internalType": "bytes32",
          "name": "tokenKey",
          "type": "bytes32"
        }
      ],
      "name": "getTokenLockType",
      "outputs": [
        {
          "internalType": "uint8",
          "name": "",
          "type": "uint8"
        }
      ],
      "stateMutability": "view",
      "type": "function"
    },
    {
      "inputs": [
        {
          "internalType": "bytes32",
          "name": "tokenKey",
          "type": "bytes32"
        },
        {
          "internalType": "uint256",
          "name": "chainId",
          "type": "uint256"
        }
      ],
      "name": "isTokenSupportedOnChain",
      "outputs": [
        {
          "internalType": "bool",
          "name": "",
          "type": "bool"
        }
      ],
      "stateMutability": "view",
      "type": "function"
    },
    {
      "inputs": [
        {
          "internalType": "bytes32",
          "name": "tokenKey",
          "type": "bytes32"
        }
      ],
      "name": "removeToken",
      "outputs": [],
      "stateMutability": "nonpayable",
      "type": "function"
    },
    {
      "inputs": [
        {
          "internalType": "uint256",
          "name": "chainId",
          "type": "uint256"
        },
        {
          "internalType": "address",
          "name": "bridgeAddress",
          "type": "address"
        }
      ],
      "name": "setBridgeAddressForChain",
      "outputs": [],
      "stateMutability": "nonpayable",
      "type": "function"
    },
    {
      "inputs": [
        {
          "internalType": "address",
          "name": "_candidate",
          "type": "address"
        }
      ],
      "name": "setCandidate",
      "outputs": [],
      "stateMutability": "nonpayable",
      "type": "function"
    },
    {
      "inputs": [
        {
          "internalType": "address",
          "name": "_coreContract",
          "type": "address"
        },
        {
          "internalType": "uint8",
          "name": "_consistencyLevel",
          "type": "uint8"
        }
      ],
      "name": "setUpWormhole",
      "outputs": [],
      "stateMutability": "nonpayable",
      "type": "function"
    },
    {
      "inputs": [
        {
          "internalType": "uint256",
          "name": "chainId",
          "type": "uint256"
        },
        {
          "internalType": "uint16",
          "name": "wormholeNetworkId",
          "type": "uint16"
        }
      ],
      "name": "setWormholeNetworkIdForChain",
      "outputs": [],
      "stateMutability": "nonpayable",
      "type": "function"
    },
    {
      "inputs": [
        {
          "internalType": "bytes32",
          "name": "",
          "type": "bytes32"
        }
      ],
      "name": "tokenInfos",
      "outputs": [
        {
          "internalType": "address",
          "name": "tokenAddress",
          "type": "address"
        },
        {
          "internalType": "uint8",
          "name": "lockType",
          "type": "uint8"
        }
      ],
      "stateMutability": "view",
      "type": "function"
    },
    {
      "inputs": [
        {
          "internalType": "bytes32",
          "name": "",
          "type": "bytes32"
        },
        {
          "internalType": "uint256",
          "name": "",
          "type": "uint256"
        }
      ],
      "name": "tokenSupportedOnChain",
      "outputs": [
        {
          "internalType": "bool",
          "name": "",
          "type": "bool"
        }
      ],
      "stateMutability": "view",
      "type": "function"
    },
    {
      "inputs": [
        {
          "internalType": "bytes",
          "name": "encodedWormholeMessage",
          "type": "bytes"
        }
      ],
      "name": "withdraw",
      "outputs": [],
      "stateMutability": "nonpayable",
      "type": "function"
    },
    {
      "inputs": [
        {
          "internalType": "uint256",
          "name": "",
          "type": "uint256"
        },
        {
          "internalType": "uint256",
          "name": "",
          "type": "uint256"
        }
      ],
      "name": "withdrawnDeposits",
      "outputs": [
        {
          "internalType": "bool",
          "name": "",
          "type": "bool"
        }
      ],
      "stateMutability": "view",
      "type": "function"
    },
    {
      "inputs": [],
      "name": "wormhole",
      "outputs": [
        {
          "internalType": "contract IWormhole",
          "name": "coreContract",
          "type": "address"
        },
        {
          "internalType": "uint8",
          "name": "consistencyLevel",
          "type": "uint8"
        }
      ],
      "stateMutability": "view",
      "type": "function"
    },
    {
      "inputs": [
        {
          "internalType": "uint256",
          "name": "",
          "type": "uint256"
        }
      ],
      "name": "wormholeNetworkIdsByChainId",
      "outputs": [
        {
          "internalType": "uint16",
          "name": "",
          "type": "uint16"
        }
      ],
      "stateMutability": "view",
      "type": "function"
    }
  ],
  "bytecode": "0x608060405234801561001057600080fd5b506127a2806100206000396000f3fe608060405234801561001057600080fd5b50600436106101c45760003560e01c80637ba898f7116100f9578063b594909111610097578063c854329111610071578063c854329114610391578063d22ed8b6146103b1578063d6f42001146103c4578063f851a440146103d7576101c4565b8063b594909114610358578063be7e4e791461036b578063c2f0f65e1461037e576101c4565b80638e118b83116100d35780638e118b831461031757806390f1f17b1461032a578063a8d6e15d1461033d578063b12e441014610345576101c4565b80637ba898f7146102db57806384acd1bb146102ee5780638aa2049c14610304576101c4565b806336474b3d116101665780634ff5174c116101405780634ff5174c146102965780636025e492146102a95780636c8381f8146102be5780636cbadbfa146102d3576101c4565b806336474b3d1461025d57806339eeee44146102705780634c5dd3f314610283576101c4565b8063224e7462116101a2578063224e74621461021a57806325971dff1461022d5780632bca8a75146102355780632dfdf0b514610248576101c4565b80630589b8b2146101c957806307880b7f146101f25780630968f26414610207575b600080fd5b6101dc6101d7366004611b5c565b6103df565b6040516101e99190611eb7565b60405180910390f35b610205610200366004611a94565b6103ff565b005b610205610215366004611bae565b6104b0565b610205610228366004611b05565b6108c9565b6102056109a3565b6101dc610243366004611b5c565b610a5f565b610250610a7f565b6040516101e99190611ec2565b61025061026b366004611b05565b610a85565b61020561027e366004611b7d565b610a97565b610205610291366004611b5c565b610d73565b6102056102a4366004611b5c565b610e5e565b6102b1610f39565b6040516101e9919061261f565b6102c6610f3e565b6040516101e99190611e4a565b610250610f4d565b6102b16102e9366004611b05565b610f53565b6102f6610f72565b6040516101e9929190611e9b565b610205610312366004611ab5565b610f8d565b610205610325366004611a94565b6110b4565b6102f6610338366004611b05565b611214565b6102b161123b565b6102c6610353366004611b05565b611240565b610205610366366004611b1d565b61125b565b610205610379366004611a94565b6113cf565b61020561038c366004611d9d565b61147e565b6103a461039f366004611b05565b61155a565b6040516101e99190612577565b6101dc6103bf366004611b5c565b611570565b6102056103d2366004611d72565b611590565b6102c661166e565b603660209081526000928352604080842090915290825290205460ff1681565b6000546201000090046001600160a01b0316331461044e5760405162461bcd60e51b815260040180806020018281038252604381526020018061272a6043913960600191505060405180910390fd5b600180546001600160a01b038381166001600160a01b0319831617928390556040805192821680845293909116602083015280517f7f730391c4f0fa1bea34bcb9bff8c30a079b21a0359759160cb990648ab84c729281900390910190a15050565b6039546001600160a01b03166104e15760405162461bcd60e51b81526004016104d89061219b565b60405180910390fd5b60395460405163607ec5ef60e11b815260009182916001600160a01b039091169063c0fd8bde906105189087908790600401611efb565b60006040518083038186803b15801561053057600080fd5b505afa158015610544573d6000803e3d6000fd5b505050506040513d6000823e601f3d908101601f1916820160405261056c9190810190611c1b565b50915091508061058e5760405162461bcd60e51b81526004016104d89061208c565b60008060008060008060008860e001518060200190518101906105b19190611dc1565b9650965096509650965096509650631b1554d160e21b8214156105e65760405162461bcd60e51b81526004016104d890611f75565b8164362aa9a21960d91b8114156106015750631b1554d160e21b5b6000888152603b602052604090205461ffff16806106315760405162461bcd60e51b81526004016104d890612220565b8a6060015161ffff168161ffff161461065c5760405162461bcd60e51b81526004016104d8906120df565b6000898152603a6020526040902054806106885760405162461bcd60e51b81526004016104d8906122dc565b8b6080015181146106ab5760405162461bcd60e51b81526004016104d890612441565b60325489146106cc5760405162461bcd60e51b81526004016104d8906122a5565b60008a81526037602090815260408083208b845290915290205460ff16156107065760405162461bcd60e51b81526004016104d890612057565b856107235760405162461bcd60e51b81526004016104d8906123d3565b600084116107435760405162461bcd60e51b81526004016104d89061238d565b6000838152603560209081526040918290208251808401909352546001600160a01b038116808452600160a01b90910460ff16918301919091526107995760405162461bcd60e51b81526004016104d890612164565b60008b81526037602090815260408083208c84528252909120805460ff1916600190811790915590820151889160ff9190911614156107e45781516107df908288611683565b610874565b602082015160ff166002141561085c5781516040516340c10f1960e01b81526001600160a01b03909116906340c10f19906108259084908a90600401611e5e565b600060405180830381600087803b15801561083f57600080fd5b505af1158015610853573d6000803e3d6000fd5b50505050610874565b60405162461bcd60e51b81526004016104d890612531565b7f7b585240ba8820bb7f974aecfbf00d525f6a451106a775438a3f64c48875d5708c8c8c8c8c8a8c6040516108af97969594939291906125af565b60405180910390a150505050505050505050505050505050565b6000546201000090046001600160a01b031633146109185760405162461bcd60e51b815260040180806020018281038252604381526020018061272a6043913960600191505060405180910390fd5b6000818152603560205260409020546001600160a01b031661094c5760405162461bcd60e51b81526004016104d890612261565b6000818152603560205260409081902080546001600160a81b0319169055517f27b51627532fe8cd0df946e5a9590efb06cc367d3d611c1e4084c7e1dccb3ab490610998908390611ec2565b60405180910390a150565b6001546001600160a01b031633146109ec5760405162461bcd60e51b81526004018080602001828103825260338152602001806126c96033913960400191505060405180910390fd5b600080546001546001600160a01b039081166201000090810262010000600160b01b03198416179384905560408051938290048316808552919094049091166020830152825190927f7e644d79422f17c01e4894b5f4f588d331ebfa28653d42ae832dc59e38c9798f928290030190a150565b603760209081526000928352604080842090915290825290205460ff1681565b60345481565b603a6020526000908152604090205481565b6039546001600160a01b0316610abf5760405162461bcd60e51b81526004016104d89061219b565b6000848152603560209081526040918290208251808401909352546001600160a01b038116808452600160a01b90910460ff1691830191909152610b155760405162461bcd60e51b81526004016104d890612164565b60008411610b355760405162461bcd60e51b81526004016104d89061238d565b603254831415610b575760405162461bcd60e51b81526004016104d890612009565b610b618584611570565b610b7d5760405162461bcd60e51b81526004016104d890612478565b81610b9a5760405162461bcd60e51b81526004016104d8906123d3565b603480546001908101909155602082015160ff161415610bc7578051610bc2903330876117c7565b610c3b565b602081015160ff166002141561085c578051604051632770a7eb60e21b81526001600160a01b0390911690639dc29fac90610c089033908890600401611e5e565b600060405180830381600087803b158015610c2257600080fd5b505af1158015610c36573d6000803e3d6000fd5b505050505b84631b1554d160e21b811415610c56575064362aa9a21960d91b5b603254603454604051600092610c7b9290918891903390899088908d906020016125af565b60408051808303601f19018152908290526039546358cd21bf60e11b83529092506000916001600160a01b0382169163b19a437e91610ccb9185918791600160a01b900460ff1690600401611f2a565b602060405180830381600087803b158015610ce557600080fd5b505af1158015610cf9573d6000803e3d6000fd5b505050506040513d601f19601f82011682018060405250810190610d1d9190611e14565b6032546034546040519293507f7ac58c523869c8f64fadbbf313eabc77d5268f5b98db6d508cac5fc98a04d54a92610d6192918a9133908b908f908f908a906125df565b60405180910390a15050505050505050565b6000546201000090046001600160a01b03163314610dc25760405162461bcd60e51b815260040180806020018281038252604381526020018061272a6043913960600191505060405180910390fd5b600082815260366020908152604080832084845290915290205460ff1615610dfc5760405162461bcd60e51b81526004016104d890612321565b600082815260366020908152604080832084845290915290819020805460ff19166001179055517f71d564e28114f33667381ae9c6bfadc1254fab8fb4e6a9606bfa512cb5e7df4990610e529084908490611eed565b60405180910390a15050565b6000546201000090046001600160a01b03163314610ead5760405162461bcd60e51b815260040180806020018281038252604381526020018061272a6043913960600191505060405180910390fd5b600082815260366020908152604080832084845290915290205460ff16610ee65760405162461bcd60e51b81526004016104d8906124fa565b600082815260366020908152604080832084845290915290819020805460ff19169055517fb8a301810556c08eff893eded78cbada9895cdb3c3976c53f3c48073e23d242290610e529084908490611eed565b600181565b6001546001600160a01b031681565b60325481565b600081815260356020526040902054600160a01b900460ff165b919050565b6039546001600160a01b03811690600160a01b900460ff1682565b6000546201000090046001600160a01b03163314610fdc5760405162461bcd60e51b815260040180806020018281038252604381526020018061272a6043913960600191505060405180910390fd5b6039546001600160a01b0316156110055760405162461bcd60e51b81526004016104d890611fd2565b6001600160a01b03821661102b5760405162461bcd60e51b81526004016104d8906123d3565b6040805180820182526001600160a01b03841680825260ff84166020909201829052603980546001600160a01b031990811690921760ff60a01b1916600160a01b909302929092179091556033805490911690556000603855517fb40d6df0531fdbeaa6a74488324fbc286c17e20ce5683a488078098ca45d0eee90610e529084908490611e9b565b600054610100900460ff16806110cd57506110cd6118d7565b806110db575060005460ff16155b6111165760405162461bcd60e51b815260040180806020018281038252602e8152602001806126fc602e913960400191505060405180910390fd5b600054610100900460ff16158015611141576000805460ff1961ff0019909116610100171660011790555b6001600160a01b03821661119c576040805162461bcd60e51b815260206004820181905260248201527f4c6e41646d696e5570677261646561626c653a207a65726f2061646472657373604482015290519081900360640190fd5b6000805462010000600160b01b031916620100006001600160a01b03851690810291909117825560408051928352602083019190915280517f7e644d79422f17c01e4894b5f4f588d331ebfa28653d42ae832dc59e38c9798f9281900390910190a18015611210576000805461ff00191690555b5050565b6035602052600090815260409020546001600160a01b03811690600160a01b900460ff1682565b600281565b6000908152603560205260409020546001600160a01b031690565b6000546201000090046001600160a01b031633146112aa5760405162461bcd60e51b815260040180806020018281038252604381526020018061272a6043913960600191505060405180910390fd5b6000838152603560205260409020546001600160a01b0316156112df5760405162461bcd60e51b81526004016104d8906121dd565b6001600160a01b0382166113055760405162461bcd60e51b81526004016104d8906123d3565b60ff81166001148061131a575060ff81166002145b6113365760405162461bcd60e51b81526004016104d890612531565b6040805180820182526001600160a01b03808516825260ff808516602080850191825260008981526035909152859020935184549151909216600160a01b0260ff60a01b19929093166001600160a01b03199091161716179055517fd9c6008de31d775aae4523eb2e6e6565ea965cabb3eac06153885621c3ddb035906113c290859085908590611ecb565b60405180910390a1505050565b600054610100900460ff16806113e857506113e86118d7565b806113f6575060005460ff16155b6114315760405162461bcd60e51b815260040180806020018281038252602e8152602001806126fc602e913960400191505060405180910390fd5b600054610100900460ff1615801561145c576000805460ff1961ff0019909116610100171660011790555b611465826110b4565b466032558015611210576000805461ff00191690555050565b6000546201000090046001600160a01b031633146114cd5760405162461bcd60e51b815260040180806020018281038252604381526020018061272a6043913960600191505060405180910390fd5b816114ea5760405162461bcd60e51b81526004016104d8906124c3565b61ffff811661150b5760405162461bcd60e51b81526004016104d890612356565b6000828152603b602052604090819020805461ffff191661ffff8416179055517f2c1da8850382d8f9bc07204a951a4bed442d440108c3fdd3f16e022652231b3990610e52908490849061259d565b603b6020526000908152604090205461ffff1681565b600091825260366020908152604080842092845291905290205460ff1690565b6000546201000090046001600160a01b031633146115df5760405162461bcd60e51b815260040180806020018281038252604381526020018061272a6043913960600191505060405180910390fd5b816115fc5760405162461bcd60e51b81526004016104d8906124c3565b6001600160a01b0381166116225760405162461bcd60e51b81526004016104d8906123d3565b6000828152603a6020526040908190206001600160a01b0383169055517fc741e31da39031f5007445670562f80a91166fb04d337f16c111843d215b705690610e529084908490612586565b6000546201000090046001600160a01b031681565b604080518082018252601981527f7472616e7366657228616464726573732c75696e7432353629000000000000006020909101525160009081906001600160a01b038616907fa9059cbb2ab09eb219583f4a59a5d0623ade346d962bcd4e46b11da047c9049b906116fa9087908790602401611e5e565b60408051601f198184030181529181526020820180516001600160e01b03166001600160e01b03199094169390931790925290516117389190611e2e565b6000604051808303816000865af19150503d8060008114611775576040519150601f19603f3d011682016040523d82523d6000602084013e61177a565b606091505b50915091508180156117a45750805115806117a45750808060200190518101906117a49190611aeb565b6117c05760405162461bcd60e51b81526004016104d89061240a565b5050505050565b600080856001600160a01b03166040518060600160405280602581526020016126a4602591398051906020012086868660405160240161180993929190611e77565b60408051601f198184030181529181526020820180516001600160e01b03166001600160e01b03199094169390931790925290516118479190611e2e565b6000604051808303816000865af19150503d8060008114611884576040519150601f19603f3d011682016040523d82523d6000602084013e611889565b606091505b50915091508180156118b35750805115806118b35750808060200190518101906118b39190611aeb565b6118cf5760405162461bcd60e51b81526004016104d890612121565b505050505050565b60006118e2306118e8565b15905090565b3b151590565b80356001600160a01b0381168114610f6d57600080fd5b600082601f830112611915578081fd5b8151602067ffffffffffffffff8083111561192c57fe5b611939828385020161262d565b838152828101908684016080808702890186018a1015611957578788fd5b875b878110156119cf5781838c03121561196f578889fd5b60408051838101818110898211171561198457fe5b82528451815288850151898201528482015161199f81612694565b80838301525060609150818501516119b681612694565b9181019190915285529386019391810191600101611959565b50919998505050505050505050565b80518015158114610f6d57600080fd5b600082601f8301126119fe578081fd5b815167ffffffffffffffff811115611a1257fe5b611a25601f8201601f191660200161262d565b818152846020838601011115611a39578283fd5b611a4a826020830160208701612651565b949350505050565b8051610f6d81612681565b805163ffffffff81168114610f6d57600080fd5b805167ffffffffffffffff81168114610f6d57600080fd5b8051610f6d81612694565b600060208284031215611aa5578081fd5b611aae826118ee565b9392505050565b60008060408385031215611ac7578081fd5b611ad0836118ee565b91506020830135611ae081612694565b809150509250929050565b600060208284031215611afc578081fd5b611aae826119de565b600060208284031215611b16578081fd5b5035919050565b600080600060608486031215611b31578081fd5b83359250611b41602085016118ee565b91506040840135611b5181612694565b809150509250925092565b60008060408385031215611b6e578182fd5b50508035926020909101359150565b60008060008060808587031215611b92578182fd5b5050823594602084013594506040840135936060013592509050565b60008060208385031215611bc0578182fd5b823567ffffffffffffffff80821115611bd7578384fd5b818501915085601f830112611bea578384fd5b813581811115611bf8578485fd5b866020828501011115611c09578485fd5b60209290920196919550909350505050565b600080600060608486031215611c2f578081fd5b835167ffffffffffffffff80821115611c46578283fd5b8186019150610160808389031215611c5c578384fd5b611c658161262d565b9050611c7083611a89565b8152611c7e60208401611a5d565b6020820152611c8f60408401611a5d565b6040820152611ca060608401611a52565b606082015260808301516080820152611cbb60a08401611a71565b60a0820152611ccc60c08401611a89565b60c082015260e083015182811115611ce2578485fd5b611cee898286016119ee565b60e083015250610100611d02818501611a5d565b908201526101208381015183811115611d19578586fd5b611d258a828701611905565b918301919091525061014083810151908201529450611d46602087016119de565b93506040860151915080821115611d5b578283fd5b50611d68868287016119ee565b9150509250925092565b60008060408385031215611d84578182fd5b82359150611d94602084016118ee565b90509250929050565b60008060408385031215611daf578182fd5b823591506020830135611ae081612681565b600080600080600080600060e0888a031215611ddb578485fd5b5050855160208701516040880151606089015160808a015160a08b015160c0909b0151949c939b50919990985090965094509092509050565b600060208284031215611e25578081fd5b611aae82611a71565b60008251611e40818460208701612651565b9190910192915050565b6001600160a01b0391909116815260200190565b6001600160a01b03929092168252602082015260400190565b6001600160a01b039384168152919092166020820152604081019190915260600190565b6001600160a01b0392909216825260ff16602082015260400190565b901515815260200190565b90815260200190565b9283526001600160a01b0391909116602083015260ff16604082015260600190565b918252602082015260400190565b60006020825282602083015282846040840137818301604090810191909152601f909201601f19160101919050565b600063ffffffff85168252606060208301528351806060840152611f55816080850160208801612651565b60ff93909316604083015250601f91909101601f19160160800192915050565b6020808252603c908201527f6c555344206973206e6f206c6f6e67657220737570706f72746564206163726f60408201527f7373207468652062726964676520696e207468697320666f726d617400000000606082015260800190565b6020808252601d908201527f4c6e45726332304272696467653a20616c726561647920736574207570000000604082015260600190565b6020808252602e908201527f4c6e45726332304272696467653a2064657374206d757374206265206469666660408201526d6572656e742066726f6d2073726360901b606082015260800190565b6020808252818101527f4c6e45726332304272696467653a20616c72656164792077697468647261776e604082015260600190565b60208082526033908201527f4c6e45726332304272696467653a20776f726d686f6c65206d657373616765206040820152721d995c9a599a58d85d1a5bdb8819985a5b1959606a1b606082015260800190565b60208082526022908201527f4c6e45726332304272696467653a206e6574776f726b206964206d69736d61746040820152610c6d60f31b606082015260800190565b60208082526023908201527f4c6e45726332304272696467653a207472616e736665722066726f6d206661696040820152621b195960ea1b606082015260800190565b6020808252601e908201527f4c6e45726332304272696467653a20746f6b656e206e6f7420666f756e640000604082015260600190565b60208082526022908201527f4c6e45726332304272696467653a20776f726d686f6c65206e6f742073657420604082015261075760f41b606082015260800190565b60208082526023908201527f4c6e45726332304272696467653a20746f6b656e20616c72656164792065786960408201526273747360e81b606082015260800190565b60208082526021908201527f4c6e45726332304272696467653a206e6574776f726b206964206e6f742073656040820152601d60fa1b606082015260800190565b60208082526024908201527f4c6e45726332304272696467653a20746f6b656e20646f6573206e6f742065786040820152636973747360e01b606082015260800190565b6020808252601a908201527f4c6e45726332304272696467653a2077726f6e6720636861696e000000000000604082015260600190565b60208082526025908201527f4c6e45726332304272696467653a206272696467652061646472657373206e6f6040820152641d081cd95d60da1b606082015260800190565b6020808252818101527f4c6e45726332304272696467653a20616c726561647920737570706f72746564604082015260600190565b6020808252601e908201527f4c6e45726332304272696467653a207a65726f206e6574776f726b2069640000604082015260600190565b60208082526026908201527f4c6e45726332304272696467653a20616d6f756e74206d75737420626520706f60408201526573697469766560d01b606082015260800190565b6020808252601b908201527f4c6e45726332304272696467653a207a65726f20616464726573730000000000604082015260600190565b6020808252601e908201527f4c6e45726332304272696467653a207472616e73666572206661696c65640000604082015260600190565b6020808252601f908201527f4c6e45726332304272696467653a20656d6974746572206d69736d6174636800604082015260600190565b6020808252602b908201527f4c6e45726332304272696467653a20746f6b656e206e6f7420737570706f727460408201526a32b21037b71031b430b4b760a91b606082015260800190565b6020808252601c908201527f4c6e45726332304272696467653a207a65726f20636861696e20696400000000604082015260600190565b6020808252601c908201527f4c6e45726332304272696467653a206e6f7420737570706f7274656400000000604082015260600190565b60208082526026908201527f4c6e45726332304272696467653a20756e6b6e6f776e20746f6b656e206c6f636040820152656b207479706560d01b606082015260800190565b61ffff91909116815260200190565b9182526001600160a01b0316602082015260400190565b91825261ffff16602082015260400190565b968752602087019590955260408601939093526060850191909152608084015260a083015260c082015260e00190565b978852602088019690965260408701949094526060860192909252608085015260a084015260c083015267ffffffffffffffff1660e08201526101000190565b60ff91909116815260200190565b60405181810167ffffffffffffffff8111828210171561264957fe5b604052919050565b60005b8381101561266c578181015183820152602001612654565b8381111561267b576000848401525b50505050565b61ffff8116811461269157600080fd5b50565b60ff8116811461269157600080fdfe7472616e7366657246726f6d28616464726573732c616464726573732c75696e74323536294c6e41646d696e5570677261646561626c653a206f6e6c792063616e6469646174652063616e206265636f6d652061646d696e496e697469616c697a61626c653a20636f6e747261637420697320616c726561647920696e697469616c697a65644c6e41646d696e5570677261646561626c653a206f6e6c792074686520636f6e74726163742061646d696e2063616e20706572666f726d207468697320616374696f6ea2646970667358221220d36d5b4134f818ea062e900f24e6d19af37b56a9025825c8dcd321dc1c1b551964736f6c63430007060033",
  "linkReferences": {},
  "deployedLinkReferences": {}
}