{
  "_format": "hh-sol-artifact-1",
  "contractName": "LnErc20Bridge",
  "sourceName": "contracts/LnErc20Bridge.sol",
  "abi": [
    {
      "anonymous": false,
      "inputs": [
        {
          "indexed": false,
          "internalType": "address",
          "name": "oldAdmin",
          "type": "address"
        },
        {
          "indexed": false,
          "internalType": "address",
          "name": "newAdmin",
          "type": "address"
        }
      ],
      "name": "AdminChanged",
      "type": "event"
    },
    {
      "anonymous": false,
      "inputs": [
        {
          "indexed": false,
          "internalType": "uint256",
          "name": "chainId",
          "type": "uint256"
        },
        {
          "indexed": false,
          "internalType": "address",
          "name": "bridgeAddress",
          "type": "address"
        }
      ],
      "name": "BridgeAddressForChainUpdated",
      "type": "event"
    },
    {
      "anonymous": false,
      "inputs": [
        {
          "indexed": false,
          "internalType": "address",
          "name": "oldCandidate",
          "type": "address"
        },
        {
          "indexed": false,
          "internalType": "address",
          "name": "newCandidate",
          "type": "address"
        }
      ],
      "name": "CandidateChanged",
      "type": "event"
    },
    {
      "anonymous": false,
      "inputs": [
        {
          "indexed": false,
          "internalType": "bytes32",
          "name": "tokenKey",
          "type": "bytes32"
        },
        {
          "indexed": false,
          "internalType": "uint256",
          "name": "chainId",
          "type": "uint256"
        }
      ],
      "name": "ChainSupportForTokenAdded",
      "type": "event"
    },
    {
      "anonymous": false,
      "inputs": [
        {
          "indexed": false,
          "internalType": "bytes32",
          "name": "tokenKey",
          "type": "bytes32"
        },
        {
          "indexed": false,
          "internalType": "uint256",
          "name": "chainId",
          "type": "uint256"
        }
      ],
      "name": "ChainSupportForTokenDropped",
      "type": "event"
    },
    {
      "anonymous": false,
      "inputs": [
        {
          "indexed": false,
          "internalType": "bytes32",
          "name": "tokenKey",
          "type": "bytes32"
        },
        {
          "indexed": false,
          "internalType": "address",
          "name": "tokenAddress",
          "type": "address"
        },
        {
          "indexed": false,
          "internalType": "uint8",
          "name": "lockType",
          "type": "uint8"
        }
      ],
      "name": "TokenAdded",
      "type": "event"
    },
    {
      "anonymous": false,
      "inputs": [
        {
          "indexed": false,
          "internalType": "uint256",
          "name": "srcChainId",
          "type": "uint256"
        },
        {
          "indexed": false,
          "internalType": "uint256",
          "name": "destChainId",
          "type": "uint256"
        },
        {
          "indexed": false,
          "internalType": "uint256",
          "name": "depositId",
          "type": "uint256"
        },
        {
          "indexed": false,
          "internalType": "bytes32",
          "name": "depositor",
          "type": "bytes32"
        },
        {
          "indexed": false,
          "internalType": "bytes32",
          "name": "recipient",
          "type": "bytes32"
        },
        {
          "indexed": false,
          "internalType": "bytes32",
          "name": "currency",
          "type": "bytes32"
        },
        {
          "indexed": false,
          "internalType": "uint256",
          "name": "amount",
          "type": "uint256"
        }
      ],
      "name": "TokenDeposited",
      "type": "event"
    },
    {
      "anonymous": false,
      "inputs": [
        {
          "indexed": false,
          "internalType": "uint256",
          "name": "srcChainId",
          "type": "uint256"
        },
        {
          "indexed": false,
          "internalType": "uint256",
          "name": "destChainId",
          "type": "uint256"
        },
        {
          "indexed": false,
          "internalType": "uint256",
          "name": "depositId",
          "type": "uint256"
        },
        {
          "indexed": false,
          "internalType": "bytes32",
          "name": "depositor",
          "type": "bytes32"
        },
        {
          "indexed": false,
          "internalType": "bytes32",
          "name": "recipient",
          "type": "bytes32"
        },
        {
          "indexed": false,
          "internalType": "bytes32",
          "name": "currency",
          "type": "bytes32"
        },
        {
          "indexed": false,
          "internalType": "uint256",
          "name": "amount",
          "type": "uint256"
        },
        {
          "indexed": false,
          "internalType": "uint64",
          "name": "wormholeSequence",
          "type": "uint64"
        }
      ],
      "name": "TokenDeposited",
      "type": "event"
    },
    {
      "anonymous": false,
      "inputs": [
        {
          "indexed": false,
          "internalType": "uint256",
          "name": "srcChainId",
          "type": "uint256"
        },
        {
          "indexed": false,
          "internalType": "uint256",
          "name": "destChainId",
          "type": "uint256"
        },
        {
          "indexed": false,
          "internalType": "bytes32",
          "name": "depositId",
          "type": "bytes32"
        },
        {
          "indexed": false,
          "internalType": "address",
          "name": "depositor",
          "type": "address"
        },
        {
          "indexed": false,
          "internalType": "address",
          "name": "recipient",
          "type": "address"
        },
        {
          "indexed": false,
          "internalType": "bytes32",
          "name": "currency",
          "type": "bytes32"
        },
        {
          "indexed": false,
          "internalType": "uint256",
          "name": "amount",
          "type": "uint256"
        }
      ],
      "name": "TokenDeposited",
      "type": "event"
    },
    {
      "anonymous": false,
      "inputs": [
        {
          "indexed": false,
          "internalType": "bytes32",
          "name": "tokenKey",
          "type": "bytes32"
        }
      ],
      "name": "TokenRemoved",
      "type": "event"
    },
    {
      "anonymous": false,
      "inputs": [
        {
          "indexed": false,
          "internalType": "uint256",
          "name": "srcChainId",
          "type": "uint256"
        },
        {
          "indexed": false,
          "internalType": "uint256",
          "name": "destChainId",
          "type": "uint256"
        },
        {
          "indexed": false,
          "internalType": "uint256",
          "name": "depositId",
          "type": "uint256"
        },
        {
          "indexed": false,
          "internalType": "bytes32",
          "name": "depositor",
          "type": "bytes32"
        },
        {
          "indexed": false,
          "internalType": "bytes32",
          "name": "recipient",
          "type": "bytes32"
        },
        {
          "indexed": false,
          "internalType": "bytes32",
          "name": "currency",
          "type": "bytes32"
        },
        {
          "indexed": false,
          "internalType": "uint256",
          "name": "amount",
          "type": "uint256"
        }
      ],
      "name": "TokenWithdrawn",
      "type": "event"
    },
    {
      "anonymous": false,
      "inputs": [
        {
          "indexed": false,
          "internalType": "uint256",
          "name": "srcChainId",
          "type": "uint256"
        },
        {
          "indexed": false,
          "internalType": "uint256",
          "name": "destChainId",
          "type": "uint256"
        },
        {
          "indexed": false,
          "internalType": "bytes32",
          "name": "depositId",
          "type": "bytes32"
        },
        {
          "indexed": false,
          "internalType": "address",
          "name": "depositor",
          "type": "address"
        },
        {
          "indexed": false,
          "internalType": "address",
          "name": "recipient",
          "type": "address"
        },
        {
          "indexed": false,
          "internalType": "bytes32",
          "name": "currency",
          "type": "bytes32"
        },
        {
          "indexed": false,
          "internalType": "uint256",
          "name": "amount",
          "type": "uint256"
        }
      ],
      "name": "TokenWithdrawn",
      "type": "event"
    },
    {
      "anonymous": false,
      "inputs": [
        {
          "indexed": false,
          "internalType": "uint256",
          "name": "chainId",
          "type": "uint256"
        },
        {
          "indexed": false,
          "internalType": "uint16",
          "name": "wormholeNetworkId",
          "type": "uint16"
        }
      ],
      "name": "WormholeNetworkIdUpdated",
      "type": "event"
    },
    {
      "anonymous": false,
      "inputs": [
        {
          "indexed": false,
          "internalType": "address",
          "name": "coreContract",
          "type": "address"
        },
        {
          "indexed": false,
          "internalType": "uint8",
          "name": "consistencyLevel",
          "type": "uint8"
        }
      ],
      "name": "WormholeSetup",
      "type": "event"
    },
    {
      "inputs": [],
      "name": "TOKEN_LOCK_TYPE_MINT_BURN",
      "outputs": [
        {
          "internalType": "uint8",
          "name": "",
          "type": "uint8"
        }
      ],
      "stateMutability": "view",
      "type": "function"
    },
    {
      "inputs": [],
      "name": "TOKEN_LOCK_TYPE_TRANSFER",
      "outputs": [
        {
          "internalType": "uint8",
          "name": "",
          "type": "uint8"
        }
      ],
      "stateMutability": "view",
      "type": "function"
    },
    {
      "inputs": [
        {
          "internalType": "address",
          "name": "_admin",
          "type": "address"
        }
      ],
      "name": "__LnAdminUpgradeable_init",
      "outputs": [],
      "stateMutability": "nonpayable",
      "type": "function"
    },
    {
      "inputs": [
        {
          "internalType": "address",
          "name": "_admin",
          "type": "address"
        }
      ],
      "name": "__LnErc20Bridge_init",
      "outputs": [],
      "stateMutability": "nonpayable",
      "type": "function"
    },
    {
      "inputs": [
        {
          "internalType": "bytes32",
          "name": "tokenKey",
          "type": "bytes32"
        },
        {
          "internalType": "uint256",
          "name": "chainId",
          "type": "uint256"
        }
      ],
      "name": "addChainSupportForToken",
      "outputs": [],
      "stateMutability": "nonpayable",
      "type": "function"
    },
    {
      "inputs": [
        {
          "internalType": "bytes32",
          "name": "tokenKey",
          "type": "bytes32"
        },
        {
          "internalType": "address",
          "name": "tokenAddress",
          "type": "address"
        },
        {
          "internalType": "uint8",
          "name": "lockType",
          "type": "uint8"
        }
      ],
      "name": "addToken",
      "outputs": [],
      "stateMutability": "nonpayable",
      "type": "function"
    },
    {
      "inputs": [],
      "name": "admin",
      "outputs": [
        {
          "internalType": "address",
          "name": "",
          "type": "address"
        }
      ],
      "stateMutability": "view",
      "type": "function"
    },
    {
      "inputs": [],
      "name": "becomeAdmin",
      "outputs": [],
      "stateMutability": "nonpayable",
      "type": "function"
    },
    {
      "inputs": [
        {
          "internalType": "uint256",
          "name": "",
          "type": "uint256"
        }
      ],
      "name": "bridgeContractsByChainId",
      "outputs": [
        {
          "internalType": "bytes32",
          "name": "",
          "type": "bytes32"
        }
      ],
      "stateMutability": "view",
      "type": "function"
    },
    {
      "inputs": [],
      "name": "candidate",
      "outputs": [
        {
          "internalType": "address",
          "name": "",
          "type": "address"
        }
      ],
      "stateMutability": "view",
      "type": "function"
    },
    {
      "inputs": [],
      "name": "currentChainId",
      "outputs": [
        {
          "internalType": "uint256",
          "name": "",
          "type": "uint256"
        }
      ],
      "stateMutability": "view",
      "type": "function"
    },
    {
      "inputs": [
        {
          "internalType": "bytes32",
          "name": "token",
          "type": "bytes32"
        },
        {
          "internalType": "uint256",
          "name": "amount",
          "type": "uint256"
        },
        {
          "internalType": "uint64",
          "name": "destChainId",
          "type": "uint64"
        },
        {
          "internalType": "address",
          "name": "recipient",
          "type": "address"
        }
      ],
      "name": "deposit",
      "outputs": [],
      "stateMutability": "payable",
      "type": "function"
    },
    {
      "inputs": [],
      "name": "depositCount",
      "outputs": [
        {
          "internalType": "uint256",
          "name": "",
          "type": "uint256"
        }
      ],
      "stateMutability": "view",
      "type": "function"
    },
    {
      "inputs": [
        {
          "internalType": "bytes32",
          "name": "tokenKey",
          "type": "bytes32"
        },
        {
          "internalType": "uint256",
          "name": "chainId",
          "type": "uint256"
        }
      ],
      "name": "dropChainSupportForToken",
      "outputs": [],
      "stateMutability": "nonpayable",
      "type": "function"
    },
    {
      "inputs": [
        {
          "internalType": "bytes32",
          "name": "tokenKey",
          "type": "bytes32"
        }
      ],
      "name": "getTokenAddress",
      "outputs": [
        {
          "internalType": "address",
          "name": "",
          "type": "address"
        }
      ],
      "stateMutability": "view",
      "type": "function"
    },
    {
      "inputs": [
        {
          "internalType": "bytes32",
          "name": "tokenKey",
          "type": "bytes32"
        }
      ],
      "name": "getTokenLockType",
      "outputs": [
        {
          "internalType": "uint8",
          "name": "",
          "type": "uint8"
        }
      ],
      "stateMutability": "view",
      "type": "function"
    },
    {
      "inputs": [
        {
          "internalType": "bytes32",
          "name": "tokenKey",
          "type": "bytes32"
        },
        {
          "internalType": "uint256",
          "name": "chainId",
          "type": "uint256"
        }
      ],
      "name": "isTokenSupportedOnChain",
      "outputs": [
        {
          "internalType": "bool",
          "name": "",
          "type": "bool"
        }
      ],
      "stateMutability": "view",
      "type": "function"
    },
    {
      "inputs": [],
      "name": "pause",
      "outputs": [],
      "stateMutability": "nonpayable",
      "type": "function"
    },
    {
      "inputs": [],
      "name": "paused",
      "outputs": [
        {
          "internalType": "bool",
          "name": "",
          "type": "bool"
        }
      ],
      "stateMutability": "view",
      "type": "function"
    },
    {
      "inputs": [
        {
          "internalType": "bytes32",
          "name": "tokenKey",
          "type": "bytes32"
        }
      ],
      "name": "removeToken",
      "outputs": [],
      "stateMutability": "nonpayable",
      "type": "function"
    },
    {
      "inputs": [
        {
          "internalType": "address",
          "name": "_candidate",
          "type": "address"
        }
      ],
      "name": "setCandidate",
      "outputs": [],
      "stateMutability": "nonpayable",
      "type": "function"
    },
    {
      "inputs": [
        {
          "internalType": "address",
          "name": "_erc20MessageBroker",
          "type": "address"
        }
      ],
      "name": "setUpCCIP",
      "outputs": [],
      "stateMutability": "nonpayable",
      "type": "function"
    },
    {
      "inputs": [
        {
          "internalType": "bytes32",
          "name": "",
          "type": "bytes32"
        }
      ],
      "name": "tokenInfos",
      "outputs": [
        {
          "internalType": "address",
          "name": "tokenAddress",
          "type": "address"
        },
        {
          "internalType": "uint8",
          "name": "lockType",
          "type": "uint8"
        }
      ],
      "stateMutability": "view",
      "type": "function"
    },
    {
      "inputs": [
        {
          "internalType": "bytes32",
          "name": "",
          "type": "bytes32"
        },
        {
          "internalType": "uint256",
          "name": "",
          "type": "uint256"
        }
      ],
      "name": "tokenSupportedOnChain",
      "outputs": [
        {
          "internalType": "bool",
          "name": "",
          "type": "bool"
        }
      ],
      "stateMutability": "view",
      "type": "function"
    },
    {
      "inputs": [],
      "name": "unpause",
      "outputs": [],
      "stateMutability": "nonpayable",
      "type": "function"
    },
    {
      "inputs": [
        {
          "internalType": "bytes32",
          "name": "messageId",
          "type": "bytes32"
        },
        {
          "internalType": "uint256",
          "name": "srcChainId",
          "type": "uint256"
        },
        {
          "internalType": "uint256",
          "name": "destChainId",
          "type": "uint256"
        },
        {
          "internalType": "address",
          "name": "depositor",
          "type": "address"
        },
        {
          "internalType": "address",
          "name": "recipient",
          "type": "address"
        },
        {
          "internalType": "bytes32",
          "name": "currency",
          "type": "bytes32"
        },
        {
          "internalType": "uint256",
          "name": "amount",
          "type": "uint256"
        }
      ],
      "name": "withdraw",
      "outputs": [],
      "stateMutability": "nonpayable",
      "type": "function"
    },
    {
      "inputs": [
        {
          "internalType": "uint256",
          "name": "",
          "type": "uint256"
        },
        {
          "internalType": "uint256",
          "name": "",
          "type": "uint256"
        }
      ],
      "name": "withdrawnDeposits",
      "outputs": [
        {
          "internalType": "bool",
          "name": "",
          "type": "bool"
        }
      ],
      "stateMutability": "view",
      "type": "function"
    },
    {
      "inputs": [
        {
          "internalType": "uint256",
          "name": "",
          "type": "uint256"
        }
      ],
      "name": "wormholeNetworkIdsByChainId",
      "outputs": [
        {
          "internalType": "uint16",
          "name": "",
          "type": "uint16"
        }
      ],
      "stateMutability": "view",
      "type": "function"
    }
  ],
  "bytecode": "0x608060405234801561001057600080fd5b50611e2b806100206000396000f3fe6080604052600436106101b75760003560e01c80636c8381f8116100ec578063b12e44101161008a578063c854329111610064578063c854329114610499578063d22ed8b6146104c6578063d23db31e146104e6578063f851a44014610506576101b7565b8063b12e441014610439578063b594909114610459578063be7e4e7914610479576101b7565b80638456cb59116100c65780638456cb59146103c15780638e118b83146103d657806390f1f17b146103f6578063a8d6e15d14610424576101b7565b80636c8381f81461036a5780636cbadbfa1461038c5780637ba898f7146103a1576101b7565b806336474b3d116101595780634c5dd3f3116101335780634c5dd3f3146102f35780634ff5174c146103135780635c975abb146103335780636025e49214610348576101b7565b806336474b3d1461029e5780633f4ba83a146102be57806341885ac4146102d3576101b7565b8063224e746211610195578063224e74621461022757806325971dff146102475780632bca8a751461025c5780632dfdf0b51461027c576101b7565b80630589b8b2146101bc57806307880b7f146101f25780631cece09614610214575b600080fd5b3480156101c857600080fd5b506101dc6101d73660046116f6565b61051b565b6040516101e99190611872565b60405180910390f35b3480156101fe57600080fd5b5061021261020d366004611641565b61053b565b005b610212610222366004611779565b6105ec565b34801561023357600080fd5b50610212610242366004611682565b610966565b34801561025357600080fd5b50610212610a40565b34801561026857600080fd5b506101dc6102773660046116f6565b610afc565b34801561028857600080fd5b50610291610b1c565b6040516101e9919061187d565b3480156102aa57600080fd5b506102916102b9366004611682565b610b22565b3480156102ca57600080fd5b50610212610b34565b3480156102df57600080fd5b506102126102ee366004611641565b610b8f565b3480156102ff57600080fd5b5061021261030e3660046116f6565b610c00565b34801561031f57600080fd5b5061021261032e3660046116f6565b610ceb565b34801561033f57600080fd5b506101dc610dc6565b34801561035457600080fd5b5061035d610dcf565b6040516101e99190611d1e565b34801561037657600080fd5b5061037f610dd4565b6040516101e99190611805565b34801561039857600080fd5b50610291610de3565b3480156103ad57600080fd5b5061035d6103bc366004611682565b610de9565b3480156103cd57600080fd5b50610212610e08565b3480156103e257600080fd5b506102126103f1366004611641565b610e66565b34801561040257600080fd5b50610416610411366004611682565b610fc6565b6040516101e9929190611856565b34801561043057600080fd5b5061035d610fed565b34801561044557600080fd5b5061037f610454366004611682565b610ff2565b34801561046557600080fd5b506102126104743660046116b2565b61100d565b34801561048557600080fd5b50610212610494366004611641565b61114c565b3480156104a557600080fd5b506104b96104b4366004611682565b6111fb565b6040516101e99190611c93565b3480156104d257600080fd5b506101dc6104e13660046116f6565b611211565b3480156104f257600080fd5b50610212610501366004611717565b611231565b34801561051257600080fd5b5061037f6113aa565b603660209081526000928352604080842090915290825290205460ff1681565b6000546201000090046001600160a01b0316331461058a5760405162461bcd60e51b8152600401808060200182810382526043815260200180611db36043913960600191505060405180910390fd5b600180546001600160a01b038381166001600160a01b0319831617928390556040805192821680845293909116602083015280517f7f730391c4f0fa1bea34bcb9bff8c30a079b21a0359759160cb990648ab84c729281900390910190a15050565b6000546201000090046001600160a01b031633148061060e5750603d5460ff16155b6106335760405162461bcd60e51b815260040161062a9061191d565b60405180910390fd5b6000848152603560209081526040918290208251808401909352546001600160a01b038116808452600160a01b90910460ff16918301919091526106895760405162461bcd60e51b815260040161062a90611a30565b600084116106a95760405162461bcd60e51b815260040161062a90611ae0565b6032548367ffffffffffffffff1614156106d55760405162461bcd60e51b815260040161062a90611954565b6106e9858467ffffffffffffffff16611211565b6107055760405162461bcd60e51b815260040161062a90611b94565b6001600160a01b03821661072b5760405162461bcd60e51b815260040161062a90611b26565b602081015160ff166001141561074e578051610749903330876113bf565b6107de565b602081015160ff16600214156107c6578051604051632770a7eb60e21b81526001600160a01b0390911690639dc29fac9061078f9033908890600401611819565b600060405180830381600087803b1580156107a957600080fd5b505af11580156107bd573d6000803e3d6000fd5b505050506107de565b60405162461bcd60e51b815260040161062a90611c4d565b603a5460405163ce0a0eff60e01b81526000916001600160a01b03169063ce0a0eff906108159089908990899089906004016118b6565b602060405180830381600087803b15801561082f57600080fd5b505af1158015610843573d6000803e3d6000fd5b505050506040513d601f19601f82011682018060405250810190610867919061169a565b9050803410156108895760405162461bcd60e51b815260040161062a90611c16565b603a54604051633d7fbf9160e21b81526000916001600160a01b03169063f5fefe449034906108c4908b908b908b9033908c906004016118e4565b6020604051808303818588803b1580156108dd57600080fd5b505af11580156108f1573d6000803e3d6000fd5b50505050506040513d601f19601f82011682018060405250810190610916919061169a565b90507f0becfa50c005de1dbac961dbe24c9e3f229c9027c35f40ae6903165d81ad59b1603254868333888c8c6040516109559796959493929190611cdb565b60405180910390a150505050505050565b6000546201000090046001600160a01b031633146109b55760405162461bcd60e51b8152600401808060200182810382526043815260200180611db36043913960600191505060405180910390fd5b6000818152603560205260409020546001600160a01b03166109e95760405162461bcd60e51b815260040161062a90611a67565b6000818152603560205260409081902080546001600160a81b0319169055517f27b51627532fe8cd0df946e5a9590efb06cc367d3d611c1e4084c7e1dccb3ab490610a3590839061187d565b60405180910390a150565b6001546001600160a01b03163314610a895760405162461bcd60e51b8152600401808060200182810382526033815260200180611d526033913960400191505060405180910390fd5b600080546001546001600160a01b039081166201000090810262010000600160b01b03198416179384905560408051938290048316808552919094049091166020830152825190927f7e644d79422f17c01e4894b5f4f588d331ebfa28653d42ae832dc59e38c9798f928290030190a150565b603760209081526000928352604080842090915290825290205460ff1681565b60345481565b603b6020526000908152604090205481565b6000546201000090046001600160a01b03163314610b835760405162461bcd60e51b8152600401808060200182810382526043815260200180611db36043913960600191505060405180910390fd5b603d805460ff19169055565b6000546201000090046001600160a01b03163314610bde5760405162461bcd60e51b8152600401808060200182810382526043815260200180611db36043913960600191505060405180910390fd5b603a80546001600160a01b0319166001600160a01b0392909216919091179055565b6000546201000090046001600160a01b03163314610c4f5760405162461bcd60e51b8152600401808060200182810382526043815260200180611db36043913960600191505060405180910390fd5b600082815260366020908152604080832084845290915290205460ff1615610c895760405162461bcd60e51b815260040161062a90611aab565b600082815260366020908152604080832084845290915290819020805460ff19166001179055517f71d564e28114f33667381ae9c6bfadc1254fab8fb4e6a9606bfa512cb5e7df4990610cdf90849084906118a8565b60405180910390a15050565b6000546201000090046001600160a01b03163314610d3a5760405162461bcd60e51b8152600401808060200182810382526043815260200180611db36043913960600191505060405180910390fd5b600082815260366020908152604080832084845290915290205460ff16610d735760405162461bcd60e51b815260040161062a90611bdf565b600082815260366020908152604080832084845290915290819020805460ff19169055517fb8a301810556c08eff893eded78cbada9895cdb3c3976c53f3c48073e23d242290610cdf90849084906118a8565b603d5460ff1681565b600181565b6001546001600160a01b031681565b60325481565b600081815260356020526040902054600160a01b900460ff165b919050565b6000546201000090046001600160a01b03163314610e575760405162461bcd60e51b8152600401808060200182810382526043815260200180611db36043913960600191505060405180910390fd5b603d805460ff19166001179055565b600054610100900460ff1680610e7f5750610e7f6114cf565b80610e8d575060005460ff16155b610ec85760405162461bcd60e51b815260040180806020018281038252602e815260200180611d85602e913960400191505060405180910390fd5b600054610100900460ff16158015610ef3576000805460ff1961ff0019909116610100171660011790555b6001600160a01b038216610f4e576040805162461bcd60e51b815260206004820181905260248201527f4c6e41646d696e5570677261646561626c653a207a65726f2061646472657373604482015290519081900360640190fd5b6000805462010000600160b01b031916620100006001600160a01b03851690810291909117825560408051928352602083019190915280517f7e644d79422f17c01e4894b5f4f588d331ebfa28653d42ae832dc59e38c9798f9281900390910190a18015610fc2576000805461ff00191690555b5050565b6035602052600090815260409020546001600160a01b03811690600160a01b900460ff1682565b600281565b6000908152603560205260409020546001600160a01b031690565b6000546201000090046001600160a01b0316331461105c5760405162461bcd60e51b8152600401808060200182810382526043815260200180611db36043913960600191505060405180910390fd5b6001600160a01b0382166110825760405162461bcd60e51b815260040161062a90611b26565b60ff811660011480611097575060ff81166002145b6110b35760405162461bcd60e51b815260040161062a90611c4d565b6040805180820182526001600160a01b03808516825260ff808516602080850191825260008981526035909152859020935184549151909216600160a01b0260ff60a01b19929093166001600160a01b03199091161716179055517fd9c6008de31d775aae4523eb2e6e6565ea965cabb3eac06153885621c3ddb0359061113f90859085908590611886565b60405180910390a1505050565b600054610100900460ff168061116557506111656114cf565b80611173575060005460ff16155b6111ae5760405162461bcd60e51b815260040180806020018281038252602e815260200180611d85602e913960400191505060405180910390fd5b600054610100900460ff161580156111d9576000805460ff1961ff0019909116610100171660011790555b6111e282610e66565b466032558015610fc2576000805461ff00191690555050565b603c6020526000908152604090205461ffff1681565b600091825260366020908152604080842092845291905290205460ff1690565b603a546001600160a01b0316331480156112555750603a546001600160a01b031615155b6112715760405162461bcd60e51b815260040161062a906119a2565b6000828152603560209081526040918290208251808401909352546001600160a01b038116808452600160a01b90910460ff16918301919091526112c75760405162461bcd60e51b815260040161062a90611a30565b602081015160ff16600114156112e95780516112e49085846114e0565b61135d565b602081015160ff16600214156107c65780516040516340c10f1960e01b81526001600160a01b03909116906340c10f199061132a9087908690600401611819565b600060405180830381600087803b15801561134457600080fd5b505af1158015611358573d6000803e3d6000fd5b505050505b7f8d2e28807c7943527a00899df49c1187f75054c753979630534a2c5a5887d19e87878a888888886040516113989796959493929190611ca2565b60405180910390a15050505050505050565b6000546201000090046001600160a01b031681565b600080856001600160a01b0316604051806060016040528060258152602001611d2d602591398051906020012086868660405160240161140193929190611832565b60408051601f198184030181529181526020820180516001600160e01b03166001600160e01b031990941693909317909252905161143f91906117cc565b6000604051808303816000865af19150503d806000811461147c576040519150601f19603f3d011682016040523d82523d6000602084013e611481565b606091505b50915091508180156114ab5750805115806114ab5750808060200190518101906114ab9190611662565b6114c75760405162461bcd60e51b815260040161062a906119ed565b505050505050565b60006114da30611624565b15905090565b604080518082018252601981527f7472616e7366657228616464726573732c75696e7432353629000000000000006020909101525160009081906001600160a01b038616907fa9059cbb2ab09eb219583f4a59a5d0623ade346d962bcd4e46b11da047c9049b906115579087908790602401611819565b60408051601f198184030181529181526020820180516001600160e01b03166001600160e01b031990941693909317909252905161159591906117cc565b6000604051808303816000865af19150503d80600081146115d2576040519150601f19603f3d011682016040523d82523d6000602084013e6115d7565b606091505b50915091508180156116015750805115806116015750808060200190518101906116019190611662565b61161d5760405162461bcd60e51b815260040161062a90611b5d565b5050505050565b3b151590565b80356001600160a01b0381168114610e0357600080fd5b600060208284031215611652578081fd5b61165b8261162a565b9392505050565b600060208284031215611673578081fd5b8151801515811461165b578182fd5b600060208284031215611693578081fd5b5035919050565b6000602082840312156116ab578081fd5b5051919050565b6000806000606084860312156116c6578182fd5b833592506116d66020850161162a565b9150604084013560ff811681146116eb578182fd5b809150509250925092565b60008060408385031215611708578182fd5b50508035926020909101359150565b600080600080600080600060e0888a031215611731578283fd5b87359650602088013595506040880135945061174f6060890161162a565b935061175d6080890161162a565b925060a0880135915060c0880135905092959891949750929550565b6000806000806080858703121561178e578384fd5b8435935060208501359250604085013567ffffffffffffffff811681146117b3578283fd5b91506117c16060860161162a565b905092959194509250565b60008251815b818110156117ec57602081860181015185830152016117d2565b818111156117fa5782828501525b509190910192915050565b6001600160a01b0391909116815260200190565b6001600160a01b03929092168252602082015260400190565b6001600160a01b039384168152919092166020820152604081019190915260600190565b6001600160a01b0392909216825260ff16602082015260400190565b901515815260200190565b90815260200190565b9283526001600160a01b0391909116602083015260ff16604082015260600190565b918252602082015260400190565b938452602084019290925267ffffffffffffffff1660408301526001600160a01b0316606082015260800190565b948552602085019390935267ffffffffffffffff9190911660408401526001600160a01b03908116606084015216608082015260a00190565b6020808252601c908201527f436f6e74726163742069732063757272656e746c792070617573656400000000604082015260600190565b6020808252602e908201527f4c6e45726332304272696467653a2064657374206d757374206265206469666660408201526d6572656e742066726f6d2073726360901b606082015260800190565b6020808252602b908201527f4f6e6c792072656769737465726564206d6573736167652062726f6b6572206360408201526a616e20776974686472617760a81b606082015260800190565b60208082526023908201527f4c6e45726332304272696467653a207472616e736665722066726f6d206661696040820152621b195960ea1b606082015260800190565b6020808252601e908201527f4c6e45726332304272696467653a20746f6b656e206e6f7420666f756e640000604082015260600190565b60208082526024908201527f4c6e45726332304272696467653a20746f6b656e20646f6573206e6f742065786040820152636973747360e01b606082015260800190565b6020808252818101527f4c6e45726332304272696467653a20616c726561647920737570706f72746564604082015260600190565b60208082526026908201527f4c6e45726332304272696467653a20616d6f756e74206d75737420626520706f60408201526573697469766560d01b606082015260800190565b6020808252601b908201527f4c6e45726332304272696467653a207a65726f20616464726573730000000000604082015260600190565b6020808252601e908201527f4c6e45726332304272696467653a207472616e73666572206661696c65640000604082015260600190565b6020808252602b908201527f4c6e45726332304272696467653a20746f6b656e206e6f7420737570706f727460408201526a32b21037b71031b430b4b760a91b606082015260800190565b6020808252601c908201527f4c6e45726332304272696467653a206e6f7420737570706f7274656400000000604082015260600190565b60208082526017908201527f496e73756666696369656e742066756e64732073656e74000000000000000000604082015260600190565b60208082526026908201527f4c6e45726332304272696467653a20756e6b6e6f776e20746f6b656e206c6f636040820152656b207479706560d01b606082015260800190565b61ffff91909116815260200190565b968752602087019590955260408601939093526001600160a01b03918216606086015216608084015260a083015260c082015260e00190565b96875267ffffffffffffffff95909516602087015260408601939093526001600160a01b03918216606086015216608084015260a083015260c082015260e00190565b60ff9190911681526020019056fe7472616e7366657246726f6d28616464726573732c616464726573732c75696e74323536294c6e41646d696e5570677261646561626c653a206f6e6c792063616e6469646174652063616e206265636f6d652061646d696e496e697469616c697a61626c653a20636f6e747261637420697320616c726561647920696e697469616c697a65644c6e41646d696e5570677261646561626c653a206f6e6c792074686520636f6e74726163742061646d696e2063616e20706572666f726d207468697320616374696f6ea26469706673582212200bdce1d0899ea32505069133e23bf506d2509c7ff593b59cbe67570d94d6100264736f6c63430007060033",
  "linkReferences": {},
  "deployedLinkReferences": {}
}