{
  "_format": "hh-sol-artifact-1",
  "contractName": "LnErc20MessageBroker",
  "sourceName": "contracts/LnErc20MessageBroker.sol",
  "abi": [
    {
      "inputs": [
        {
          "internalType": "address",
          "name": "_router",
          "type": "address"
        },
        {
          "internalType": "address",
          "name": "_admin",
          "type": "address"
        },
        {
          "internalType": "address",
          "name": "_bridge",
          "type": "address"
        },
        {
          "internalType": "uint256",
          "name": "_currentChainId",
          "type": "uint256"
        }
      ],
      "stateMutability": "nonpayable",
      "type": "constructor"
    },
    {
      "inputs": [
        {
          "internalType": "uint64",
          "name": "destinationChainSelector",
          "type": "uint64"
        }
      ],
      "name": "DestinationChainNotAllowlisted",
      "type": "error"
    },
    {
      "inputs": [
        {
          "internalType": "address",
          "name": "owner",
          "type": "address"
        },
        {
          "internalType": "address",
          "name": "target",
          "type": "address"
        },
        {
          "internalType": "uint256",
          "name": "value",
          "type": "uint256"
        }
      ],
      "name": "FailedToWithdrawEth",
      "type": "error"
    },
    {
      "inputs": [],
      "name": "InvalidReceiverAddress",
      "type": "error"
    },
    {
      "inputs": [
        {
          "internalType": "address",
          "name": "router",
          "type": "address"
        }
      ],
      "name": "InvalidRouter",
      "type": "error"
    },
    {
      "inputs": [
        {
          "internalType": "uint256",
          "name": "currentBalance",
          "type": "uint256"
        },
        {
          "internalType": "uint256",
          "name": "calculatedFees",
          "type": "uint256"
        }
      ],
      "name": "NotEnoughBalance",
      "type": "error"
    },
    {
      "inputs": [],
      "name": "NothingToWithdraw",
      "type": "error"
    },
    {
      "inputs": [
        {
          "internalType": "address",
          "name": "sender",
          "type": "address"
        }
      ],
      "name": "SenderNotAllowlisted",
      "type": "error"
    },
    {
      "inputs": [
        {
          "internalType": "uint64",
          "name": "sourceChainSelector",
          "type": "uint64"
        }
      ],
      "name": "SourceChainNotAllowlisted",
      "type": "error"
    },
    {
      "anonymous": false,
      "inputs": [
        {
          "indexed": false,
          "internalType": "address",
          "name": "oldAdmin",
          "type": "address"
        },
        {
          "indexed": false,
          "internalType": "address",
          "name": "newAdmin",
          "type": "address"
        }
      ],
      "name": "AdminChanged",
      "type": "event"
    },
    {
      "anonymous": false,
      "inputs": [
        {
          "indexed": false,
          "internalType": "address",
          "name": "oldCandidate",
          "type": "address"
        },
        {
          "indexed": false,
          "internalType": "address",
          "name": "newCandidate",
          "type": "address"
        }
      ],
      "name": "CandidateChanged",
      "type": "event"
    },
    {
      "inputs": [],
      "name": "admin",
      "outputs": [
        {
          "internalType": "address",
          "name": "",
          "type": "address"
        }
      ],
      "stateMutability": "view",
      "type": "function"
    },
    {
      "inputs": [],
      "name": "becomeAdmin",
      "outputs": [],
      "stateMutability": "nonpayable",
      "type": "function"
    },
    {
      "inputs": [],
      "name": "bridge",
      "outputs": [
        {
          "internalType": "contract ILnErc20Bridge",
          "name": "",
          "type": "address"
        }
      ],
      "stateMutability": "view",
      "type": "function"
    },
    {
      "inputs": [],
      "name": "candidate",
      "outputs": [
        {
          "internalType": "address",
          "name": "",
          "type": "address"
        }
      ],
      "stateMutability": "view",
      "type": "function"
    },
    {
      "inputs": [
        {
          "components": [
            {
              "internalType": "bytes32",
              "name": "messageId",
              "type": "bytes32"
            },
            {
              "internalType": "uint64",
              "name": "sourceChainSelector",
              "type": "uint64"
            },
            {
              "internalType": "bytes",
              "name": "sender",
              "type": "bytes"
            },
            {
              "internalType": "bytes",
              "name": "data",
              "type": "bytes"
            },
            {
              "components": [
                {
                  "internalType": "address",
                  "name": "token",
                  "type": "address"
                },
                {
                  "internalType": "uint256",
                  "name": "amount",
                  "type": "uint256"
                }
              ],
              "internalType": "struct Client.EVMTokenAmount[]",
              "name": "destTokenAmounts",
              "type": "tuple[]"
            }
          ],
          "internalType": "struct Client.Any2EVMMessage",
          "name": "message",
          "type": "tuple"
        }
      ],
      "name": "ccipReceive",
      "outputs": [],
      "stateMutability": "nonpayable",
      "type": "function"
    },
    {
      "inputs": [
        {
          "internalType": "uint64",
          "name": "",
          "type": "uint64"
        }
      ],
      "name": "chainSelectors",
      "outputs": [
        {
          "internalType": "uint64",
          "name": "sourceChainSelector",
          "type": "uint64"
        },
        {
          "internalType": "address",
          "name": "receiverContract",
          "type": "address"
        },
        {
          "internalType": "bool",
          "name": "allowMessagesTo",
          "type": "bool"
        },
        {
          "internalType": "bool",
          "name": "allowMessagesFrom",
          "type": "bool"
        }
      ],
      "stateMutability": "view",
      "type": "function"
    },
    {
      "inputs": [],
      "name": "currentChainId",
      "outputs": [
        {
          "internalType": "uint256",
          "name": "",
          "type": "uint256"
        }
      ],
      "stateMutability": "view",
      "type": "function"
    },
    {
      "inputs": [
        {
          "internalType": "uint64",
          "name": "chainId",
          "type": "uint64"
        }
      ],
      "name": "getChainSelector",
      "outputs": [
        {
          "components": [
            {
              "internalType": "uint64",
              "name": "sourceChainSelector",
              "type": "uint64"
            },
            {
              "internalType": "address",
              "name": "receiverContract",
              "type": "address"
            },
            {
              "internalType": "bool",
              "name": "allowMessagesTo",
              "type": "bool"
            },
            {
              "internalType": "bool",
              "name": "allowMessagesFrom",
              "type": "bool"
            }
          ],
          "internalType": "struct CCIPBroker",
          "name": "",
          "type": "tuple"
        }
      ],
      "stateMutability": "view",
      "type": "function"
    },
    {
      "inputs": [
        {
          "internalType": "bytes32",
          "name": "token",
          "type": "bytes32"
        },
        {
          "internalType": "uint256",
          "name": "amount",
          "type": "uint256"
        },
        {
          "internalType": "uint64",
          "name": "destChainId",
          "type": "uint64"
        },
        {
          "internalType": "address",
          "name": "recipient",
          "type": "address"
        }
      ],
      "name": "getFee",
      "outputs": [
        {
          "internalType": "uint256",
          "name": "",
          "type": "uint256"
        }
      ],
      "stateMutability": "view",
      "type": "function"
    },
    {
      "inputs": [],
      "name": "getRouter",
      "outputs": [
        {
          "internalType": "address",
          "name": "",
          "type": "address"
        }
      ],
      "stateMutability": "view",
      "type": "function"
    },
    {
      "inputs": [
        {
          "internalType": "uint64",
          "name": "chainId",
          "type": "uint64"
        },
        {
          "internalType": "uint64",
          "name": "chainSelector",
          "type": "uint64"
        },
        {
          "internalType": "address",
          "name": "receiverContractAddress",
          "type": "address"
        },
        {
          "internalType": "bool",
          "name": "acceptFrom",
          "type": "bool"
        },
        {
          "internalType": "bool",
          "name": "acceptTo",
          "type": "bool"
        }
      ],
      "name": "registerChainSelector",
      "outputs": [],
      "stateMutability": "nonpayable",
      "type": "function"
    },
    {
      "inputs": [
        {
          "internalType": "address",
          "name": "_sender",
          "type": "address"
        },
        {
          "internalType": "bool",
          "name": "allowed",
          "type": "bool"
        }
      ],
      "name": "registerSender",
      "outputs": [],
      "stateMutability": "nonpayable",
      "type": "function"
    },
    {
      "inputs": [
        {
          "internalType": "address",
          "name": "",
          "type": "address"
        }
      ],
      "name": "registeredSenders",
      "outputs": [
        {
          "internalType": "bool",
          "name": "",
          "type": "bool"
        }
      ],
      "stateMutability": "view",
      "type": "function"
    },
    {
      "inputs": [
        {
          "internalType": "bytes32",
          "name": "token",
          "type": "bytes32"
        },
        {
          "internalType": "uint256",
          "name": "amount",
          "type": "uint256"
        },
        {
          "internalType": "uint64",
          "name": "destChainId",
          "type": "uint64"
        },
        {
          "internalType": "address",
          "name": "depositor",
          "type": "address"
        },
        {
          "internalType": "address",
          "name": "recipient",
          "type": "address"
        }
      ],
      "name": "sendMessage",
      "outputs": [
        {
          "internalType": "bytes32",
          "name": "",
          "type": "bytes32"
        }
      ],
      "stateMutability": "payable",
      "type": "function"
    },
    {
      "inputs": [
        {
          "internalType": "address",
          "name": "_candidate",
          "type": "address"
        }
      ],
      "name": "setCandidate",
      "outputs": [],
      "stateMutability": "nonpayable",
      "type": "function"
    },
    {
      "inputs": [
        {
          "internalType": "bytes4",
          "name": "interfaceId",
          "type": "bytes4"
        }
      ],
      "name": "supportsInterface",
      "outputs": [
        {
          "internalType": "bool",
          "name": "",
          "type": "bool"
        }
      ],
      "stateMutability": "pure",
      "type": "function"
    }
  ],
  "bytecode": "0x60a06040523480156200001157600080fd5b50604051620018ac380380620018ac8339810160408190526200003491620001e9565b836001600160a01b03811662000065576040516335fdcccd60e21b8152600060048201526024015b60405180910390fd5b6001600160a01b039081166080528316620000b85760405162461bcd60e51b81526020600482015260126024820152717a65726f2061646d696e206164647265737360701b60448201526064016200005c565b6001600160a01b038216620001105760405162461bcd60e51b815260206004820152601360248201527f7a65726f2062726964676520616464726573730000000000000000000000000060448201526064016200005c565b80600003620001555760405162461bcd60e51b815260206004820152601060248201526f0636861696e2063616e277420626520360841b60448201526064016200005c565b600080546001600160a01b03199081166001600160a01b038681169182178455600580549093169086161790915560048390556040805192835260208301919091527f7e644d79422f17c01e4894b5f4f588d331ebfa28653d42ae832dc59e38c9798f910160405180910390a1505050506200023b565b80516001600160a01b0381168114620001e457600080fd5b919050565b600080600080608085870312156200020057600080fd5b6200020b85620001cc565b93506200021b60208601620001cc565b92506200022b60408601620001cc565b6060959095015193969295505050565b60805161164e6200025e60003960008181610214015261064e015261164e6000f3fe6080604052600436106100d35760003560e01c8063b0f479a11161007a578063b0f479a114610205578063c7f7318b14610238578063ce0a0eff14610258578063d562b3fc14610278578063e78cea921461030f578063f5fefe441461032f578063f7a7eb1014610342578063f851a4401461042a57600080fd5b806301ffc9a7146100d857806307880b7f1461010d57806325971dff1461012f5780632b0eaade146101445780634a68e92d146101645780636c8381f8146101945780636cbadbfa146101c157806385572ffb146101e5575b600080fd5b3480156100e457600080fd5b506100f86100f3366004610f09565b61044a565b60405190151581526020015b60405180910390f35b34801561011957600080fd5b5061012d610128366004610f4f565b610481565b005b34801561013b57600080fd5b5061012d610515565b34801561015057600080fd5b5061012d61015f366004610f81565b6105ee565b34801561017057600080fd5b506100f861017f366004610f4f565b60026020526000908152604090205460ff1681565b3480156101a057600080fd5b506001546101b4906001600160a01b031681565b6040516101049190610fb6565b3480156101cd57600080fd5b506101d760045481565b604051908152602001610104565b3480156101f157600080fd5b5061012d610200366004610fca565b610643565b34801561021157600080fd5b507f00000000000000000000000000000000000000000000000000000000000000006101b4565b34801561024457600080fd5b5061012d610253366004611024565b6106a2565b34801561026457600080fd5b506101d761027336600461108f565b610770565b34801561028457600080fd5b506102d56102933660046110d9565b6003602052600090815260409020546001600160401b038116906001600160a01b03600160401b8204169060ff600160e01b8204811691600160e81b90041684565b604080516001600160401b0390951685526001600160a01b0390931660208501529015159183019190915215156060820152608001610104565b34801561031b57600080fd5b506005546101b4906001600160a01b031681565b6101d761033d3660046110f6565b6108f8565b34801561034e57600080fd5b506103e161035d3660046110d9565b60408051608080820183526000808352602080840182905283850182905260609384018290526001600160401b0395861682526003815290849020845192830185525494851682526001600160a01b03600160401b8604169082015260ff600160e01b85048116151593820193909352600160e81b90930490911615159082015290565b604051610104919081516001600160401b031681526020808301516001600160a01b03169082015260408083015115159082015260609182015115159181019190915260800190565b34801561043657600080fd5b506000546101b4906001600160a01b031681565b60006001600160e01b031982166385572ffb60e01b148061047b57506001600160e01b031982166301ffc9a760e01b145b92915050565b6000546001600160a01b031633146104b45760405162461bcd60e51b81526004016104ab90611155565b60405180910390fd5b600180546001600160a01b038381166001600160a01b031983168117909355604080519190921680825260208201939093527f7f730391c4f0fa1bea34bcb9bff8c30a079b21a0359759160cb990648ab84c72910160405180910390a15050565b6001546001600160a01b0316331461058b5760405162461bcd60e51b815260206004820152603360248201527f4c6e41646d696e5570677261646561626c653a206f6e6c792063616e646964616044820152723a329031b0b7103132b1b7b6b29030b236b4b760691b60648201526084016104ab565b600080546001546001600160a01b039081166001600160a01b031983168117909355604080519190921680825260208201939093527f7e644d79422f17c01e4894b5f4f588d331ebfa28653d42ae832dc59e38c9798f910160405180910390a150565b6000546001600160a01b031633146106185760405162461bcd60e51b81526004016104ab90611155565b6001600160a01b03919091166000908152600260205260409020805460ff1916911515919091179055565b336001600160a01b037f0000000000000000000000000000000000000000000000000000000000000000161461068e57336040516335fdcccd60e21b81526004016104ab9190610fb6565b61069f61069a82611369565b610c06565b50565b6000546001600160a01b031633146106cc5760405162461bcd60e51b81526004016104ab90611155565b604080516080810182526001600160401b0395861681526001600160a01b039485166020808301918252931515828401908152941515606083019081529787166000908152600390945291909220915182549151935196511515600160e81b0260ff60e81b19971515600160e01b029790971661ffff60e01b1994909516600160401b026001600160e01b0319909216951694909417939093171617919091179055565b6001600160401b0380831660009081526003602090815260408083208151608081018352905494851681526001600160a01b03600160401b8604168184015260ff600160e01b86048116151582840152600160e81b90950490941615156060850152805163b0f479a160e01b815290519293928492309263b0f479a192600480830193928290030181865afa15801561080d573d6000803e3d6000fd5b505050506040513d601f19601f820116820180604052508101906108319190611415565b90506000600454836000015133878b8b60405160200161085696959493929190611432565b604051602081830303815290604052905060006108798460200151836000610deb565b84516040516320487ded60e01b81529192506001600160a01b038516916320487ded916108aa9185906004016114b3565b602060405180830381865afa1580156108c7573d6000803e3d6000fd5b505050506040513d601f19601f820116820180604052508101906108eb919061158c565b9998505050505050505050565b3360009081526002602052604081205460ff1661092a57336040516338c08ef960e11b81526004016104ab9190610fb6565b6001600160401b0380851660009081526003602052604081205490911690036109bb5760405162461bcd60e51b815260206004820152603b60248201527f44657374696e6174696f6e20636861696e20646f6573206e6f7420686176652060448201527f61207265676973746572656420636861696e2073656c6563746f72000000000060648201526084016104ab565b6001600160401b0380851660009081526003602090815260408083208151608081018352905494851681526001600160a01b03600160401b8604168184015260ff600160e01b86048116151582840152600160e81b909504909416151560608501526004549051610a36928991899189918e918e9101611432565b60405160208183030381529060405290506000610a598360200151836000610deb565b90506000306001600160a01b031663b0f479a16040518163ffffffff1660e01b8152600401602060405180830381865afa158015610a9b573d6000803e3d6000fd5b505050506040513d601f19601f82011682018060405250810190610abf9190611415565b84516040516320487ded60e01b81529192506000916001600160a01b038416916320487ded91610af4919087906004016114b3565b602060405180830381865afa158015610b11573d6000803e3d6000fd5b505050506040513d601f19601f82011682018060405250810190610b35919061158c565b905080341015610b7f5760405162461bcd60e51b8152602060048201526015602482015274125b9cdd59999a58da595b9d08199959481c185a59605a1b60448201526064016104ab565b84516040516396f4e9f960e01b81526000916001600160a01b038516916396f4e9f9913491610bb3919089906004016114b3565b60206040518083038185885af1158015610bd1573d6000803e3d6000fd5b50505050506040513d601f19601f82011682018060405250810190610bf6919061158c565b9c9b505050505050505050505050565b6000806000806000808660600151806020019051810190610c2791906115a5565b6020808e01516001600160401b0380891660009081526003909352604090922054979d50959b5093995091975095509350918216911614610caa5760405162461bcd60e51b815260206004820152601b60248201527f536f7572636520636861696e206e6f742072656769737465726564000000000060448201526064016104ab565b60008760400151806020019051810190610cc49190611415565b6001600160401b0388166000908152600360205260409020549091506001600160a01b03808316600160401b9092041614610d4b5760405162461bcd60e51b815260206004820152602160248201527f43726f737320636861696e2073656e646572206e6f74207265676973746572656044820152601960fa1b60648201526084016104ab565b600554885160405163691ed98f60e11b815260048101919091526001600160401b03808a166024830152881660448201526001600160a01b038781166064830152868116608483015260a4820186905260c482018590529091169063d23db31e9060e401600060405180830381600087803b158015610dc957600080fd5b505af1158015610ddd573d6000803e3d6000fd5b505050505050505050505050565b610e266040518060a0016040528060608152602001606081526020016060815260200160006001600160a01b03168152602001606081525090565b6040805160a0810190915280610e3f8660c08301610fb6565b60408051808303601f190181529181529082526020808301879052815160008082529181018352929091019190610e98565b6040805180820190915260008082526020820152815260200190600190039081610e715790505b508152602001836001600160a01b03168152602001610eff604051806020016040528062030d4081525060408051915160248084019190915281518084039091018152604490920190526020810180516001600160e01b03166397a657c960e01b17905290565b9052949350505050565b600060208284031215610f1b57600080fd5b81356001600160e01b031981168114610f3357600080fd5b9392505050565b6001600160a01b038116811461069f57600080fd5b600060208284031215610f6157600080fd5b8135610f3381610f3a565b80358015158114610f7c57600080fd5b919050565b60008060408385031215610f9457600080fd5b8235610f9f81610f3a565b9150610fad60208401610f6c565b90509250929050565b6001600160a01b0391909116815260200190565b600060208284031215610fdc57600080fd5b81356001600160401b03811115610ff257600080fd5b820160a08185031215610f3357600080fd5b6001600160401b038116811461069f57600080fd5b8035610f7c81611004565b600080600080600060a0868803121561103c57600080fd5b853561104781611004565b9450602086013561105781611004565b9350604086013561106781610f3a565b925061107560608701610f6c565b915061108360808701610f6c565b90509295509295909350565b600080600080608085870312156110a557600080fd5b843593506020850135925060408501356110be81611004565b915060608501356110ce81610f3a565b939692955090935050565b6000602082840312156110eb57600080fd5b8135610f3381611004565b600080600080600060a0868803121561110e57600080fd5b8535945060208601359350604086013561112781611004565b9250606086013561113781610f3a565b9150608086013561114781610f3a565b809150509295509295909350565b60208082526043908201527f4c6e41646d696e5570677261646561626c653a206f6e6c792074686520636f6e60408201527f74726163742061646d696e2063616e20706572666f726d20746869732061637460608201526234b7b760e91b608082015260a00190565b634e487b7160e01b600052604160045260246000fd5b604080519081016001600160401b03811182821017156111f6576111f66111be565b60405290565b60405160a081016001600160401b03811182821017156111f6576111f66111be565b604051601f8201601f191681016001600160401b0381118282101715611246576112466111be565b604052919050565b600082601f83011261125f57600080fd5b81356001600160401b03811115611278576112786111be565b61128b601f8201601f191660200161121e565b8181528460208386010111156112a057600080fd5b816020850160208301376000918101602001919091529392505050565b600082601f8301126112ce57600080fd5b813560206001600160401b038211156112e9576112e96111be565b6112f7818360051b0161121e565b82815260069290921b8401810191818101908684111561131657600080fd5b8286015b8481101561135e57604081890312156113335760008081fd5b61133b6111d4565b813561134681610f3a565b8152818501358582015283529183019160400161131a565b509695505050505050565b600060a0823603121561137b57600080fd5b6113836111fc565b8235815261139360208401611019565b602082015260408301356001600160401b03808211156113b257600080fd5b6113be3683870161124e565b604084015260608501359150808211156113d757600080fd5b6113e33683870161124e565b606084015260808501359150808211156113fc57600080fd5b50611409368286016112bd565b60808301525092915050565b60006020828403121561142757600080fd5b8151610f3381610f3a565b9586526001600160401b039490941660208601526001600160a01b03928316604086015291166060840152608083015260a082015260c00190565b6000815180845260005b8181101561149357602081850181015186830182015201611477565b506000602082860101526020601f19601f83011685010191505092915050565b600060406001600160401b038516835260208181850152845160a0838601526114df60e086018261146d565b905081860151603f19808784030160608801526114fc838361146d565b88860151888203830160808a01528051808352908601945060009350908501905b8084101561154f57845180516001600160a01b031683528601518683015293850193600193909301929086019061151d565b5060608901516001600160a01b031660a08901526080890151888203830160c08a0152955061157e818761146d565b9a9950505050505050505050565b60006020828403121561159e57600080fd5b5051919050565b60008060008060008060c087890312156115be57600080fd5b86516115c981611004565b60208801519096506115da81611004565b60408801519095506115eb81610f3a565b60608801519094506115fc81610f3a565b809350506080870151915060a08701519050929550929550929556fea2646970667358221220f6a5a2733f315101955270f1f41170ede7b91a1b6178cbf5879a44d3ebece48a64736f6c63430008130033",
  "linkReferences": {},
  "deployedLinkReferences": {}
}