{
  "_format": "hh-sol-artifact-1",
  "contractName": "LnExchangeSystem",
  "sourceName": "contracts/LnExchangeSystem.sol",
  "abi": [
    {
      "anonymous": false,
      "inputs": [
        {
          "indexed": false,
          "internalType": "address",
          "name": "oldAdmin",
          "type": "address"
        },
        {
          "indexed": false,
          "internalType": "address",
          "name": "newAdmin",
          "type": "address"
        }
      ],
      "name": "AdminChanged",
      "type": "event"
    },
    {
      "anonymous": false,
      "inputs": [
        {
          "indexed": false,
          "internalType": "bytes32",
          "name": "asset",
          "type": "bytes32"
        },
        {
          "indexed": false,
          "internalType": "bool",
          "name": "newValue",
          "type": "bool"
        }
      ],
      "name": "AssetExitPositionOnlyChanged",
      "type": "event"
    },
    {
      "anonymous": false,
      "inputs": [
        {
          "indexed": false,
          "internalType": "bytes32",
          "name": "name",
          "type": "bytes32"
        },
        {
          "indexed": false,
          "internalType": "address",
          "name": "addr",
          "type": "address"
        }
      ],
      "name": "CachedAddressUpdated",
      "type": "event"
    },
    {
      "anonymous": false,
      "inputs": [
        {
          "indexed": false,
          "internalType": "address",
          "name": "oldCandidate",
          "type": "address"
        },
        {
          "indexed": false,
          "internalType": "address",
          "name": "newCandidate",
          "type": "address"
        }
      ],
      "name": "CandidateChanged",
      "type": "event"
    },
    {
      "anonymous": false,
      "inputs": [
        {
          "indexed": false,
          "internalType": "address",
          "name": "fromAddr",
          "type": "address"
        },
        {
          "indexed": false,
          "internalType": "bytes32",
          "name": "sourceKey",
          "type": "bytes32"
        },
        {
          "indexed": false,
          "internalType": "uint256",
          "name": "sourceAmount",
          "type": "uint256"
        },
        {
          "indexed": false,
          "internalType": "address",
          "name": "destAddr",
          "type": "address"
        },
        {
          "indexed": false,
          "internalType": "bytes32",
          "name": "destKey",
          "type": "bytes32"
        },
        {
          "indexed": false,
          "internalType": "uint256",
          "name": "destRecived",
          "type": "uint256"
        },
        {
          "indexed": false,
          "internalType": "uint256",
          "name": "feeForPool",
          "type": "uint256"
        },
        {
          "indexed": false,
          "internalType": "uint256",
          "name": "feeForFoundation",
          "type": "uint256"
        }
      ],
      "name": "ExchangeAsset",
      "type": "event"
    },
    {
      "anonymous": false,
      "inputs": [
        {
          "indexed": false,
          "internalType": "bool",
          "name": "oldValue",
          "type": "bool"
        },
        {
          "indexed": false,
          "internalType": "bool",
          "name": "newValue",
          "type": "bool"
        }
      ],
      "name": "ExitPositionOnlyChanged",
      "type": "event"
    },
    {
      "anonymous": false,
      "inputs": [
        {
          "indexed": false,
          "internalType": "address",
          "name": "oldHolder",
          "type": "address"
        },
        {
          "indexed": false,
          "internalType": "address",
          "name": "newHolder",
          "type": "address"
        }
      ],
      "name": "FoundationFeeHolderChanged",
      "type": "event"
    },
    {
      "anonymous": false,
      "inputs": [
        {
          "indexed": false,
          "internalType": "uint256",
          "name": "id",
          "type": "uint256"
        },
        {
          "indexed": false,
          "internalType": "address",
          "name": "fromAddr",
          "type": "address"
        },
        {
          "indexed": false,
          "internalType": "address",
          "name": "destAddr",
          "type": "address"
        },
        {
          "indexed": false,
          "internalType": "uint256",
          "name": "fromAmount",
          "type": "uint256"
        },
        {
          "indexed": false,
          "internalType": "bytes32",
          "name": "fromCurrency",
          "type": "bytes32"
        },
        {
          "indexed": false,
          "internalType": "bytes32",
          "name": "toCurrency",
          "type": "bytes32"
        }
      ],
      "name": "PendingExchangeAdded",
      "type": "event"
    },
    {
      "anonymous": false,
      "inputs": [
        {
          "indexed": false,
          "internalType": "uint256",
          "name": "id",
          "type": "uint256"
        }
      ],
      "name": "PendingExchangeReverted",
      "type": "event"
    },
    {
      "anonymous": false,
      "inputs": [
        {
          "indexed": false,
          "internalType": "uint256",
          "name": "id",
          "type": "uint256"
        },
        {
          "indexed": false,
          "internalType": "address",
          "name": "settler",
          "type": "address"
        },
        {
          "indexed": false,
          "internalType": "uint256",
          "name": "destRecived",
          "type": "uint256"
        },
        {
          "indexed": false,
          "internalType": "uint256",
          "name": "feeForPool",
          "type": "uint256"
        },
        {
          "indexed": false,
          "internalType": "uint256",
          "name": "feeForFoundation",
          "type": "uint256"
        }
      ],
      "name": "PendingExchangeSettled",
      "type": "event"
    },
    {
      "inputs": [
        {
          "internalType": "address",
          "name": "_admin",
          "type": "address"
        }
      ],
      "name": "__LnAdminUpgradeable_init",
      "outputs": [],
      "stateMutability": "nonpayable",
      "type": "function"
    },
    {
      "inputs": [
        {
          "internalType": "address",
          "name": "_admin",
          "type": "address"
        }
      ],
      "name": "__LnExchangeSystem_init",
      "outputs": [],
      "stateMutability": "nonpayable",
      "type": "function"
    },
    {
      "inputs": [],
      "name": "admin",
      "outputs": [
        {
          "internalType": "address",
          "name": "",
          "type": "address"
        }
      ],
      "stateMutability": "view",
      "type": "function"
    },
    {
      "inputs": [],
      "name": "becomeAdmin",
      "outputs": [],
      "stateMutability": "nonpayable",
      "type": "function"
    },
    {
      "inputs": [],
      "name": "candidate",
      "outputs": [
        {
          "internalType": "address",
          "name": "",
          "type": "address"
        }
      ],
      "stateMutability": "view",
      "type": "function"
    },
    {
      "inputs": [],
      "name": "clearPendingTrades",
      "outputs": [],
      "stateMutability": "nonpayable",
      "type": "function"
    },
    {
      "inputs": [
        {
          "internalType": "bytes32",
          "name": "sourceKey",
          "type": "bytes32"
        },
        {
          "internalType": "uint256",
          "name": "sourceAmount",
          "type": "uint256"
        },
        {
          "internalType": "address",
          "name": "destAddr",
          "type": "address"
        },
        {
          "internalType": "bytes32",
          "name": "destKey",
          "type": "bytes32"
        }
      ],
      "name": "exchange",
      "outputs": [],
      "stateMutability": "nonpayable",
      "type": "function"
    },
    {
      "inputs": [],
      "name": "exitPositionOnly",
      "outputs": [
        {
          "internalType": "bool",
          "name": "",
          "type": "bool"
        }
      ],
      "stateMutability": "view",
      "type": "function"
    },
    {
      "inputs": [],
      "name": "lastPendingExchangeEntryId",
      "outputs": [
        {
          "internalType": "uint256",
          "name": "",
          "type": "uint256"
        }
      ],
      "stateMutability": "view",
      "type": "function"
    },
    {
      "inputs": [
        {
          "internalType": "uint256",
          "name": "",
          "type": "uint256"
        }
      ],
      "name": "pendingExchangeEntries",
      "outputs": [
        {
          "internalType": "uint64",
          "name": "id",
          "type": "uint64"
        },
        {
          "internalType": "uint64",
          "name": "timestamp",
          "type": "uint64"
        },
        {
          "internalType": "address",
          "name": "fromAddr",
          "type": "address"
        },
        {
          "internalType": "address",
          "name": "destAddr",
          "type": "address"
        },
        {
          "internalType": "uint256",
          "name": "fromAmount",
          "type": "uint256"
        },
        {
          "internalType": "bytes32",
          "name": "fromCurrency",
          "type": "bytes32"
        },
        {
          "internalType": "bytes32",
          "name": "toCurrency",
          "type": "bytes32"
        }
      ],
      "stateMutability": "view",
      "type": "function"
    },
    {
      "inputs": [
        {
          "internalType": "uint256",
          "name": "pendingExchangeEntryId",
          "type": "uint256"
        }
      ],
      "name": "revert",
      "outputs": [],
      "stateMutability": "nonpayable",
      "type": "function"
    },
    {
      "inputs": [
        {
          "internalType": "bytes32",
          "name": "asset",
          "type": "bytes32"
        },
        {
          "internalType": "bool",
          "name": "newValue",
          "type": "bool"
        }
      ],
      "name": "setAssetExitPositionOnly",
      "outputs": [],
      "stateMutability": "nonpayable",
      "type": "function"
    },
    {
      "inputs": [
        {
          "internalType": "address",
          "name": "_candidate",
          "type": "address"
        }
      ],
      "name": "setCandidate",
      "outputs": [],
      "stateMutability": "nonpayable",
      "type": "function"
    },
    {
      "inputs": [
        {
          "internalType": "bool",
          "name": "newValue",
          "type": "bool"
        }
      ],
      "name": "setExitPositionOnly",
      "outputs": [],
      "stateMutability": "nonpayable",
      "type": "function"
    },
    {
      "inputs": [
        {
          "internalType": "address",
          "name": "_foundationFeeHolder",
          "type": "address"
        }
      ],
      "name": "setFoundationFeeHolder",
      "outputs": [],
      "stateMutability": "nonpayable",
      "type": "function"
    },
    {
      "inputs": [
        {
          "internalType": "uint256",
          "name": "pendingExchangeEntryId",
          "type": "uint256"
        }
      ],
      "name": "settle",
      "outputs": [],
      "stateMutability": "nonpayable",
      "type": "function"
    },
    {
      "inputs": [
        {
          "internalType": "contract ILnAddressStorage",
          "name": "_addressStorage",
          "type": "address"
        }
      ],
      "name": "updateAddressCache",
      "outputs": [],
      "stateMutability": "nonpayable",
      "type": "function"
    }
  ],
  "bytecode": "0x608060405234801561001057600080fd5b50612803806100206000396000f3fe608060405234801561001057600080fd5b50600436106100eb5760003560e01c806378ebc0be1161009257806378ebc0be146101d9578063896bd9a2146101ff5780638df828001461026c5780638e118b8314610289578063a742ca02146102af578063cd5d72be146102e7578063d8d41a6414610301578063f851a44014610320578063fcc9030714610328576100eb565b806307880b7f146100f057806325971dff1461011857806334938187146101205780633f52ee9d1461013c5780634609fe6c1461016257806350976978146101875780635a5f14c81461018f5780636c8381f8146101b5575b600080fd5b6101166004803603602081101561010657600080fd5b50356001600160a01b0316610345565b005b6101166103f6565b6101286104b2565b604080519115158252519081900360200190f35b6101166004803603602081101561015257600080fd5b50356001600160a01b03166104c2565b6101166004803603604081101561017857600080fd5b5080359060200135151561056e565b61011661066c565b610116600480360360208110156101a557600080fd5b50356001600160a01b03166106bd565b6101bd610aa5565b604080516001600160a01b039092168252519081900360200190f35b610116600480360360208110156101ef57600080fd5b50356001600160a01b0316610ab4565b61021c6004803603602081101561021557600080fd5b5035610c0d565b604080516001600160401b0398891681529690971660208701526001600160a01b0394851686880152929093166060850152608084015260a083019190915260c082015290519081900360e00190f35b6101166004803603602081101561028257600080fd5b5035610c61565b6101166004803603602081101561029f57600080fd5b50356001600160a01b0316610c6e565b610116600480360360808110156102c557600080fd5b508035906020810135906001600160a01b036040820135169060600135610dcd565b6102ef610de0565b60408051918252519081900360200190f35b6101166004803603602081101561031757600080fd5b50351515610de6565b6101bd610eeb565b6101166004803603602081101561033e57600080fd5b5035610f00565b6000546201000090046001600160a01b031633146103945760405162461bcd60e51b81526004018080602001828103825260438152602001806126c86043913960600191505060405180910390fd5b600180546001600160a01b038381166001600160a01b0319831617928390556040805192821680845293909116602083015280517f7f730391c4f0fa1bea34bcb9bff8c30a079b21a0359759160cb990648ab84c729281900390910190a15050565b6001546001600160a01b0316331461043f5760405162461bcd60e51b81526004018080602001828103825260338152602001806124fd6033913960400191505060405180910390fd5b600080546001546001600160a01b039081166201000090810262010000600160b01b03198416179384905560408051938290048316808552919094049091166020830152825190927f7e644d79422f17c01e4894b5f4f588d331ebfa28653d42ae832dc59e38c9798f928290030190a150565b603654600160a01b900460ff1681565b600054610100900460ff16806104db57506104db610f0a565b806104e9575060005460ff16155b6105245760405162461bcd60e51b815260040180806020018281038252602e8152602001806125b5602e913960400191505060405180910390fd5b600054610100900460ff1615801561054f576000805460ff1961ff0019909116610100171660011790555b61055882610c6e565b801561056a576000805461ff00191690555b5050565b6000546201000090046001600160a01b031633146105bd5760405162461bcd60e51b81526004018080602001828103825260438152602001806126c86043913960600191505060405180910390fd5b60008281526039602052604090205460ff16151581151514156106115760405162461bcd60e51b81526004018080602001828103825260238152602001806127316023913960400191505060405180910390fd5b600082815260396020908152604091829020805460ff191684151590811790915582518581529182015281517f2075f1bc531af9326a235c2a38c010b7e62f8c6438206bb3921758a917729592929181900390910190a15050565b6000546201000090046001600160a01b031633146106bb5760405162461bcd60e51b81526004018080602001828103825260438152602001806126c86043913960600191505060405180910390fd5b565b6000546201000090046001600160a01b0316331461070c5760405162461bcd60e51b81526004018080602001828103825260438152602001806126c86043913960600191505060405180910390fd5b60408051633b4488ed60e11b81526c4c6e417373657453797374656d60981b6004820152602481018290526000604482015290516001600160a01b0383169163768911da916084808301926020929190829003018186803b15801561077057600080fd5b505afa158015610784573d6000803e3d6000fd5b505050506040513d602081101561079a57600080fd5b5051603280546001600160a01b0319166001600160a01b0392831617905560408051633b4488ed60e11b8152674c6e50726963657360c01b6004820152602481018290526000604482015290519183169163768911da91608480820192602092909190829003018186803b15801561081157600080fd5b505afa158015610825573d6000803e3d6000fd5b505050506040513d602081101561083b57600080fd5b5051603380546001600160a01b0319166001600160a01b0392831617905560408051633b4488ed60e11b8152674c6e436f6e66696760c01b6004820152602481018290526000604482015290519183169163768911da91608480820192602092909190829003018186803b1580156108b257600080fd5b505afa1580156108c6573d6000803e3d6000fd5b505050506040513d60208110156108dc57600080fd5b5051603480546001600160a01b0319166001600160a01b0392831617905560408051633b4488ed60e11b81526d4c6e52657761726453797374656d60901b6004820152602481018290526000604482015290519183169163768911da91608480820192602092909190829003018186803b15801561095957600080fd5b505afa15801561096d573d6000803e3d6000fd5b505050506040513d602081101561098357600080fd5b5051603580546001600160a01b0319166001600160a01b03928316179055603254604080516c4c6e417373657453797374656d60981b8152919092166020820152815160008051602061260d833981519152929181900390910190a160335460408051674c6e50726963657360c01b81526001600160a01b039092166020830152805160008051602061260d8339815191529281900390910190a160345460408051674c6e436f6e66696760c01b81526001600160a01b039092166020830152805160008051602061260d8339815191529281900390910190a1603554604080516d4c6e52657761726453797374656d60901b81526001600160a01b039092166020830152805160008051602061260d8339815191529281900390910190a150565b6001546001600160a01b031681565b6000546201000090046001600160a01b03163314610b035760405162461bcd60e51b81526004018080602001828103825260438152602001806126c86043913960600191505060405180910390fd5b6001600160a01b038116610b5e576040805162461bcd60e51b815260206004820152601e60248201527f4c6e45786368616e676553797374656d3a207a65726f20616464726573730000604482015290519081900360640190fd5b6036546001600160a01b0382811691161415610bab5760405162461bcd60e51b81526004018080602001828103825260338152602001806125306033913960400191505060405180910390fd5b603680546001600160a01b038381166001600160a01b0319831617928390556040805192821680845293909116602083015280517fcabde22613e39ed1c8b90350ad1ae3add701158bdb714ad20f957a66e46603f99281900390910190a15050565b6038602052600090815260409020805460018201546002830154600384015460048501546005909501546001600160401b0380861696600160401b90960416946001600160a01b0394851694909316929087565b610c6b8133610f1b565b50565b600054610100900460ff1680610c875750610c87610f0a565b80610c95575060005460ff16155b610cd05760405162461bcd60e51b815260040180806020018281038252602e8152602001806125b5602e913960400191505060405180910390fd5b600054610100900460ff16158015610cfb576000805460ff1961ff0019909116610100171660011790555b6001600160a01b038216610d56576040805162461bcd60e51b815260206004820181905260248201527f4c6e41646d696e5570677261646561626c653a207a65726f2061646472657373604482015290519081900360640190fd5b6000805462010000600160b01b031916620100006001600160a01b03851690810291909117825560408051928352602083019190915280517f7e644d79422f17c01e4894b5f4f588d331ebfa28653d42ae832dc59e38c9798f9281900390910190a1801561056a576000805461ff00191690555050565b610dda3385858585611b18565b50505050565b60375481565b6000546201000090046001600160a01b03163314610e355760405162461bcd60e51b81526004018080602001828103825260438152602001806126c86043913960600191505060405180910390fd5b60365460ff600160a01b9091041615158115151415610e855760405162461bcd60e51b81526004018080602001828103825260238152602001806127316023913960400191505060405180910390fd5b60368054821515600160a01b81810260ff60a01b198416179093556040805160ff949093049390931680151583526020830191909152825190927f7e8d80276f3c46ca7cf8c3fb5a8ed9b360d0a4600b9e1fe7fc994824375a93dc928290030190a15050565b6000546201000090046001600160a01b031681565b610c6b8133611f44565b6000610f1530612350565b15905090565b610f2361243c565b50600082815260386020908152604091829020825160e08101845281546001600160401b03808216808452600160401b909204169382019390935260018201546001600160a01b03908116948201949094526002820154909316606084015260038101546080840152600481015460a08401526005015460c0830152610fda5760405162461bcd60e51b815260040180806020018281038252602981526020018061264e6029913960400191505060405180910390fd5b6034546040805163bd02d0f560e01b8152735472616465536574746c656d656e7444656c617960601b600482015290516000926001600160a01b03169163bd02d0f5916024808301926020929190829003018186803b15801561103c57600080fd5b505afa158015611050573d6000803e3d6000fd5b505050506040513d602081101561106657600080fd5b50516034546040805163bd02d0f560e01b81526f547261646552657665727444656c617960801b600482015290519293506000926001600160a01b039092169163bd02d0f591602480820192602092909190829003018186803b1580156110cc57600080fd5b505afa1580156110e0573d6000803e3d6000fd5b505050506040513d60208110156110f657600080fd5b50519050816111365760405162461bcd60e51b815260040180806020018281038252602a8152602001806125e3602a913960400191505060405180910390fd5b600081116111755760405162461bcd60e51b815260040180806020018281038252602681526020018061270b6026913960400191505060405180910390fd5b8183602001516001600160401b0316014210156111c35760405162461bcd60e51b815260040180806020018281038252602d815260200180612499602d913960400191505060405180910390fd5b8083602001516001600160401b0316014211156112115760405162461bcd60e51b81526004018080602001828103825260308152602001806125856030913960400191505060405180910390fd5b6365342f2383602001516001600160401b0316116112b057600085815260386020908152604080832080546001600160801b03191681556001810180546001600160a01b03199081169091556002820180549091169055600381018490556004810184905560050192909255845182516001600160401b03909116815291516000805160206124798339815191529281900390910190a150505061056a565b60325460a084015160408051633b4488ed60e11b815260048101838152602482019283526028604483018190526000956001600160a01b03169463768911da949093909160649091019061277a82396040019250505060206040518083038186803b15801561131e57600080fd5b505afa158015611332573d6000803e3d6000fd5b505050506040513d602081101561134857600080fd5b505160325460c086015160408051633b4488ed60e11b815260048101838152602482019283526026604483018190529596506000956001600160a01b039095169463768911da949391926064019061275482396040019250505060206040518083038186803b1580156113ba57600080fd5b505afa1580156113ce573d6000803e3d6000fd5b505050506040513d60208110156113e457600080fd5b505160335460a0870151608088015160c08901516040805163ee52a2f360e01b8152600481019490945260248401929092526044830152519293506000926001600160a01b039092169163ee52a2f391606480820192602092909190829003018186803b15801561145457600080fd5b505afa158015611468573d6000803e3d6000fd5b505050506040513d602081101561147e57600080fd5b50519050806114be5760405162461bcd60e51b81526004018080602001828103825260228152602001806125636022913960400191505060405180910390fd5b60345460c08701516040805163bd02d0f560e01b81526004810192909252516000926001600160a01b03169163bd02d0f5916024808301926020929190829003018186803b15801561150f57600080fd5b505afa158015611523573d6000803e3d6000fd5b505050506040513d602081101561153957600080fd5b50519050600061155b611554670de0b6b3a764000084612356565b84906123b8565b905060006115698483612356565b60335460c08b01516040805163cf59d56360e01b815290519394506000936001600160a01b039093169263ee52a2f392918691859163cf59d563916004808301926020929190829003018186803b1580156115c357600080fd5b505afa1580156115d7573d6000803e3d6000fd5b505050506040513d60208110156115ed57600080fd5b5051604080516001600160e01b031960e087901b168152600481019490945260248401929092526044830152516064808301926020929190829003018186803b15801561163957600080fd5b505afa15801561164d573d6000803e3d6000fd5b505050506040513d602081101561166357600080fd5b50516036549091506000906001600160a01b03166116835750600061173a565b6034546040805163bd02d0f560e01b815271119bdd5b99185d1a5bdb91995954dc1b1a5d60721b600482015290516000926001600160a01b03169163bd02d0f5916024808301926020929190829003018186803b1580156116e357600080fd5b505afa1580156116f7573d6000803e3d6000fd5b505050506040513d602081101561170d57600080fd5b505190508061171f5760009150611738565b61172983826123b8565b91506117358383612356565b92505b505b6032546033546040805163cf59d56360e01b815290516000936001600160a01b039081169363768911da9391169163cf59d56391600480820192602092909190829003018186803b15801561178e57600080fd5b505afa1580156117a2573d6000803e3d6000fd5b505050506040513d60208110156117b857600080fd5b5051604080516001600160e01b031960e085901b1681526004810183815260248201928352602c60448301819052909291606401906127a282396040019250505060206040518083038186803b15801561181157600080fd5b505afa158015611825573d6000803e3d6000fd5b505050506040513d602081101561183b57600080fd5b5051905082156118b357603554604080516340c10f1960e01b81526001600160a01b039283166004820152602481018690529051918316916340c10f199160448082019260009290919082900301818387803b15801561189a57600080fd5b505af11580156118ae573d6000803e3d6000fd5b505050505b811561192757603654604080516340c10f1960e01b81526001600160a01b039283166004820152602481018590529051918316916340c10f199160448082019260009290919082900301818387803b15801561190e57600080fd5b505af1158015611922573d6000803e3d6000fd5b505050505b60808c015160408051632770a7eb60e21b81523060048201526024810192909252516001600160a01b038b1691639dc29fac91604480830192600092919082900301818387803b15801561197a57600080fd5b505af115801561198e573d6000803e3d6000fd5b50505050876001600160a01b03166340c10f198d60600151876040518363ffffffff1660e01b815260040180836001600160a01b0316815260200182815260200192505050600060405180830381600087803b1580156119ed57600080fd5b505af1158015611a01573d6000803e3d6000fd5b50505050603860008f8152602001908152602001600020600080820160006101000a8154906001600160401b0302191690556000820160086101000a8154906001600160401b0302191690556001820160006101000a8154906001600160a01b0302191690556002820160006101000a8154906001600160a01b03021916905560038201600090556004820160009055600582016000905550507f294326ba97b3f6180491a5766b80aa7734496d7853114ebc895c767bc2ab0e468c600001518e87868660405180866001600160401b03168152602001856001600160a01b031681526020018481526020018381526020018281526020019550505050505060405180910390a15050505050505050505050505050565b603654600160a01b900460ff1615611b6f57631b1554d160e21b8114611b6f5760405162461bcd60e51b81526004018080602001828103825260288152602001806126a06028913960400191505060405180910390fd5b60008181526039602052604090205460ff1615611bbd5760405162461bcd60e51b81526004018080602001828103825260378152602001806124c66037913960400191505060405180910390fd5b60325460408051633b4488ed60e11b815260048101848152602482019283526026604483018190526001600160a01b039094169363768911da938693909160649091019061275482396040019250505060206040518083038186803b158015611c2557600080fd5b505afa158015611c39573d6000803e3d6000fd5b505050506040513d6020811015611c4f57600080fd5b505060325460408051633b4488ed60e11b815260048101878152602482019283526028604483018190526000946001600160a01b03169363768911da938a939260649091019061277a82396040019250505060206040518083038186803b158015611cb957600080fd5b505afa158015611ccd573d6000803e3d6000fd5b505050506040513d6020811015611ce357600080fd5b50516040805163bb35783b60e01b81526001600160a01b0389811660048301523060248301526044820188905291519293509083169163bb35783b9160648082019260009290919082900301818387803b158015611d4057600080fd5b505af1158015611d54573d6000803e3d6000fd5b50505050611d6061243c565b6040518060e001604052806037600081546001019190508190556001600160401b03168152602001426001600160401b03168152602001886001600160a01b03168152602001856001600160a01b03168152602001868152602001878152602001848152509050806038600083600001516001600160401b0316815260200190815260200160002060008201518160000160006101000a8154816001600160401b0302191690836001600160401b0316021790555060208201518160000160086101000a8154816001600160401b0302191690836001600160401b0316021790555060408201518160010160006101000a8154816001600160a01b0302191690836001600160a01b0316021790555060608201518160020160006101000a8154816001600160a01b0302191690836001600160a01b031602179055506080820151816003015560a0820151816004015560c082015181600501559050507f60e876ffeda9093127dc8640a033c7e04db47b91b58a7f0e78eb7d52562d362481600001518886888a8860405180876001600160401b03168152602001866001600160a01b03168152602001856001600160a01b03168152602001848152602001838152602001828152602001965050505050505060405180910390a150505050505050565b611f4c61243c565b50600082815260386020908152604091829020825160e08101845281546001600160401b03808216808452600160401b909204169382019390935260018201546001600160a01b03908116948201949094526002820154909316606084015260038101546080840152600481015460a08401526005015460c08301526120035760405162461bcd60e51b815260040180806020018281038252602981526020018061264e6029913960400191505060405180910390fd5b6365342f2381602001516001600160401b0316116120a057600083815260386020908152604080832080546001600160801b03191681556001810180546001600160a01b03199081169091556002820180549091169055600381018490556004810184905560050192909255825182516001600160401b03909116815291516000805160206124798339815191529281900390910190a15061056a565b6034546040805163bd02d0f560e01b81526f547261646552657665727444656c617960801b600482015290516000926001600160a01b03169163bd02d0f5916024808301926020929190829003018186803b1580156120fe57600080fd5b505afa158015612112573d6000803e3d6000fd5b505050506040513d602081101561212857600080fd5b50519050806121685760405162461bcd60e51b815260040180806020018281038252602681526020018061270b6026913960400191505060405180910390fd5b8082602001516001600160401b03160142116121b55760405162461bcd60e51b81526004018080602001828103825260298152602001806126776029913960400191505060405180910390fd5b60325460a083015160408051633b4488ed60e11b815260048101838152602482019283526028604483018190526000956001600160a01b03169463768911da949093909160649091019061277a82396040019250505060206040518083038186803b15801561222357600080fd5b505afa158015612237573d6000803e3d6000fd5b505050506040513d602081101561224d57600080fd5b50516040808501516080860151825163bb35783b60e01b81523060048201526001600160a01b0392831660248201526044810191909152915192935083169163bb35783b9160648082019260009290919082900301818387803b1580156122b357600080fd5b505af11580156122c7573d6000803e3d6000fd5b505050600086815260386020908152604080832080546001600160801b03191681556001810180546001600160a01b03199081169091556002820180549091169055600381018490556004810184905560050192909255855182516001600160401b03909116815291516000805160206124798339815191529350918290030190a15050505050565b3b151590565b6000828211156123ad576040805162461bcd60e51b815260206004820152601e60248201527f536166654d6174683a207375627472616374696f6e206f766572666c6f770000604482015290519081900360640190fd5b508082035b92915050565b6000670de0b6b3a76400006123cd84846123dc565b816123d457fe5b049392505050565b6000826123eb575060006123b2565b828202828482816123f857fe5b04146124355760405162461bcd60e51b815260040180806020018281038252602181526020018061262d6021913960400191505060405180910390fd5b9392505050565b6040805160e081018252600080825260208201819052918101829052606081018290526080810182905260a0810182905260c08101919091529056fe175f0c84f551b67a31e8cca5a55fa66184a65cf9263c6f5a52aa9156e12e0fef4c6e45786368616e676553797374656d3a20736574746c656d656e742064656c6179206e6f74207061737365644c6e45786368616e676553797374656d3a2063616e206f6e6c79206578697420706f736974696f6e20666f7220746869732061737365744c6e41646d696e5570677261646561626c653a206f6e6c792063616e6469646174652063616e206265636f6d652061646d696e4c6e45786368616e676553797374656d3a20666f756e646174696f6e2066656520686f6c646572206e6f74206368616e6765644c6e45786368616e676553797374656d3a207a65726f206465737420616d6f756e744c6e45786368616e676553797374656d3a2074726164652063616e206f6e6c79206265207265766572746564206e6f77496e697469616c697a61626c653a20636f6e747261637420697320616c726561647920696e697469616c697a65644c6e45786368616e676553797374656d3a20736574746c656d656e742064656c6179206e6f742073657417b158864f8c520aff3282c940ec6a731d26235b9b00b651c0dd1dafb3170f5f536166654d6174683a206d756c7469706c69636174696f6e206f766572666c6f774c6e45786368616e676553797374656d3a2070656e64696e6720656e747279206e6f7420666f756e644c6e45786368616e676553797374656d3a207265766572742064656c6179206e6f74207061737365644c6e45786368616e676553797374656d3a2063616e206f6e6c79206578697420706f736974696f6e4c6e41646d696e5570677261646561626c653a206f6e6c792074686520636f6e74726163742061646d696e2063616e20706572666f726d207468697320616374696f6e4c6e45786368616e676553797374656d3a207265766572742064656c6179206e6f74207365744c6e45786368616e676553797374656d3a2076616c7565206e6f74206368616e6765644c6e45786368616e676553797374656d3a2064657374206173736574206e6f7420666f756e644c6e45786368616e676553797374656d3a20736f75726365206173736574206e6f7420666f756e644c6e45786368616e676553797374656d3a206661696c656420746f20676574206c5553442061646472657373a2646970667358221220f2d18ee902914aa22745f8f0e6fc4adf57366183b486426bbfaff0ff21f4050b64736f6c634300060c0033",
  "linkReferences": {},
  "deployedLinkReferences": {}
}