{
  "_format": "hh-sol-artifact-1",
  "contractName": "LnPerpExchange",
  "sourceName": "contracts/LnPerpExchange.sol",
  "abi": [
    {
      "anonymous": false,
      "inputs": [
        {
          "indexed": false,
          "internalType": "uint256",
          "name": "actionId",
          "type": "uint256"
        }
      ],
      "name": "ActionReverted",
      "type": "event"
    },
    {
      "anonymous": false,
      "inputs": [
        {
          "indexed": false,
          "internalType": "uint256",
          "name": "actionId",
          "type": "uint256"
        },
        {
          "indexed": false,
          "internalType": "uint256",
          "name": "underlyingPrice",
          "type": "uint256"
        }
      ],
      "name": "ActionSettled",
      "type": "event"
    },
    {
      "anonymous": false,
      "inputs": [
        {
          "indexed": false,
          "internalType": "uint256",
          "name": "actionId",
          "type": "uint256"
        },
        {
          "indexed": false,
          "internalType": "address",
          "name": "user",
          "type": "address"
        },
        {
          "indexed": false,
          "internalType": "bytes32",
          "name": "underlying",
          "type": "bytes32"
        },
        {
          "indexed": false,
          "internalType": "uint256",
          "name": "positionId",
          "type": "uint256"
        },
        {
          "indexed": false,
          "internalType": "uint256",
          "name": "amount",
          "type": "uint256"
        },
        {
          "indexed": false,
          "internalType": "address",
          "name": "to",
          "type": "address"
        }
      ],
      "name": "ClosePositionActionQueued",
      "type": "event"
    },
    {
      "anonymous": false,
      "inputs": [
        {
          "indexed": false,
          "internalType": "uint256",
          "name": "positionId",
          "type": "uint256"
        },
        {
          "indexed": false,
          "internalType": "uint256",
          "name": "feeForPool",
          "type": "uint256"
        },
        {
          "indexed": false,
          "internalType": "uint256",
          "name": "feeForFoundation",
          "type": "uint256"
        }
      ],
      "name": "FeesCharged",
      "type": "event"
    },
    {
      "anonymous": false,
      "inputs": [
        {
          "indexed": false,
          "internalType": "address",
          "name": "newFoundationFeeHolder",
          "type": "address"
        }
      ],
      "name": "FoundationFeeHolderChanged",
      "type": "event"
    },
    {
      "anonymous": false,
      "inputs": [
        {
          "indexed": false,
          "internalType": "uint256",
          "name": "actionId",
          "type": "uint256"
        },
        {
          "indexed": false,
          "internalType": "address",
          "name": "user",
          "type": "address"
        },
        {
          "indexed": false,
          "internalType": "bytes32",
          "name": "underlying",
          "type": "bytes32"
        },
        {
          "indexed": false,
          "internalType": "uint256",
          "name": "positionId",
          "type": "uint256"
        },
        {
          "indexed": false,
          "internalType": "uint256",
          "name": "size",
          "type": "uint256"
        },
        {
          "indexed": false,
          "internalType": "uint256",
          "name": "collateral",
          "type": "uint256"
        }
      ],
      "name": "IncreasePositionActionQueued",
      "type": "event"
    },
    {
      "anonymous": false,
      "inputs": [
        {
          "indexed": false,
          "internalType": "uint256",
          "name": "positionId",
          "type": "uint256"
        },
        {
          "indexed": false,
          "internalType": "uint256",
          "name": "amount",
          "type": "uint256"
        }
      ],
      "name": "InsuranceFundContribution",
      "type": "event"
    },
    {
      "anonymous": false,
      "inputs": [
        {
          "indexed": false,
          "internalType": "uint256",
          "name": "actionId",
          "type": "uint256"
        },
        {
          "indexed": false,
          "internalType": "address",
          "name": "user",
          "type": "address"
        },
        {
          "indexed": false,
          "internalType": "bytes32",
          "name": "underlying",
          "type": "bytes32"
        },
        {
          "indexed": false,
          "internalType": "bool",
          "name": "isLong",
          "type": "bool"
        },
        {
          "indexed": false,
          "internalType": "uint256",
          "name": "size",
          "type": "uint256"
        },
        {
          "indexed": false,
          "internalType": "uint256",
          "name": "collateral",
          "type": "uint256"
        }
      ],
      "name": "OpenPositionActionQueued",
      "type": "event"
    },
    {
      "anonymous": false,
      "inputs": [
        {
          "indexed": true,
          "internalType": "address",
          "name": "previousOwner",
          "type": "address"
        },
        {
          "indexed": true,
          "internalType": "address",
          "name": "newOwner",
          "type": "address"
        }
      ],
      "name": "OwnershipTransferred",
      "type": "event"
    },
    {
      "anonymous": false,
      "inputs": [
        {
          "indexed": false,
          "internalType": "address",
          "name": "newPoolFeeHolder",
          "type": "address"
        }
      ],
      "name": "PoolFeeHolderChanged",
      "type": "event"
    },
    {
      "inputs": [],
      "name": "ACTION_TYPE_CLOSE_POSITION",
      "outputs": [
        {
          "internalType": "uint8",
          "name": "",
          "type": "uint8"
        }
      ],
      "stateMutability": "view",
      "type": "function"
    },
    {
      "inputs": [],
      "name": "ACTION_TYPE_INCREASE_POSITION",
      "outputs": [
        {
          "internalType": "uint8",
          "name": "",
          "type": "uint8"
        }
      ],
      "stateMutability": "view",
      "type": "function"
    },
    {
      "inputs": [],
      "name": "ACTION_TYPE_OPEN_POSITION",
      "outputs": [
        {
          "internalType": "uint8",
          "name": "",
          "type": "uint8"
        }
      ],
      "stateMutability": "view",
      "type": "function"
    },
    {
      "inputs": [
        {
          "internalType": "address",
          "name": "_address",
          "type": "address"
        }
      ],
      "name": "SetLusdTokenAddress",
      "outputs": [],
      "stateMutability": "nonpayable",
      "type": "function"
    },
    {
      "inputs": [
        {
          "internalType": "contract ILnAssetSystem",
          "name": "_lnAssetSystem",
          "type": "address"
        },
        {
          "internalType": "contract ILnConfig",
          "name": "_lnConfig",
          "type": "address"
        },
        {
          "internalType": "contract ILnPerpPositionToken",
          "name": "_positionToken",
          "type": "address"
        },
        {
          "internalType": "contract ILnAsset",
          "name": "_lusdToken",
          "type": "address"
        },
        {
          "internalType": "address",
          "name": "_insuranceFundHolder",
          "type": "address"
        }
      ],
      "name": "__LnPerpExchange_init",
      "outputs": [],
      "stateMutability": "nonpayable",
      "type": "function"
    },
    {
      "inputs": [
        {
          "internalType": "bytes32",
          "name": "underlying",
          "type": "bytes32"
        },
        {
          "internalType": "uint256",
          "name": "positionId",
          "type": "uint256"
        },
        {
          "internalType": "address",
          "name": "to",
          "type": "address"
        }
      ],
      "name": "closePosition",
      "outputs": [],
      "stateMutability": "nonpayable",
      "type": "function"
    },
    {
      "inputs": [
        {
          "internalType": "uint256",
          "name": "",
          "type": "uint256"
        }
      ],
      "name": "closePositionActions",
      "outputs": [
        {
          "internalType": "bytes32",
          "name": "underlying",
          "type": "bytes32"
        },
        {
          "internalType": "uint256",
          "name": "positionId",
          "type": "uint256"
        },
        {
          "internalType": "uint256",
          "name": "amount",
          "type": "uint256"
        },
        {
          "internalType": "address",
          "name": "to",
          "type": "address"
        }
      ],
      "stateMutability": "view",
      "type": "function"
    },
    {
      "inputs": [
        {
          "internalType": "bytes32",
          "name": "underlying",
          "type": "bytes32"
        },
        {
          "internalType": "uint256",
          "name": "positionId",
          "type": "uint256"
        },
        {
          "internalType": "uint256",
          "name": "amount",
          "type": "uint256"
        },
        {
          "internalType": "address",
          "name": "to",
          "type": "address"
        }
      ],
      "name": "closePositionByAmount",
      "outputs": [],
      "stateMutability": "nonpayable",
      "type": "function"
    },
    {
      "inputs": [],
      "name": "foundationFeeHolder",
      "outputs": [
        {
          "internalType": "address",
          "name": "",
          "type": "address"
        }
      ],
      "stateMutability": "view",
      "type": "function"
    },
    {
      "inputs": [
        {
          "internalType": "bytes32",
          "name": "underlying",
          "type": "bytes32"
        },
        {
          "internalType": "uint256",
          "name": "positionId",
          "type": "uint256"
        },
        {
          "internalType": "uint256",
          "name": "size",
          "type": "uint256"
        },
        {
          "internalType": "uint256",
          "name": "collateral",
          "type": "uint256"
        }
      ],
      "name": "increasePosition",
      "outputs": [],
      "stateMutability": "nonpayable",
      "type": "function"
    },
    {
      "inputs": [
        {
          "internalType": "uint256",
          "name": "",
          "type": "uint256"
        }
      ],
      "name": "increasePositionActions",
      "outputs": [
        {
          "internalType": "bytes32",
          "name": "underlying",
          "type": "bytes32"
        },
        {
          "internalType": "uint256",
          "name": "positionId",
          "type": "uint256"
        },
        {
          "internalType": "uint256",
          "name": "size",
          "type": "uint256"
        },
        {
          "internalType": "uint256",
          "name": "collateral",
          "type": "uint256"
        }
      ],
      "stateMutability": "view",
      "type": "function"
    },
    {
      "inputs": [],
      "name": "insuranceFundHolder",
      "outputs": [
        {
          "internalType": "address",
          "name": "",
          "type": "address"
        }
      ],
      "stateMutability": "view",
      "type": "function"
    },
    {
      "inputs": [],
      "name": "lastPendingActionId",
      "outputs": [
        {
          "internalType": "uint256",
          "name": "",
          "type": "uint256"
        }
      ],
      "stateMutability": "view",
      "type": "function"
    },
    {
      "inputs": [],
      "name": "lnAssetSystem",
      "outputs": [
        {
          "internalType": "contract ILnAssetSystem",
          "name": "",
          "type": "address"
        }
      ],
      "stateMutability": "view",
      "type": "function"
    },
    {
      "inputs": [],
      "name": "lnConfig",
      "outputs": [
        {
          "internalType": "contract ILnConfig",
          "name": "",
          "type": "address"
        }
      ],
      "stateMutability": "view",
      "type": "function"
    },
    {
      "inputs": [],
      "name": "lusdToken",
      "outputs": [
        {
          "internalType": "contract ILnAsset",
          "name": "",
          "type": "address"
        }
      ],
      "stateMutability": "view",
      "type": "function"
    },
    {
      "inputs": [
        {
          "internalType": "bytes32",
          "name": "underlying",
          "type": "bytes32"
        },
        {
          "internalType": "bool",
          "name": "isLong",
          "type": "bool"
        },
        {
          "internalType": "uint256",
          "name": "size",
          "type": "uint256"
        },
        {
          "internalType": "uint256",
          "name": "collateral",
          "type": "uint256"
        }
      ],
      "name": "openPosition",
      "outputs": [],
      "stateMutability": "nonpayable",
      "type": "function"
    },
    {
      "inputs": [
        {
          "internalType": "uint256",
          "name": "",
          "type": "uint256"
        }
      ],
      "name": "openPositionActions",
      "outputs": [
        {
          "internalType": "bytes32",
          "name": "underlying",
          "type": "bytes32"
        },
        {
          "internalType": "bool",
          "name": "isLong",
          "type": "bool"
        },
        {
          "internalType": "uint256",
          "name": "size",
          "type": "uint256"
        },
        {
          "internalType": "uint256",
          "name": "collateral",
          "type": "uint256"
        }
      ],
      "stateMutability": "view",
      "type": "function"
    },
    {
      "inputs": [],
      "name": "owner",
      "outputs": [
        {
          "internalType": "address",
          "name": "",
          "type": "address"
        }
      ],
      "stateMutability": "view",
      "type": "function"
    },
    {
      "inputs": [
        {
          "internalType": "uint256",
          "name": "",
          "type": "uint256"
        }
      ],
      "name": "pendingActionMetas",
      "outputs": [
        {
          "internalType": "uint64",
          "name": "timestamp",
          "type": "uint64"
        },
        {
          "internalType": "address",
          "name": "user",
          "type": "address"
        },
        {
          "internalType": "uint8",
          "name": "actionType",
          "type": "uint8"
        }
      ],
      "stateMutability": "view",
      "type": "function"
    },
    {
      "inputs": [],
      "name": "poolFeeHolder",
      "outputs": [
        {
          "internalType": "address",
          "name": "",
          "type": "address"
        }
      ],
      "stateMutability": "view",
      "type": "function"
    },
    {
      "inputs": [],
      "name": "positionToken",
      "outputs": [
        {
          "internalType": "contract ILnPerpPositionToken",
          "name": "",
          "type": "address"
        }
      ],
      "stateMutability": "view",
      "type": "function"
    },
    {
      "inputs": [],
      "name": "renounceOwnership",
      "outputs": [],
      "stateMutability": "nonpayable",
      "type": "function"
    },
    {
      "inputs": [
        {
          "internalType": "address",
          "name": "asset",
          "type": "address"
        },
        {
          "internalType": "address",
          "name": "account",
          "type": "address"
        },
        {
          "internalType": "uint256",
          "name": "amount",
          "type": "uint256"
        }
      ],
      "name": "requestAssetBurn",
      "outputs": [],
      "stateMutability": "nonpayable",
      "type": "function"
    },
    {
      "inputs": [
        {
          "internalType": "address",
          "name": "asset",
          "type": "address"
        },
        {
          "internalType": "address",
          "name": "account",
          "type": "address"
        },
        {
          "internalType": "uint256",
          "name": "amount",
          "type": "uint256"
        }
      ],
      "name": "requestAssetMint",
      "outputs": [],
      "stateMutability": "nonpayable",
      "type": "function"
    },
    {
      "inputs": [
        {
          "internalType": "uint256",
          "name": "positionId",
          "type": "uint256"
        }
      ],
      "name": "requestPositionBurn",
      "outputs": [],
      "stateMutability": "nonpayable",
      "type": "function"
    },
    {
      "inputs": [
        {
          "internalType": "address",
          "name": "to",
          "type": "address"
        }
      ],
      "name": "requestPositionMint",
      "outputs": [
        {
          "internalType": "uint256",
          "name": "positionId",
          "type": "uint256"
        }
      ],
      "stateMutability": "nonpayable",
      "type": "function"
    },
    {
      "inputs": [
        {
          "internalType": "uint256",
          "name": "pendingActionId",
          "type": "uint256"
        }
      ],
      "name": "revertAction",
      "outputs": [],
      "stateMutability": "nonpayable",
      "type": "function"
    },
    {
      "inputs": [
        {
          "internalType": "address",
          "name": "newFoundationFeeHolder",
          "type": "address"
        }
      ],
      "name": "setFoundationFeeHolder",
      "outputs": [],
      "stateMutability": "nonpayable",
      "type": "function"
    },
    {
      "inputs": [
        {
          "internalType": "address",
          "name": "newPoolFeeHolder",
          "type": "address"
        }
      ],
      "name": "setPoolFeeHolder",
      "outputs": [],
      "stateMutability": "nonpayable",
      "type": "function"
    },
    {
      "inputs": [
        {
          "internalType": "uint256",
          "name": "pendingActionId",
          "type": "uint256"
        }
      ],
      "name": "settleAction",
      "outputs": [],
      "stateMutability": "nonpayable",
      "type": "function"
    },
    {
      "inputs": [
        {
          "internalType": "uint256",
          "name": "positionId",
          "type": "uint256"
        },
        {
          "internalType": "uint256",
          "name": "amount",
          "type": "uint256"
        }
      ],
      "name": "submitFees",
      "outputs": [],
      "stateMutability": "nonpayable",
      "type": "function"
    },
    {
      "inputs": [
        {
          "internalType": "uint256",
          "name": "positionId",
          "type": "uint256"
        },
        {
          "internalType": "uint256",
          "name": "amount",
          "type": "uint256"
        }
      ],
      "name": "submitInsuranceFund",
      "outputs": [],
      "stateMutability": "nonpayable",
      "type": "function"
    },
    {
      "inputs": [
        {
          "internalType": "address",
          "name": "newOwner",
          "type": "address"
        }
      ],
      "name": "transferOwnership",
      "outputs": [],
      "stateMutability": "nonpayable",
      "type": "function"
    }
  ],
  "bytecode": "0x608060405234801561001057600080fd5b50612f94806100206000396000f3fe608060405234801561001057600080fd5b50600436106102055760003560e01c80638da5cb5b1161011a578063c4018823116100ad578063d76bd4e81161007c578063d76bd4e81461060f578063e73d3c5114610617578063eb29111f1461063a578063f2fde38b14610686578063fc788579146106ac57610205565b8063c40188231461059f578063ca772745146105a7578063d2712732146105ea578063d58d16431461060757610205565b8063b3cd5144116100e9578063b3cd5144146104f8578063b7bf8f4e1461053b578063b83f91a214610561578063bdf0aa201461056957610205565b80638da5cb5b1461049c578063910ec8ac146104a4578063aa63b905146104c1578063ad6a1b36146104c957610205565b80633a6c57f31161019d578063715018a61161016c578063715018a6146103e1578063731cfa78146103e957806376cc88ab1461040c57806376e2dc241461043e57806378ebc0be1461047657610205565b80633a6c57f31461033c5780633e838152146103845780635037b7e9146103a157806360ac7fbc146103a957610205565b806323452c41116101d957806323452c41146102945780632599fb2b146102b25780632e6a1817146102ba5780632f998c2b1461030b57610205565b806252e0b81461020a5780630a6bc7af146102325780630c2181dd146102565780631437fcd01461028c575b600080fd5b6102306004803603602081101561022057600080fd5b50356001600160a01b03166106b4565b005b61023a610722565b604080516001600160a01b039092168252519081900360200190f35b6102306004803603606081101561026c57600080fd5b506001600160a01b03813581169160208101359091169060400135610731565b61023a6107ae565b61029c6107bd565b6040805160ff9092168252519081900360200190f35b61023a6107c2565b6102d7600480360360208110156102d057600080fd5b50356107d1565b6040805167ffffffffffffffff90941684526001600160a01b03909216602084015260ff1682820152519081900360600190f35b6102306004803603608081101561032157600080fd5b5080359060208101351515906040810135906060013561080a565b610230600480360360a081101561035257600080fd5b506001600160a01b03813581169160208101358216916040820135811691606081013582169160809091013516610958565b6102306004803603602081101561039a57600080fd5b5035610b81565b61023a611423565b610230600480360360808110156103bf57600080fd5b50803590602081013590604081013590606001356001600160a01b0316611432565b610230611569565b610230600480360360408110156103ff57600080fd5b5080359060200135611615565b6102306004803603606081101561042257600080fd5b50803590602081013590604001356001600160a01b0316611939565b6104646004803603602081101561045457600080fd5b50356001600160a01b0316611a18565b60408051918252519081900360200190f35b6102306004803603602081101561048c57600080fd5b50356001600160a01b0316611aaa565b61023a611b60565b610230600480360360208110156104ba57600080fd5b5035611b6f565b61023a611be0565b610230600480360360808110156104df57600080fd5b5080359060208101359060408101359060600135611bef565b6105156004803603602081101561050e57600080fd5b5035611d36565b604080519485526020850193909352838301919091526060830152519081900360800190f35b6102306004803603602081101561055157600080fd5b50356001600160a01b0316611d5d565b61023a611e13565b6102306004803603606081101561057f57600080fd5b506001600160a01b03813581169160208101359091169060400135611e22565b610464611e82565b6105c4600480360360208110156105bd57600080fd5b5035611e88565b604080519485529215156020850152838301919091526060830152519081900360800190f35b6102306004803603602081101561060057600080fd5b5035611eb3565b61023a612261565b61029c612270565b6102306004803603604081101561062d57600080fd5b5080359060200135612275565b6106576004803603602081101561065057600080fd5b503561233f565b604080519485526020850193909352838301919091526001600160a01b03166060830152519081900360800190f35b6102306004803603602081101561069c57600080fd5b50356001600160a01b031661236f565b61029c612472565b6106bc612477565b6001600160a01b03166106cd611b60565b6001600160a01b031614610716576040805162461bcd60e51b81526020600482018190526024820152600080516020612dbc833981519152604482015290519081900360640190fd5b61071f8161247b565b50565b606b546001600160a01b031681565b61073a33612545565b826001600160a01b03166340c10f1983836040518363ffffffff1660e01b815260040180836001600160a01b0316815260200182815260200192505050600060405180830381600087803b15801561079157600080fd5b505af11580156107a5573d6000803e3d6000fd5b50505050505050565b6069546001600160a01b031681565b600281565b6065546001600160a01b031681565b606d6020526000908152604090205467ffffffffffffffff811690600160401b81046001600160a01b031690600160e01b900460ff1683565b606854604080516323b872dd60e01b81523360048201523060248201526044810184905290516001600160a01b03909216916323b872dd916064808201926020929091908290030181600087803b15801561086457600080fd5b505af1158015610878573d6000803e3d6000fd5b505050506040513d602081101561088e57600080fd5b506000905061089e3360016125f9565b604080516080808201835288825287151560208084018281528486018a815260608087018b815260008a8152606e865289902097518855925160018801805491151560ff19909216919091179055905160028701559051600390950194909455845186815233918101919091528085018b905292830152810186905260a0810185905290519192507f024f3b1cd9ecc5b05196e061d2a523b84bdde266d96a7a0b1bf5e634273aa17c919081900360c00190a15050505050565b600054610100900460ff168061097157506109716126aa565b8061097f575060005460ff16155b6109ba5760405162461bcd60e51b815260040180806020018281038252602e815260200180612d21602e913960400191505060405180910390fd5b600054610100900460ff161580156109e5576000805460ff1961ff0019909116610100171660011790555b6109ed6126bb565b6001600160a01b038616610a36576040805162461bcd60e51b815260206004820152601c6024820152600080516020612e75833981519152604482015290519081900360640190fd5b6001600160a01b038516610a7f576040805162461bcd60e51b815260206004820152601c6024820152600080516020612e75833981519152604482015290519081900360640190fd5b6001600160a01b038416610ac8576040805162461bcd60e51b815260206004820152601c6024820152600080516020612e75833981519152604482015290519081900360640190fd5b6001600160a01b038316610b11576040805162461bcd60e51b815260206004820152601c6024820152600080516020612e75833981519152604482015290519081900360640190fd5b606580546001600160a01b03199081166001600160a01b0389811691909117909255606680548216888416179055606780548216878416179055606880548216868416179055606980549091169184169190911790558015610b79576000805461ff00191690555b505050505050565b6000818152606d60209081526040918290208251606081018452905467ffffffffffffffff81168252600160401b81046001600160a01b031692820192909252600160e01b90910460ff1691810182905290610c0e5760405162461bcd60e51b8152600401808060200182810382526028815260200180612cf96028913960400191505060405180910390fd5b6066546040805163bd02d0f560e01b8152735472616465536574746c656d656e7444656c617960601b600482015290516000926001600160a01b03169163bd02d0f5916024808301926020929190829003018186803b158015610c7057600080fd5b505afa158015610c84573d6000803e3d6000fd5b505050506040513d6020811015610c9a57600080fd5b50516066546040805163bd02d0f560e01b81526f547261646552657665727444656c617960801b600482015290519293506000926001600160a01b039092169163bd02d0f591602480820192602092909190829003018186803b158015610d0057600080fd5b505afa158015610d14573d6000803e3d6000fd5b505050506040513d6020811015610d2a57600080fd5b5051905081610d6a5760405162461bcd60e51b8152600401808060200182810382526028815260200180612e226028913960400191505060405180910390fd5b60008111610da95760405162461bcd60e51b8152600401808060200182810382526024815260200180612ddc6024913960400191505060405180910390fd5b825167ffffffffffffffff168201421015610df55760405162461bcd60e51b815260040180806020018281038252602b815260200180612e4a602b913960400191505060405180910390fd5b825167ffffffffffffffff168101421115610e415760405162461bcd60e51b815260040180806020018281038252602f815260200180612ee7602f913960400191505060405180910390fd5b6365342f23836000015167ffffffffffffffff1611610eb3576000848152606d602090815260409182902080546001600160e81b0319169055815186815291517fa90100afa49f123b61864a8d3c03ffcb4955c7c4a473dd801af025b253bcaa2a9281900390910190a150505061071f565b604083015160009060ff1660011415611048576000858152606e6020908152604080832081516080810183528154808252600183015460ff161515948201949094526002820154928101929092526003015460608201529190610f159061276c565b60685460608401516040805163095ea7b360e01b81526001600160a01b0380861660048301526024820193909352905193945091169163095ea7b3916044808201926020929091908290030181600087803b158015610f7357600080fd5b505af1158015610f87573d6000803e3d6000fd5b505050506040513d6020811015610f9d57600080fd5b50506020868101519083015160408085015160608601518251636dd0571d60e11b81526001600160a01b03958616600482015293151560248501526044840191909152606483015280519284169263dba0ae3a9260848082019392918290030181600087803b15801561100f57600080fd5b505af1158015611023573d6000803e3d6000fd5b505050506040513d604081101561103957600080fd5b506020015192506113d3915050565b604084015160ff16600214156111cf576000858152606f602090815260408083208151608081018352815480825260018301549482019490945260028201549281019290925260030154606082015291906110a29061276c565b60685460608401516040805163095ea7b360e01b81526001600160a01b0380861660048301526024820193909352905193945091169163095ea7b3916044808201926020929091908290030181600087803b15801561110057600080fd5b505af1158015611114573d6000803e3d6000fd5b505050506040513d602081101561112a57600080fd5b505060208681015183820151604080860151606087015182516377f84c2d60e01b81526001600160a01b03958616600482015260248101949094526044840191909152606483015251918416926377f84c2d926084808401938290030181600087803b15801561119957600080fd5b505af11580156111ad573d6000803e3d6000fd5b505050506040513d60208110156111c357600080fd5b505192506113d3915050565b604084015160ff166003141561139c576000858152607060209081526040918290208251608081018452815481526001820154928101929092526002810154928201839052600301546001600160a01b0316606082015290156112e95780516112379061276c565b6001600160a01b0316630f29747f86602001518360200151846040015185606001516040518563ffffffff1660e01b815260040180856001600160a01b03168152602001848152602001838152602001826001600160a01b03168152602001945050505050602060405180830381600087803b1580156112b657600080fd5b505af11580156112ca573d6000803e3d6000fd5b505050506040513d60208110156112e057600080fd5b50519150611396565b80516112f49061276c565b6001600160a01b03166365264cd18660200151836020015184606001516040518463ffffffff1660e01b815260040180846001600160a01b03168152602001838152602001826001600160a01b031681526020019350505050602060405180830381600087803b15801561136757600080fd5b505af115801561137b573d6000803e3d6000fd5b505050506040513d602081101561139157600080fd5b505191505b506113d3565b60405162461bcd60e51b8152600401808060200182810382526023815260200180612f3c6023913960400191505060405180910390fd5b6113e1858560400151612836565b604080518681526020810183905281517f1085b774562bcd99aae2e239890e1fe1922552d9a331eae9dc755d535d2bca0e929181900390910190a15050505050565b6067546001600160a01b031681565b60008211611487576040805162461bcd60e51b815260206004820152601b60248201527f4c6e5065727045786368616e67653a207a65726f20616d6f756e740000000000604482015290519081900360640190fd5b6114918484612901565b600061149e3360036125f9565b604080516080808201835288825260208083018981528385018981526001600160a01b03808a16606080880182815260008b8152607088528a9020985189559451600189015592516002880155925160039096018054969091166001600160a01b031990961695909517909455845186815233928101929092528185018b905292810189905290810187905260a081019190915290519192507fb4d5acea6652c8aba1b27b890655d3873a472ef1b3b7da0ff7a4620de3a44b8f919081900360c00190a15050505050565b611571612477565b6001600160a01b0316611582611b60565b6001600160a01b0316146115cb576040805162461bcd60e51b81526020600482018190526024820152600080516020612dbc833981519152604482015290519081900360640190fd5b6033546040516000916001600160a01b0316907f8be0079c531659141344cd1fd0a4f28419497f9722a3daafe3b4186f6b6457e0908390a3603380546001600160a01b0319169055565b606a546001600160a01b0316611672576040805162461bcd60e51b815260206004820181905260248201527f4c6e5065727045786368616e67653a2066656520706f6f6c206e6f7420736574604482015290519081900360640190fd5b606854604080516323b872dd60e01b81523360048201523060248201526044810184905290516001600160a01b03909216916323b872dd916064808201926020929091908290030181600087803b1580156116cc57600080fd5b505af11580156116e0573d6000803e3d6000fd5b505050506040513d60208110156116f657600080fd5b5050606b546000906001600160a01b0316611713575060006117dc565b6066546040805163bd02d0f560e01b815271119bdd5b99185d1a5bdb91995954dc1b1a5d60721b600482015290516000926001600160a01b03169163bd02d0f5916024808301926020929190829003018186803b15801561177357600080fd5b505afa158015611787573d6000803e3d6000fd5b505050506040513d602081101561179d57600080fd5b50519050806117af57600091506117da565b6117cb670de0b6b3a76400006117c585846129c7565b90612a27565b91506117d78383612a8e565b92505b505b811561186857606854606a546040805163a9059cbb60e01b81526001600160a01b039283166004820152602481018690529051919092169163a9059cbb9160448083019260209291908290030181600087803b15801561183b57600080fd5b505af115801561184f573d6000803e3d6000fd5b505050506040513d602081101561186557600080fd5b50505b80156118f457606854606b546040805163a9059cbb60e01b81526001600160a01b039283166004820152602481018590529051919092169163a9059cbb9160448083019260209291908290030181600087803b1580156118c757600080fd5b505af11580156118db573d6000803e3d6000fd5b505050506040513d60208110156118f157600080fd5b50505b604080518481526020810184905280820183905290517fac2ba33d074f69012bccfbc6224bc552ad8a86e9a755061dc06f5bc8ed4149189181900360600190a1505050565b6119438383612901565b60006119503360036125f9565b6040805160808082018352878252602080830188815260008486018181526001600160a01b03808b1660608089018281528b8652607088528a862099518a55955160018a015592516002890155935160039097018054979091166001600160a01b031990971696909617909555855187815233938101939093528286018b90529382018990529181019290925260a082015290519192507fb4d5acea6652c8aba1b27b890655d3873a472ef1b3b7da0ff7a4620de3a44b8f919081900360c00190a150505050565b6000611a2333612545565b6067546040805163ee1fe2ad60e01b81523360048201526001600160a01b0385811660248301529151919092169163ee1fe2ad9160448083019260209291908290030181600087803b158015611a7857600080fd5b505af1158015611a8c573d6000803e3d6000fd5b505050506040513d6020811015611aa257600080fd5b505192915050565b611ab2612477565b6001600160a01b0316611ac3611b60565b6001600160a01b031614611b0c576040805162461bcd60e51b81526020600482018190526024820152600080516020612dbc833981519152604482015290519081900360640190fd5b606b80546001600160a01b0383166001600160a01b0319909116811790915560408051918252517fad0103d20336ddad09ce6e546697e6f36b9b2a7ae28fb798ab7cca3e9c043b8c9181900360200190a150565b6033546001600160a01b031690565b611b7833612545565b60675460408051630852cd8d60e31b81526004810184905290516001600160a01b03909216916342966c689160248082019260009290919082900301818387803b158015611bc557600080fd5b505af1158015611bd9573d6000803e3d6000fd5b5050505050565b6066546001600160a01b031681565b611bf98484612901565b606854604080516323b872dd60e01b81523360048201523060248201526044810184905290516001600160a01b03909216916323b872dd916064808201926020929091908290030181600087803b158015611c5357600080fd5b505af1158015611c67573d6000803e3d6000fd5b505050506040513d6020811015611c7d57600080fd5b5060009050611c8d3360026125f9565b6040805160808082018352888252602080830189815283850189815260608086018a81526000898152606f86528890209651875592516001870155905160028601559051600390940193909355835185815233918101919091528084018a9052918201889052810186905260a0810185905290519192507f8716409281f5291e0fd7b35383a0d4663e4b112b86ef149bf8c950261cd39108919081900360c00190a15050505050565b606f6020526000908152604090208054600182015460028301546003909301549192909184565b611d65612477565b6001600160a01b0316611d76611b60565b6001600160a01b031614611dbf576040805162461bcd60e51b81526020600482018190526024820152600080516020612dbc833981519152604482015290519081900360640190fd5b606a80546001600160a01b0383166001600160a01b0319909116811790915560408051918252517fb17b6c5290c62c7d27437f7a48d86a080e31d70edde7c436e4c3ffad2e64048d9181900360200190a150565b6068546001600160a01b031681565b611e2b33612545565b826001600160a01b0316639dc29fac83836040518363ffffffff1660e01b815260040180836001600160a01b0316815260200182815260200192505050600060405180830381600087803b15801561079157600080fd5b606c5481565b606e602052600090815260409020805460018201546002830154600390930154919260ff9091169184565b6000818152606d60209081526040918290208251606081018452905467ffffffffffffffff81168252600160401b81046001600160a01b031692820192909252600160e01b90910460ff1691810182905290611f405760405162461bcd60e51b8152600401808060200182810382526028815260200180612cf96028913960400191505060405180910390fd5b6066546040805163bd02d0f560e01b81526f547261646552657665727444656c617960801b600482015290516000926001600160a01b03169163bd02d0f5916024808301926020929190829003018186803b158015611f9e57600080fd5b505afa158015611fb2573d6000803e3d6000fd5b505050506040513d6020811015611fc857600080fd5b50519050806120085760405162461bcd60e51b8152600401808060200182810382526024815260200180612ddc6024913960400191505060405180910390fd5b815167ffffffffffffffff16810142116120535760405162461bcd60e51b8152600401808060200182810382526027815260200180612ec06027913960400191505060405180910390fd5b6365342f23826000015167ffffffffffffffff16116120c4576000838152606d602090815260409182902080546001600160e81b0319169055815185815291517fa90100afa49f123b61864a8d3c03ffcb4955c7c4a473dd801af025b253bcaa2a9281900390910190a1505061071f565b604082015160ff1660011415612172576068546020808401516000868152606e8352604080822060030154815163a9059cbb60e01b81526001600160a01b03948516600482015260248101919091529051929094169363a9059cbb93604480830194919391928390030190829087803b15801561214057600080fd5b505af1158015612154573d6000803e3d6000fd5b505050506040513d602081101561216a57600080fd5b5061221b9050565b604082015160ff166002141561221b576068546020808401516000868152606f8352604080822060030154815163a9059cbb60e01b81526001600160a01b03948516600482015260248101919091529051929094169363a9059cbb93604480830194919391928390030190829087803b1580156121ee57600080fd5b505af1158015612202573d6000803e3d6000fd5b505050506040513d602081101561221857600080fd5b50505b612229838360400151612836565b6040805184815290517fa90100afa49f123b61864a8d3c03ffcb4955c7c4a473dd801af025b253bcaa2a9181900360200190a1505050565b606a546001600160a01b031681565b600181565b606854606954604080516323b872dd60e01b81523360048201526001600160a01b03928316602482015260448101859052905191909216916323b872dd9160648083019260209291908290030181600087803b1580156122d457600080fd5b505af11580156122e8573d6000803e3d6000fd5b505050506040513d60208110156122fe57600080fd5b5050604080518381526020810183905281517f2b176d15c0ac546f440017b709182a61ffb67e374a41f2c7866cb4e84cfb5c8a929181900390910190a15050565b6070602052600090815260409020805460018201546002830154600390930154919290916001600160a01b031684565b612377612477565b6001600160a01b0316612388611b60565b6001600160a01b0316146123d1576040805162461bcd60e51b81526020600482018190526024820152600080516020612dbc833981519152604482015290519081900360640190fd5b6001600160a01b0381166124165760405162461bcd60e51b8152600401808060200182810382526026815260200180612cd36026913960400191505060405180910390fd5b6033546040516001600160a01b038084169216907f8be0079c531659141344cd1fd0a4f28419497f9722a3daafe3b4186f6b6457e090600090a3603380546001600160a01b0319166001600160a01b0392909216919091179055565b600381565b3390565b6001600160a01b0381166124d6576040805162461bcd60e51b815260206004820152601f60248201527f4945524332305570677261646561626c653a207a65726f206164647265737300604482015290519081900360640190fd5b6068546001600160a01b03828116911614156125235760405162461bcd60e51b8152600401808060200182810382526026815260200180612f166026913960400191505060405180910390fd5b606880546001600160a01b0319166001600160a01b0392909216919091179055565b606554604080516396b056d160e01b81526001600160a01b038481166004830152915191909216916396b056d1916024808301926020929190829003018186803b15801561259257600080fd5b505afa1580156125a6573d6000803e3d6000fd5b505050506040513d60208110156125bc57600080fd5b505161071f5760405162461bcd60e51b815260040180806020018281038252602b815260200180612e95602b913960400191505060405180910390fd5b606c80546001019081905560408051606081019091528061261942612aeb565b67ffffffffffffffff90811682526001600160a01b0395861660208084019190915260ff9586166040938401526000858152606d825283902084518154928601519590940151909616600160e01b0260ff60e01b1994909716600160401b0268010000000000000000600160e01b03199390921667ffffffffffffffff199091161791909116171692909217905590565b60006126b530612b33565b15905090565b600054610100900460ff16806126d457506126d46126aa565b806126e2575060005460ff16155b61271d5760405162461bcd60e51b815260040180806020018281038252602e815260200180612d21602e913960400191505060405180910390fd5b600054610100900460ff16158015612748576000805460ff1961ff0019909116610100171660011790555b612750612b39565b612758612bd9565b801561071f576000805461ff001916905550565b606554604080516316f6e7dd60e01b815260048101849052905160009283926001600160a01b03909116916316f6e7dd91602480820192602092909190829003018186803b1580156127bd57600080fd5b505afa1580156127d1573d6000803e3d6000fd5b505050506040513d60208110156127e757600080fd5b505190506001600160a01b0381166128305760405162461bcd60e51b8152600401808060200182810382526026815260200180612d4f6026913960400191505060405180910390fd5b92915050565b6000828152606d6020526040902080546001600160e81b031916905560ff81166001141561288b576000828152606e6020526040812081815560018101805460ff1916905560028101829055600301556128fd565b60ff8116600214156128bf576000828152606f602052604081208181556001810182905560028101829055600301556128fd565b60ff81166003141561139c57600082815260706020526040812081815560018101829055600281019190915560030180546001600160a01b03191690555b5050565b6067546001600160a01b0316639c5bfb0661291b8461276c565b836040518363ffffffff1660e01b815260040180836001600160a01b031681526020018281526020019250505060206040518083038186803b15801561296057600080fd5b505afa158015612974573d6000803e3d6000fd5b505050506040513d602081101561298a57600080fd5b50516128fd5760405162461bcd60e51b8152600401808060200182810382526022815260200180612e006022913960400191505060405180910390fd5b6000826129d657506000612830565b828202828482816129e357fe5b0414612a205760405162461bcd60e51b8152600401808060200182810382526021815260200180612d756021913960400191505060405180910390fd5b9392505050565b6000808211612a7d576040805162461bcd60e51b815260206004820152601a60248201527f536166654d6174683a206469766973696f6e206279207a65726f000000000000604482015290519081900360640190fd5b818381612a8657fe5b049392505050565b600082821115612ae5576040805162461bcd60e51b815260206004820152601e60248201527f536166654d6174683a207375627472616374696f6e206f766572666c6f770000604482015290519081900360640190fd5b50900390565b6000600160401b8210612b2f5760405162461bcd60e51b8152600401808060200182810382526026815260200180612d966026913960400191505060405180910390fd5b5090565b3b151590565b600054610100900460ff1680612b525750612b526126aa565b80612b60575060005460ff16155b612b9b5760405162461bcd60e51b815260040180806020018281038252602e815260200180612d21602e913960400191505060405180910390fd5b600054610100900460ff16158015612758576000805460ff1961ff001990911661010017166001179055801561071f576000805461ff001916905550565b600054610100900460ff1680612bf25750612bf26126aa565b80612c00575060005460ff16155b612c3b5760405162461bcd60e51b815260040180806020018281038252602e815260200180612d21602e913960400191505060405180910390fd5b600054610100900460ff16158015612c66576000805460ff1961ff0019909116610100171660011790555b6000612c70612477565b603380546001600160a01b0319166001600160a01b038316908117909155604051919250906000907f8be0079c531659141344cd1fd0a4f28419497f9722a3daafe3b4186f6b6457e0908290a350801561071f576000805461ff00191690555056fe4f776e61626c653a206e6577206f776e657220697320746865207a65726f20616464726573734c6e5065727045786368616e67653a2070656e64696e6720616374696f6e206e6f7420666f756e64496e697469616c697a61626c653a20636f6e747261637420697320616c726561647920696e697469616c697a65644c6e5065727045786368616e67653a20706572702061646472657373206e6f7420666f756e64536166654d6174683a206d756c7469706c69636174696f6e206f766572666c6f7753616665436173743a2076616c756520646f65736e27742066697420696e20363420626974734f776e61626c653a2063616c6c6572206973206e6f7420746865206f776e65724c6e5065727045786368616e67653a207265766572742064656c6179206e6f74207365744c6e5065727045786368616e67653a20706f736974696f6e206e6f7420666f756e644c6e5065727045786368616e67653a20736574746c656d656e742064656c6179206e6f74207365744c6e5065727045786368616e67653a20736574746c656d656e742064656c6179206e6f74207061737365644c6e5065727045786368616e67653a207a65726f2061646472657373000000004c6e5065727045786368616e67653a20706572702061646472657373206e6f7420726567697374657265644c6e5065727045786368616e67653a207265766572742064656c6179206e6f74207061737365644c6e5065727045786368616e67653a20616374696f6e2063616e206f6e6c79206265207265766572746564206e6f774945524332305570677261646561626c653a2061646472657373206e6f74206368616e6765644c6e5065727045786368616e67653a20756e6b6e6f776e20616374696f6e2074797065a264697066735822122097348bbc22bf2787ac843482e6714efa79e7ec008df53ee312889bdf328708d464736f6c63430007060033",
  "linkReferences": {},
  "deployedLinkReferences": {}
}