{
  "_format": "hh-sol-artifact-1",
  "contractName": "LnPerpetual",
  "sourceName": "contracts/LnPerpetual.sol",
  "abi": [
    {
      "anonymous": false,
      "inputs": [
        {
          "indexed": true,
          "internalType": "address",
          "name": "user",
          "type": "address"
        },
        {
          "indexed": true,
          "internalType": "uint256",
          "name": "positionId",
          "type": "uint256"
        },
        {
          "indexed": false,
          "internalType": "uint256",
          "name": "amount",
          "type": "uint256"
        }
      ],
      "name": "CollateralAdded",
      "type": "event"
    },
    {
      "anonymous": false,
      "inputs": [
        {
          "indexed": true,
          "internalType": "address",
          "name": "user",
          "type": "address"
        },
        {
          "indexed": true,
          "internalType": "uint256",
          "name": "positionId",
          "type": "uint256"
        },
        {
          "indexed": false,
          "internalType": "uint256",
          "name": "amount",
          "type": "uint256"
        }
      ],
      "name": "CollateralRemoved",
      "type": "event"
    },
    {
      "anonymous": false,
      "inputs": [
        {
          "indexed": true,
          "internalType": "address",
          "name": "previousOwner",
          "type": "address"
        },
        {
          "indexed": true,
          "internalType": "address",
          "name": "newOwner",
          "type": "address"
        }
      ],
      "name": "OwnershipTransferred",
      "type": "event"
    },
    {
      "anonymous": false,
      "inputs": [
        {
          "indexed": true,
          "internalType": "address",
          "name": "user",
          "type": "address"
        },
        {
          "indexed": true,
          "internalType": "uint256",
          "name": "positionId",
          "type": "uint256"
        },
        {
          "indexed": false,
          "internalType": "uint256",
          "name": "size",
          "type": "uint256"
        },
        {
          "indexed": false,
          "internalType": "uint256",
          "name": "price",
          "type": "uint256"
        },
        {
          "indexed": false,
          "internalType": "address",
          "name": "liquidator",
          "type": "address"
        },
        {
          "indexed": false,
          "internalType": "uint256",
          "name": "fees",
          "type": "uint256"
        },
        {
          "indexed": false,
          "internalType": "uint256",
          "name": "liquidatorReward",
          "type": "uint256"
        },
        {
          "indexed": false,
          "internalType": "uint256",
          "name": "insuranceFundContribution",
          "type": "uint256"
        }
      ],
      "name": "PoistionLiquidated",
      "type": "event"
    },
    {
      "anonymous": false,
      "inputs": [
        {
          "indexed": true,
          "internalType": "address",
          "name": "user",
          "type": "address"
        },
        {
          "indexed": true,
          "internalType": "uint256",
          "name": "positionId",
          "type": "uint256"
        },
        {
          "indexed": false,
          "internalType": "uint256",
          "name": "size",
          "type": "uint256"
        },
        {
          "indexed": false,
          "internalType": "uint256",
          "name": "price",
          "type": "uint256"
        },
        {
          "indexed": false,
          "internalType": "uint256",
          "name": "fees",
          "type": "uint256"
        },
        {
          "indexed": false,
          "internalType": "uint256",
          "name": "collateralReturned",
          "type": "uint256"
        }
      ],
      "name": "PositionClosed",
      "type": "event"
    },
    {
      "anonymous": false,
      "inputs": [
        {
          "indexed": true,
          "internalType": "address",
          "name": "user",
          "type": "address"
        },
        {
          "indexed": true,
          "internalType": "uint256",
          "name": "positionId",
          "type": "uint256"
        },
        {
          "indexed": false,
          "internalType": "bool",
          "name": "isLong",
          "type": "bool"
        },
        {
          "indexed": false,
          "internalType": "uint256",
          "name": "size",
          "type": "uint256"
        },
        {
          "indexed": false,
          "internalType": "uint256",
          "name": "price",
          "type": "uint256"
        },
        {
          "indexed": false,
          "internalType": "uint256",
          "name": "collateral",
          "type": "uint256"
        },
        {
          "indexed": false,
          "internalType": "uint256",
          "name": "fees",
          "type": "uint256"
        }
      ],
      "name": "PositionCreated",
      "type": "event"
    },
    {
      "anonymous": false,
      "inputs": [
        {
          "indexed": true,
          "internalType": "address",
          "name": "user",
          "type": "address"
        },
        {
          "indexed": true,
          "internalType": "uint256",
          "name": "positionId",
          "type": "uint256"
        },
        {
          "indexed": false,
          "internalType": "uint256",
          "name": "size",
          "type": "uint256"
        },
        {
          "indexed": false,
          "internalType": "uint256",
          "name": "price",
          "type": "uint256"
        },
        {
          "indexed": false,
          "internalType": "uint256",
          "name": "additionalCollateral",
          "type": "uint256"
        },
        {
          "indexed": false,
          "internalType": "uint256",
          "name": "fees",
          "type": "uint256"
        }
      ],
      "name": "PositionIncreased",
      "type": "event"
    },
    {
      "anonymous": false,
      "inputs": [
        {
          "indexed": true,
          "internalType": "address",
          "name": "user",
          "type": "address"
        },
        {
          "indexed": true,
          "internalType": "uint256",
          "name": "positionId",
          "type": "uint256"
        },
        {
          "indexed": false,
          "internalType": "uint256",
          "name": "size",
          "type": "uint256"
        },
        {
          "indexed": false,
          "internalType": "uint256",
          "name": "price",
          "type": "uint256"
        },
        {
          "indexed": false,
          "internalType": "uint256",
          "name": "fees",
          "type": "uint256"
        }
      ],
      "name": "PositionPartiallyClosed",
      "type": "event"
    },
    {
      "anonymous": false,
      "inputs": [
        {
          "indexed": true,
          "internalType": "uint256",
          "name": "positionId",
          "type": "uint256"
        },
        {
          "indexed": false,
          "internalType": "bool",
          "name": "isLong",
          "type": "bool"
        },
        {
          "indexed": false,
          "internalType": "uint256",
          "name": "debt",
          "type": "uint256"
        },
        {
          "indexed": false,
          "internalType": "uint256",
          "name": "locked",
          "type": "uint256"
        },
        {
          "indexed": false,
          "internalType": "uint256",
          "name": "collateral",
          "type": "uint256"
        }
      ],
      "name": "PositionSync",
      "type": "event"
    },
    {
      "inputs": [
        {
          "internalType": "contract ILnPerpExchange",
          "name": "_exchange",
          "type": "address"
        },
        {
          "internalType": "contract ILnPerpPositionToken",
          "name": "_positionToken",
          "type": "address"
        },
        {
          "internalType": "contract ILnAsset",
          "name": "_lusdToken",
          "type": "address"
        },
        {
          "internalType": "contract ILnAsset",
          "name": "_underlyingToken",
          "type": "address"
        },
        {
          "internalType": "contract ILnPrices",
          "name": "_lnPrices",
          "type": "address"
        },
        {
          "internalType": "uint256",
          "name": "_minInitMargin",
          "type": "uint256"
        },
        {
          "internalType": "uint256",
          "name": "_maintenanceMargin",
          "type": "uint256"
        },
        {
          "internalType": "uint256",
          "name": "_feeRate",
          "type": "uint256"
        },
        {
          "internalType": "uint256",
          "name": "_liquidatorRewardRatio",
          "type": "uint256"
        },
        {
          "internalType": "uint256",
          "name": "_insuranceFundContributionRatio",
          "type": "uint256"
        }
      ],
      "name": "__LnPerpetual_init",
      "outputs": [],
      "stateMutability": "nonpayable",
      "type": "function"
    },
    {
      "inputs": [
        {
          "internalType": "uint256",
          "name": "positionId",
          "type": "uint256"
        },
        {
          "internalType": "uint256",
          "name": "amount",
          "type": "uint256"
        }
      ],
      "name": "addCollateral",
      "outputs": [],
      "stateMutability": "nonpayable",
      "type": "function"
    },
    {
      "inputs": [
        {
          "internalType": "address",
          "name": "user",
          "type": "address"
        },
        {
          "internalType": "uint256",
          "name": "positionId",
          "type": "uint256"
        },
        {
          "internalType": "address",
          "name": "to",
          "type": "address"
        }
      ],
      "name": "closePosition",
      "outputs": [
        {
          "internalType": "uint256",
          "name": "underlyingPrice",
          "type": "uint256"
        }
      ],
      "stateMutability": "nonpayable",
      "type": "function"
    },
    {
      "inputs": [
        {
          "internalType": "address",
          "name": "user",
          "type": "address"
        },
        {
          "internalType": "uint256",
          "name": "positionId",
          "type": "uint256"
        },
        {
          "internalType": "uint256",
          "name": "amount",
          "type": "uint256"
        },
        {
          "internalType": "address",
          "name": "to",
          "type": "address"
        }
      ],
      "name": "closePositionByAmount",
      "outputs": [
        {
          "internalType": "uint256",
          "name": "underlyingPrice",
          "type": "uint256"
        }
      ],
      "stateMutability": "nonpayable",
      "type": "function"
    },
    {
      "inputs": [],
      "name": "exchange",
      "outputs": [
        {
          "internalType": "contract ILnPerpExchange",
          "name": "",
          "type": "address"
        }
      ],
      "stateMutability": "view",
      "type": "function"
    },
    {
      "inputs": [],
      "name": "feeRate",
      "outputs": [
        {
          "internalType": "uint256",
          "name": "",
          "type": "uint256"
        }
      ],
      "stateMutability": "view",
      "type": "function"
    },
    {
      "inputs": [
        {
          "internalType": "uint256",
          "name": "positionId",
          "type": "uint256"
        }
      ],
      "name": "getCollateralizationRatio",
      "outputs": [
        {
          "internalType": "uint256",
          "name": "",
          "type": "uint256"
        }
      ],
      "stateMutability": "view",
      "type": "function"
    },
    {
      "inputs": [
        {
          "internalType": "address",
          "name": "user",
          "type": "address"
        },
        {
          "internalType": "uint256",
          "name": "positionId",
          "type": "uint256"
        },
        {
          "internalType": "uint256",
          "name": "size",
          "type": "uint256"
        },
        {
          "internalType": "uint256",
          "name": "collateral",
          "type": "uint256"
        }
      ],
      "name": "increasePosition",
      "outputs": [
        {
          "internalType": "uint256",
          "name": "underlyingPrice",
          "type": "uint256"
        }
      ],
      "stateMutability": "nonpayable",
      "type": "function"
    },
    {
      "inputs": [],
      "name": "insuranceFundContributionRatio",
      "outputs": [
        {
          "internalType": "uint256",
          "name": "",
          "type": "uint256"
        }
      ],
      "stateMutability": "view",
      "type": "function"
    },
    {
      "inputs": [
        {
          "internalType": "uint256",
          "name": "positionId",
          "type": "uint256"
        },
        {
          "internalType": "uint256",
          "name": "amount",
          "type": "uint256"
        },
        {
          "internalType": "address",
          "name": "rewardTo",
          "type": "address"
        }
      ],
      "name": "liquidatePosition",
      "outputs": [],
      "stateMutability": "nonpayable",
      "type": "function"
    },
    {
      "inputs": [],
      "name": "liquidatorRewardRatio",
      "outputs": [
        {
          "internalType": "uint256",
          "name": "",
          "type": "uint256"
        }
      ],
      "stateMutability": "view",
      "type": "function"
    },
    {
      "inputs": [],
      "name": "lnPrices",
      "outputs": [
        {
          "internalType": "contract ILnPrices",
          "name": "",
          "type": "address"
        }
      ],
      "stateMutability": "view",
      "type": "function"
    },
    {
      "inputs": [],
      "name": "lusdToken",
      "outputs": [
        {
          "internalType": "contract ILnAsset",
          "name": "",
          "type": "address"
        }
      ],
      "stateMutability": "view",
      "type": "function"
    },
    {
      "inputs": [],
      "name": "maintenanceMargin",
      "outputs": [
        {
          "internalType": "uint256",
          "name": "",
          "type": "uint256"
        }
      ],
      "stateMutability": "view",
      "type": "function"
    },
    {
      "inputs": [],
      "name": "minInitMargin",
      "outputs": [
        {
          "internalType": "uint256",
          "name": "",
          "type": "uint256"
        }
      ],
      "stateMutability": "view",
      "type": "function"
    },
    {
      "inputs": [
        {
          "internalType": "address",
          "name": "user",
          "type": "address"
        },
        {
          "internalType": "bool",
          "name": "isLong",
          "type": "bool"
        },
        {
          "internalType": "uint256",
          "name": "size",
          "type": "uint256"
        },
        {
          "internalType": "uint256",
          "name": "collateral",
          "type": "uint256"
        }
      ],
      "name": "openPosition",
      "outputs": [
        {
          "internalType": "uint256",
          "name": "positionId",
          "type": "uint256"
        },
        {
          "internalType": "uint256",
          "name": "underlyingPrice",
          "type": "uint256"
        }
      ],
      "stateMutability": "nonpayable",
      "type": "function"
    },
    {
      "inputs": [],
      "name": "owner",
      "outputs": [
        {
          "internalType": "address",
          "name": "",
          "type": "address"
        }
      ],
      "stateMutability": "view",
      "type": "function"
    },
    {
      "inputs": [],
      "name": "positionToken",
      "outputs": [
        {
          "internalType": "contract ILnPerpPositionToken",
          "name": "",
          "type": "address"
        }
      ],
      "stateMutability": "view",
      "type": "function"
    },
    {
      "inputs": [
        {
          "internalType": "uint256",
          "name": "",
          "type": "uint256"
        }
      ],
      "name": "positions",
      "outputs": [
        {
          "internalType": "bool",
          "name": "isLong",
          "type": "bool"
        },
        {
          "internalType": "uint256",
          "name": "debt",
          "type": "uint256"
        },
        {
          "internalType": "uint256",
          "name": "locked",
          "type": "uint256"
        },
        {
          "internalType": "uint256",
          "name": "collateral",
          "type": "uint256"
        }
      ],
      "stateMutability": "view",
      "type": "function"
    },
    {
      "inputs": [
        {
          "internalType": "uint256",
          "name": "positionId",
          "type": "uint256"
        },
        {
          "internalType": "uint256",
          "name": "amount",
          "type": "uint256"
        },
        {
          "internalType": "address",
          "name": "to",
          "type": "address"
        }
      ],
      "name": "removeCollateral",
      "outputs": [],
      "stateMutability": "nonpayable",
      "type": "function"
    },
    {
      "inputs": [],
      "name": "renounceOwnership",
      "outputs": [],
      "stateMutability": "nonpayable",
      "type": "function"
    },
    {
      "inputs": [
        {
          "internalType": "uint256",
          "name": "newFeeRate",
          "type": "uint256"
        }
      ],
      "name": "setFeeRate",
      "outputs": [],
      "stateMutability": "nonpayable",
      "type": "function"
    },
    {
      "inputs": [
        {
          "internalType": "uint256",
          "name": "newMaintenanceMargin",
          "type": "uint256"
        }
      ],
      "name": "setMaintenanceMargin",
      "outputs": [],
      "stateMutability": "nonpayable",
      "type": "function"
    },
    {
      "inputs": [
        {
          "internalType": "uint256",
          "name": "newMinInitMargin",
          "type": "uint256"
        }
      ],
      "name": "setMinInitMargin",
      "outputs": [],
      "stateMutability": "nonpayable",
      "type": "function"
    },
    {
      "inputs": [],
      "name": "totalUnderlyingDebt",
      "outputs": [
        {
          "internalType": "uint256",
          "name": "",
          "type": "uint256"
        }
      ],
      "stateMutability": "view",
      "type": "function"
    },
    {
      "inputs": [],
      "name": "totalUsdDebt",
      "outputs": [
        {
          "internalType": "uint256",
          "name": "",
          "type": "uint256"
        }
      ],
      "stateMutability": "view",
      "type": "function"
    },
    {
      "inputs": [
        {
          "internalType": "address",
          "name": "newOwner",
          "type": "address"
        }
      ],
      "name": "transferOwnership",
      "outputs": [],
      "stateMutability": "nonpayable",
      "type": "function"
    },
    {
      "inputs": [],
      "name": "underlyingToken",
      "outputs": [
        {
          "internalType": "contract ILnAsset",
          "name": "",
          "type": "address"
        }
      ],
      "stateMutability": "view",
      "type": "function"
    },
    {
      "inputs": [],
      "name": "underlyingTokenSymbol",
      "outputs": [
        {
          "internalType": "bytes32",
          "name": "",
          "type": "bytes32"
        }
      ],
      "stateMutability": "view",
      "type": "function"
    }
  ],
  "bytecode": "0x608060405234801561001057600080fd5b506139fe806100206000396000f3fe608060405234801561001057600080fd5b50600436106101cf5760003560e01c806377f84c2d11610104578063a8f35adf116100a2578063d5eb058111610071578063d5eb0581146104bb578063dba0ae3a146104c3578063f2fde38b14610516578063f4ebf84d1461053c576101cf565b8063a8f35adf1461046b578063a92b96d41461048e578063b83f91a2146104ab578063d2f7265a146104b3576101cf565b8063978bbdb9116100de578063978bbdb9146103cf57806399fbab88146103d75780639d45109a1461041c578063a2359b7e1461044e576101cf565b806377f84c2d1461038757806379cd61ce146103bf5780638da5cb5b146103c7576101cf565b806345596e2e1161017157806365264cd11161014b57806365264cd1146103245780636fec2d551461035a57806370eae60a14610362578063715018a61461037f576101cf565b806345596e2e146102f75780634ceb8991146103145780635037b7e91461031c576101cf565b80632495a599116101ad5780632495a5991461025c5780632885b6bb1461028057806341a193bc14610288578063424c2bc514610290576101cf565b8063095f1404146101d45780630f29747f146101ee57806312103b2914610228575b600080fd5b6101dc610544565b60408051918252519081900360200190f35b6101dc6004803603608081101561020457600080fd5b506001600160a01b038135811691602081013591604082013591606001351661054a565b61025a6004803603606081101561023e57600080fd5b50803590602081013590604001356001600160a01b0316610600565b005b610264610654565b604080516001600160a01b039092168252519081900360200190f35b6101dc610663565b6101dc610669565b61025a60048036036101408110156102a757600080fd5b506001600160a01b0381358116916020810135821691604082013581169160608101358216916080820135169060a08101359060c08101359060e08101359061010081013590610120013561066f565b61025a6004803603602081101561030d57600080fd5b50356109e8565b6101dc610a4f565b610264610a55565b6101dc6004803603606081101561033a57600080fd5b506001600160a01b03813581169160208101359160409091013516610a64565b610264610ad7565b6101dc6004803603602081101561037857600080fd5b5035610ae6565b61025a610af9565b6101dc6004803603608081101561039d57600080fd5b506001600160a01b038135169060208101359060408101359060600135610ba5565b6101dc610c0f565b610264610c15565b6101dc610c24565b6103f4600480360360208110156103ed57600080fd5b5035610c2a565b6040805194151585526020850193909352838301919091526060830152519081900360800190f35b61025a6004803603606081101561043257600080fd5b50803590602081013590604001356001600160a01b0316610c55565b61025a6004803603602081101561046457600080fd5b5035610ca4565b61025a6004803603604081101561048157600080fd5b5080359060200135610d4e565b61025a600480360360208110156104a457600080fd5b5035610d5d565b610264610e07565b610264610e16565b6101dc610e25565b6104fd600480360360808110156104d957600080fd5b506001600160a01b0381351690602081013515159060408101359060600135610e2b565b6040805192835260208301919091528051918290030190f35b61025a6004803603602081101561052c57600080fd5b50356001600160a01b0316610ea4565b6101dc610fa7565b606d5481565b6065546000906001600160a01b031633146105a8576040805162461bcd60e51b81526020600482015260196024820152784c6e50657270657475616c3a206e6f742065786368616e676560381b604482015290519081900360640190fd5b600083116105eb576040805162461bcd60e51b815260206004820152601860248201526000805160206139a9833981519152604482015290519081900360640190fd5b6105f785858585610fad565b95945050505050565b60008211610643576040805162461bcd60e51b815260206004820152601860248201526000805160206139a9833981519152604482015290519081900360640190fd5b61064f338484846110cc565b505050565b6068546001600160a01b031681565b606f5481565b60715481565b600054610100900460ff168061068857506106886114ef565b80610696575060005460ff16155b6106d15760405162461bcd60e51b815260040180806020018281038252602e8152602001806138d1602e913960400191505060405180910390fd5b600054610100900460ff161580156106fc576000805460ff1961ff0019909116610100171660011790555b610704611500565b6001600160a01b038b1661074d576040805162461bcd60e51b81526020600482015260196024820152600080516020613920833981519152604482015290519081900360640190fd5b6001600160a01b038a16610796576040805162461bcd60e51b81526020600482015260196024820152600080516020613920833981519152604482015290519081900360640190fd5b6001600160a01b0389166107df576040805162461bcd60e51b81526020600482015260196024820152600080516020613920833981519152604482015290519081900360640190fd5b6001600160a01b038816610828576040805162461bcd60e51b81526020600482015260196024820152600080516020613920833981519152604482015290519081900360640190fd5b6001600160a01b038716610871576040805162461bcd60e51b81526020600482015260196024820152600080516020613920833981519152604482015290519081900360640190fd5b600085116108b4576040805162461bcd60e51b815260206004820152601860248201526000805160206139a9833981519152604482015290519081900360640190fd5b8486116108f25760405162461bcd60e51b81526004018080602001828103825260228152602001806139606022913960400191505060405180910390fd5b606580546001600160a01b03808e166001600160a01b031992831617909255606680548d8416908316179055606780548c8416908316179055606880548b8416908316811790915560698054938b1693909216929092179055606a879055606b869055606c859055606d849055606e839055604080516307d1e55760e51b8152905163fa3caae091600480820192602092909190829003018186803b15801561099a57600080fd5b505afa1580156109ae573d6000803e3d6000fd5b505050506040513d60208110156109c457600080fd5b5051606f5580156109db576000805461ff00191690555b5050505050505050505050565b6109f06115b2565b6001600160a01b0316610a01610c15565b6001600160a01b031614610a4a576040805162461bcd60e51b81526020600482018190526024820152600080516020613940833981519152604482015290519081900360640190fd5b606c55565b60705481565b6066546001600160a01b031681565b6065546000906001600160a01b03163314610ac2576040805162461bcd60e51b81526020600482015260196024820152784c6e50657270657475616c3a206e6f742065786368616e676560381b604482015290519081900360640190fd5b610acf8484600085610fad565b949350505050565b6069546001600160a01b031681565b6000610af1826115b6565b90505b919050565b610b016115b2565b6001600160a01b0316610b12610c15565b6001600160a01b031614610b5b576040805162461bcd60e51b81526020600482018190526024820152600080516020613940833981519152604482015290519081900360640190fd5b6033546040516000916001600160a01b0316907f8be0079c531659141344cd1fd0a4f28419497f9722a3daafe3b4186f6b6457e0908390a3603380546001600160a01b0319169055565b6065546000906001600160a01b03163314610c03576040805162461bcd60e51b81526020600482015260196024820152784c6e50657270657475616c3a206e6f742065786368616e676560381b604482015290519081900360640190fd5b6105f7858585856117c8565b606e5481565b6033546001600160a01b031690565b606c5481565b607260205260009081526040902080546001820154600283015460039093015460ff90921692909184565b60008211610c98576040805162461bcd60e51b815260206004820152601860248201526000805160206139a9833981519152604482015290519081900360640190fd5b61064f33848484611a9f565b610cac6115b2565b6001600160a01b0316610cbd610c15565b6001600160a01b031614610d06576040805162461bcd60e51b81526020600482018190526024820152600080516020613940833981519152604482015290519081900360640190fd5b60008111610d49576040805162461bcd60e51b815260206004820152601860248201526000805160206139a9833981519152604482015290519081900360640190fd5b606b55565b610d59338383611ccf565b5050565b610d656115b2565b6001600160a01b0316610d76610c15565b6001600160a01b031614610dbf576040805162461bcd60e51b81526020600482018190526024820152600080516020613940833981519152604482015290519081900360640190fd5b60008111610e02576040805162461bcd60e51b815260206004820152601860248201526000805160206139a9833981519152604482015290519081900360640190fd5b606a55565b6067546001600160a01b031681565b6065546001600160a01b031681565b606b5481565b60655460009081906001600160a01b03163314610e8b576040805162461bcd60e51b81526020600482015260196024820152784c6e50657270657475616c3a206e6f742065786368616e676560381b604482015290519081900360640190fd5b610e9786868686611e1f565b9097909650945050505050565b610eac6115b2565b6001600160a01b0316610ebd610c15565b6001600160a01b031614610f06576040805162461bcd60e51b81526020600482018190526024820152600080516020613940833981519152604482015290519081900360640190fd5b6001600160a01b038116610f4b5760405162461bcd60e51b81526004018080602001828103825260268152602001806138356026913960400191505060405180910390fd5b6033546040516001600160a01b038084169216907f8be0079c531659141344cd1fd0a4f28419497f9722a3daafe3b4186f6b6457e090600090a3603380546001600160a01b0319166001600160a01b0392909216919091179055565b606a5481565b606654604080516331a9108f60e11b81526004810186905290516000926001600160a01b031691636352211e916024808301926020929190829003018186803b158015610ff957600080fd5b505afa15801561100d573d6000803e3d6000fd5b505050506040513d602081101561102357600080fd5b50516001600160a01b03868116911614611084576040805162461bcd60e51b815260206004820152601b60248201527f4c6e50657270657475616c3a206f776e6572206d69736d617463680000000000604482015290519081900360640190fd5b60008481526072602052604090205460ff16156110b3576110a98585858560006120ba565b509150610acf9050565b6110c185858585600061296c565b509695505050505050565b606b546110d8846115b6565b106111145760405162461bcd60e51b815260040180806020018281038252602e815260200180613883602e913960400191505060405180910390fd5b606654604080516331a9108f60e11b81526004810186905290516000926001600160a01b031691636352211e916024808301926020929190829003018186803b15801561116057600080fd5b505afa158015611174573d6000803e3d6000fd5b505050506040513d602081101561118a57600080fd5b5051600085815260726020526040812054919250908190819060ff166111bd576111b884888887600161296c565b6111cb565b6111cb8488888760016120ba565b92509250925060006111dc886115b6565b9050606b5481101580156111f25750606a548111155b61122d5760405162461bcd60e51b81526004018080602001828103825260278152602001806139826027913960400191505060405180910390fd5b6000806001600160a01b0316606560009054906101000a90046001600160a01b03166001600160a01b0316631437fcd06040518163ffffffff1660e01b815260040160206040518083038186803b15801561128757600080fd5b505afa15801561129b573d6000803e3d6000fd5b505050506040513d60208110156112b157600080fd5b50516001600160a01b0316146112ed576112e8670de0b6b3a76400006112e2606e5486612ffd90919063ffffffff16565b9061305f565b6112f0565b60005b90506112fc83826130c6565b92508215611387576067546040805163a9059cbb60e01b81526001600160a01b038a81166004830152602482018790529151919092169163a9059cbb9160448083019260209291908290030181600087803b15801561135a57600080fd5b505af115801561136e573d6000803e3d6000fd5b505050506040513d602081101561138457600080fd5b50505b801561147f576067546065546040805163095ea7b360e01b81526001600160a01b039283166004820152602481018590529051919092169163095ea7b39160448083019260209291908290030181600087803b1580156113e657600080fd5b505af11580156113fa573d6000803e3d6000fd5b505050506040513d602081101561141057600080fd5b50506065546040805163e73d3c5160e01b8152600481018c90526024810184905290516001600160a01b039092169163e73d3c519160448082019260009290919082900301818387803b15801561146657600080fd5b505af115801561147a573d6000803e3d6000fd5b505050505b60408051898152602081018690526001600160a01b038c811682840152606082018890526080820186905260a0820184905291518b928916917f8b026957ac2cff5263de4726a86ef15d37cf3733801baaf59450755219e7c8f0919081900360c00190a350505050505050505050565b60006114fa30613123565b15905090565b600054610100900460ff168061151957506115196114ef565b80611527575060005460ff16155b6115625760405162461bcd60e51b815260040180806020018281038252602e8152602001806138d1602e913960400191505060405180910390fd5b600054610100900460ff1615801561158d576000805460ff1961ff0019909116610100171660011790555b611595613129565b61159d6131c9565b80156115af576000805461ff00191690555b50565b3390565b60008181526072602090815260408083208151608081018352815460ff1615158152600182015493810184905260028201549281019290925260030154606082015290611638576040805162461bcd60e51b815260206004820152601f60248201526000805160206138b1833981519152604482015290519081900360640190fd5b80511561170c57602080820151606954606f54604080860151815163ee52a2f360e01b815260048101939093526024830152631b1554d160e21b60448301525161170494670de0b6b3a7640000946116fe9490936112e29387936116f8936001600160a01b03169263ee52a2f39260648083019392829003018186803b1580156116c157600080fd5b505afa1580156116d5573d6000803e3d6000fd5b505050506040513d60208110156116eb57600080fd5b50516060890151906132c2565b90612ffd565b906130c6565b915050610af4565b606954606f546020808401516040805163ee52a2f360e01b815260048101949094526024840191909152631b1554d160e21b60448401525161170493670de0b6b3a7640000936116fe936001600160a01b039092169263ee52a2f392606480840193919291829003018186803b15801561178557600080fd5b505afa158015611799573d6000803e3d6000fd5b505050506040513d60208110156117af57600080fd5b505160608501516112e290670de0b6b3a7640000612ffd565b600080831161180c576040805162461bcd60e51b815260206004820152601860248201526000805160206139a9833981519152604482015290519081900360640190fd5b606654604080516331a9108f60e11b81526004810187905290516001600160a01b0390921691636352211e91602480820192602092909190829003018186803b15801561185857600080fd5b505afa15801561186c573d6000803e3d6000fd5b505050506040513d602081101561188257600080fd5b50516001600160a01b038681169116146118e3576040805162461bcd60e51b815260206004820152601b60248201527f4c6e50657270657475616c3a206f776e6572206d69736d617463680000000000604482015290519081900360640190fd5b600084815260726020526040902060010154611934576040805162461bcd60e51b815260206004820152601f60248201526000805160206138b1833981519152604482015290519081900360640190fd5b600061194185858561331c565b606954606f54604080516331d98b3f60e01b81526004810192909252519293506001600160a01b03909116916331d98b3f91602480820192602092909190829003018186803b15801561199357600080fd5b505afa1580156119a7573d6000803e3d6000fd5b505050506040513d60208110156119bd57600080fd5b5051606954606f54604080516331d98b3f60e01b815260048101929092525192945087926001600160a01b03808b16937f2337e687da16f7f70de054ec6c6f96c9faaeac16ca3fe6b873cf017380f578a8938a9391909216916331d98b3f916024808301926020929190829003018186803b158015611a3b57600080fd5b505afa158015611a4f573d6000803e3d6000fd5b505050506040513d6020811015611a6557600080fd5b505160408051928352602083019190915281810188905260608201869052519081900360800190a3611a968561370a565b50949350505050565b606654604080516331a9108f60e11b81526004810186905290516001600160a01b0390921691636352211e91602480820192602092909190829003018186803b158015611aeb57600080fd5b505afa158015611aff573d6000803e3d6000fd5b505050506040513d6020811015611b1557600080fd5b50516001600160a01b03858116911614611b76576040805162461bcd60e51b815260206004820152601b60248201527f4c6e50657270657475616c3a206f776e6572206d69736d617463680000000000604482015290519081900360640190fd5b600083815260726020526040902060010154611bc7576040805162461bcd60e51b815260206004820152601f60248201526000805160206138b1833981519152604482015290519081900360640190fd5b600083815260726020526040902060030154611be390836130c6565b600084815260726020526040902060030155611bfe836137eb565b6067546040805163a9059cbb60e01b81526001600160a01b038481166004830152602482018690529151919092169163a9059cbb9160448083019260209291908290030181600087803b158015611c5457600080fd5b505af1158015611c68573d6000803e3d6000fd5b505050506040513d6020811015611c7e57600080fd5b505060408051838152905184916001600160a01b038716917f47e1336b6fdb5f42c3a1d28b558fa98786d820c3705d726358dcc8e63a401eef9181900360200190a3611cc98361370a565b50505050565b600082815260726020526040902060010154611d20576040805162461bcd60e51b815260206004820152601f60248201526000805160206138b1833981519152604482015290519081900360640190fd5b600082815260726020526040902060030154611d3c90826132c2565b60008381526072602090815260408083206003019390935560675483516323b872dd60e01b81526001600160a01b03888116600483015230602483015260448201879052945194909116936323b872dd93606480840194938390030190829087803b158015611daa57600080fd5b505af1158015611dbe573d6000803e3d6000fd5b505050506040513d6020811015611dd457600080fd5b505060408051828152905183916001600160a01b038616917f11f8990ac38271f23dea447d5728e9914fca7cea2edda43af6c43c415f8bc30b9181900360200190a361064f8261370a565b60008060008411611e65576040805162461bcd60e51b815260206004820152601860248201526000805160206139a9833981519152604482015290519081900360640190fd5b60008311611ea8576040805162461bcd60e51b815260206004820152601860248201526000805160206139a9833981519152604482015290519081900360640190fd5b60655460408051631db8b70960e21b81526001600160a01b038981166004830152915191909216916376e2dc249160248083019260209291908290030181600087803b158015611ef757600080fd5b505af1158015611f0b573d6000803e3d6000fd5b505050506040513d6020811015611f2157600080fd5b505191508415611f45576000828152607260205260409020805460ff191660011790555b6000611f5283868661331c565b606954606f54604080516331d98b3f60e01b81526004810192909252519293506001600160a01b03909116916331d98b3f91602480820192602092909190829003018186803b158015611fa457600080fd5b505afa158015611fb8573d6000803e3d6000fd5b505050506040513d6020811015611fce57600080fd5b5051606954606f54604080516331d98b3f60e01b815260048101929092525192945085926001600160a01b038b8116937fb99a2abe5b45cefb534abf84f25e5e17f3f96754e4af750159d055617d19d67a938c938c93909216916331d98b3f91602480820192602092909190829003018186803b15801561204e57600080fd5b505afa158015612062573d6000803e3d6000fd5b505050506040513d602081101561207857600080fd5b50516040805193151584526020840192909252828201526060820189905260808201869052519081900360a00190a36120b08361370a565b5094509492505050565b60008481526072602090815260408083208151608081018352815460ff161515815260018201549381018490526002820154928101929092526003015460608201528291829190612140576040805162461bcd60e51b815260206004820152601f60248201526000805160206138b1833981519152604482015290519081900360640190fd5b8661215157806040015196506121aa565b80604001518711156121aa576040805162461bcd60e51b815260206004820152601d60248201527f4c6e50657270657475616c3a20616d6f756e7420746f6f206c61726765000000604482015290519081900360640190fd5b6000816040015188146121db576121d682604001516112e28a8560200151612ffd90919063ffffffff16565b6121e1565b81602001515b6070549091506121f190826130c6565b607055602082015161220390826130c6565b6020830152604082015161221790896130c6565b604080840191909152606954606f54825163ee52a2f360e01b81526004810191909152602481018b9052631b1554d160e21b604482015291516000926001600160a01b039092169163ee52a2f3916064808301926020929190829003018186803b15801561228457600080fd5b505afa158015612298573d6000803e3d6000fd5b505050506040513d60208110156122ae57600080fd5b5051606554606854604080516305ef855160e51b81526001600160a01b039283166004820152306024820152604481018e9052905193945091169163bdf0aa209160648082019260009290919082900301818387803b15801561231057600080fd5b505af1158015612324573d6000803e3d6000fd5b50505050600061234b670de0b6b3a76400006112e2606c5485612ffd90919063ffffffff16565b965086156124515761235d81886132c2565b6067546065546040805163095ea7b360e01b81526001600160a01b039283166004820152602481018c9052905193945091169163095ea7b3916044808201926020929091908290030181600087803b1580156123b857600080fd5b505af11580156123cc573d6000803e3d6000fd5b505050506040513d60208110156123e257600080fd5b505060655460408051630e639f4f60e31b8152600481018e9052602481018a905290516001600160a01b039092169163731cfa789160448082019260009290919082900301818387803b15801561243857600080fd5b505af115801561244c573d6000803e3d6000fd5b505050505b871561248757612478670de0b6b3a76400006112e2606d5485612ffd90919063ffffffff16565b945061248481866132c2565b90505b82821115612526576065546067546001600160a01b0391821691630c2181dd9116306124b386886130c6565b6040518463ffffffff1660e01b815260040180846001600160a01b03168152602001836001600160a01b031681526020018281526020019350505050600060405180830381600087803b15801561250957600080fd5b505af115801561251d573d6000803e3d6000fd5b505050506125c1565b828210156125c1576065546067546001600160a01b039182169163bdf0aa2091163061255287876130c6565b6040518463ffffffff1660e01b815260040180846001600160a01b03168152602001836001600160a01b031681526020018281526020019350505050600060405180830381600087803b1580156125a857600080fd5b505af11580156125bc573d6000803e3d6000fd5b505050505b6125cb83826132c2565b92508282106125f6576125ec6125e183856130c6565b6060860151906132c2565b6060850152612669565b61260083836130c6565b92508284606001511061261c5760608401516125ec90846130c6565b6040805162461bcd60e51b815260206004820181905260248201527f4c6e50657270657475616c3a2062616e6b72757074656420706f736974696f6e604482015290519081900360640190fd5b606954606f54604080516331d98b3f60e01b81526004810192909252516001600160a01b03909216916331d98b3f91602480820192602092909190829003018186803b1580156126b857600080fd5b505afa1580156126cc573d6000803e3d6000fd5b505050506040513d60208110156126e257600080fd5b505160208501519096501580156126fb57506040840151155b156128cf576060840151156127935760675460608501516040805163a9059cbb60e01b81526001600160a01b038d8116600483015260248201939093529051919092169163a9059cbb9160448083019260209291908290030181600087803b15801561276657600080fd5b505af115801561277a573d6000803e3d6000fd5b505050506040513d602081101561279057600080fd5b50505b876127f257606080850151604080518d8152602081018a90528082018b905292830191909152518c916001600160a01b038f16917f787a5961a32a9db8684de8929b9ecb022629d7e531bd12a613ec80a69b3f24109181900360800190a35b6040805160018152600060208201819052818301819052606082015290518c917fd2e8d4f831d05d0f9c47a901b5b264a173ce2952d4f3c2f7aa03e5bfd217a501919081900360800190a260655460408051632443b22b60e21b8152600481018e905290516001600160a01b039092169163910ec8ac9160248082019260009290919082900301818387803b15801561288a57600080fd5b505af115801561289e573d6000803e3d6000fd5b50505060008c8152607260205260408120805460ff191681556001810182905560028101829055600301555061295d565b60208085015160008d81526072909252604091829020600181019190915590850151600282015560608501516003909101558761295457604080518b81526020810188905280820189905290518c916001600160a01b038f16917f132f674a5e04c98baa80bfc82bfd6b7353cf87b6cf771752f359413dc772ac619181900360600190a35b61295d8b61370a565b50505050955095509592505050565b60008481526072602090815260408083208151608081018352815460ff1615158152600182015493810184905260028201549281019290925260030154606082015282918291906129f2576040805162461bcd60e51b815260206004820152601f60248201526000805160206138b1833981519152604482015290519081900360640190fd5b60008715612a005787612a06565b81602001515b90508160200151811115612a61576040805162461bcd60e51b815260206004820152601d60248201527f4c6e50657270657475616c3a20616d6f756e7420746f6f206c61726765000000604482015290519081900360640190fd5b607154612a6e90826130c6565b607155606954606f546040805163ee52a2f360e01b8152600481019290925260248201849052631b1554d160e21b6044830152516000926001600160a01b03169163ee52a2f3916064808301926020929190829003018186803b158015612ad457600080fd5b505afa158015612ae8573d6000803e3d6000fd5b505050506040513d6020811015612afe57600080fd5b5051606c54909150600090612b2290670de0b6b3a7640000906112e2908590612ffd565b96508615612c2857612b3481886132c2565b6067546065546040805163095ea7b360e01b81526001600160a01b039283166004820152602481018c9052905193945091169163095ea7b3916044808201926020929091908290030181600087803b158015612b8f57600080fd5b505af1158015612ba3573d6000803e3d6000fd5b505050506040513d6020811015612bb957600080fd5b505060655460408051630e639f4f60e31b8152600481018e9052602481018a905290516001600160a01b039092169163731cfa789160448082019260009290919082900301818387803b158015612c0f57600080fd5b505af1158015612c23573d6000803e3d6000fd5b505050505b8715612c5e57612c4f670de0b6b3a76400006112e2606d5485612ffd90919063ffffffff16565b9450612c5b81866132c2565b90505b606554606754604080516305ef855160e51b81526001600160a01b039283166004820152306024820152604481018690529051919092169163bdf0aa2091606480830192600092919082900301818387803b158015612cbc57600080fd5b505af1158015612cd0573d6000803e3d6000fd5b50505050612ce781836132c290919063ffffffff16565b91508184606001511015612d42576040805162461bcd60e51b815260206004820181905260248201527f4c6e50657270657475616c3a2062616e6b72757074656420706f736974696f6e604482015290519081900360640190fd5b6020840151612d5190846130c6565b60208501526060840151612d6590836130c6565b6060850152606954606f54604080516331d98b3f60e01b81526004810192909252516001600160a01b03909216916331d98b3f91602480820192602092909190829003018186803b158015612db957600080fd5b505afa158015612dcd573d6000803e3d6000fd5b505050506040513d6020811015612de357600080fd5b50516020850151909650612f7a57606084015115612e845760675460608501516040805163a9059cbb60e01b81526001600160a01b038d8116600483015260248201939093529051919092169163a9059cbb9160448083019260209291908290030181600087803b158015612e5757600080fd5b505af1158015612e6b573d6000803e3d6000fd5b505050506040513d6020811015612e8157600080fd5b50505b87612ee357606080850151604080518d8152602081018a90528082018b905292830191909152518c916001600160a01b038f16917f787a5961a32a9db8684de8929b9ecb022629d7e531bd12a613ec80a69b3f24109181900360800190a35b60408051600080825260208201819052818301819052606082015290518c917fd2e8d4f831d05d0f9c47a901b5b264a173ce2952d4f3c2f7aa03e5bfd217a501919081900360800190a260655460408051632443b22b60e21b8152600481018e905290516001600160a01b039092169163910ec8ac9160248082019260009290919082900301818387803b15801561288a57600080fd5b60208085015160008d815260729092526040909120600181019190915560608501516003909101558761295457604080518b81526020810188905280820189905290518c916001600160a01b038f16917f132f674a5e04c98baa80bfc82bfd6b7353cf87b6cf771752f359413dc772ac619181900360600190a361295d8b61370a565b60008261300c57506000613059565b8282028284828161301957fe5b04146130565760405162461bcd60e51b81526004018080602001828103825260218152602001806138ff6021913960400191505060405180910390fd5b90505b92915050565b60008082116130b5576040805162461bcd60e51b815260206004820152601a60248201527f536166654d6174683a206469766973696f6e206279207a65726f000000000000604482015290519081900360640190fd5b8183816130be57fe5b049392505050565b60008282111561311d576040805162461bcd60e51b815260206004820152601e60248201527f536166654d6174683a207375627472616374696f6e206f766572666c6f770000604482015290519081900360640190fd5b50900390565b3b151590565b600054610100900460ff168061314257506131426114ef565b80613150575060005460ff16155b61318b5760405162461bcd60e51b815260040180806020018281038252602e8152602001806138d1602e913960400191505060405180910390fd5b600054610100900460ff1615801561159d576000805460ff1961ff00199091166101001716600117905580156115af576000805461ff001916905550565b600054610100900460ff16806131e257506131e26114ef565b806131f0575060005460ff16155b61322b5760405162461bcd60e51b815260040180806020018281038252602e8152602001806138d1602e913960400191505060405180910390fd5b600054610100900460ff16158015613256576000805460ff1961ff0019909116610100171660011790555b60006132606115b2565b603380546001600160a01b0319166001600160a01b038316908117909155604051919250906000907f8be0079c531659141344cd1fd0a4f28419497f9722a3daafe3b4186f6b6457e0908290a35080156115af576000805461ff001916905550565b600082820183811015613056576040805162461bcd60e51b815260206004820152601b60248201527f536166654d6174683a206164646974696f6e206f766572666c6f770000000000604482015290519081900360640190fd5b600083815260726020526040812082156133d057606754606554604080516323b872dd60e01b81526001600160a01b03928316600482015230602482015260448101879052905191909216916323b872dd9160648083019260209291908290030181600087803b15801561338f57600080fd5b505af11580156133a3573d6000803e3d6000fd5b505050506040513d60208110156133b957600080fd5b505060038101546133ca90846132c2565b60038201555b606954606f546040805163ee52a2f360e01b8152600481019290925260248201879052631b1554d160e21b6044830152516000926001600160a01b03169163ee52a2f3916064808301926020929190829003018186803b15801561343357600080fd5b505afa158015613447573d6000803e3d6000fd5b505050506040513d602081101561345d57600080fd5b5051606c5490915061347e90670de0b6b3a7640000906112e2908490612ffd565b9250821561358c57600382015461349590846130c6565b60038301556067546065546040805163095ea7b360e01b81526001600160a01b039283166004820152602481018790529051919092169163095ea7b39160448083019260209291908290030181600087803b1580156134f357600080fd5b505af1158015613507573d6000803e3d6000fd5b505050506040513d602081101561351d57600080fd5b505060655460408051630e639f4f60e31b8152600481018990526024810186905290516001600160a01b039092169163731cfa789160448082019260009290919082900301818387803b15801561357357600080fd5b505af1158015613587573d6000803e3d6000fd5b505050505b815460ff16156136495760018201546135a590826132c2565b600183015560028201546135b990866132c2565b60028301556070546135cb90826132c2565b60705560655460685460408051630c2181dd60e01b81526001600160a01b0392831660048201523060248201526044810189905290519190921691630c2181dd91606480830192600092919082900301818387803b15801561362c57600080fd5b505af1158015613640573d6000803e3d6000fd5b505050506136f8565b600182015461365890866132c2565b6001830155600382015461366c90826132c2565b600383015560715461367e90866132c2565b60715560655460675460408051630c2181dd60e01b81526001600160a01b0392831660048201523060248201526044810185905290519190921691630c2181dd91606480830192600092919082900301818387803b1580156136df57600080fd5b505af11580156136f3573d6000803e3d6000fd5b505050505b613701866137eb565b50509392505050565b6000818152607260209081526040918290208251608081018452815460ff1615158152600182015492810183905260028201549381019390935260030154606083015261378c576040805162461bcd60e51b815260206004820152601f60248201526000805160206138b1833981519152604482015290519081900360640190fd5b8051602080830151604080850151606080870151835196151587529486019390935284820152908301919091525183917fd2e8d4f831d05d0f9c47a901b5b264a173ce2952d4f3c2f7aa03e5bfd217a501919081900360800190a25050565b606a546137f7826115b6565b10156115af5760405162461bcd60e51b815260040180806020018281038252602881526020018061385b6028913960400191505060405180910390fdfe4f776e61626c653a206e6577206f776e657220697320746865207a65726f20616464726573734c6e50657270657475616c3a206d696e20696e6974206d617267696e206e6f7420726561636865644c6e50657270657475616c3a206e6f74206c6f776572207468616e206d61696e74656e616e6365206d617267696e4c6e50657270657475616c3a20706f736974696f6e206e6f7420666f756e6400496e697469616c697a61626c653a20636f6e747261637420697320616c726561647920696e697469616c697a6564536166654d6174683a206d756c7469706c69636174696f6e206f766572666c6f774c6e50657270657475616c3a207a65726f2061646472657373000000000000004f776e61626c653a2063616c6c6572206973206e6f7420746865206f776e65724c6e50657270657475616c3a20696e76616c6964206d696e496e69744d617267696e4c6e50657270657475616c3a20696e76616c6964206c69717569646174696f6e20616d6f756e744c6e50657270657475616c3a207a65726f20616d6f756e740000000000000000a26469706673582212202a51f61b69f87a10ca9894c5b306400f51c684b48be0895885ea63674571f9e964736f6c63430007060033",
  "linkReferences": {},
  "deployedLinkReferences": {}
}