{
  "_format": "hh-sol-artifact-1",
  "contractName": "LnPerpPositionToken",
  "sourceName": "contracts/LnPerpPositionToken.sol",
  "abi": [
    {
      "anonymous": false,
      "inputs": [
        {
          "indexed": true,
          "internalType": "address",
          "name": "owner",
          "type": "address"
        },
        {
          "indexed": true,
          "internalType": "address",
          "name": "approved",
          "type": "address"
        },
        {
          "indexed": true,
          "internalType": "uint256",
          "name": "tokenId",
          "type": "uint256"
        }
      ],
      "name": "Approval",
      "type": "event"
    },
    {
      "anonymous": false,
      "inputs": [
        {
          "indexed": true,
          "internalType": "address",
          "name": "owner",
          "type": "address"
        },
        {
          "indexed": true,
          "internalType": "address",
          "name": "operator",
          "type": "address"
        },
        {
          "indexed": false,
          "internalType": "bool",
          "name": "approved",
          "type": "bool"
        }
      ],
      "name": "ApprovalForAll",
      "type": "event"
    },
    {
      "anonymous": false,
      "inputs": [
        {
          "indexed": true,
          "internalType": "address",
          "name": "previousOwner",
          "type": "address"
        },
        {
          "indexed": true,
          "internalType": "address",
          "name": "newOwner",
          "type": "address"
        }
      ],
      "name": "OwnershipTransferred",
      "type": "event"
    },
    {
      "anonymous": false,
      "inputs": [
        {
          "indexed": true,
          "internalType": "uint256",
          "name": "tokenId",
          "type": "uint256"
        },
        {
          "indexed": true,
          "internalType": "address",
          "name": "perpAddress",
          "type": "address"
        },
        {
          "indexed": true,
          "internalType": "address",
          "name": "to",
          "type": "address"
        }
      ],
      "name": "PositionTokenMinted",
      "type": "event"
    },
    {
      "anonymous": false,
      "inputs": [
        {
          "indexed": true,
          "internalType": "address",
          "name": "from",
          "type": "address"
        },
        {
          "indexed": true,
          "internalType": "address",
          "name": "to",
          "type": "address"
        },
        {
          "indexed": true,
          "internalType": "uint256",
          "name": "tokenId",
          "type": "uint256"
        }
      ],
      "name": "Transfer",
      "type": "event"
    },
    {
      "inputs": [],
      "name": "__LnPerpPositionToken_init",
      "outputs": [],
      "stateMutability": "nonpayable",
      "type": "function"
    },
    {
      "inputs": [
        {
          "internalType": "address",
          "name": "to",
          "type": "address"
        },
        {
          "internalType": "uint256",
          "name": "tokenId",
          "type": "uint256"
        }
      ],
      "name": "approve",
      "outputs": [],
      "stateMutability": "nonpayable",
      "type": "function"
    },
    {
      "inputs": [
        {
          "internalType": "address",
          "name": "owner",
          "type": "address"
        }
      ],
      "name": "balanceOf",
      "outputs": [
        {
          "internalType": "uint256",
          "name": "",
          "type": "uint256"
        }
      ],
      "stateMutability": "view",
      "type": "function"
    },
    {
      "inputs": [],
      "name": "baseURI",
      "outputs": [
        {
          "internalType": "string",
          "name": "",
          "type": "string"
        }
      ],
      "stateMutability": "view",
      "type": "function"
    },
    {
      "inputs": [
        {
          "internalType": "uint256",
          "name": "tokenId",
          "type": "uint256"
        }
      ],
      "name": "burn",
      "outputs": [],
      "stateMutability": "nonpayable",
      "type": "function"
    },
    {
      "inputs": [],
      "name": "burner",
      "outputs": [
        {
          "internalType": "address",
          "name": "",
          "type": "address"
        }
      ],
      "stateMutability": "view",
      "type": "function"
    },
    {
      "inputs": [
        {
          "internalType": "uint256",
          "name": "tokenId",
          "type": "uint256"
        }
      ],
      "name": "getApproved",
      "outputs": [
        {
          "internalType": "address",
          "name": "",
          "type": "address"
        }
      ],
      "stateMutability": "view",
      "type": "function"
    },
    {
      "inputs": [
        {
          "internalType": "address",
          "name": "owner",
          "type": "address"
        },
        {
          "internalType": "address",
          "name": "operator",
          "type": "address"
        }
      ],
      "name": "isApprovedForAll",
      "outputs": [
        {
          "internalType": "bool",
          "name": "",
          "type": "bool"
        }
      ],
      "stateMutability": "view",
      "type": "function"
    },
    {
      "inputs": [],
      "name": "lastPositionId",
      "outputs": [
        {
          "internalType": "uint256",
          "name": "",
          "type": "uint256"
        }
      ],
      "stateMutability": "view",
      "type": "function"
    },
    {
      "inputs": [
        {
          "internalType": "address",
          "name": "perpAddress",
          "type": "address"
        },
        {
          "internalType": "address",
          "name": "to",
          "type": "address"
        }
      ],
      "name": "mint",
      "outputs": [
        {
          "internalType": "uint256",
          "name": "tokenId",
          "type": "uint256"
        }
      ],
      "stateMutability": "nonpayable",
      "type": "function"
    },
    {
      "inputs": [],
      "name": "minter",
      "outputs": [
        {
          "internalType": "address",
          "name": "",
          "type": "address"
        }
      ],
      "stateMutability": "view",
      "type": "function"
    },
    {
      "inputs": [],
      "name": "name",
      "outputs": [
        {
          "internalType": "string",
          "name": "",
          "type": "string"
        }
      ],
      "stateMutability": "view",
      "type": "function"
    },
    {
      "inputs": [],
      "name": "owner",
      "outputs": [
        {
          "internalType": "address",
          "name": "",
          "type": "address"
        }
      ],
      "stateMutability": "view",
      "type": "function"
    },
    {
      "inputs": [
        {
          "internalType": "uint256",
          "name": "tokenId",
          "type": "uint256"
        }
      ],
      "name": "ownerOf",
      "outputs": [
        {
          "internalType": "address",
          "name": "",
          "type": "address"
        }
      ],
      "stateMutability": "view",
      "type": "function"
    },
    {
      "inputs": [
        {
          "internalType": "address",
          "name": "perpAddress",
          "type": "address"
        },
        {
          "internalType": "uint256",
          "name": "positionId",
          "type": "uint256"
        }
      ],
      "name": "positionExists",
      "outputs": [
        {
          "internalType": "bool",
          "name": "",
          "type": "bool"
        }
      ],
      "stateMutability": "view",
      "type": "function"
    },
    {
      "inputs": [
        {
          "internalType": "uint256",
          "name": "",
          "type": "uint256"
        }
      ],
      "name": "positionPerpAddresses",
      "outputs": [
        {
          "internalType": "address",
          "name": "",
          "type": "address"
        }
      ],
      "stateMutability": "view",
      "type": "function"
    },
    {
      "inputs": [],
      "name": "renounceOwnership",
      "outputs": [],
      "stateMutability": "nonpayable",
      "type": "function"
    },
    {
      "inputs": [
        {
          "internalType": "address",
          "name": "from",
          "type": "address"
        },
        {
          "internalType": "address",
          "name": "to",
          "type": "address"
        },
        {
          "internalType": "uint256",
          "name": "tokenId",
          "type": "uint256"
        }
      ],
      "name": "safeTransferFrom",
      "outputs": [],
      "stateMutability": "nonpayable",
      "type": "function"
    },
    {
      "inputs": [
        {
          "internalType": "address",
          "name": "from",
          "type": "address"
        },
        {
          "internalType": "address",
          "name": "to",
          "type": "address"
        },
        {
          "internalType": "uint256",
          "name": "tokenId",
          "type": "uint256"
        },
        {
          "internalType": "bytes",
          "name": "_data",
          "type": "bytes"
        }
      ],
      "name": "safeTransferFrom",
      "outputs": [],
      "stateMutability": "nonpayable",
      "type": "function"
    },
    {
      "inputs": [
        {
          "internalType": "address",
          "name": "operator",
          "type": "address"
        },
        {
          "internalType": "bool",
          "name": "approved",
          "type": "bool"
        }
      ],
      "name": "setApprovalForAll",
      "outputs": [],
      "stateMutability": "nonpayable",
      "type": "function"
    },
    {
      "inputs": [
        {
          "internalType": "address",
          "name": "newBurner",
          "type": "address"
        }
      ],
      "name": "setBurner",
      "outputs": [],
      "stateMutability": "nonpayable",
      "type": "function"
    },
    {
      "inputs": [
        {
          "internalType": "address",
          "name": "newMinter",
          "type": "address"
        }
      ],
      "name": "setMinter",
      "outputs": [],
      "stateMutability": "nonpayable",
      "type": "function"
    },
    {
      "inputs": [
        {
          "internalType": "bytes4",
          "name": "interfaceId",
          "type": "bytes4"
        }
      ],
      "name": "supportsInterface",
      "outputs": [
        {
          "internalType": "bool",
          "name": "",
          "type": "bool"
        }
      ],
      "stateMutability": "view",
      "type": "function"
    },
    {
      "inputs": [],
      "name": "symbol",
      "outputs": [
        {
          "internalType": "string",
          "name": "",
          "type": "string"
        }
      ],
      "stateMutability": "view",
      "type": "function"
    },
    {
      "inputs": [
        {
          "internalType": "uint256",
          "name": "index",
          "type": "uint256"
        }
      ],
      "name": "tokenByIndex",
      "outputs": [
        {
          "internalType": "uint256",
          "name": "",
          "type": "uint256"
        }
      ],
      "stateMutability": "view",
      "type": "function"
    },
    {
      "inputs": [
        {
          "internalType": "address",
          "name": "owner",
          "type": "address"
        },
        {
          "internalType": "uint256",
          "name": "index",
          "type": "uint256"
        }
      ],
      "name": "tokenOfOwnerByIndex",
      "outputs": [
        {
          "internalType": "uint256",
          "name": "",
          "type": "uint256"
        }
      ],
      "stateMutability": "view",
      "type": "function"
    },
    {
      "inputs": [
        {
          "internalType": "uint256",
          "name": "tokenId",
          "type": "uint256"
        }
      ],
      "name": "tokenURI",
      "outputs": [
        {
          "internalType": "string",
          "name": "",
          "type": "string"
        }
      ],
      "stateMutability": "view",
      "type": "function"
    },
    {
      "inputs": [],
      "name": "totalSupply",
      "outputs": [
        {
          "internalType": "uint256",
          "name": "",
          "type": "uint256"
        }
      ],
      "stateMutability": "view",
      "type": "function"
    },
    {
      "inputs": [
        {
          "internalType": "address",
          "name": "from",
          "type": "address"
        },
        {
          "internalType": "address",
          "name": "to",
          "type": "address"
        },
        {
          "internalType": "uint256",
          "name": "tokenId",
          "type": "uint256"
        }
      ],
      "name": "transferFrom",
      "outputs": [],
      "stateMutability": "nonpayable",
      "type": "function"
    },
    {
      "inputs": [
        {
          "internalType": "address",
          "name": "newOwner",
          "type": "address"
        }
      ],
      "name": "transferOwnership",
      "outputs": [],
      "stateMutability": "nonpayable",
      "type": "function"
    }
  ],
  "bytecode": "0x608060405234801561001057600080fd5b50612a74806100206000396000f3fe608060405234801561001057600080fd5b50600436106101da5760003560e01c80636c0360eb11610104578063a22cb465116100a2578063e985e9c511610071578063e985e9c5146105ed578063ee1fe2ad1461061b578063f2fde38b14610649578063fca3b5aa1461066f576101da565b8063a22cb465146104b6578063a996d6ce146104e4578063b88d4fde1461050a578063c87b56dd146105d0576101da565b80638da5cb5b116100de5780638da5cb5b1461047257806395d89b411461047a57806395ed23f0146104825780639c5bfb061461048a576101da565b80636c0360eb1461043c57806370a0823114610444578063715018a61461046a576101da565b806323b872dd1161017c57806342966c681161014b57806342966c68146103dd5780634f6ccce7146103fa57806358354502146104175780636352211e1461041f576101da565b806323b872dd1461033d57806327810b6e146103735780632f745c591461037b57806342842e0e146103a7576101da565b8063081812fc116101b8578063081812fc146102bb578063095ea7b3146102d85780630b98d9e71461030657806318160ddd14610323576101da565b806301ffc9a7146101df57806306fdde031461021a5780630754617214610297575b600080fd5b610206600480360360208110156101f557600080fd5b50356001600160e01b031916610695565b604080519115158252519081900360200190f35b6102226106b8565b6040805160208082528351818301528351919283929083019185019080838360005b8381101561025c578181015183820152602001610244565b50505050905090810190601f1680156102895780820380516001836020036101000a031916815260200191505b509250505060405180910390f35b61029f61074e565b604080516001600160a01b039092168252519081900360200190f35b61029f600480360360208110156102d157600080fd5b503561075d565b610304600480360360408110156102ee57600080fd5b506001600160a01b0381351690602001356107bf565b005b61029f6004803603602081101561031c57600080fd5b503561089a565b61032b6108b5565b60408051918252519081900360200190f35b6103046004803603606081101561035357600080fd5b506001600160a01b038135811691602081013590911690604001356108c6565b61029f61091d565b61032b6004803603604081101561039157600080fd5b506001600160a01b03813516906020013561092c565b610304600480360360608110156103bd57600080fd5b506001600160a01b03813581169160208101359091169060400135610957565b610304600480360360208110156103f357600080fd5b5035610972565b61032b6004803603602081101561041057600080fd5b50356109f8565b61032b610a0e565b61029f6004803603602081101561043557600080fd5b5035610a14565b610222610a3c565b61032b6004803603602081101561045a57600080fd5b50356001600160a01b0316610a9d565b610304610b05565b61029f610bb1565b610222610bc0565b610304610c21565b610206600480360360408110156104a057600080fd5b506001600160a01b038135169060200135610d31565b610304600480360360408110156104cc57600080fd5b506001600160a01b0381351690602001351515610d51565b610304600480360360208110156104fa57600080fd5b50356001600160a01b0316610e56565b6103046004803603608081101561052057600080fd5b6001600160a01b0382358116926020810135909116916040820135919081019060808101606082013564010000000081111561055b57600080fd5b82018360208201111561056d57600080fd5b8035906020019184600183028401116401000000008311171561058f57600080fd5b91908080601f016020809104026020016040519081016040528093929190818152602001838380828437600092019190915250929550610eda945050505050565b610222600480360360208110156105e657600080fd5b5035610f38565b6102066004803603604081101561060357600080fd5b506001600160a01b03813581169160200135166111b9565b61032b6004803603604081101561063157600080fd5b506001600160a01b03813581169160200135166111e7565b6103046004803603602081101561065f57600080fd5b50356001600160a01b03166112cd565b6103046004803603602081101561068557600080fd5b50356001600160a01b03166113d0565b6001600160e01b0319811660009081526033602052604090205460ff165b919050565b606a8054604080516020601f60026000196101006001881615020190951694909404938401819004810282018101909252828152606093909290918301828280156107445780601f1061071957610100808354040283529160200191610744565b820191906000526020600020905b81548152906001019060200180831161072757829003601f168201915b5050505050905090565b60cb546001600160a01b031681565b600061076882611454565b6107a35760405162461bcd60e51b815260040180806020018281038252602c815260200180612949602c913960400191505060405180910390fd5b506000908152606860205260409020546001600160a01b031690565b60006107ca82610a14565b9050806001600160a01b0316836001600160a01b0316141561081d5760405162461bcd60e51b81526004018080602001828103825260218152602001806129ed6021913960400191505060405180910390fd5b806001600160a01b031661082f611461565b6001600160a01b0316148061085057506108508161084b611461565b6111b9565b61088b5760405162461bcd60e51b815260040180806020018281038252603881526020018061286e6038913960400191505060405180910390fd5b6108958383611465565b505050565b60ca602052600090815260409020546001600160a01b031681565b60006108c160666114d3565b905090565b6108d76108d1611461565b826114de565b6109125760405162461bcd60e51b8152600401808060200182810382526031815260200180612a0e6031913960400191505060405180910390fd5b610895838383611582565b60cc546001600160a01b031681565b6001600160a01b038216600090815260656020526040812061094e90836116ce565b90505b92915050565b61089583838360405180602001604052806000815250610eda565b60cc546001600160a01b031633146109d1576040805162461bcd60e51b815260206004820152601f60248201527f4c6e50657270506f736974696f6e546f6b656e3a206e6f74206275726e657200604482015290519081900360640190fd5b6109da816116da565b600090815260ca6020526040902080546001600160a01b0319169055565b600080610a066066846117a7565b509392505050565b60c95481565b6000610951826040518060600160405280602981526020016128d060299139606691906117c3565b606d8054604080516020601f60026000196101006001881615020190951694909404938401819004810282018101909252828152606093909290918301828280156107445780601f1061071957610100808354040283529160200191610744565b60006001600160a01b038216610ae45760405162461bcd60e51b815260040180806020018281038252602a8152602001806128a6602a913960400191505060405180910390fd5b6001600160a01b0382166000908152606560205260409020610951906114d3565b610b0d611461565b6001600160a01b0316610b1e610bb1565b6001600160a01b031614610b67576040805162461bcd60e51b81526020600482018190526024820152600080516020612975833981519152604482015290519081900360640190fd5b6097546040516000916001600160a01b0316907f8be0079c531659141344cd1fd0a4f28419497f9722a3daafe3b4186f6b6457e0908390a3609780546001600160a01b0319169055565b6097546001600160a01b031690565b606b8054604080516020601f60026000196101006001881615020190951694909404938401819004810282018101909252828152606093909290918301828280156107445780601f1061071957610100808354040283529160200191610744565b600054610100900460ff1680610c3a5750610c3a6117da565b80610c48575060005460ff16155b610c835760405162461bcd60e51b815260040180806020018281038252602e8152602001806128f9602e913960400191505060405180910390fd5b600054610100900460ff16158015610cae576000805460ff1961ff0019909116610100171660011790555b610cb66117eb565b610d1c6040518060400160405280601e81526020017f4c696e6561722050657270657475616c20506f736974696f6e73204e465400008152506040518060400160405280600f81526020016e4c494e4541522d504552502d504f5360881b815250611888565b8015610d2e576000805461ff00191690555b50565b600090815260ca60205260409020546001600160a01b0391821691161490565b610d59611461565b6001600160a01b0316826001600160a01b03161415610dbf576040805162461bcd60e51b815260206004820152601960248201527f4552433732313a20617070726f766520746f2063616c6c657200000000000000604482015290519081900360640190fd5b8060696000610dcc611461565b6001600160a01b03908116825260208083019390935260409182016000908120918716808252919093529120805460ff191692151592909217909155610e10611461565b6001600160a01b03167f17307eab39ab6107e8899845ad3d59bd9653f200f220920489ca2b5937696c318360405180821515815260200191505060405180910390a35050565b610e5e611461565b6001600160a01b0316610e6f610bb1565b6001600160a01b031614610eb8576040805162461bcd60e51b81526020600482018190526024820152600080516020612975833981519152604482015290519081900360640190fd5b60cc80546001600160a01b0319166001600160a01b0392909216919091179055565b610eeb610ee5611461565b836114de565b610f265760405162461bcd60e51b8152600401808060200182810382526031815260200180612a0e6031913960400191505060405180910390fd5b610f3284848484611945565b50505050565b6060610f4382611454565b610f7e5760405162461bcd60e51b815260040180806020018281038252602f8152602001806129be602f913960400191505060405180910390fd5b6000828152606c602090815260408083208054825160026001831615610100026000190190921691909104601f8101859004850282018501909352828152929091908301828280156110115780601f10610fe657610100808354040283529160200191611011565b820191906000526020600020905b815481529060010190602001808311610ff457829003601f168201915b505050505090506000611022610a3c565b9050805160001415611036575090506106b3565b8151156110f75780826040516020018083805190602001908083835b602083106110715780518252601f199092019160209182019101611052565b51815160209384036101000a600019018019909216911617905285519190930192850191508083835b602083106110b95780518252601f19909201916020918201910161109a565b6001836020036101000a03801982511681845116808217855250505050505090500192505050604051602081830303815290604052925050506106b3565b8061110185611997565b6040516020018083805190602001908083835b602083106111335780518252601f199092019160209182019101611114565b51815160209384036101000a600019018019909216911617905285519190930192850191508083835b6020831061117b5780518252601f19909201916020918201910161115c565b6001836020036101000a0380198251168184511680821785525050505050509050019250505060405160208183030381529060405292505050919050565b6001600160a01b03918216600090815260696020908152604080832093909416825291909152205460ff1690565b60cb546000906001600160a01b03163314611249576040805162461bcd60e51b815260206004820152601f60248201527f4c6e50657270506f736974696f6e546f6b656e3a206e6f74206d696e74657200604482015290519081900360640190fd5b5060c9805460010190819055600081815260ca6020526040902080546001600160a01b0319166001600160a01b0385161790556112868282611a72565b816001600160a01b0316836001600160a01b0316827f8f47b455b24665366b30742e94071098fb153b11434c82ad0f1e8440d2bccd7260405160405180910390a492915050565b6112d5611461565b6001600160a01b03166112e6610bb1565b6001600160a01b03161461132f576040805162461bcd60e51b81526020600482018190526024820152600080516020612975833981519152604482015290519081900360640190fd5b6001600160a01b0381166113745760405162461bcd60e51b81526004018080602001828103825260268152602001806127f86026913960400191505060405180910390fd5b6097546040516001600160a01b038084169216907f8be0079c531659141344cd1fd0a4f28419497f9722a3daafe3b4186f6b6457e090600090a3609780546001600160a01b0319166001600160a01b0392909216919091179055565b6113d8611461565b6001600160a01b03166113e9610bb1565b6001600160a01b031614611432576040805162461bcd60e51b81526020600482018190526024820152600080516020612975833981519152604482015290519081900360640190fd5b60cb80546001600160a01b0319166001600160a01b0392909216919091179055565b6000610951606683611ba0565b3390565b600081815260686020526040902080546001600160a01b0319166001600160a01b038416908117909155819061149a82610a14565b6001600160a01b03167f8c5be1e5ebec7d5bd14f71427d1e84f3dd0314c0f7b2291e5b200ac8c7c3b92560405160405180910390a45050565b600061095182611bac565b60006114e982611454565b6115245760405162461bcd60e51b815260040180806020018281038252602c815260200180612842602c913960400191505060405180910390fd5b600061152f83610a14565b9050806001600160a01b0316846001600160a01b0316148061156a5750836001600160a01b031661155f8461075d565b6001600160a01b0316145b8061157a575061157a81856111b9565b949350505050565b826001600160a01b031661159582610a14565b6001600160a01b0316146115da5760405162461bcd60e51b81526004018080602001828103825260298152602001806129956029913960400191505060405180910390fd5b6001600160a01b03821661161f5760405162461bcd60e51b815260040180806020018281038252602481526020018061281e6024913960400191505060405180910390fd5b61162a838383610895565b611635600082611465565b6001600160a01b03831660009081526065602052604090206116579082611bb0565b506001600160a01b038216600090815260656020526040902061167a9082611bbc565b5061168760668284611bc8565b5080826001600160a01b0316846001600160a01b03167fddf252ad1be2c89b69c2b068fc378daa952ba7f163c4a11628f55a4df523b3ef60405160405180910390a4505050565b600061094e8383611bde565b60006116e582610a14565b90506116f381600084610895565b6116fe600083611465565b6000828152606c6020526040902054600260001961010060018416150201909116041561173c576000828152606c6020526040812061173c916126be565b6001600160a01b038116600090815260656020526040902061175e9083611bb0565b5061176a606683611c42565b5060405182906000906001600160a01b038416907fddf252ad1be2c89b69c2b068fc378daa952ba7f163c4a11628f55a4df523b3ef908390a45050565b60008080806117b68686611c4e565b9097909650945050505050565b60006117d0848484611cc9565b90505b9392505050565b60006117e530611d93565b15905090565b600054610100900460ff168061180457506118046117da565b80611812575060005460ff16155b61184d5760405162461bcd60e51b815260040180806020018281038252602e8152602001806128f9602e913960400191505060405180910390fd5b600054610100900460ff16158015611878576000805460ff1961ff0019909116610100171660011790555b611880611d99565b610d1c611e39565b600054610100900460ff16806118a157506118a16117da565b806118af575060005460ff16155b6118ea5760405162461bcd60e51b815260040180806020018281038252602e8152602001806128f9602e913960400191505060405180910390fd5b600054610100900460ff16158015611915576000805460ff1961ff0019909116610100171660011790555b61191d611d99565b611925611f32565b61192f8383611fcf565b8015610895576000805461ff0019169055505050565b611950848484611582565b61195c848484846120b4565b610f325760405162461bcd60e51b81526004018080602001828103825260328152602001806127c66032913960400191505060405180910390fd5b6060816119bc57506040805180820190915260018152600360fc1b60208201526106b3565b8160005b81156119d457600101600a820491506119c0565b60008167ffffffffffffffff811180156119ed57600080fd5b506040519080825280601f01601f191660200182016040528015611a18576020820181803683370190505b50859350905060001982015b8315611a6957600a840660300160f81b82828060019003935081518110611a4757fe5b60200101906001600160f81b031916908160001a905350600a84049350611a24565b50949350505050565b6001600160a01b038216611acd576040805162461bcd60e51b815260206004820181905260248201527f4552433732313a206d696e7420746f20746865207a65726f2061646472657373604482015290519081900360640190fd5b611ad681611454565b15611b28576040805162461bcd60e51b815260206004820152601c60248201527f4552433732313a20746f6b656e20616c7265616479206d696e74656400000000604482015290519081900360640190fd5b611b3460008383610895565b6001600160a01b0382166000908152606560205260409020611b569082611bbc565b50611b6360668284611bc8565b5060405181906001600160a01b038416906000907fddf252ad1be2c89b69c2b068fc378daa952ba7f163c4a11628f55a4df523b3ef908290a45050565b600061094e838361221c565b5490565b600061094e8383612234565b600061094e83836122fa565b60006117d084846001600160a01b038516612344565b81546000908210611c205760405162461bcd60e51b81526004018080602001828103825260228152602001806127a46022913960400191505060405180910390fd5b826000018281548110611c2f57fe5b9060005260206000200154905092915050565b600061094e83836123db565b815460009081908310611c925760405162461bcd60e51b81526004018080602001828103825260228152602001806129276022913960400191505060405180910390fd5b6000846000018481548110611ca357fe5b906000526020600020906002020190508060000154816001015492509250509250929050565b60008281526001840160205260408120548281611d645760405162461bcd60e51b81526004018080602001828103825283818151815260200191508051906020019080838360005b83811015611d29578181015183820152602001611d11565b50505050905090810190601f168015611d565780820380516001836020036101000a031916815260200191505b509250505060405180910390fd5b50846000016001820381548110611d7757fe5b9060005260206000209060020201600101549150509392505050565b3b151590565b600054610100900460ff1680611db25750611db26117da565b80611dc0575060005460ff16155b611dfb5760405162461bcd60e51b815260040180806020018281038252602e8152602001806128f9602e913960400191505060405180910390fd5b600054610100900460ff16158015610d1c576000805460ff1961ff0019909116610100171660011790558015610d2e576000805461ff001916905550565b600054610100900460ff1680611e525750611e526117da565b80611e60575060005460ff16155b611e9b5760405162461bcd60e51b815260040180806020018281038252602e8152602001806128f9602e913960400191505060405180910390fd5b600054610100900460ff16158015611ec6576000805460ff1961ff0019909116610100171660011790555b6000611ed0611461565b609780546001600160a01b0319166001600160a01b038316908117909155604051919250906000907f8be0079c531659141344cd1fd0a4f28419497f9722a3daafe3b4186f6b6457e0908290a3508015610d2e576000805461ff001916905550565b600054610100900460ff1680611f4b5750611f4b6117da565b80611f59575060005460ff16155b611f945760405162461bcd60e51b815260040180806020018281038252602e8152602001806128f9602e913960400191505060405180910390fd5b600054610100900460ff16158015611fbf576000805460ff1961ff0019909116610100171660011790555b610d1c6301ffc9a760e01b6124af565b600054610100900460ff1680611fe85750611fe86117da565b80611ff6575060005460ff16155b6120315760405162461bcd60e51b815260040180806020018281038252602e8152602001806128f9602e913960400191505060405180910390fd5b600054610100900460ff1615801561205c576000805460ff1961ff0019909116610100171660011790555b825161206f90606a906020860190612702565b50815161208390606b906020850190612702565b506120946380ac58cd60e01b6124af565b6120a4635b5e139f60e01b6124af565b61192f63780e9d6360e01b6124af565b60006120c8846001600160a01b0316611d93565b6120d45750600161157a565b60006121e2630a85bd0160e11b6120e9611461565b88878760405160240180856001600160a01b03168152602001846001600160a01b0316815260200183815260200180602001828103825283818151815260200191508051906020019080838360005b83811015612150578181015183820152602001612138565b50505050905090810190601f16801561217d5780820380516001836020036101000a031916815260200191505b5095505050505050604051602081830303815290604052906001600160e01b0319166020820180516001600160e01b0383818316178352505050506040518060600160405280603281526020016127c6603291396001600160a01b0388169190612533565b905060008180602001905160208110156121fb57600080fd5b50516001600160e01b031916630a85bd0160e11b1492505050949350505050565b60009081526001919091016020526040902054151590565b600081815260018301602052604081205480156122f0578354600019808301919081019060009087908390811061226757fe5b906000526020600020015490508087600001848154811061228457fe5b6000918252602080832090910192909255828152600189810190925260409020908401905586548790806122b457fe5b60019003818190600052602060002001600090559055866001016000878152602001908152602001600020600090556001945050505050610951565b6000915050610951565b6000612306838361221c565b61233c57508154600181810184556000848152602080822090930184905584548482528286019093526040902091909155610951565b506000610951565b6000828152600184016020526040812054806123a95750506040805180820182528381526020808201848152865460018181018955600089815284812095516002909302909501918255915190820155865486845281880190925292909120556117d3565b828560000160018303815481106123bc57fe5b90600052602060002090600202016001018190555060009150506117d3565b600081815260018301602052604081205480156122f0578354600019808301919081019060009087908390811061240e57fe5b906000526020600020906002020190508087600001848154811061242e57fe5b60009182526020808320845460029093020191825560019384015491840191909155835482528983019052604090209084019055865487908061246d57fe5b60008281526020808220600260001990940193840201828155600190810183905592909355888152898201909252604082209190915594506109519350505050565b6001600160e01b0319808216141561250e576040805162461bcd60e51b815260206004820152601c60248201527f4552433136353a20696e76616c696420696e7465726661636520696400000000604482015290519081900360640190fd5b6001600160e01b0319166000908152603360205260409020805460ff19166001179055565b60606117d084846000858561254785611d93565b612598576040805162461bcd60e51b815260206004820152601d60248201527f416464726573733a2063616c6c20746f206e6f6e2d636f6e7472616374000000604482015290519081900360640190fd5b600080866001600160a01b031685876040518082805190602001908083835b602083106125d65780518252601f1990920191602091820191016125b7565b6001836020036101000a03801982511681845116808217855250505050505090500191505060006040518083038185875af1925050503d8060008114612638576040519150601f19603f3d011682016040523d82523d6000602084013e61263d565b606091505b509150915061264d828286612658565b979650505050505050565b606083156126675750816117d3565b8251156126775782518084602001fd5b60405162461bcd60e51b8152602060048201818152845160248401528451859391928392604401919085019080838360008315611d29578181015183820152602001611d11565b50805460018160011615610100020316600290046000825580601f106126e45750610d2e565b601f016020900490600052602060002090810190610d2e919061278e565b828054600181600116156101000203166002900490600052602060002090601f016020900481019282612738576000855561277e565b82601f1061275157805160ff191683800117855561277e565b8280016001018555821561277e579182015b8281111561277e578251825591602001919060010190612763565b5061278a92915061278e565b5090565b5b8082111561278a576000815560010161278f56fe456e756d657261626c655365743a20696e646578206f7574206f6620626f756e64734552433732313a207472616e7366657220746f206e6f6e20455243373231526563656976657220696d706c656d656e7465724f776e61626c653a206e6577206f776e657220697320746865207a65726f20616464726573734552433732313a207472616e7366657220746f20746865207a65726f20616464726573734552433732313a206f70657261746f7220717565727920666f72206e6f6e6578697374656e7420746f6b656e4552433732313a20617070726f76652063616c6c6572206973206e6f74206f776e6572206e6f7220617070726f76656420666f7220616c6c4552433732313a2062616c616e636520717565727920666f7220746865207a65726f20616464726573734552433732313a206f776e657220717565727920666f72206e6f6e6578697374656e7420746f6b656e496e697469616c697a61626c653a20636f6e747261637420697320616c726561647920696e697469616c697a6564456e756d657261626c654d61703a20696e646578206f7574206f6620626f756e64734552433732313a20617070726f76656420717565727920666f72206e6f6e6578697374656e7420746f6b656e4f776e61626c653a2063616c6c6572206973206e6f7420746865206f776e65724552433732313a207472616e73666572206f6620746f6b656e2074686174206973206e6f74206f776e4552433732314d657461646174613a2055524920717565727920666f72206e6f6e6578697374656e7420746f6b656e4552433732313a20617070726f76616c20746f2063757272656e74206f776e65724552433732313a207472616e736665722063616c6c6572206973206e6f74206f776e6572206e6f7220617070726f766564a26469706673582212205aec37f64b738e15c8e7aaefca03d8dd2028a4538adab85112b7bba6d49224d964736f6c63430007060033",
  "linkReferences": {},
  "deployedLinkReferences": {}
}