{
  "_format": "hh-sol-artifact-1",
  "contractName": "LnRewardLocker",
  "sourceName": "contracts/LnRewardLocker.sol",
  "abi": [
    {
      "anonymous": false,
      "inputs": [
        {
          "indexed": false,
          "internalType": "address",
          "name": "oldAdmin",
          "type": "address"
        },
        {
          "indexed": false,
          "internalType": "address",
          "name": "newAdmin",
          "type": "address"
        }
      ],
      "name": "AdminChanged",
      "type": "event"
    },
    {
      "anonymous": false,
      "inputs": [
        {
          "indexed": false,
          "internalType": "address",
          "name": "oldCandidate",
          "type": "address"
        },
        {
          "indexed": false,
          "internalType": "address",
          "name": "newCandidate",
          "type": "address"
        }
      ],
      "name": "CandidateChanged",
      "type": "event"
    },
    {
      "anonymous": false,
      "inputs": [
        {
          "indexed": false,
          "internalType": "uint256",
          "name": "entryId",
          "type": "uint256"
        },
        {
          "indexed": false,
          "internalType": "uint256",
          "name": "oldAmount",
          "type": "uint256"
        },
        {
          "indexed": false,
          "internalType": "uint256",
          "name": "newAmount",
          "type": "uint256"
        }
      ],
      "name": "RewardAmountChanged",
      "type": "event"
    },
    {
      "anonymous": false,
      "inputs": [
        {
          "indexed": false,
          "internalType": "uint256",
          "name": "entryId",
          "type": "uint256"
        },
        {
          "indexed": false,
          "internalType": "address",
          "name": "user",
          "type": "address"
        },
        {
          "indexed": false,
          "internalType": "uint256",
          "name": "amount",
          "type": "uint256"
        },
        {
          "indexed": false,
          "internalType": "uint256",
          "name": "unlockTime",
          "type": "uint256"
        }
      ],
      "name": "RewardEntryAdded",
      "type": "event"
    },
    {
      "anonymous": false,
      "inputs": [
        {
          "indexed": false,
          "internalType": "uint256",
          "name": "entryId",
          "type": "uint256"
        }
      ],
      "name": "RewardEntryRemoved",
      "type": "event"
    },
    {
      "anonymous": false,
      "inputs": [
        {
          "indexed": false,
          "internalType": "uint256",
          "name": "entryId",
          "type": "uint256"
        },
        {
          "indexed": false,
          "internalType": "address",
          "name": "user",
          "type": "address"
        },
        {
          "indexed": false,
          "internalType": "uint256",
          "name": "amount",
          "type": "uint256"
        }
      ],
      "name": "RewardEntryUnlocked",
      "type": "event"
    },
    {
      "inputs": [
        {
          "internalType": "address",
          "name": "_admin",
          "type": "address"
        }
      ],
      "name": "__LnAdminUpgradeable_init",
      "outputs": [],
      "stateMutability": "nonpayable",
      "type": "function"
    },
    {
      "inputs": [
        {
          "internalType": "address",
          "name": "_linaTokenAddr",
          "type": "address"
        },
        {
          "internalType": "contract ILnAccessControl",
          "name": "_accessCtrl",
          "type": "address"
        },
        {
          "internalType": "address",
          "name": "_admin",
          "type": "address"
        }
      ],
      "name": "__LnRewardLocker_init",
      "outputs": [],
      "stateMutability": "nonpayable",
      "type": "function"
    },
    {
      "inputs": [],
      "name": "accessCtrl",
      "outputs": [
        {
          "internalType": "contract ILnAccessControl",
          "name": "",
          "type": "address"
        }
      ],
      "stateMutability": "view",
      "type": "function"
    },
    {
      "inputs": [
        {
          "internalType": "address",
          "name": "user",
          "type": "address"
        },
        {
          "internalType": "uint256",
          "name": "amount",
          "type": "uint256"
        },
        {
          "internalType": "uint256",
          "name": "unlockTime",
          "type": "uint256"
        }
      ],
      "name": "addReward",
      "outputs": [],
      "stateMutability": "nonpayable",
      "type": "function"
    },
    {
      "inputs": [],
      "name": "admin",
      "outputs": [
        {
          "internalType": "address",
          "name": "",
          "type": "address"
        }
      ],
      "stateMutability": "view",
      "type": "function"
    },
    {
      "inputs": [
        {
          "internalType": "address",
          "name": "user",
          "type": "address"
        }
      ],
      "name": "balanceOf",
      "outputs": [
        {
          "internalType": "uint256",
          "name": "",
          "type": "uint256"
        }
      ],
      "stateMutability": "view",
      "type": "function"
    },
    {
      "inputs": [],
      "name": "becomeAdmin",
      "outputs": [],
      "stateMutability": "nonpayable",
      "type": "function"
    },
    {
      "inputs": [],
      "name": "candidate",
      "outputs": [
        {
          "internalType": "address",
          "name": "",
          "type": "address"
        }
      ],
      "stateMutability": "view",
      "type": "function"
    },
    {
      "inputs": [],
      "name": "collateralSystemAddr",
      "outputs": [
        {
          "internalType": "address",
          "name": "",
          "type": "address"
        }
      ],
      "stateMutability": "view",
      "type": "function"
    },
    {
      "inputs": [],
      "name": "lastRewardEntryId",
      "outputs": [
        {
          "internalType": "uint256",
          "name": "",
          "type": "uint256"
        }
      ],
      "stateMutability": "view",
      "type": "function"
    },
    {
      "inputs": [],
      "name": "linaTokenAddr",
      "outputs": [
        {
          "internalType": "address",
          "name": "",
          "type": "address"
        }
      ],
      "stateMutability": "view",
      "type": "function"
    },
    {
      "inputs": [
        {
          "internalType": "address",
          "name": "",
          "type": "address"
        }
      ],
      "name": "lockedAmountByAddresses",
      "outputs": [
        {
          "internalType": "uint256",
          "name": "",
          "type": "uint256"
        }
      ],
      "stateMutability": "view",
      "type": "function"
    },
    {
      "inputs": [
        {
          "internalType": "address[]",
          "name": "users",
          "type": "address[]"
        },
        {
          "internalType": "uint256[]",
          "name": "amounts",
          "type": "uint256[]"
        },
        {
          "internalType": "uint256[]",
          "name": "unlockTimes",
          "type": "uint256[]"
        }
      ],
      "name": "migrateRewards",
      "outputs": [],
      "stateMutability": "nonpayable",
      "type": "function"
    },
    {
      "inputs": [
        {
          "internalType": "address",
          "name": "from",
          "type": "address"
        },
        {
          "internalType": "address",
          "name": "recipient",
          "type": "address"
        },
        {
          "internalType": "uint256",
          "name": "amount",
          "type": "uint256"
        },
        {
          "internalType": "uint256[]",
          "name": "rewardEntryIds",
          "type": "uint256[]"
        }
      ],
      "name": "moveReward",
      "outputs": [],
      "stateMutability": "nonpayable",
      "type": "function"
    },
    {
      "inputs": [
        {
          "internalType": "address",
          "name": "from",
          "type": "address"
        },
        {
          "internalType": "address",
          "name": "recipient1",
          "type": "address"
        },
        {
          "internalType": "uint256",
          "name": "amount1",
          "type": "uint256"
        },
        {
          "internalType": "address",
          "name": "recipient2",
          "type": "address"
        },
        {
          "internalType": "uint256",
          "name": "amount2",
          "type": "uint256"
        },
        {
          "internalType": "uint256[]",
          "name": "rewardEntryIds",
          "type": "uint256[]"
        }
      ],
      "name": "moveRewardProRata",
      "outputs": [],
      "stateMutability": "nonpayable",
      "type": "function"
    },
    {
      "inputs": [
        {
          "internalType": "uint256",
          "name": "",
          "type": "uint256"
        },
        {
          "internalType": "address",
          "name": "",
          "type": "address"
        }
      ],
      "name": "rewardEntries",
      "outputs": [
        {
          "internalType": "uint216",
          "name": "amount",
          "type": "uint216"
        },
        {
          "internalType": "uint40",
          "name": "unlockTime",
          "type": "uint40"
        }
      ],
      "stateMutability": "view",
      "type": "function"
    },
    {
      "inputs": [],
      "name": "rewarderAddress",
      "outputs": [
        {
          "internalType": "address",
          "name": "",
          "type": "address"
        }
      ],
      "stateMutability": "view",
      "type": "function"
    },
    {
      "inputs": [
        {
          "internalType": "address",
          "name": "_candidate",
          "type": "address"
        }
      ],
      "name": "setCandidate",
      "outputs": [],
      "stateMutability": "nonpayable",
      "type": "function"
    },
    {
      "inputs": [],
      "name": "totalLockedAmount",
      "outputs": [
        {
          "internalType": "uint256",
          "name": "",
          "type": "uint256"
        }
      ],
      "stateMutability": "view",
      "type": "function"
    },
    {
      "inputs": [
        {
          "internalType": "address",
          "name": "user",
          "type": "address"
        },
        {
          "internalType": "uint256",
          "name": "rewardEntryId",
          "type": "uint256"
        }
      ],
      "name": "unlockReward",
      "outputs": [],
      "stateMutability": "nonpayable",
      "type": "function"
    },
    {
      "inputs": [
        {
          "internalType": "address[]",
          "name": "users",
          "type": "address[]"
        },
        {
          "internalType": "uint256[]",
          "name": "rewardEntryIds",
          "type": "uint256[]"
        }
      ],
      "name": "unlockRewards",
      "outputs": [],
      "stateMutability": "nonpayable",
      "type": "function"
    },
    {
      "inputs": [
        {
          "internalType": "address",
          "name": "_collateralSystemAddr",
          "type": "address"
        }
      ],
      "name": "updateCollateralSystemAddress",
      "outputs": [],
      "stateMutability": "nonpayable",
      "type": "function"
    },
    {
      "inputs": [
        {
          "internalType": "address",
          "name": "_rewarderAddress",
          "type": "address"
        }
      ],
      "name": "updateRewarderAddress",
      "outputs": [],
      "stateMutability": "nonpayable",
      "type": "function"
    }
  ],
  "bytecode": "0x608060405234801561001057600080fd5b5061205d806100206000396000f3fe608060405234801561001057600080fd5b506004361061014d5760003560e01c806381268c1b116100c3578063cf628b7e1161007c578063cf628b7e1461058f578063dfeec0fb14610628578063e0e2b2b314610630578063e21d883d14610638578063e228975c1461065e578063f851a440146106845761014d565b806381268c1b1461043e57806388d67c92146104465780638e118b83146104d45780639ace17ba146104fa578063b0b6775614610532578063cd469224146105875761014d565b806325971dff1161011557806325971dff1461020a578063350054a61461021257806344ea559a146103205780636c8381f8146103525780636f77b3201461035a57806370a08231146104185761014d565b806305a9f2741461015257806305e7771e1461016c57806307880b7f146101945780631631eb07146101ba57806319a69a1b146101e6575b600080fd5b61015a61068c565b60408051918252519081900360200190f35b6101926004803603602081101561018257600080fd5b50356001600160a01b0316610692565b005b610192600480360360208110156101aa57600080fd5b50356001600160a01b0316610748565b610192600480360360408110156101d057600080fd5b506001600160a01b0381351690602001356107f9565b6101ee610807565b604080516001600160a01b039092168252519081900360200190f35b610192610816565b6101926004803603606081101561022857600080fd5b810190602081018135600160201b81111561024257600080fd5b82018360208201111561025457600080fd5b803590602001918460208302840111600160201b8311171561027557600080fd5b919390929091602081019035600160201b81111561029257600080fd5b8201836020820111156102a457600080fd5b803590602001918460208302840111600160201b831117156102c557600080fd5b919390929091602081019035600160201b8111156102e257600080fd5b8201836020820111156102f457600080fd5b803590602001918460208302840111600160201b8311171561031557600080fd5b5090925090506108d2565b6101926004803603606081101561033657600080fd5b506001600160a01b038135169060208101359060400135610a38565b6101ee610b0e565b6101926004803603604081101561037057600080fd5b810190602081018135600160201b81111561038a57600080fd5b82018360208201111561039c57600080fd5b803590602001918460208302840111600160201b831117156103bd57600080fd5b919390929091602081019035600160201b8111156103da57600080fd5b8201836020820111156103ec57600080fd5b803590602001918460208302840111600160201b8311171561040d57600080fd5b509092509050610b1d565b61015a6004803603602081101561042e57600080fd5b50356001600160a01b0316610bac565b6101ee610bc7565b6101926004803603608081101561045c57600080fd5b6001600160a01b03823581169260208101359091169160408201359190810190608081016060820135600160201b81111561049657600080fd5b8201836020820111156104a857600080fd5b803590602001918460208302840111600160201b831117156104c957600080fd5b509092509050610bd6565b610192600480360360208110156104ea57600080fd5b50356001600160a01b0316610cac565b6101926004803603606081101561051057600080fd5b506001600160a01b038135811691602081013582169160409091013516610e0b565b61055e6004803603604081101561054857600080fd5b50803590602001356001600160a01b0316610f9f565b604080516001600160d81b03909316835264ffffffffff90911660208301528051918290030190f35b6101ee610fd5565b610192600480360360c08110156105a557600080fd5b6001600160a01b03823581169260208101358216926040820135926060830135169160808101359181019060c0810160a0820135600160201b8111156105ea57600080fd5b8201836020820111156105fc57600080fd5b803590602001918460208302840111600160201b8311171561061d57600080fd5b509092509050610fe4565b61015a6110b9565b6101ee6110bf565b61015a6004803603602081101561064e57600080fd5b50356001600160a01b03166110ce565b6101926004803603602081101561067457600080fd5b50356001600160a01b03166110e0565b6101ee611196565b60355481565b6000546201000090046001600160a01b031633146106e15760405162461bcd60e51b8152600401808060200182810382526043815260200180611f2a6043913960600191505060405180910390fd5b6001600160a01b0381166107265760405162461bcd60e51b8152600401808060200182810382526037815260200180611e376037913960400191505060405180910390fd5b603880546001600160a01b0319166001600160a01b0392909216919091179055565b6000546201000090046001600160a01b031633146107975760405162461bcd60e51b8152600401808060200182810382526043815260200180611f2a6043913960600191505060405180910390fd5b600180546001600160a01b038381166001600160a01b0319831617928390556040805192821680845293909116602083015280517f7f730391c4f0fa1bea34bcb9bff8c30a079b21a0359759160cb990648ab84c729281900390910190a15050565b61080382826111ab565b5050565b6036546001600160a01b031681565b6001546001600160a01b0316331461085f5760405162461bcd60e51b8152600401808060200182810382526033815260200180611ddd6033913960400191505060405180910390fd5b600080546001546001600160a01b039081166201000090810262010000600160b01b03198416179384905560408051938290048316808552919094049091166020830152825190927f7e644d79422f17c01e4894b5f4f588d331ebfa28653d42ae832dc59e38c9798f928290030190a150565b6000546201000090046001600160a01b031633146109215760405162461bcd60e51b8152600401808060200182810382526043815260200180611f2a6043913960600191505060405180910390fd5b84610973576040805162461bcd60e51b815260206004820152601b60248201527f4c6e5265776172644c6f636b65723a20656d7074792061727261790000000000604482015290519081900360640190fd5b848314801561098157508281145b6109d2576040805162461bcd60e51b815260206004820152601f60248201527f4c6e5265776172644c6f636b65723a206c656e677468206d69736d6174636800604482015290519081900360640190fd5b60005b85811015610a2f57610a278787838181106109ec57fe5b905060200201356001600160a01b0316868684818110610a0857fe5b90506020020135858585818110610a1b57fe5b9050602002013561154e565b6001016109d5565b50505050505050565b60375460408051632474521560e21b81526a1313d0d2d7d49155d0549160aa1b600482015233602482015290516001600160a01b03909216916391d1485491604480820192602092909190829003018186803b158015610a9757600080fd5b505afa158015610aab573d6000803e3d6000fd5b505050506040513d6020811015610ac157600080fd5b5051610afe5760405162461bcd60e51b8152600401808060200182810382526024815260200180611d636024913960400191505060405180910390fd5b610b0983838361154e565b505050565b6001546001600160a01b031681565b828114610b5b5760405162461bcd60e51b8152600401808060200182810382526025815260200180611db86025913960400191505060405180910390fd5b60005b83811015610ba557610b9d858583818110610b7557fe5b905060200201356001600160a01b0316848484818110610b9157fe5b905060200201356111ab565b600101610b5e565b5050505050565b6001600160a01b031660009081526034602052604090205490565b6037546001600160a01b031681565b60375460408051632474521560e21b81526a1353d59157d49155d0549160aa1b600482015233602482015290516001600160a01b03909216916391d1485491604480820192602092909190829003018186803b158015610c3557600080fd5b505afa158015610c49573d6000803e3d6000fd5b505050506040513d6020811015610c5f57600080fd5b5051610c9c5760405162461bcd60e51b81526004018080602001828103825260248152602001806120046024913960400191505060405180910390fd5b610ba58585856000808787611739565b600054610100900460ff1680610cc55750610cc56118e3565b80610cd3575060005460ff16155b610d0e5760405162461bcd60e51b815260040180806020018281038252602e815260200180611e6e602e913960400191505060405180910390fd5b600054610100900460ff16158015610d39576000805460ff1961ff0019909116610100171660011790555b6001600160a01b038216610d94576040805162461bcd60e51b815260206004820181905260248201527f4c6e41646d696e5570677261646561626c653a207a65726f2061646472657373604482015290519081900360640190fd5b6000805462010000600160b01b031916620100006001600160a01b03851690810291909117825560408051928352602083019190915280517f7e644d79422f17c01e4894b5f4f588d331ebfa28653d42ae832dc59e38c9798f9281900390910190a18015610803576000805461ff00191690555050565b600054610100900460ff1680610e245750610e246118e3565b80610e32575060005460ff16155b610e6d5760405162461bcd60e51b815260040180806020018281038252602e815260200180611e6e602e913960400191505060405180910390fd5b600054610100900460ff16158015610e98576000805460ff1961ff0019909116610100171660011790555b610ea182610cac565b6001600160a01b038416610efc576040805162461bcd60e51b815260206004820152601c60248201527f4c6e5265776172644c6f636b65723a207a65726f206164647265737300000000604482015290519081900360640190fd5b6001600160a01b038316610f57576040805162461bcd60e51b815260206004820152601c60248201527f4c6e5265776172644c6f636b65723a207a65726f206164647265737300000000604482015290519081900360640190fd5b603680546001600160a01b038087166001600160a01b03199283161790925560378054928616929091169190911790558015610f99576000805461ff00191690555b50505050565b60336020908152600092835260408084209091529082529020546001600160d81b03811690600160d81b900464ffffffffff1682565b6038546001600160a01b031681565b60375460408051632474521560e21b81526a1353d59157d49155d0549160aa1b600482015233602482015290516001600160a01b03909216916391d1485491604480820192602092909190829003018186803b15801561104357600080fd5b505afa158015611057573d6000803e3d6000fd5b505050506040513d602081101561106d57600080fd5b50516110aa5760405162461bcd60e51b81526004018080602001828103825260248152602001806120046024913960400191505060405180910390fd5b610a2f87878787878787611739565b60325481565b6039546001600160a01b031681565b60346020526000908152604090205481565b6000546201000090046001600160a01b0316331461112f5760405162461bcd60e51b8152600401808060200182810382526043815260200180611f2a6043913960600191505060405180910390fd5b6001600160a01b0381166111745760405162461bcd60e51b815260040180806020018281038252602e815260200180611d35602e913960400191505060405180910390fd5b603980546001600160a01b0319166001600160a01b0392909216919091179055565b6000546201000090046001600160a01b031681565b6039546001600160a01b03166111f25760405162461bcd60e51b8152600401808060200182810382526028815260200180611fdc6028913960400191505060405180910390fd5b6038546001600160a01b03166112395760405162461bcd60e51b8152600401808060200182810382526031815260200180611d876031913960400191505060405180910390fd5b60008181526033602090815260408083206001600160a01b03861684528252918290208251808401909352546001600160d81b038116808452600160d81b90910464ffffffffff16918301919091526112c35760405162461bcd60e51b815260040180806020018281038252603d815260200180611f6d603d913960400191505060405180910390fd5b806020015164ffffffffff1642101561130d5760405162461bcd60e51b8152600401808060200182810382526027815260200180611e106027913960400191505060405180910390fd5b6039546001600160a01b03163014156113b05760365460385482516040805163095ea7b360e01b81526001600160a01b0393841660048201526001600160d81b03909216602483015251919092169163095ea7b39160448083019260209291908290030181600087803b15801561138357600080fd5b505af1158015611397573d6000803e3d6000fd5b505050506040513d60208110156113ad57600080fd5b50505b603854603954825160408051632b53acab60e01b81526001600160a01b0388811660048301529384166024820152634c494e4160e01b60448201526001600160d81b039092166064830152519190921691632b53acab91608480830192600092919082900301818387803b15801561142757600080fd5b505af115801561143b573d6000803e3d6000fd5b505082516001600160a01b03861660009081526034602052604090205461146d935091506001600160d81b03166118f4565b6001600160a01b038416600090815260346020526040902055805160355461149d916001600160d81b03166118f4565b6035558051604080518481526001600160a01b03861660208201526001600160d81b0390921682820152517f7abf42b8703b078d524af8ae3db2e27d5da0632b6265e161803e78b4f6536f599181900360600190a160008281526033602090815260408083206001600160a01b0387168452825280832092909255815184815291517f3a4184732b5b7b70d5cf3e415cdbc9d202e6b294b82b9e61e536bc76afb12dbc9281900390910190a1505050565b600082116115a3576040805162461bcd60e51b815260206004820152601b60248201527f4c6e5265776172644c6f636b65723a207a65726f20616d6f756e740000000000604482015290519081900360640190fd5b81816001600160d81b03821682146115ec5760405162461bcd60e51b8152600401808060200182810382526026815260200180611ee16026913960400191505060405180910390fd5b828164ffffffffff16146116315760405162461bcd60e51b8152600401808060200182810382526024815260200180611e9c6024913960400191505060405180910390fd5b60328054600101908190556040805180820182526001600160d81b03858116825264ffffffffff85811660208085019182526000968752603381528587206001600160a01b038d16885281528587209451855492516001600160d81b031990931690851617909316600160d81b919092160217909155603490529020546116b89085611956565b6001600160a01b0386166000908152603460205260409020556035546116de9085611956565b603555603254604080519182526001600160a01b038716602083015281810186905260608201859052517f845ade075be5216c191d7e445d78bee074ca83508e3d734d19a8ac612bd004dd9181900360800190a15050505050565b60006117458685611956565b905060008111801561176f57506001600160a01b0388166000908152603460205260409020548111155b6117aa5760405162461bcd60e51b8152600401808060200182810382526023815260200180611f076023913960400191505060405180910390fd5b6001600160a01b0388166000908152603460205260409020546117cd90826118f4565b6001600160a01b038916600090815260346020526040812091909155869085905b8481101561188f57600086868381811061180457fe5b90506020020135905061186a6040518061010001604052808e6001600160a01b031681526020018d6001600160a01b031681526020018c81526020018b6001600160a01b031681526020018a8152602001838152602001868152602001858152506119b7565b90945092508315801561187b575082155b15611886575061188f565b506001016117ee565b508115801561189c575080155b6118d75760405162461bcd60e51b8152600401808060200182810382526032815260200180611faa6032913960400191505060405180910390fd5b50505050505050505050565b60006118ee30611c58565b15905090565b60008282111561194b576040805162461bcd60e51b815260206004820152601e60248201527f536166654d6174683a207375627472616374696f6e206f766572666c6f770000604482015290519081900360640190fd5b508082035b92915050565b6000828201838110156119b0576040805162461bcd60e51b815260206004820152601b60248201527f536166654d6174683a206164646974696f6e206f766572666c6f770000000000604482015290519081900360640190fd5b9392505050565b60a0810151600090815260336020908152604080832084516001600160a01b0316845282528083208151808301909252546001600160d81b038116808352600160d81b90910464ffffffffff16928201929092528291611a235750505060c081015160e0820151611c53565b6000611a408560e001518660c0015161195690919063ffffffff16565b90506000611a5b8284600001516001600160d81b0316611c5e565b83519091506001600160d81b0316811415611ad65760a08601805160009081526033602090815260408083208a516001600160a01b031684528252808320929092559151815190815290517f3a4184732b5b7b70d5cf3e415cdbc9d202e6b294b82b9e61e536bc76afb12dbc929181900390910190a1611b7f565b8251600090611aee906001600160d81b0316836118f4565b60a08801805160009081526033602090815260408083208c516001600160a01b0316845282529182902080546001600160d81b038087166001600160d81b03199092169190911790915592518851835191825290931690830152818101839052519192507f7d8f82b4baa5f8119d03533e08deba8f44205d62f04a8376ed2f30bc5858a150919081900360600190a1505b60008082841415611b9b57505060c086015160e0870151611beb565b611bdc8860c00151611bd7611bc18b608001518c6040015161195690919063ffffffff16565b60408c0151611bd1908890611c74565b90611ccd565b611c5e565b9150611be883836118f4565b90505b8115611c0b57611c0b886020015183876020015164ffffffffff1661154e565b8015611c2b57611c2b886060015182876020015164ffffffffff1661154e565b60c0880151611c3a90836118f4565b60e0890151611c4990836118f4565b9650965050505050505b915091565b3b151590565b6000818310611c6d57816119b0565b5090919050565b600082611c8357506000611950565b82820282848281611c9057fe5b04146119b05760405162461bcd60e51b8152600401808060200182810382526021815260200180611ec06021913960400191505060405180910390fd5b6000808211611d23576040805162461bcd60e51b815260206004820152601a60248201527f536166654d6174683a206469766973696f6e206279207a65726f000000000000604482015290519081900360640190fd5b818381611d2c57fe5b04939250505056fe4c6e5265776172644c6f636b65723a2052657761726465722061646472657373206d757374206e6f7420626520304c6e5265776172644c6f636b65723a206e6f74204c4f434b5f52455741524420726f6c654c6e5265776172644c6f636b65723a20436f6c6c61746572616c2073797374656d2061646472657373206e6f74207365744c6e5265776172644c6f636b65723a206172726179206c656e677468206d69736d617463684c6e41646d696e5570677261646561626c653a206f6e6c792063616e6469646174652063616e206265636f6d652061646d696e4c6e5265776172644c6f636b65723a20556e6c6f636b2074696d65206e6f7420726561636865644c6e5265776172644c6f636b65723a20436f6c6c61746572616c2073797374656d2061646472657373206d757374206e6f742062652030496e697469616c697a61626c653a20636f6e747261637420697320616c726561647920696e697469616c697a65644c6e5265776172644c6f636b65723a20756e6c6f636b2074696d65206f766572666c6f77536166654d6174683a206d756c7469706c69636174696f6e206f766572666c6f774c6e5265776172644c6f636b65723a2072657761726420616d6f756e74206f766572666c6f774c6e5265776172644c6f636b65723a20616d6f756e74206f7574206f662072616e67654c6e41646d696e5570677261646561626c653a206f6e6c792074686520636f6e74726163742061646d696e2063616e20706572666f726d207468697320616374696f6e4c6e5265776172644c6f636b65723a2052657761726420656e74727920616d6f756e7420697320302c206e6f2072657761726420746f20756e6c6f636b4c6e5265776172644c6f636b65723a20616d6f756e74206e6f742066696c6c6564207769746820616c6c20656e74726965734c6e5265776172644c6f636b65723a2052657761726465722061646472657373206e6f74207365744c6e5265776172644c6f636b65723a206e6f74204d4f56455f52455741524420726f6c65a264697066735822122083a1c110a585cf91203d208a2890def33a060d899af28d85ebe9413654a7e54364736f6c63430007060033",
  "linkReferences": {},
  "deployedLinkReferences": {}
}