{
  "_format": "hh-sol-artifact-1",
  "contractName": "LnVaultFixedRewardPool",
  "sourceName": "contracts/LnVaultFixedRewardPool.sol",
  "abi": [
    {
      "anonymous": false,
      "inputs": [
        {
          "indexed": true,
          "internalType": "address",
          "name": "previousOwner",
          "type": "address"
        },
        {
          "indexed": true,
          "internalType": "address",
          "name": "newOwner",
          "type": "address"
        }
      ],
      "name": "OwnershipTransferred",
      "type": "event"
    },
    {
      "anonymous": false,
      "inputs": [
        {
          "indexed": false,
          "internalType": "uint256",
          "name": "startTime",
          "type": "uint256"
        },
        {
          "indexed": false,
          "internalType": "uint256",
          "name": "rewardPerSecond",
          "type": "uint256"
        },
        {
          "indexed": false,
          "internalType": "address",
          "name": "stakeToken",
          "type": "address"
        },
        {
          "indexed": false,
          "internalType": "address",
          "name": "rewardToken",
          "type": "address"
        }
      ],
      "name": "PoolInitialized",
      "type": "event"
    },
    {
      "anonymous": false,
      "inputs": [
        {
          "indexed": true,
          "internalType": "address",
          "name": "staker",
          "type": "address"
        },
        {
          "indexed": false,
          "internalType": "address",
          "name": "token",
          "type": "address"
        },
        {
          "indexed": false,
          "internalType": "uint256",
          "name": "amount",
          "type": "uint256"
        }
      ],
      "name": "RewardClaimed",
      "type": "event"
    },
    {
      "anonymous": false,
      "inputs": [
        {
          "indexed": false,
          "internalType": "uint256",
          "name": "oldRewardPerSecond",
          "type": "uint256"
        },
        {
          "indexed": false,
          "internalType": "uint256",
          "name": "newRewardPerSecond",
          "type": "uint256"
        }
      ],
      "name": "RewardPerSecondChanged",
      "type": "event"
    },
    {
      "anonymous": false,
      "inputs": [
        {
          "indexed": true,
          "internalType": "address",
          "name": "staker",
          "type": "address"
        },
        {
          "indexed": false,
          "internalType": "address",
          "name": "token",
          "type": "address"
        },
        {
          "indexed": false,
          "internalType": "uint256",
          "name": "amount",
          "type": "uint256"
        }
      ],
      "name": "Staked",
      "type": "event"
    },
    {
      "anonymous": false,
      "inputs": [
        {
          "indexed": true,
          "internalType": "address",
          "name": "staker",
          "type": "address"
        },
        {
          "indexed": false,
          "internalType": "address",
          "name": "token",
          "type": "address"
        },
        {
          "indexed": false,
          "internalType": "uint256",
          "name": "amount",
          "type": "uint256"
        }
      ],
      "name": "Unstaked",
      "type": "event"
    },
    {
      "inputs": [
        {
          "internalType": "uint256",
          "name": "_startTime",
          "type": "uint256"
        },
        {
          "internalType": "uint256",
          "name": "_rewardPerSecond",
          "type": "uint256"
        },
        {
          "internalType": "address",
          "name": "_stakeToken",
          "type": "address"
        },
        {
          "internalType": "address",
          "name": "_rewardToken",
          "type": "address"
        }
      ],
      "name": "__LnVaultFixedRewardPool_init",
      "outputs": [],
      "stateMutability": "nonpayable",
      "type": "function"
    },
    {
      "inputs": [],
      "name": "accuRewardLastUpdateTime",
      "outputs": [
        {
          "internalType": "uint256",
          "name": "",
          "type": "uint256"
        }
      ],
      "stateMutability": "view",
      "type": "function"
    },
    {
      "inputs": [],
      "name": "accuRewardPerShare",
      "outputs": [
        {
          "internalType": "uint256",
          "name": "",
          "type": "uint256"
        }
      ],
      "stateMutability": "view",
      "type": "function"
    },
    {
      "inputs": [],
      "name": "claimReward",
      "outputs": [],
      "stateMutability": "nonpayable",
      "type": "function"
    },
    {
      "inputs": [
        {
          "internalType": "address",
          "name": "staker",
          "type": "address"
        }
      ],
      "name": "getReward",
      "outputs": [
        {
          "internalType": "uint256",
          "name": "",
          "type": "uint256"
        }
      ],
      "stateMutability": "view",
      "type": "function"
    },
    {
      "inputs": [],
      "name": "owner",
      "outputs": [
        {
          "internalType": "address",
          "name": "",
          "type": "address"
        }
      ],
      "stateMutability": "view",
      "type": "function"
    },
    {
      "inputs": [],
      "name": "renounceOwnership",
      "outputs": [],
      "stateMutability": "nonpayable",
      "type": "function"
    },
    {
      "inputs": [],
      "name": "rewardPerSecond",
      "outputs": [
        {
          "internalType": "uint256",
          "name": "",
          "type": "uint256"
        }
      ],
      "stateMutability": "view",
      "type": "function"
    },
    {
      "inputs": [],
      "name": "rewardToken",
      "outputs": [
        {
          "internalType": "address",
          "name": "",
          "type": "address"
        }
      ],
      "stateMutability": "view",
      "type": "function"
    },
    {
      "inputs": [
        {
          "internalType": "uint256",
          "name": "newRewardPerSecond",
          "type": "uint256"
        }
      ],
      "name": "setRewardPerSecond",
      "outputs": [],
      "stateMutability": "nonpayable",
      "type": "function"
    },
    {
      "inputs": [
        {
          "internalType": "uint256",
          "name": "amount",
          "type": "uint256"
        }
      ],
      "name": "stake",
      "outputs": [],
      "stateMutability": "nonpayable",
      "type": "function"
    },
    {
      "inputs": [],
      "name": "stakeToken",
      "outputs": [
        {
          "internalType": "address",
          "name": "",
          "type": "address"
        }
      ],
      "stateMutability": "view",
      "type": "function"
    },
    {
      "inputs": [],
      "name": "startTime",
      "outputs": [
        {
          "internalType": "uint256",
          "name": "",
          "type": "uint256"
        }
      ],
      "stateMutability": "view",
      "type": "function"
    },
    {
      "inputs": [],
      "name": "totalStakeAmount",
      "outputs": [
        {
          "internalType": "uint256",
          "name": "",
          "type": "uint256"
        }
      ],
      "stateMutability": "view",
      "type": "function"
    },
    {
      "inputs": [
        {
          "internalType": "address",
          "name": "newOwner",
          "type": "address"
        }
      ],
      "name": "transferOwnership",
      "outputs": [],
      "stateMutability": "nonpayable",
      "type": "function"
    },
    {
      "inputs": [
        {
          "internalType": "uint256",
          "name": "amount",
          "type": "uint256"
        }
      ],
      "name": "unstake",
      "outputs": [],
      "stateMutability": "nonpayable",
      "type": "function"
    },
    {
      "inputs": [
        {
          "internalType": "address",
          "name": "",
          "type": "address"
        }
      ],
      "name": "userData",
      "outputs": [
        {
          "internalType": "uint256",
          "name": "stakeAmount",
          "type": "uint256"
        },
        {
          "internalType": "uint256",
          "name": "pendingReward",
          "type": "uint256"
        },
        {
          "internalType": "uint256",
          "name": "entryAccuRewardPerShare",
          "type": "uint256"
        }
      ],
      "stateMutability": "view",
      "type": "function"
    }
  ],
  "bytecode": "0x608060405234801561001057600080fd5b506115eb806100206000396000f3fe608060405234801561001057600080fd5b506004361061010b5760003560e01c8063a694fc3a116100a2578063e083886811610071578063e083886814610239578063e2f67cd714610241578063e63086dd14610249578063f2fde38b14610283578063f7c618c1146102a95761010b565b8063a694fc3a146101aa578063b88a802f146101c7578063c00007b0146101cf578063c8910913146101f55761010b565b806378e97925116100de57806378e97925146101785780638da5cb5b146101925780638f10369a1461019a57806394409a56146101a25761010b565b80632e17de781461011057806351ed6a301461012f57806366da581514610153578063715018a614610170575b600080fd5b61012d6004803603602081101561012657600080fd5b50356102b1565b005b6101376102cf565b604080516001600160a01b039092168252519081900360200190f35b61012d6004803603602081101561016957600080fd5b50356102de565b61012d6103aa565b610180610468565b60408051918252519081900360200190f35b61013761046e565b61018061047d565b610180610483565b61012d600480360360208110156101c057600080fd5b5035610489565b61012d6104e5565b610180600480360360208110156101e557600080fd5b50356001600160a01b03166105bc565b61021b6004803603602081101561020b57600080fd5b50356001600160a01b0316610695565b60408051938452602084019290925282820152519081900360600190f35b6101806106b6565b6101806106bc565b61012d6004803603608081101561025f57600080fd5b508035906020810135906001600160a01b03604082013581169160600135166106c2565b61012d6004803603602081101561029957600080fd5b50356001600160a01b03166108fe565b610137610a13565b6102b9610a22565b6102c233610a7f565b6102cc3382610af0565b50565b6067546001600160a01b031681565b6102e6610be2565b6001600160a01b03166102f761046e565b6001600160a01b031614610352576040805162461bcd60e51b815260206004820181905260248201527f4f776e61626c653a2063616c6c6572206973206e6f7420746865206f776e6572604482015290519081900360640190fd5b606554421061036357610363610a22565b6066805490829055604080518281526020810184905281517fd768458d0d6d457da18a9cf814b6fc4c41cf854fcdb68e248ea9a2ab8c946e51929181900390910190a15050565b6103b2610be2565b6001600160a01b03166103c361046e565b6001600160a01b03161461041e576040805162461bcd60e51b815260206004820181905260248201527f4f776e61626c653a2063616c6c6572206973206e6f7420746865206f776e6572604482015290519081900360640190fd5b6033546040516000916001600160a01b0316907f8be0079c531659141344cd1fd0a4f28419497f9722a3daafe3b4186f6b6457e0908390a3603380546001600160a01b0319169055565b60655481565b6033546001600160a01b031690565b60665481565b60695481565b6065544210156104ca5760405162461bcd60e51b815260040180806020018281038252602881526020018061149c6028913960400191505060405180910390fd5b6104d2610a22565b6104db33610a7f565b6102cc3382610be6565b6104ed610a22565b6104f633610a7f565b336000908152606c6020526040902060010154806105455760405162461bcd60e51b815260040180806020018281038252602a815260200180611427602a913960400191505060405180910390fd5b336000818152606c6020526040812060010155606854610571916001600160a01b039091169083610cd9565b606854604080516001600160a01b03909216825260208201839052805133927f0aa4d283470c904c551d18bb894d37e17674920f3261a7f854be501e25f421b792908290030190a250565b6001600160a01b0381166000908152606c602090815260408083208151606081018352815481526001820154938101939093526002015490820152606954829061060857606a5461064e565b61064e61064560695461063f68056bc75e2d63100000610639606654610639606b5442610e6b90919063ffffffff16565b90610ecd565b90610f2d565b606a5490610f94565b905061068d61068268056bc75e2d6310000061063f61067a866040015186610e6b90919063ffffffff16565b865190610ecd565b602084015190610f94565b949350505050565b606c6020526000908152604090208054600182015460029092015490919083565b606a5481565b606b5481565b600054610100900460ff16806106db57506106db610fee565b806106e9575060005460ff16155b6107245760405162461bcd60e51b815260040180806020018281038252602e815260200180611520602e913960400191505060405180910390fd5b600054610100900460ff1615801561074f576000805460ff1961ff0019909116610100171660011790555b610757610fff565b4285116107955760405162461bcd60e51b815260040180806020018281038252602a8152602001806114c4602a913960400191505060405180910390fd5b600084116107d45760405162461bcd60e51b81526004018080602001828103825260238152602001806113d46023913960400191505060405180910390fd5b6001600160a01b0383166108195760405162461bcd60e51b815260040180806020018281038252602481526020018061156f6024913960400191505060405180910390fd5b6001600160a01b03821661085e5760405162461bcd60e51b815260040180806020018281038252602481526020018061156f6024913960400191505060405180910390fd5b60658590556066849055606780546001600160a01b038086166001600160a01b0319928316811790935560688054918616919092168117909155606b8790556040805188815260208101889052808201939093526060830191909152517f03f2421355a474f74e85fd17daae776161634f64ae5bd9fa29bfd607a671764c9181900360800190a180156108f7576000805461ff00191690555b5050505050565b610906610be2565b6001600160a01b031661091761046e565b6001600160a01b031614610972576040805162461bcd60e51b815260206004820181905260248201527f4f776e61626c653a2063616c6c6572206973206e6f7420746865206f776e6572604482015290519081900360640190fd5b6001600160a01b0381166109b75760405162461bcd60e51b81526004018080602001828103825260268152602001806114766026913960400191505060405180910390fd5b6033546040516001600160a01b038084169216907f8be0079c531659141344cd1fd0a4f28419497f9722a3daafe3b4186f6b6457e090600090a3603380546001600160a01b0319166001600160a01b0392909216919091179055565b6068546001600160a01b031681565b6000610a39606b5442610e6b90919063ffffffff16565b905080156102cc5760695415610a7857610a7461064560695461063f68056bc75e2d6310000061063960665487610ecd90919063ffffffff16565b606a555b42606b5550565b6001600160a01b0381166000908152606c602052604081206002810154606a54919291610aab91610e6b565b90508015610aeb578154610add90610ad29068056bc75e2d631000009061063f9085610ecd565b600184015490610f94565b6001830155606a5460028301555b505050565b60008111610b2f5760405162461bcd60e51b81526004018080602001828103825260328152602001806114ee6032913960400191505060405180910390fd5b6001600160a01b0382166000908152606c6020526040902054610b529082610e6b565b6001600160a01b0383166000908152606c6020526040902055606954610b789082610e6b565b606955606754610b92906001600160a01b03168383610cd9565b606754604080516001600160a01b039283168152602081018490528151928516927fd8654fcc8cf5b36d30b3f5e4688fc78118e6d68de60b9994e09902268b57c3e3929181900390910190a25050565b3390565b60008111610c255760405162461bcd60e51b81526004018080602001828103825260308152602001806113f76030913960400191505060405180910390fd5b6001600160a01b0382166000908152606c6020526040902054610c489082610f94565b6001600160a01b0383166000908152606c6020526040902055606954610c6e9082610f94565b606955606754610c89906001600160a01b03168330846110b0565b606754604080516001600160a01b039283168152602081018490528151928516927f5dac0c1b1112564a045ba943c9d50270893e8e826c49be8e7073adc713ab7bd7929181900390910190a25050565b604080518082018252601981527f7472616e7366657228616464726573732c75696e74323536290000000000000060209182015281516001600160a01b0385811660248301526044808301869052845180840390910181526064909201845291810180516001600160e01b031663a9059cbb60e01b17815292518151600094859489169392918291908083835b60208310610d855780518252601f199092019160209182019101610d66565b6001836020036101000a0380198251168184511680821785525050505050509050019150506000604051808303816000865af19150503d8060008114610de7576040519150601f19603f3d011682016040523d82523d6000602084013e610dec565b606091505b5091509150818015610e1a575080511580610e1a5750808060200190516020811015610e1757600080fd5b50515b6108f7576040805162461bcd60e51b815260206004820152601f60248201527f5472616e7366657248656c7065723a207472616e73666572206661696c656400604482015290519081900360640190fd5b600082821115610ec2576040805162461bcd60e51b815260206004820152601e60248201527f536166654d6174683a207375627472616374696f6e206f766572666c6f770000604482015290519081900360640190fd5b508082035b92915050565b600082610edc57506000610ec7565b82820282848281610ee957fe5b0414610f265760405162461bcd60e51b815260040180806020018281038252602181526020018061154e6021913960400191505060405180910390fd5b9392505050565b6000808211610f83576040805162461bcd60e51b815260206004820152601a60248201527f536166654d6174683a206469766973696f6e206279207a65726f000000000000604482015290519081900360640190fd5b818381610f8c57fe5b049392505050565b600082820183811015610f26576040805162461bcd60e51b815260206004820152601b60248201527f536166654d6174683a206164646974696f6e206f766572666c6f770000000000604482015290519081900360640190fd5b6000610ff930611234565b15905090565b600054610100900460ff16806110185750611018610fee565b80611026575060005460ff16155b6110615760405162461bcd60e51b815260040180806020018281038252602e815260200180611520602e913960400191505060405180910390fd5b600054610100900460ff1615801561108c576000805460ff1961ff0019909116610100171660011790555b61109461123a565b61109c6112da565b80156102cc576000805461ff001916905550565b600080856001600160a01b0316604051806060016040528060258152602001611451602591398051602091820120604080516001600160a01b03808b166024830152891660448201526064808201899052825180830390910181526084909101825292830180516001600160e01b03166001600160e01b0319909316929092178252518251909182918083835b6020831061115c5780518252601f19909201916020918201910161113d565b6001836020036101000a0380198251168184511680821785525050505050509050019150506000604051808303816000865af19150503d80600081146111be576040519150601f19603f3d011682016040523d82523d6000602084013e6111c3565b606091505b50915091508180156111f15750805115806111f157508080602001905160208110156111ee57600080fd5b50515b61122c5760405162461bcd60e51b81526004018080602001828103825260238152602001806115936023913960400191505060405180910390fd5b505050505050565b3b151590565b600054610100900460ff16806112535750611253610fee565b80611261575060005460ff16155b61129c5760405162461bcd60e51b815260040180806020018281038252602e815260200180611520602e913960400191505060405180910390fd5b600054610100900460ff1615801561109c576000805460ff1961ff00199091166101001716600117905580156102cc576000805461ff001916905550565b600054610100900460ff16806112f357506112f3610fee565b80611301575060005460ff16155b61133c5760405162461bcd60e51b815260040180806020018281038252602e815260200180611520602e913960400191505060405180910390fd5b600054610100900460ff16158015611367576000805460ff1961ff0019909116610100171660011790555b6000611371610be2565b603380546001600160a01b0319166001600160a01b038316908117909155604051919250906000907f8be0079c531659141344cd1fd0a4f28419497f9722a3daafe3b4186f6b6457e0908290a35080156102cc576000805461ff00191690555056fe4c6e5661756c744669786564526577617264506f6f6c3a207a65726f207265776172644c6e5661756c744669786564526577617264506f6f6c3a2063616e6e6f74207374616b65207a65726f20616d6f756e744c6e5661756c744669786564526577617264506f6f6c3a206e6f2072657761726420746f20636c61696d7472616e7366657246726f6d28616464726573732c616464726573732c75696e74323536294f776e61626c653a206e6577206f776e657220697320746865207a65726f20616464726573734c6e5661756c744669786564526577617264506f6f6c3a20706f6f6c206e6f7420737461727465644c6e5661756c744669786564526577617264506f6f6c3a20696e76616c69642073746172742074696d654c6e5661756c744669786564526577617264506f6f6c3a2063616e6e6f7420756e7374616b65207a65726f20616d6f756e74496e697469616c697a61626c653a20636f6e747261637420697320616c726561647920696e697469616c697a6564536166654d6174683a206d756c7469706c69636174696f6e206f766572666c6f774c6e5661756c744669786564526577617264506f6f6c3a207a65726f20616464726573735472616e7366657248656c7065723a207472616e7366657246726f6d206661696c6564a26469706673582212202618be5d7f8a1bae4e3e47ba4aebae15fbf51bf968d4f0b2b21f949fb798eb9164736f6c63430007060033",
  "linkReferences": {},
  "deployedLinkReferences": {}
}