{
  "_format": "hh-sol-artifact-1",
  "contractName": "LnVaultDynamicInterestPool",
  "sourceName": "contracts/LnVaultDynamicInterestPool.sol",
  "abi": [
    {
      "anonymous": false,
      "inputs": [
        {
          "indexed": true,
          "internalType": "uint256",
          "name": "periodId",
          "type": "uint256"
        },
        {
          "indexed": false,
          "internalType": "uint256",
          "name": "interestRate",
          "type": "uint256"
        }
      ],
      "name": "InterestRateSet",
      "type": "event"
    },
    {
      "anonymous": false,
      "inputs": [
        {
          "indexed": true,
          "internalType": "address",
          "name": "user",
          "type": "address"
        },
        {
          "indexed": true,
          "internalType": "uint256",
          "name": "periodId",
          "type": "uint256"
        },
        {
          "indexed": false,
          "internalType": "uint256",
          "name": "principal",
          "type": "uint256"
        },
        {
          "indexed": false,
          "internalType": "uint256",
          "name": "interestRate",
          "type": "uint256"
        },
        {
          "indexed": false,
          "internalType": "uint256",
          "name": "interest",
          "type": "uint256"
        }
      ],
      "name": "InterestWithdrawn",
      "type": "event"
    },
    {
      "anonymous": false,
      "inputs": [
        {
          "indexed": true,
          "internalType": "address",
          "name": "previousOwner",
          "type": "address"
        },
        {
          "indexed": true,
          "internalType": "address",
          "name": "newOwner",
          "type": "address"
        }
      ],
      "name": "OwnershipTransferred",
      "type": "event"
    },
    {
      "anonymous": false,
      "inputs": [
        {
          "indexed": false,
          "internalType": "uint256",
          "name": "firstPeriodStartTime",
          "type": "uint256"
        },
        {
          "indexed": false,
          "internalType": "uint256",
          "name": "periodDuration",
          "type": "uint256"
        },
        {
          "indexed": false,
          "internalType": "uint256",
          "name": "totalSubscriptionLimit",
          "type": "uint256"
        },
        {
          "indexed": false,
          "internalType": "uint256",
          "name": "userSubscriptionLimit",
          "type": "uint256"
        },
        {
          "indexed": false,
          "internalType": "address",
          "name": "stakeToken",
          "type": "address"
        },
        {
          "indexed": false,
          "internalType": "address",
          "name": "interestToken",
          "type": "address"
        }
      ],
      "name": "PoolInitialized",
      "type": "event"
    },
    {
      "anonymous": false,
      "inputs": [
        {
          "indexed": true,
          "internalType": "address",
          "name": "user",
          "type": "address"
        },
        {
          "indexed": false,
          "internalType": "uint256",
          "name": "amount",
          "type": "uint256"
        }
      ],
      "name": "PrincipalWithdrawn",
      "type": "event"
    },
    {
      "anonymous": false,
      "inputs": [
        {
          "indexed": true,
          "internalType": "address",
          "name": "user",
          "type": "address"
        },
        {
          "indexed": true,
          "internalType": "uint256",
          "name": "periodId",
          "type": "uint256"
        },
        {
          "indexed": false,
          "internalType": "uint256",
          "name": "amount",
          "type": "uint256"
        }
      ],
      "name": "Subscribed",
      "type": "event"
    },
    {
      "anonymous": false,
      "inputs": [
        {
          "indexed": true,
          "internalType": "address",
          "name": "user",
          "type": "address"
        },
        {
          "indexed": true,
          "internalType": "uint256",
          "name": "periodId",
          "type": "uint256"
        },
        {
          "indexed": false,
          "internalType": "uint256",
          "name": "amount",
          "type": "uint256"
        }
      ],
      "name": "Unsubscribed",
      "type": "event"
    },
    {
      "inputs": [],
      "name": "INTEREST_RATE_UNIT",
      "outputs": [
        {
          "internalType": "uint256",
          "name": "",
          "type": "uint256"
        }
      ],
      "stateMutability": "view",
      "type": "function"
    },
    {
      "inputs": [
        {
          "internalType": "uint256",
          "name": "_firstPeriodStartTime",
          "type": "uint256"
        },
        {
          "internalType": "uint256",
          "name": "_periodDuration",
          "type": "uint256"
        },
        {
          "internalType": "uint256",
          "name": "_totalSubscriptionLimit",
          "type": "uint256"
        },
        {
          "internalType": "uint256",
          "name": "_userSubscriptionLimit",
          "type": "uint256"
        },
        {
          "internalType": "address",
          "name": "_stakeToken",
          "type": "address"
        },
        {
          "internalType": "address",
          "name": "_interestToken",
          "type": "address"
        }
      ],
      "name": "__LnVaultDynamicInterestPool_init",
      "outputs": [],
      "stateMutability": "nonpayable",
      "type": "function"
    },
    {
      "inputs": [],
      "name": "firstPeriodStartTime",
      "outputs": [
        {
          "internalType": "uint256",
          "name": "",
          "type": "uint256"
        }
      ],
      "stateMutability": "view",
      "type": "function"
    },
    {
      "inputs": [],
      "name": "getCurrentPeriodId",
      "outputs": [
        {
          "internalType": "uint256",
          "name": "",
          "type": "uint256"
        }
      ],
      "stateMutability": "view",
      "type": "function"
    },
    {
      "inputs": [
        {
          "internalType": "address",
          "name": "user",
          "type": "address"
        }
      ],
      "name": "getWithdrawableInterests",
      "outputs": [
        {
          "internalType": "uint256",
          "name": "fromPeriodId",
          "type": "uint256"
        },
        {
          "internalType": "uint256",
          "name": "toPeriodId",
          "type": "uint256"
        },
        {
          "internalType": "uint256",
          "name": "amount",
          "type": "uint256"
        }
      ],
      "stateMutability": "view",
      "type": "function"
    },
    {
      "inputs": [
        {
          "internalType": "address",
          "name": "user",
          "type": "address"
        }
      ],
      "name": "getWithdrawablePrincipal",
      "outputs": [
        {
          "internalType": "uint256",
          "name": "",
          "type": "uint256"
        }
      ],
      "stateMutability": "view",
      "type": "function"
    },
    {
      "inputs": [
        {
          "internalType": "uint256",
          "name": "",
          "type": "uint256"
        }
      ],
      "name": "interestRates",
      "outputs": [
        {
          "internalType": "uint256",
          "name": "",
          "type": "uint256"
        }
      ],
      "stateMutability": "view",
      "type": "function"
    },
    {
      "inputs": [],
      "name": "interestToken",
      "outputs": [
        {
          "internalType": "address",
          "name": "",
          "type": "address"
        }
      ],
      "stateMutability": "view",
      "type": "function"
    },
    {
      "inputs": [],
      "name": "owner",
      "outputs": [
        {
          "internalType": "address",
          "name": "",
          "type": "address"
        }
      ],
      "stateMutability": "view",
      "type": "function"
    },
    {
      "inputs": [],
      "name": "periodDuration",
      "outputs": [
        {
          "internalType": "uint256",
          "name": "",
          "type": "uint256"
        }
      ],
      "stateMutability": "view",
      "type": "function"
    },
    {
      "inputs": [],
      "name": "renounceOwnership",
      "outputs": [],
      "stateMutability": "nonpayable",
      "type": "function"
    },
    {
      "inputs": [
        {
          "internalType": "uint256",
          "name": "periodId",
          "type": "uint256"
        },
        {
          "internalType": "uint256",
          "name": "interestRate",
          "type": "uint256"
        }
      ],
      "name": "setInterestRate",
      "outputs": [],
      "stateMutability": "nonpayable",
      "type": "function"
    },
    {
      "inputs": [],
      "name": "stakeToken",
      "outputs": [
        {
          "internalType": "address",
          "name": "",
          "type": "address"
        }
      ],
      "stateMutability": "view",
      "type": "function"
    },
    {
      "inputs": [
        {
          "internalType": "uint256",
          "name": "amount",
          "type": "uint256"
        }
      ],
      "name": "subscribe",
      "outputs": [],
      "stateMutability": "nonpayable",
      "type": "function"
    },
    {
      "inputs": [],
      "name": "totalSubscribedAmount",
      "outputs": [
        {
          "internalType": "uint256",
          "name": "",
          "type": "uint256"
        }
      ],
      "stateMutability": "view",
      "type": "function"
    },
    {
      "inputs": [],
      "name": "totalSubscriptionLimit",
      "outputs": [
        {
          "internalType": "uint256",
          "name": "",
          "type": "uint256"
        }
      ],
      "stateMutability": "view",
      "type": "function"
    },
    {
      "inputs": [
        {
          "internalType": "address",
          "name": "newOwner",
          "type": "address"
        }
      ],
      "name": "transferOwnership",
      "outputs": [],
      "stateMutability": "nonpayable",
      "type": "function"
    },
    {
      "inputs": [
        {
          "internalType": "uint256",
          "name": "amount",
          "type": "uint256"
        }
      ],
      "name": "unsubscribe",
      "outputs": [],
      "stateMutability": "nonpayable",
      "type": "function"
    },
    {
      "inputs": [
        {
          "internalType": "address",
          "name": "",
          "type": "address"
        }
      ],
      "name": "userData",
      "outputs": [
        {
          "internalType": "uint256",
          "name": "subscribedAmount",
          "type": "uint256"
        },
        {
          "internalType": "int256",
          "name": "pendingAmount",
          "type": "int256"
        },
        {
          "internalType": "uint256",
          "name": "pendingAmountPeriodId",
          "type": "uint256"
        },
        {
          "internalType": "uint256",
          "name": "lastInterestWithdrawalPeriodId",
          "type": "uint256"
        },
        {
          "internalType": "uint256",
          "name": "refundingAmount",
          "type": "uint256"
        },
        {
          "internalType": "uint256",
          "name": "refundPeriodId",
          "type": "uint256"
        }
      ],
      "stateMutability": "view",
      "type": "function"
    },
    {
      "inputs": [],
      "name": "userSubscriptionLimit",
      "outputs": [
        {
          "internalType": "uint256",
          "name": "",
          "type": "uint256"
        }
      ],
      "stateMutability": "view",
      "type": "function"
    },
    {
      "inputs": [
        {
          "internalType": "uint256",
          "name": "periodId",
          "type": "uint256"
        }
      ],
      "name": "withdrawInterest",
      "outputs": [],
      "stateMutability": "nonpayable",
      "type": "function"
    },
    {
      "inputs": [
        {
          "internalType": "uint256",
          "name": "fromPeriodId",
          "type": "uint256"
        },
        {
          "internalType": "uint256",
          "name": "toPeriodId",
          "type": "uint256"
        }
      ],
      "name": "withdrawInterests",
      "outputs": [],
      "stateMutability": "nonpayable",
      "type": "function"
    },
    {
      "inputs": [],
      "name": "withdrawPrincipal",
      "outputs": [],
      "stateMutability": "nonpayable",
      "type": "function"
    }
  ],
  "bytecode": "0x608060405234801561001057600080fd5b50612219806100206000396000f3fe608060405234801561001057600080fd5b506004361061014d5760003560e01c806379dd1aa4116100c3578063b470aade1161007c578063b470aade146102ee578063c8910913146102f6578063e1f06f541461034f578063e388ff4514610357578063f172a3041461035f578063f2fde38b146103a55761014d565b806379dd1aa4146102765780638da5cb5b1461029c5780639a4d8ba1146102a4578063ad0b27fb146102c1578063ae5dbee8146102de578063b0140b6f146102e65761014d565b80633a2195d7116101155780633a2195d7146101f4578063503aa26b1461021757806351ed6a301461021f5780635b9dac8914610243578063715018a614610266578063764b666c1461026e5761014d565b806308669aab146101525780630f574ba71461017157806316950cac1461018e578063179b9eec146101d2578063396b6247146101ec575b600080fd5b61016f6004803603602081101561016857600080fd5b50356103cb565b005b61016f6004803603602081101561018757600080fd5b50356103d8565b6101b4600480360360208110156101a457600080fd5b50356001600160a01b03166103e2565b60408051938452602084019290925282820152519081900360600190f35b6101da61053b565b60408051918252519081900360200190f35b6101da610541565b61016f6004803603604081101561020a57600080fd5b508035906020013561056c565b6101da6105d7565b6102276105e3565b604080516001600160a01b039092168252519081900360200190f35b61016f6004803603604081101561025957600080fd5b50803590602001356105f2565b61016f61077a565b610227610838565b6101da6004803603602081101561028c57600080fd5b50356001600160a01b0316610847565b6102276108e4565b6101da600480360360208110156102ba57600080fd5b50356108f3565b61016f600480360360208110156102d757600080fd5b5035610905565b6101da61090f565b6101da610915565b6101da61091b565b61031c6004803603602081101561030c57600080fd5b50356001600160a01b0316610921565b604080519687526020870195909552858501939093526060850191909152608084015260a0830152519081900360c00190f35b61016f610956565b6101da610961565b61016f600480360360c081101561037557600080fd5b508035906020810135906040810135906060810135906001600160a01b03608082013581169160a0013516610967565b61016f600480360360208110156103bb57600080fd5b50356001600160a01b0316610bf7565b6103d53382610d0c565b50565b6103d53382610f90565b6000806000806103f0610541565b6001600160a01b0386166000908152606c6020908152604091829020825160c081018452815480825260018301549382019390935260028201549381019390935260038101546060840152600481015460808401526005015460a0830152919250906104685760008060009450945094505050610534565b6060810151600101600080825b8581101561050e576000818152606d602052604090205480610497575061050e565b85516040870151158015906104af5750828760400151105b156104d6576104d36104ce88602001516104c884610fa6565b90610fee565b61105c565b90505b6001909401936105026104fb670de0b6b3a76400006104f584866110b3565b9061110c565b8590611173565b93505050600101610475565b508115610522578260018385010382610528565b60008060005b97509750975050505050505b9193909250565b60675481565b600060655442106105645760665460655442038161055b57fe5b04600101610567565b60005b905090565b60008211801561057c5750818110155b6105b75760405162461bcd60e51b8152600401808060200182810382526030815260200180611eed6030913960400191505060405180910390fd5b815b8181116105d2576105ca3382610d0c565b6001016105b9565b505050565b670de0b6b3a764000081565b6069546001600160a01b031681565b6105fa6111cd565b6001600160a01b031661060b6108e4565b6001600160a01b031614610666576040805162461bcd60e51b815260206004820181905260248201527f4f776e61626c653a2063616c6c6572206973206e6f7420746865206f776e6572604482015290519081900360640190fd5b600082116106a55760405162461bcd60e51b815260040180806020018281038252602d8152602001806121b7602d913960400191505060405180910390fd5b600081116106e45760405162461bcd60e51b8152600401808060200182810382526025815260200180611ec86025913960400191505060405180910390fd5b6000828152606d60205260409020541561072f5760405162461bcd60e51b815260040180806020018281038252602c815260200180611d6f602c913960400191505060405180910390fd5b6000828152606d60209081526040918290208390558151838152915184927f1291737bc1f130247bdde7cb11d5ed967988c2052a47a007b5a2a862ef6048e892908290030190a25050565b6107826111cd565b6001600160a01b03166107936108e4565b6001600160a01b0316146107ee576040805162461bcd60e51b815260206004820181905260248201527f4f776e61626c653a2063616c6c6572206973206e6f7420746865206f776e6572604482015290519081900360640190fd5b6033546040516000916001600160a01b0316907f8be0079c531659141344cd1fd0a4f28419497f9722a3daafe3b4186f6b6457e0908390a3603380546001600160a01b0319169055565b606a546001600160a01b031681565b6001600160a01b0381166000908152606c60209081526040808320815160c081018352815481526001820154938101939093526002810154918301919091526003810154606083015260048101546080830181905260059091015460a08301526108b55760009150506108df565b60006108bf610541565b90508160a001518110156108d45760006108da565b81608001515b925050505b919050565b6033546001600160a01b031690565b606d6020526000908152604090205481565b6103d533826111d1565b60655481565b606b5481565b60665481565b606c60205260009081526040902080546001820154600283015460038401546004850154600590950154939492939192909186565b61095f336111e6565b565b60685481565b600054610100900460ff1680610980575061098061130a565b8061098e575060005460ff16155b6109c95760405162461bcd60e51b815260040180806020018281038252602e815260200180611f46602e913960400191505060405180910390fd5b600054610100900460ff161580156109f4576000805460ff1961ff0019909116610100171660011790555b6109fc61131b565b428711610a3a5760405162461bcd60e51b815260040180806020018281038252602e815260200180611e46602e913960400191505060405180910390fd5b60008611610a795760405162461bcd60e51b8152600401808060200182810382526029815260200180611f1d6029913960400191505060405180910390fd5b60008511610ab85760405162461bcd60e51b8152600401808060200182810382526033815260200180611e746033913960400191505060405180910390fd5b6001600160a01b038316610afd5760405162461bcd60e51b81526004018080602001828103825260288152602001806120b26028913960400191505060405180910390fd5b6001600160a01b038216610b425760405162461bcd60e51b81526004018080602001828103825260288152602001806120b26028913960400191505060405180910390fd5b6065879055606686905560678590556068849055606980546001600160a01b038086166001600160a01b03199283168117909355606a8054918616919092168117909155604080518a8152602081018a905280820189905260608101889052608081019390935260a0830191909152517fad52d03fefdf7bed88dc4070c50030e5f2e5ba4351d407f30fdcc4c42e6e85019181900360c00190a18015610bee576000805461ff00191690555b50505050505050565b610bff6111cd565b6001600160a01b0316610c106108e4565b6001600160a01b031614610c6b576040805162461bcd60e51b815260206004820181905260248201527f4f776e61626c653a2063616c6c6572206973206e6f7420746865206f776e6572604482015290519081900360640190fd5b6001600160a01b038116610cb05760405162461bcd60e51b8152600401808060200182810382526026815260200180611e206026913960400191505060405180910390fd5b6033546040516001600160a01b038084169216907f8be0079c531659141344cd1fd0a4f28419497f9722a3daafe3b4186f6b6457e090600090a3603380546001600160a01b0319166001600160a01b0392909216919091179055565b6000610d16610541565b6001600160a01b0384166000908152606c6020908152604091829020825160c08101845281548152600182015492810192909252600281015492820192909252600382015460608201526004820154608082015260059091015460a0820152909150818310610db65760405162461bcd60e51b815260040180806020018281038252602c815260200180612086602c913960400191505060405180910390fd5b80606001516001018314610dfb5760405162461bcd60e51b815260040180806020018281038252602d8152602001806121b7602d913960400191505060405180910390fd5b60408101511580610e10575082816040015110155b610e4b5760405162461bcd60e51b81526004018080602001828103825260368152602001806121816036913960400191505060405180910390fd5b6001600160a01b0384166000908152606c602052604090819020600301849055810151831415610eb657610e8d6104ce82602001516104c88460000151610fa6565b6001600160a01b0385166000908152606c60205260408120918255600182018190556002909101555b6000838152606d602052604090205480610f015760405162461bcd60e51b8152600401808060200182810382526031815260200180611ff56031913960400191505060405180910390fd5b81516000610f1b670de0b6b3a76400006104f584866110b3565b90508015610f3a57606a54610f3a906001600160a01b031688836113cc565b6040805183815260208101859052808201839052905187916001600160a01b038a16917fe6a1131651f513f15dd9a2cb9578de005c0d6f9263a9884fccc72e369371c0529181900360600190a350505050505050565b610fa282610f9d83610fa6565b611565565b5050565b6000600160ff1b8210610fea5760405162461bcd60e51b81526004018080602001828103825260288152602001806120da6028913960400191505060405180910390fd5b5090565b60008282018183128015906110035750838112155b80611018575060008312801561101857508381125b6110535760405162461bcd60e51b8152600401808060200182810382526021815260200180611ea76021913960400191505060405180910390fd5b90505b92915050565b600080821215610fea576040805162461bcd60e51b815260206004820181905260248201527f53616665436173743a2076616c7565206d75737420626520706f736974697665604482015290519081900360640190fd5b6000826110c257506000611056565b828202828482816110cf57fe5b04146110535760405162461bcd60e51b8152600401808060200182810382526021815260200180611fad6021913960400191505060405180910390fd5b6000808211611162576040805162461bcd60e51b815260206004820152601a60248201527f536166654d6174683a206469766973696f6e206279207a65726f000000000000604482015290519081900360640190fd5b81838161116b57fe5b049392505050565b600082820183811015611053576040805162461bcd60e51b815260206004820152601b60248201527f536166654d6174683a206164646974696f6e206f766572666c6f770000000000604482015290519081900360640190fd5b3390565b610fa2826111de83610fa6565b600003611565565b60006111f0610541565b6001600160a01b0383166000908152606c60205260409020600481015460059091015491925090816112535760405162461bcd60e51b815260040180806020018281038252602d815260200180612154602d913960400191505060405180910390fd5b808310156112925760405162461bcd60e51b81526004018080602001828103825260308152602001806120566030913960400191505060405180910390fd5b6001600160a01b038085166000908152606c6020526040812060048101829055600501556069546112c5911685846113cc565b6040805183815290516001600160a01b038616917f6a0d6da0beb3b4dc509c4559b55ca29b5f90af6d351a3f9365bb5ab6b572c960919081900360200190a250505050565b600061131530611a4b565b15905090565b600054610100900460ff1680611334575061133461130a565b80611342575060005460ff16155b61137d5760405162461bcd60e51b815260040180806020018281038252602e815260200180611f46602e913960400191505060405180910390fd5b600054610100900460ff161580156113a8576000805460ff1961ff0019909116610100171660011790555b6113b0611a51565b6113b8611af1565b80156103d5576000805461ff001916905550565b604080518082018252601981527f7472616e7366657228616464726573732c75696e74323536290000000000000060209182015281516001600160a01b0385811660248301526044808301869052845180840390910181526064909201845291810180516001600160e01b031663a9059cbb60e01b17815292518151600094859489169392918291908083835b602083106114785780518252601f199092019160209182019101611459565b6001836020036101000a0380198251168184511680821785525050505050509050019150506000604051808303816000865af19150503d80600081146114da576040519150601f19603f3d011682016040523d82523d6000602084013e6114df565b606091505b509150915081801561150d57508051158061150d575080806020019051602081101561150a57600080fd5b50515b61155e576040805162461bcd60e51b815260206004820152601f60248201527f5472616e7366657248656c7065723a207472616e73666572206661696c656400604482015290519081900360640190fd5b5050505050565b806115a15760405162461bcd60e51b8152600401808060200182810382526027815260200180611fce6027913960400191505060405180910390fd5b60006115ab610541565b6001600160a01b0384166000908152606c60209081526040808320815160c0810183528154815260018201549381019390935260028101549183019190915260038101546060830152600481015460808301526005015460a08201529192508313801561161757508051155b1561164d578181606001511461164d576001600160a01b0384166000908152606c60205260409020600301829055606081018290525b818160600151141561171b57600061166c846104c88460000151610fa6565b905060008112156116ae5760405162461bcd60e51b815260040180806020018281038252602f815260200180612102602f913960400191505060405180910390fd5b60006116b98261105c565b90506068548111156116fc5760405162461bcd60e51b815260040180806020018281038252602f815260200180611dcc602f913960400191505060405180910390fd5b6001600160a01b0386166000908152606c60205260409020555061186d565b6040810151158061172f5750818160400151145b61176a5760405162461bcd60e51b8152600401808060200182810382526031815260200180611d9b6031913960400191505060405180910390fd5b602081015160009061177c9085610fee565b905060006117976117908460000151610fa6565b8390610fee565b905060008112156117d95760405162461bcd60e51b815260040180806020018281038252602f815260200180612102602f913960400191505060405180910390fd5b6068546117e58261105c565b11156118225760405162461bcd60e51b815260040180806020018281038252602f815260200180611dcc602f913960400191505060405180910390fd5b6001600160a01b0386166000908152606c602052604090819020600101839055830151841461186a576001600160a01b0386166000908152606c602052604090206002018490555b50505b61187f6104ce846104c8606b54610fa6565b606b81905560675410156118c45760405162461bcd60e51b81526004018080602001828103825260308152602001806120266030913960400191505060405180910390fd5b600083131561193a576118ef84306118db8661105c565b6069546001600160a01b0316929190611bea565b81846001600160a01b03167ff94991dcbea6e8ac439cbc93bd9c62a4d39f04e0ad656df9a703f13552c2787f6119248661105c565b60408051918252519081900360200190a3611a45565b816001018160a00151148061195e5750608081015115801561195e575060a0810151155b6119995760405162461bcd60e51b8152600401808060200182810382526039815260200180611f746039913960400191505060405180910390fd5b6119b36119a88460000361105c565b608083015190611173565b6001600160a01b0385166000908152606c602052604090206004015560a08101516119fb576001600160a01b0384166000908152606c60205260409020600183016005909101555b81846001600160a01b03167fbd2f3340a1f78833d0b27aae4933bdc20c8e2e3b024b090acff471f6a834ae27611a338660000361105c565b60408051918252519081900360200190a35b50505050565b3b151590565b600054610100900460ff1680611a6a5750611a6a61130a565b80611a78575060005460ff16155b611ab35760405162461bcd60e51b815260040180806020018281038252602e815260200180611f46602e913960400191505060405180910390fd5b600054610100900460ff161580156113b8576000805460ff1961ff00199091166101001716600117905580156103d5576000805461ff001916905550565b600054610100900460ff1680611b0a5750611b0a61130a565b80611b18575060005460ff16155b611b535760405162461bcd60e51b815260040180806020018281038252602e815260200180611f46602e913960400191505060405180910390fd5b600054610100900460ff16158015611b7e576000805460ff1961ff0019909116610100171660011790555b6000611b886111cd565b603380546001600160a01b0319166001600160a01b038316908117909155604051919250906000907f8be0079c531659141344cd1fd0a4f28419497f9722a3daafe3b4186f6b6457e0908290a35080156103d5576000805461ff001916905550565b600080856001600160a01b0316604051806060016040528060258152602001611dfb602591398051602091820120604080516001600160a01b03808b166024830152891660448201526064808201899052825180830390910181526084909101825292830180516001600160e01b03166001600160e01b0319909316929092178252518251909182918083835b60208310611c965780518252601f199092019160209182019101611c77565b6001836020036101000a0380198251168184511680821785525050505050509050019150506000604051808303816000865af19150503d8060008114611cf8576040519150601f19603f3d011682016040523d82523d6000602084013e611cfd565b606091505b5091509150818015611d2b575080511580611d2b5750808060200190516020811015611d2857600080fd5b50515b611d665760405162461bcd60e51b81526004018080602001828103825260238152602001806121316023913960400191505060405180910390fd5b50505050505056fe4c6e5661756c7444796e616d6963496e746572657374506f6f6c3a207261746520616c7265616479207365744c6e5661756c7444796e616d6963496e746572657374506f6f6c3a20616d6f756e74206368616e67652070656e64696e674c6e5661756c7444796e616d6963496e746572657374506f6f6c3a2075736572206f766572737562736372696265647472616e7366657246726f6d28616464726573732c616464726573732c75696e74323536294f776e61626c653a206e6577206f776e657220697320746865207a65726f20616464726573734c6e5661756c7444796e616d6963496e746572657374506f6f6c3a20696e76616c69642074696d652072616e67654c6e5661756c7444796e616d6963496e746572657374506f6f6c3a207a65726f20737562736372697074696f6e206c696d69745369676e6564536166654d6174683a206164646974696f6e206f766572666c6f774c6e5661756c7444796e616d6963496e746572657374506f6f6c3a207a65726f20726174654c6e5661756c7444796e616d6963496e746572657374506f6f6c3a20696e76616c696420706572696f642072616e67654c6e5661756c7444796e616d6963496e746572657374506f6f6c3a207a65726f206475726174696f6e496e697469616c697a61626c653a20636f6e747261637420697320616c726561647920696e697469616c697a65644c6e5661756c7444796e616d6963496e746572657374506f6f6c3a2077697468647261772070656e64696e6720726566756e64206669727374536166654d6174683a206d756c7469706c69636174696f6e206f766572666c6f774c6e5661756c7444796e616d6963496e746572657374506f6f6c3a207a65726f20616d6f756e744c6e5661756c7444796e616d6963496e746572657374506f6f6c3a20696e7465726573742072617465206e6f74207365744c6e5661756c7444796e616d6963496e746572657374506f6f6c3a20746f74616c206f766572737562736372696265644c6e5661756c7444796e616d6963496e746572657374506f6f6c3a20726566756e64207374696c6c2070656e64696e674c6e5661756c7444796e616d6963496e746572657374506f6f6c3a20706572696f64206e6f7420656e6465644c6e5661756c7444796e616d6963496e746572657374506f6f6c3a207a65726f206164647265737353616665436173743a2076616c756520646f65736e27742066697420696e20616e20696e743235364c6e5661756c7444796e616d6963496e746572657374506f6f6c3a20696e73756666696369656e7420616d6f756e745472616e7366657248656c7065723a207472616e7366657246726f6d206661696c65644c6e5661756c7444796e616d6963496e746572657374506f6f6c3a206e6f20726566756e642070656e64696e674c6e5661756c7444796e616d6963496e746572657374506f6f6c3a20756e65787065637465642070656e64696e67206368616e6765734c6e5661756c7444796e616d6963496e746572657374506f6f6c3a20696e76616c696420706572696f64206964a2646970667358221220d6b646b54b0961bf5635f1cb4501b140d91aa9f1cbeabec9daf95f2642cf657c64736f6c63430007060033",
  "linkReferences": {},
  "deployedLinkReferences": {}
}