{
  "_format": "hh-sol-artifact-1",
  "contractName": "TokenEscrow",
  "sourceName": "contracts/TokenEscrow.sol",
  "abi": [
    {
      "anonymous": false,
      "inputs": [
        {
          "indexed": true,
          "internalType": "address",
          "name": "user",
          "type": "address"
        },
        {
          "indexed": false,
          "internalType": "uint256",
          "name": "amount",
          "type": "uint256"
        },
        {
          "indexed": false,
          "internalType": "uint256",
          "name": "unlockTime",
          "type": "uint256"
        }
      ],
      "name": "CliffAdded",
      "type": "event"
    },
    {
      "anonymous": false,
      "inputs": [
        {
          "indexed": true,
          "internalType": "address",
          "name": "user",
          "type": "address"
        },
        {
          "indexed": false,
          "internalType": "uint256",
          "name": "amount",
          "type": "uint256"
        }
      ],
      "name": "CliffWithdrawn",
      "type": "event"
    },
    {
      "anonymous": false,
      "inputs": [
        {
          "indexed": true,
          "internalType": "address",
          "name": "previousOwner",
          "type": "address"
        },
        {
          "indexed": true,
          "internalType": "address",
          "name": "newOwner",
          "type": "address"
        }
      ],
      "name": "OwnershipTransferred",
      "type": "event"
    },
    {
      "anonymous": false,
      "inputs": [
        {
          "indexed": true,
          "internalType": "address",
          "name": "user",
          "type": "address"
        },
        {
          "indexed": false,
          "internalType": "uint256",
          "name": "amount",
          "type": "uint256"
        }
      ],
      "name": "TokenVested",
      "type": "event"
    },
    {
      "anonymous": false,
      "inputs": [
        {
          "indexed": true,
          "internalType": "address",
          "name": "user",
          "type": "address"
        },
        {
          "indexed": false,
          "internalType": "uint256",
          "name": "amount",
          "type": "uint256"
        },
        {
          "indexed": false,
          "internalType": "uint256",
          "name": "startTime",
          "type": "uint256"
        },
        {
          "indexed": false,
          "internalType": "uint256",
          "name": "endTime",
          "type": "uint256"
        },
        {
          "indexed": false,
          "internalType": "uint256",
          "name": "step",
          "type": "uint256"
        }
      ],
      "name": "VestingScheduleAdded",
      "type": "event"
    },
    {
      "anonymous": false,
      "inputs": [
        {
          "indexed": true,
          "internalType": "address",
          "name": "user",
          "type": "address"
        }
      ],
      "name": "VestingScheduleRemoved",
      "type": "event"
    },
    {
      "inputs": [
        {
          "internalType": "contract IERC20Upgradeable",
          "name": "_token",
          "type": "address"
        }
      ],
      "name": "__TokenEscrow_init",
      "outputs": [],
      "stateMutability": "nonpayable",
      "type": "function"
    },
    {
      "inputs": [
        {
          "internalType": "address",
          "name": "",
          "type": "address"
        }
      ],
      "name": "cliffs",
      "outputs": [
        {
          "internalType": "uint128",
          "name": "amount",
          "type": "uint128"
        },
        {
          "internalType": "uint32",
          "name": "unlockTime",
          "type": "uint32"
        }
      ],
      "stateMutability": "view",
      "type": "function"
    },
    {
      "inputs": [
        {
          "internalType": "address",
          "name": "user",
          "type": "address"
        }
      ],
      "name": "getWithdrawableAmount",
      "outputs": [
        {
          "internalType": "uint256",
          "name": "",
          "type": "uint256"
        }
      ],
      "stateMutability": "view",
      "type": "function"
    },
    {
      "inputs": [],
      "name": "owner",
      "outputs": [
        {
          "internalType": "address",
          "name": "",
          "type": "address"
        }
      ],
      "stateMutability": "view",
      "type": "function"
    },
    {
      "inputs": [
        {
          "internalType": "address",
          "name": "user",
          "type": "address"
        }
      ],
      "name": "removeVestingSchedule",
      "outputs": [],
      "stateMutability": "nonpayable",
      "type": "function"
    },
    {
      "inputs": [],
      "name": "renounceOwnership",
      "outputs": [],
      "stateMutability": "nonpayable",
      "type": "function"
    },
    {
      "inputs": [
        {
          "internalType": "address",
          "name": "user",
          "type": "address"
        },
        {
          "internalType": "uint256",
          "name": "amount",
          "type": "uint256"
        },
        {
          "internalType": "uint256",
          "name": "unlockTime",
          "type": "uint256"
        }
      ],
      "name": "setCliff",
      "outputs": [],
      "stateMutability": "nonpayable",
      "type": "function"
    },
    {
      "inputs": [
        {
          "internalType": "address",
          "name": "user",
          "type": "address"
        },
        {
          "internalType": "uint256",
          "name": "amount",
          "type": "uint256"
        },
        {
          "internalType": "uint256",
          "name": "startTime",
          "type": "uint256"
        },
        {
          "internalType": "uint256",
          "name": "endTime",
          "type": "uint256"
        },
        {
          "internalType": "uint256",
          "name": "step",
          "type": "uint256"
        }
      ],
      "name": "setVestingSchedule",
      "outputs": [],
      "stateMutability": "nonpayable",
      "type": "function"
    },
    {
      "inputs": [],
      "name": "token",
      "outputs": [
        {
          "internalType": "contract IERC20Upgradeable",
          "name": "",
          "type": "address"
        }
      ],
      "stateMutability": "view",
      "type": "function"
    },
    {
      "inputs": [
        {
          "internalType": "address",
          "name": "newOwner",
          "type": "address"
        }
      ],
      "name": "transferOwnership",
      "outputs": [],
      "stateMutability": "nonpayable",
      "type": "function"
    },
    {
      "inputs": [
        {
          "internalType": "address",
          "name": "",
          "type": "address"
        }
      ],
      "name": "vestingSchedules",
      "outputs": [
        {
          "internalType": "uint128",
          "name": "amount",
          "type": "uint128"
        },
        {
          "internalType": "uint32",
          "name": "startTime",
          "type": "uint32"
        },
        {
          "internalType": "uint32",
          "name": "endTime",
          "type": "uint32"
        },
        {
          "internalType": "uint32",
          "name": "step",
          "type": "uint32"
        },
        {
          "internalType": "uint32",
          "name": "lastClaimTime",
          "type": "uint32"
        }
      ],
      "stateMutability": "view",
      "type": "function"
    },
    {
      "inputs": [],
      "name": "withdraw",
      "outputs": [],
      "stateMutability": "nonpayable",
      "type": "function"
    }
  ],
  "bytecode": "0x608060405234801561001057600080fd5b5061198c806100206000396000f3fe608060405234801561001057600080fd5b50600436106100b45760003560e01c806396c6bd621161007157806396c6bd621461016d578063cbbacd48146101ab578063f2fde38b146101f9578063f67771751461021f578063fc0c546a14610257578063fdb20ccb1461025f576100b4565b80631dcf0b30146100b9578063322121c5146100e15780633ccfd60b1461010757806360c435931461010f578063715018a6146101415780638da5cb5b14610149575b600080fd5b6100df600480360360208110156100cf57600080fd5b50356001600160a01b03166102c5565b005b6100df600480360360208110156100f757600080fd5b50356001600160a01b03166103e2565b6100df6104e5565b6100df6004803603606081101561012557600080fd5b506001600160a01b0381351690602081013590604001356106da565b6100df6109af565b610151610a5b565b604080516001600160a01b039092168252519081900360200190f35b6100df600480360360a081101561018357600080fd5b506001600160a01b038135169060208101359060408101359060608101359060800135610a6a565b6101d1600480360360208110156101c157600080fd5b50356001600160a01b0316610f9a565b604080516001600160801b03909316835263ffffffff90911660208301528051918290030190f35b6100df6004803603602081101561020f57600080fd5b50356001600160a01b0316610fc4565b6102456004803603602081101561023557600080fd5b50356001600160a01b03166110c7565b60408051918252519081900360200190f35b6101516110f8565b6102856004803603602081101561027557600080fd5b50356001600160a01b0316611107565b604080516001600160801b03909616865263ffffffff94851660208701529284168584015290831660608501529091166080830152519081900360a00190f35b600054610100900460ff16806102de57506102de61114f565b806102ec575060005460ff16155b6103275760405162461bcd60e51b815260040180806020018281038252602e8152602001806118a2602e913960400191505060405180910390fd5b600054610100900460ff16158015610352576000805460ff1961ff0019909116610100171660011790555b61035a611160565b6001600160a01b0382166103b1576040805162461bcd60e51b8152602060048201526019602482015278546f6b656e457363726f773a207a65726f206164647265737360381b604482015290519081900360640190fd5b606580546001600160a01b0319166001600160a01b03841617905580156103de576000805461ff00191690555b5050565b6103ea611212565b6001600160a01b03166103fb610a5b565b6001600160a01b031614610444576040805162461bcd60e51b815260206004820181905260248201526000805160206118f1833981519152604482015290519081900360640190fd5b6001600160a01b0381166000908152606660205260409020546001600160801b03166104a15760405162461bcd60e51b81526004018080602001828103825260258152602001806119326025913960400191505060405180910390fd5b6001600160a01b038116600081815260666020526040808220829055517fa2063a7b6a820b839305022b1b2727065955d94dff81c1960319d17340492ae29190a250565b6000806000806104f433611216565b91955092509050831561054757801561051c5733600090815260666020526040812055610547565b33600090815260666020526040902080546001600160e01b0316600160e01b63ffffffff8516021790555b505061055233611499565b905080156105785733600090815260676020526040902080546001600160a01b03191690555b6000610584838361151a565b9050600081116105db576040805162461bcd60e51b815260206004820181905260248201527f546f6b656e457363726f773a206e6f7468696e6720746f207769746864726177604482015290519081900360640190fd5b82156106185760408051848152905133917f7e04575a9d5f6038ea6ee0bb1a2cfe0ae38555fddafec1dec4d69b504b72ba18919081900360200190a25b81156106555760408051838152905133917f4760c4a06f92ab4bd4ca5dd4d42ae34d9593ee84905f323103c4e307a77a083b919081900360200190a25b6065546040805163a9059cbb60e01b81523360048201526024810184905290516001600160a01b039092169163a9059cbb916044808201926020929091908290030181600087803b1580156106a957600080fd5b505af11580156106bd573d6000803e3d6000fd5b505050506040513d60208110156106d357600080fd5b5050505050565b6106e2611212565b6001600160a01b03166106f3610a5b565b6001600160a01b03161461073c576040805162461bcd60e51b815260206004820181905260248201526000805160206118f1833981519152604482015290519081900360640190fd5b6001600160a01b038316610793576040805162461bcd60e51b8152602060048201526019602482015278546f6b656e457363726f773a207a65726f206164647265737360381b604482015290519081900360640190fd5b600082116107e3576040805162461bcd60e51b8152602060048201526018602482015277151bdad95b915cd8dc9bddce881e995c9bc8185b5bdd5b9d60421b604482015290519081900360640190fd5b6001600160a01b0383166000908152606760205260409020546001600160801b0316156108415760405162461bcd60e51b81526004018080602001828103825260218152602001806119116021913960400191505060405180910390fd5b81826001600160801b03161461089e576040805162461bcd60e51b815260206004820152601c60248201527f546f6b656e457363726f773a20616d6f756e74206f766572666c6f7700000000604482015290519081900360640190fd5b808163ffffffff16146108f8576040805162461bcd60e51b815260206004820181905260248201527f546f6b656e457363726f773a20756e6c6f636b54696d65206f766572666c6f77604482015290519081900360640190fd5b6040805180820182526001600160801b03848116825263ffffffff84811660208085019182526001600160a01b0389166000818152606783528790209551865493516fffffffffffffffffffffffffffffffff1990941695169490941763ffffffff60801b1916600160801b9290931691909102919091179092558251858152918201849052825190927ff8b15c1d1d2cee19d6d73c47c25b307e917d1958965f91de496cde8d2df8f630928290030190a2505050565b6109b7611212565b6001600160a01b03166109c8610a5b565b6001600160a01b031614610a11576040805162461bcd60e51b815260206004820181905260248201526000805160206118f1833981519152604482015290519081900360640190fd5b6033546040516000916001600160a01b0316907f8be0079c531659141344cd1fd0a4f28419497f9722a3daafe3b4186f6b6457e0908390a3603380546001600160a01b0319169055565b6033546001600160a01b031690565b610a72611212565b6001600160a01b0316610a83610a5b565b6001600160a01b031614610acc576040805162461bcd60e51b815260206004820181905260248201526000805160206118f1833981519152604482015290519081900360640190fd5b6001600160a01b038516610b23576040805162461bcd60e51b8152602060048201526019602482015278546f6b656e457363726f773a207a65726f206164647265737360381b604482015290519081900360640190fd5b60008411610b73576040805162461bcd60e51b8152602060048201526018602482015277151bdad95b915cd8dc9bddce881e995c9bc8185b5bdd5b9d60421b604482015290519081900360640190fd5b818310610bc7576040805162461bcd60e51b815260206004820152601f60248201527f546f6b656e457363726f773a20696e76616c69642074696d652072616e676500604482015290519081900360640190fd5b600081118015610be7575080610bdd838561157d565b81610be457fe5b06155b610c38576040805162461bcd60e51b815260206004820152601960248201527f546f6b656e457363726f773a20696e76616c6964207374657000000000000000604482015290519081900360640190fd5b6001600160a01b0385166000908152606660205260409020546001600160801b031615610c965760405162461bcd60e51b815260040180806020018281038252602c815260200180611876602c913960400191505060405180910390fd5b83846001600160801b031614610cf3576040805162461bcd60e51b815260206004820152601c60248201527f546f6b656e457363726f773a20616d6f756e74206f766572666c6f7700000000604482015290519081900360640190fd5b828363ffffffff1614610d4d576040805162461bcd60e51b815260206004820152601f60248201527f546f6b656e457363726f773a20737461727454696d65206f766572666c6f7700604482015290519081900360640190fd5b818263ffffffff1614610da7576040805162461bcd60e51b815260206004820152601d60248201527f546f6b656e457363726f773a20656e6454696d65206f766572666c6f77000000604482015290519081900360640190fd5b808163ffffffff1614610e01576040805162461bcd60e51b815260206004820152601a60248201527f546f6b656e457363726f773a2073746570206f766572666c6f77000000000000604482015290519081900360640190fd5b6040518060a00160405280856001600160801b031681526020018463ffffffff1681526020018363ffffffff1681526020018263ffffffff1681526020018463ffffffff1681525060666000876001600160a01b03166001600160a01b0316815260200190815260200160002060008201518160000160006101000a8154816001600160801b0302191690836001600160801b0316021790555060208201518160000160106101000a81548163ffffffff021916908363ffffffff16021790555060408201518160000160146101000a81548163ffffffff021916908363ffffffff16021790555060608201518160000160186101000a81548163ffffffff021916908363ffffffff160217905550608082015181600001601c6101000a81548163ffffffff021916908363ffffffff160217905550905050846001600160a01b03167fb4c37d22ce880964bc31fcdc6dca8795b511cdccbf363ca5f2f7855a9e4356b6858585856040518085815260200184815260200183815260200182815260200194505050505060405180910390a25050505050565b6067602052600090815260409020546001600160801b03811690600160801b900463ffffffff1682565b610fcc611212565b6001600160a01b0316610fdd610a5b565b6001600160a01b031614611026576040805162461bcd60e51b815260206004820181905260248201526000805160206118f1833981519152604482015290519081900360640190fd5b6001600160a01b03811661106b5760405162461bcd60e51b81526004018080602001828103825260268152602001806118506026913960400191505060405180910390fd5b6033546040516001600160a01b038084169216907f8be0079c531659141344cd1fd0a4f28419497f9722a3daafe3b4186f6b6457e090600090a3603380546001600160a01b0319166001600160a01b0392909216919091179055565b6000806110d383611216565b5050905060006110e284611499565b90506110ee828261151a565b925050505b919050565b6065546001600160a01b031681565b6066602052600090815260409020546001600160801b0381169063ffffffff600160801b8204811691600160a01b8104821691600160c01b8204811691600160e01b90041685565b600061115a306115da565b15905090565b600054610100900460ff1680611179575061117961114f565b80611187575060005460ff16155b6111c25760405162461bcd60e51b815260040180806020018281038252602e8152602001806118a2602e913960400191505060405180910390fd5b600054610100900460ff161580156111ed576000805460ff1961ff0019909116610100171660011790555b6111f56115e0565b6111fd611680565b801561120f576000805461ff00191690555b50565b3390565b6001600160a01b0381166000908152606660209081526040808320815160a08101835290546001600160801b03811680835263ffffffff600160801b8304811695840195909552600160a01b8204851693830193909352600160c01b810484166060830152600160e01b90049092166080830152829182916112a357600080600093509350935050611492565b806020015163ffffffff164210156112c657600080600093509350935050611492565b6000611334611324836020015163ffffffff1661131e856060015163ffffffff16611318876060015163ffffffff16611312896020015163ffffffff164261157d90919063ffffffff16565b90611779565b906117e0565b9061151a565b836040015163ffffffff16611839565b9050816080015163ffffffff1681116113595760008060009450945094505050611492565b6000611390836060015163ffffffff16611312856020015163ffffffff16866040015163ffffffff1661157d90919063ffffffff16565b9050826040015163ffffffff1682141561142a5760006113db846060015163ffffffff16611312866020015163ffffffff16876080015163ffffffff1661157d90919063ffffffff16565b90506000611417611406836113188689600001516001600160801b031661177990919063ffffffff16565b86516001600160801b03169061157d565b9750929550600194506114929350505050565b6000611457846060015163ffffffff16611312866080015163ffffffff168661157d90919063ffffffff16565b9050600061147f826113188588600001516001600160801b031661177990919063ffffffff16565b9750929550600094506114929350505050565b9193909250565b6001600160a01b03811660009081526067602090815260408083208151808301909252546001600160801b038116808352600160801b90910463ffffffff1692820192909252906114ee5760009150506110f3565b806020015163ffffffff16421015611507576000611513565b80516001600160801b03165b9392505050565b600082820183811015611574576040805162461bcd60e51b815260206004820152601b60248201527f536166654d6174683a206164646974696f6e206f766572666c6f770000000000604482015290519081900360640190fd5b90505b92915050565b6000828211156115d4576040805162461bcd60e51b815260206004820152601e60248201527f536166654d6174683a207375627472616374696f6e206f766572666c6f770000604482015290519081900360640190fd5b50900390565b3b151590565b600054610100900460ff16806115f957506115f961114f565b80611607575060005460ff16155b6116425760405162461bcd60e51b815260040180806020018281038252602e8152602001806118a2602e913960400191505060405180910390fd5b600054610100900460ff161580156111fd576000805460ff1961ff001990911661010017166001179055801561120f576000805461ff001916905550565b600054610100900460ff1680611699575061169961114f565b806116a7575060005460ff16155b6116e25760405162461bcd60e51b815260040180806020018281038252602e8152602001806118a2602e913960400191505060405180910390fd5b600054610100900460ff1615801561170d576000805460ff1961ff0019909116610100171660011790555b6000611717611212565b603380546001600160a01b0319166001600160a01b038316908117909155604051919250906000907f8be0079c531659141344cd1fd0a4f28419497f9722a3daafe3b4186f6b6457e0908290a350801561120f576000805461ff001916905550565b60008082116117cf576040805162461bcd60e51b815260206004820152601a60248201527f536166654d6174683a206469766973696f6e206279207a65726f000000000000604482015290519081900360640190fd5b8183816117d857fe5b049392505050565b6000826117ef57506000611577565b828202828482816117fc57fe5b04146115745760405162461bcd60e51b81526004018080602001828103825260218152602001806118d06021913960400191505060405180910390fd5b60008183106118485781611574565b509091905056fe4f776e61626c653a206e6577206f776e657220697320746865207a65726f2061646472657373546f6b656e457363726f773a2076657374696e67207363686564756c6520616c726561647920657869737473496e697469616c697a61626c653a20636f6e747261637420697320616c726561647920696e697469616c697a6564536166654d6174683a206d756c7469706c69636174696f6e206f766572666c6f774f776e61626c653a2063616c6c6572206973206e6f7420746865206f776e6572546f6b656e457363726f773a20636c69666620616c726561647920657869737473546f6b656e457363726f773a2076657374696e67207363686564756c65206e6f7420736574a2646970667358221220549f4b1528aa50326354cbdae7dff1d23bb3ad07a551ca16df4f3d320fd0b5fe64736f6c63430007060033",
  "linkReferences": {},
  "deployedLinkReferences": {}
}